{
  "contractName": "Dice",
  "abi": [
    {
      "constant": false,
      "inputs": [
        {
          "name": "newLotteryRate",
          "type": "uint256"
        }
      ],
      "name": "setLotteryRate",
      "outputs": [],
      "payable": false,
      "stateMutability": "nonpayable",
      "type": "function"
    },
    {
      "constant": true,
      "inputs": [],
      "name": "minBusinessFeePayment",
      "outputs": [
        {
          "name": "",
          "type": "uint256"
        }
      ],
      "payable": false,
      "stateMutability": "view",
      "type": "function"
    },
    {
      "constant": true,
      "inputs": [],
      "name": "maximumRisk",
      "outputs": [
        {
          "name": "",
          "type": "uint256"
        }
      ],
      "payable": false,
      "stateMutability": "view",
      "type": "function"
    },
    {
      "constant": true,
      "inputs": [],
      "name": "roundCount",
      "outputs": [
        {
          "name": "",
          "type": "uint256"
        }
      ],
      "payable": false,
      "stateMutability": "view",
      "type": "function"
    },
    {
      "constant": false,
      "inputs": [
        {
          "name": "newMinBusinessFeePayment",
          "type": "uint256"
        }
      ],
      "name": "setminBusinessFeePayment",
      "outputs": [],
      "payable": false,
      "stateMutability": "nonpayable",
      "type": "function"
    },
    {
      "constant": true,
      "inputs": [],
      "name": "businessAddress",
      "outputs": [
        {
          "name": "",
          "type": "address"
        }
      ],
      "payable": false,
      "stateMutability": "view",
      "type": "function"
    },
    {
      "constant": false,
      "inputs": [],
      "name": "startLottery",
      "outputs": [],
      "payable": false,
      "stateMutability": "nonpayable",
      "type": "function"
    },
    {
      "constant": true,
      "inputs": [],
      "name": "minimumRisk",
      "outputs": [
        {
          "name": "",
          "type": "uint256"
        }
      ],
      "payable": false,
      "stateMutability": "view",
      "type": "function"
    },
    {
      "constant": false,
      "inputs": [
        {
          "name": "_myid",
          "type": "bytes32"
        },
        {
          "name": "_result",
          "type": "string"
        }
      ],
      "name": "__callback",
      "outputs": [],
      "payable": false,
      "stateMutability": "nonpayable",
      "type": "function"
    },
    {
      "constant": true,
      "inputs": [],
      "name": "totalBusinessFee",
      "outputs": [
        {
          "name": "",
          "type": "uint256"
        }
      ],
      "payable": false,
      "stateMutability": "view",
      "type": "function"
    },
    {
      "constant": false,
      "inputs": [
        {
          "name": "myid",
          "type": "bytes32"
        },
        {
          "name": "result",
          "type": "string"
        },
        {
          "name": "proof",
          "type": "bytes"
        }
      ],
      "name": "__callback",
      "outputs": [],
      "payable": false,
      "stateMutability": "nonpayable",
      "type": "function"
    },
    {
      "constant": true,
      "inputs": [],
      "name": "jackpot",
      "outputs": [
        {
          "name": "",
          "type": "uint256"
        }
      ],
      "payable": false,
      "stateMutability": "view",
      "type": "function"
    },
    {
      "constant": true,
      "inputs": [
        {
          "name": "",
          "type": "bytes32"
        }
      ],
      "name": "queryIdToRounds",
      "outputs": [
        {
          "name": "",
          "type": "uint256"
        }
      ],
      "payable": false,
      "stateMutability": "view",
      "type": "function"
    },
    {
      "constant": true,
      "inputs": [],
      "name": "gameRunning",
      "outputs": [
        {
          "name": "",
          "type": "bool"
        }
      ],
      "payable": false,
      "stateMutability": "view",
      "type": "function"
    },
    {
      "constant": true,
      "inputs": [],
      "name": "lotteryOn",
      "outputs": [
        {
          "name": "",
          "type": "bool"
        }
      ],
      "payable": false,
      "stateMutability": "view",
      "type": "function"
    },
    {
      "constant": false,
      "inputs": [],
      "name": "renounceOwnership",
      "outputs": [],
      "payable": false,
      "stateMutability": "nonpayable",
      "type": "function"
    },
    {
      "constant": true,
      "inputs": [
        {
          "name": "",
          "type": "bytes32"
        }
      ],
      "name": "secretQueryIdToRounds",
      "outputs": [
        {
          "name": "",
          "type": "uint256"
        }
      ],
      "payable": false,
      "stateMutability": "view",
      "type": "function"
    },
    {
      "constant": true,
      "inputs": [],
      "name": "owner",
      "outputs": [
        {
          "name": "",
          "type": "address"
        }
      ],
      "payable": false,
      "stateMutability": "view",
      "type": "function"
    },
    {
      "constant": true,
      "inputs": [],
      "name": "isOwner",
      "outputs": [
        {
          "name": "",
          "type": "bool"
        }
      ],
      "payable": false,
      "stateMutability": "view",
      "type": "function"
    },
    {
      "constant": true,
      "inputs": [],
      "name": "minJackpot",
      "outputs": [
        {
          "name": "",
          "type": "uint256"
        }
      ],
      "payable": false,
      "stateMutability": "view",
      "type": "function"
    },
    {
      "constant": true,
      "inputs": [],
      "name": "minimumBet",
      "outputs": [
        {
          "name": "",
          "type": "uint256"
        }
      ],
      "payable": false,
      "stateMutability": "view",
      "type": "function"
    },
    {
      "constant": true,
      "inputs": [],
      "name": "feeJackpot",
      "outputs": [
        {
          "name": "",
          "type": "uint256"
        }
      ],
      "payable": false,
      "stateMutability": "view",
      "type": "function"
    },
    {
      "constant": false,
      "inputs": [],
      "name": "stopLottery",
      "outputs": [],
      "payable": false,
      "stateMutability": "nonpayable",
      "type": "function"
    },
    {
      "constant": false,
      "inputs": [],
      "name": "fundGame",
      "outputs": [],
      "payable": true,
      "stateMutability": "payable",
      "type": "function"
    },
    {
      "constant": true,
      "inputs": [],
      "name": "lotteryRate",
      "outputs": [
        {
          "name": "",
          "type": "uint256"
        }
      ],
      "payable": false,
      "stateMutability": "view",
      "type": "function"
    },
    {
      "constant": false,
      "inputs": [
        {
          "name": "newOwner",
          "type": "address"
        }
      ],
      "name": "transferOwnership",
      "outputs": [],
      "payable": false,
      "stateMutability": "nonpayable",
      "type": "function"
    },
    {
      "constant": true,
      "inputs": [],
      "name": "gameRandomRange",
      "outputs": [
        {
          "name": "",
          "type": "uint256"
        }
      ],
      "payable": false,
      "stateMutability": "view",
      "type": "function"
    },
    {
      "inputs": [],
      "payable": false,
      "stateMutability": "nonpayable",
      "type": "constructor"
    },
    {
      "payable": true,
      "stateMutability": "payable",
      "type": "fallback"
    },
    {
      "anonymous": false,
      "inputs": [
        {
          "indexed": false,
          "name": "message",
          "type": "string"
        }
      ],
      "name": "GameStarted",
      "type": "event"
    },
    {
      "anonymous": false,
      "inputs": [
        {
          "indexed": false,
          "name": "_contract",
          "type": "address"
        },
        {
          "indexed": false,
          "name": "_player",
          "type": "address"
        },
        {
          "indexed": false,
          "name": "_risk",
          "type": "uint256"
        },
        {
          "indexed": false,
          "name": "_bet",
          "type": "uint256"
        }
      ],
      "name": "logPlayerBetAccepted",
      "type": "event"
    },
    {
      "anonymous": false,
      "inputs": [
        {
          "indexed": false,
          "name": "_contract",
          "type": "address"
        },
        {
          "indexed": false,
          "name": "_player",
          "type": "address"
        },
        {
          "indexed": false,
          "name": "_description",
          "type": "string"
        }
      ],
      "name": "logRollDice",
      "type": "event"
    },
    {
      "anonymous": false,
      "inputs": [
        {
          "indexed": false,
          "name": "_rolledDiceNumber",
          "type": "uint256"
        }
      ],
      "name": "logRolledDiceNumber",
      "type": "event"
    },
    {
      "anonymous": false,
      "inputs": [
        {
          "indexed": false,
          "name": "description",
          "type": "string"
        },
        {
          "indexed": false,
          "name": "_contract",
          "type": "address"
        },
        {
          "indexed": false,
          "name": "_player",
          "type": "address"
        },
        {
          "indexed": false,
          "name": "_rolledDiceNumber",
          "type": "uint256"
        },
        {
          "indexed": false,
          "name": "_betAmount",
          "type": "uint256"
        }
      ],
      "name": "logPlayerLose",
      "type": "event"
    },
    {
      "anonymous": false,
      "inputs": [
        {
          "indexed": false,
          "name": "description",
          "type": "string"
        },
        {
          "indexed": false,
          "name": "_contract",
          "type": "address"
        },
        {
          "indexed": false,
          "name": "_winner",
          "type": "address"
        },
        {
          "indexed": false,
          "name": "_rolledDiceNumber",
          "type": "uint256"
        },
        {
          "indexed": false,
          "name": "_profit",
          "type": "uint256"
        }
      ],
      "name": "logPlayerWins",
      "type": "event"
    },
    {
      "anonymous": false,
      "inputs": [
        {
          "indexed": false,
          "name": "description",
          "type": "string"
        }
      ],
      "name": "logNewOraclizeQuery",
      "type": "event"
    },
    {
      "anonymous": false,
      "inputs": [
        {
          "indexed": false,
          "name": "_contractBalance",
          "type": "uint256"
        }
      ],
      "name": "logContractBalance",
      "type": "event"
    },
    {
      "anonymous": false,
      "inputs": [
        {
          "indexed": false,
          "name": "description",
          "type": "string"
        },
        {
          "indexed": false,
          "name": "_ownerAddress",
          "type": "address"
        },
        {
          "indexed": false,
          "name": "_ownerBalance",
          "type": "uint256"
        }
      ],
      "name": "logJackpotBalance",
      "type": "event"
    },
    {
      "anonymous": false,
      "inputs": [
        {
          "indexed": false,
          "name": "description",
          "type": "string"
        },
        {
          "indexed": false,
          "name": "_playerAddress",
          "type": "address"
        },
        {
          "indexed": false,
          "name": "_winAmount",
          "type": "uint256"
        }
      ],
      "name": "logPayWinner",
      "type": "event"
    },
    {
      "anonymous": false,
      "inputs": [
        {
          "indexed": false,
          "name": "description",
          "type": "string"
        },
        {
          "indexed": false,
          "name": "_maxAllowedBet",
          "type": "uint256"
        }
      ],
      "name": "logMaxAllowedBet",
      "type": "event"
    },
    {
      "anonymous": false,
      "inputs": [
        {
          "indexed": false,
          "name": "roundId",
          "type": "uint256"
        },
        {
          "indexed": false,
          "name": "winner",
          "type": "address"
        },
        {
          "indexed": false,
          "name": "betAmount",
          "type": "uint256"
        },
        {
          "indexed": true,
          "name": "player",
          "type": "address"
        },
        {
          "indexed": false,
          "name": "choice",
          "type": "uint256"
        },
        {
          "indexed": false,
          "name": "rolledDiceNumber",
          "type": "uint256"
        },
        {
          "indexed": false,
          "name": "winAmount",
          "type": "uint256"
        }
      ],
      "name": "RoundResolved",
      "type": "event"
    },
    {
      "anonymous": false,
      "inputs": [
        {
          "indexed": false,
          "name": "winner",
          "type": "address"
        },
        {
          "indexed": false,
          "name": "jackpot",
          "type": "uint256"
        }
      ],
      "name": "LotteryWin",
      "type": "event"
    },
    {
      "anonymous": false,
      "inputs": [
        {
          "indexed": false,
          "name": "paidAddress",
          "type": "address"
        },
        {
          "indexed": false,
          "name": "amount",
          "type": "uint256"
        }
      ],
      "name": "Payment",
      "type": "event"
    },
    {
      "anonymous": false,
      "inputs": [
        {
          "indexed": false,
          "name": "message",
          "type": "string"
        },
        {
          "indexed": false,
          "name": "queryId",
          "type": "bytes32"
        }
      ],
      "name": "LogGetRandomness",
      "type": "event"
    },
    {
      "anonymous": false,
      "inputs": [
        {
          "indexed": true,
          "name": "previousOwner",
          "type": "address"
        },
        {
          "indexed": true,
          "name": "newOwner",
          "type": "address"
        }
      ],
      "name": "OwnershipTransferred",
      "type": "event"
    },
    {
      "constant": false,
      "inputs": [],
      "name": "startGame",
      "outputs": [],
      "payable": false,
      "stateMutability": "nonpayable",
      "type": "function"
    },
    {
      "constant": false,
      "inputs": [],
      "name": "stopGame",
      "outputs": [],
      "payable": false,
      "stateMutability": "nonpayable",
      "type": "function"
    },
    {
      "constant": true,
      "inputs": [
        {
          "name": "roundId",
          "type": "uint256"
        }
      ],
      "name": "getRoundInfo",
      "outputs": [
        {
          "name": "playerAddress",
          "type": "address"
        },
        {
          "name": "risk",
          "type": "uint256"
        },
        {
          "name": "betAmount",
          "type": "uint256"
        },
        {
          "name": "rolledDiceNumber",
          "type": "uint256"
        },
        {
          "name": "winner",
          "type": "address"
        },
        {
          "name": "isClosed",
          "type": "bool"
        }
      ],
      "payable": false,
      "stateMutability": "view",
      "type": "function"
    },
    {
      "constant": true,
      "inputs": [
        {
          "name": "betAmount",
          "type": "uint256"
        },
        {
          "name": "risk",
          "type": "uint256"
        }
      ],
      "name": "calculateProfit",
      "outputs": [
        {
          "name": "",
          "type": "uint256"
        }
      ],
      "payable": false,
      "stateMutability": "view",
      "type": "function"
    },
    {
      "constant": false,
      "inputs": [
        {
          "name": "_choice",
          "type": "uint256"
        }
      ],
      "name": "playSoloRound",
      "outputs": [
        {
          "name": "",
          "type": "uint256"
        }
      ],
      "payable": true,
      "stateMutability": "payable",
      "type": "function"
    },
    {
      "constant": false,
      "inputs": [
        {
          "name": "_myAddress",
          "type": "address"
        }
      ],
      "name": "withdrawFunds",
      "outputs": [],
      "payable": false,
      "stateMutability": "nonpayable",
      "type": "function"
    }
  ],
  "bytecode": "0x60806040526000600660006101000a81548160ff021916908315150217905550655af3107a4000600755661c6bf5263400006008556103e86002026009556000600a55662386f26fc10000600b5573fb6916095ca1df60bb79ce92ce3ea74c37c5d359600c60006101000a81548173ffffffffffffffffffffffffffffffffffffffff021916908373ffffffffffffffffffffffffffffffffffffffff1602179055506103e8601455670de0b6b3a7640000601555600160165560636017556611c37937e08000601855348015620000d657600080fd5b50336000806101000a81548173ffffffffffffffffffffffffffffffffffffffff021916908373ffffffffffffffffffffffffffffffffffffffff1602179055506000809054906101000a900473ffffffffffffffffffffffffffffffffffffffff1673ffffffffffffffffffffffffffffffffffffffff16600073ffffffffffffffffffffffffffffffffffffffff167f8be0079c531659141344cd1fd0a4f28419497f9722a3daafe3b4186f6b6457e060405160405180910390a3736f485c8bf6fc43ea212e93bbf8ce046c7f1cb475600260006101000a81548173ffffffffffffffffffffffffffffffffffffffff021916908373ffffffffffffffffffffffffffffffffffffffff1602179055506200024a60017f01000000000000000000000000000000000000000000000000000000000000000260107f0100000000000000000000000000000000000000000000000000000000000000021762000250640100000000026401000000009004565b62000c75565b600073ffffffffffffffffffffffffffffffffffffffff16600260009054906101000a900473ffffffffffffffffffffffffffffffffffffffff1673ffffffffffffffffffffffffffffffffffffffff161480620002e957506000620002e7600260009054906101000a900473ffffffffffffffffffffffffffffffffffffffff166200061e640100000000026401000000009004565b145b156200030c576200030a600062000629640100000000026401000000009004565b505b600260009054906101000a900473ffffffffffffffffffffffffffffffffffffffff1673ffffffffffffffffffffffffffffffffffffffff166338cc48316040518163ffffffff167c0100000000000000000000000000000000000000000000000000000000028152600401602060405180830381600087803b1580156200039357600080fd5b505af1158015620003a8573d6000803e3d6000fd5b505050506040513d6020811015620003bf57600080fd5b810190808051906020019092919050505073ffffffffffffffffffffffffffffffffffffffff16600160009054906101000a900473ffffffffffffffffffffffffffffffffffffffff1673ffffffffffffffffffffffffffffffffffffffff161415156200052c57600260009054906101000a900473ffffffffffffffffffffffffffffffffffffffff1673ffffffffffffffffffffffffffffffffffffffff166338cc48316040518163ffffffff167c0100000000000000000000000000000000000000000000000000000000028152600401602060405180830381600087803b158015620004ae57600080fd5b505af1158015620004c3573d6000803e3d6000fd5b505050506040513d6020811015620004da57600080fd5b8101908080519060200190929190505050600160006101000a81548173ffffffffffffffffffffffffffffffffffffffff021916908373ffffffffffffffffffffffffffffffffffffffff1602179055505b600160009054906101000a900473ffffffffffffffffffffffffffffffffffffffff1673ffffffffffffffffffffffffffffffffffffffff1663688dcfd7826040518263ffffffff167c010000000000000000000000000000000000000000000000000000000002815260040180827effffffffffffffffffffffffffffffffffffffffffffffffffffffffffffff19167effffffffffffffffffffffffffffffffffffffffffffffffffffffffffffff19168152602001915050600060405180830381600087803b1580156200060257600080fd5b505af115801562000617573d6000803e3d6000fd5b5050505050565b6000813b9050919050565b6000620006446200064b640100000000026401000000009004565b9050919050565b6000806200067c731d3b2638a7cc9f2cb3d298a3da7a90b67e5506ed6200061e640100000000026401000000009004565b11156200073157731d3b2638a7cc9f2cb3d298a3da7a90b67e5506ed600260006101000a81548173ffffffffffffffffffffffffffffffffffffffff021916908373ffffffffffffffffffffffffffffffffffffffff160217905550620007276040518060400160405280600b81526020017f6574685f6d61696e6e657400000000000000000000000000000000000000000081525062000baa640100000000026401000000009004565b6001905062000ba7565b60006200076173c03a2615d5efaf5f49f60b7bb6583eaec212fdf16200061e640100000000026401000000009004565b1115620008165773c03a2615d5efaf5f49f60b7bb6583eaec212fdf1600260006101000a81548173ffffffffffffffffffffffffffffffffffffffff021916908373ffffffffffffffffffffffffffffffffffffffff1602179055506200080c6040518060400160405280600c81526020017f6574685f726f707374656e33000000000000000000000000000000000000000081525062000baa640100000000026401000000009004565b6001905062000ba7565b60006200084673b7a07bcf2ba2f2703b24c0691b5278999c59ac7e6200061e640100000000026401000000009004565b1115620008fb5773b7a07bcf2ba2f2703b24c0691b5278999c59ac7e600260006101000a81548173ffffffffffffffffffffffffffffffffffffffff021916908373ffffffffffffffffffffffffffffffffffffffff160217905550620008f16040518060400160405280600981526020017f6574685f6b6f76616e000000000000000000000000000000000000000000000081525062000baa640100000000026401000000009004565b6001905062000ba7565b60006200092b73146500cfd35b22e4a392fe0adc06de1a1368ed486200061e640100000000026401000000009004565b1115620009e05773146500cfd35b22e4a392fe0adc06de1a1368ed48600260006101000a81548173ffffffffffffffffffffffffffffffffffffffff021916908373ffffffffffffffffffffffffffffffffffffffff160217905550620009d66040518060400160405280600b81526020017f6574685f72696e6b65627900000000000000000000000000000000000000000081525062000baa640100000000026401000000009004565b6001905062000ba7565b600062000a10736f485c8bf6fc43ea212e93bbf8ce046c7f1cb4756200061e640100000000026401000000009004565b111562000a7657736f485c8bf6fc43ea212e93bbf8ce046c7f1cb475600260006101000a81548173ffffffffffffffffffffffffffffffffffffffff021916908373ffffffffffffffffffffffffffffffffffffffff1602179055506001905062000ba7565b600062000aa67320e12a1f859b3feae5fb2a0a32c18f5a65555bbf6200061e640100000000026401000000009004565b111562000b0c577320e12a1f859b3feae5fb2a0a32c18f5a65555bbf600260006101000a81548173ffffffffffffffffffffffffffffffffffffffff021916908373ffffffffffffffffffffffffffffffffffffffff1602179055506001905062000ba7565b600062000b3c7351efaf4c8b3c9afbd5ab9f4bbc82784ab6ef8faa6200061e640100000000026401000000009004565b111562000ba2577351efaf4c8b3c9afbd5ab9f4bbc82784ab6ef8faa600260006101000a81548173ffffffffffffffffffffffffffffffffffffffff021916908373ffffffffffffffffffffffffffffffffffffffff1602179055506001905062000ba7565b600090505b90565b806003908051906020019062000bc292919062000bc6565b5050565b828054600181600116156101000203166002900490600052602060002090601f016020900481019282601f1062000c0957805160ff191683800117855562000c3a565b8280016001018555821562000c3a579182015b8281111562000c3957825182559160200191906001019062000c1c565b5b50905062000c49919062000c4d565b5090565b62000c7291905b8082111562000c6e57600081600090555060010162000c54565b5090565b90565b613fc38062000c856000396000f3fe60806040526004361061020b576000357c010000000000000000000000000000000000000000000000000000000090048063715018a61161012a578063c38a8afd116100bd578063e169bf6c1161008c578063e169bf6c14610a09578063e972261d14610a13578063f256473714610a6c578063f2fde38b14610a97578063fed67fe414610ae85761020b565b8063c38a8afd14610985578063c4e7b6a4146109b0578063d5c62498146109db578063d65ab5f2146109f25761020b565b80638da5cb5b116100f95780638da5cb5b146108925780638f32d59b146108e9578063911d018914610918578063b86a3159146109435761020b565b8063715018a6146107475780637de37f2a1461075e57806383bd72ba146107ad57806388c3ffb0146107c45761020b565b806327dc297e116101a25780636b31ee01116101715780636b31ee011461066f5780636b9303991461069a5780636e8c2caf146106e95780636f1573c3146107185761020b565b806327dc297e146103b85780633580ecd01461048a57806338bbfa50146104b557806368742da61461061e5761020b565b806312a0e070116101de57806312a0e070146102e45780631583deb21461031f578063160344e2146103765780631b9300e91461038d5761020b565b806306385b21146102285780630c07122214610263578063101a44061461028e578063127f0b3f146102b9575b61022034601254610b1390919063ffffffff16565b601281905550005b34801561023457600080fd5b506102616004803603602081101561024b57600080fd5b8101908080359060200190929190505050610b34565b005b34801561026f57600080fd5b50610278610b51565b6040518082815260200191505060405180910390f35b34801561029a57600080fd5b506102a3610b57565b6040518082815260200191505060405180910390f35b3480156102c557600080fd5b506102ce610b5d565b6040518082815260200191505060405180910390f35b3480156102f057600080fd5b5061031d6004803603602081101561030757600080fd5b8101908080359060200190929190505050610b63565b005b34801561032b57600080fd5b50610334610b80565b604051808273ffffffffffffffffffffffffffffffffffffffff1673ffffffffffffffffffffffffffffffffffffffff16815260200191505060405180910390f35b34801561038257600080fd5b5061038b610ba6565b005b34801561039957600080fd5b506103a2610ceb565b6040518082815260200191505060405180910390f35b3480156103c457600080fd5b50610488600480360360408110156103db57600080fd5b81019080803590602001909291908035906020019064010000000081111561040257600080fd5b82018360208201111561041457600080fd5b8035906020019184600183028401116401000000008311171561043657600080fd5b91908080601f016020809104026020016040519081016040528093929190818152602001838380828437600081840152601f19601f820116905080830192505050505050509192919290505050610cf1565b005b34801561049657600080fd5b5061049f610d34565b6040518082815260200191505060405180910390f35b3480156104c157600080fd5b5061061c600480360360608110156104d857600080fd5b8101908080359060200190929190803590602001906401000000008111156104ff57600080fd5b82018360208201111561051157600080fd5b8035906020019184600183028401116401000000008311171561053357600080fd5b91908080601f016020809104026020016040519081016040528093929190818152602001838380828437600081840152601f19601f8201169050808301925050505050505091929192908035906020019064010000000081111561059657600080fd5b8201836020820111156105a857600080fd5b803590602001918460018302840111640100000000831117156105ca57600080fd5b91908080601f016020809104026020016040519081016040528093929190818152602001838380828437600081840152601f19601f820116905080830192505050505050509192919290505050610d3a565b005b34801561062a57600080fd5b5061066d6004803603602081101561064157600080fd5b81019080803573ffffffffffffffffffffffffffffffffffffffff169060200190929190505050610dde565b005b34801561067b57600080fd5b50610684610df2565b6040518082815260200191505060405180910390f35b3480156106a657600080fd5b506106d3600480360360208110156106bd57600080fd5b8101908080359060200190929190505050610df8565b6040518082815260200191505060405180910390f35b3480156106f557600080fd5b506106fe610e10565b604051808215151515815260200191505060405180910390f35b34801561072457600080fd5b5061072d610e23565b604051808215151515815260200191505060405180910390f35b34801561075357600080fd5b5061075c610e36565b005b34801561076a57600080fd5b506107976004803603602081101561078157600080fd5b8101908080359060200190929190505050610f08565b6040518082815260200191505060405180910390f35b3480156107b957600080fd5b506107c2610f20565b005b3480156107d057600080fd5b506107fd600480360360208110156107e757600080fd5b8101908080359060200190929190505050610f32565b604051808773ffffffffffffffffffffffffffffffffffffffff1673ffffffffffffffffffffffffffffffffffffffff1681526020018681526020018581526020018481526020018373ffffffffffffffffffffffffffffffffffffffff1673ffffffffffffffffffffffffffffffffffffffff16815260200182151515158152602001965050505050505060405180910390f35b34801561089e57600080fd5b506108a76111d6565b604051808273ffffffffffffffffffffffffffffffffffffffff1673ffffffffffffffffffffffffffffffffffffffff16815260200191505060405180910390f35b3480156108f557600080fd5b506108fe6111ff565b604051808215151515815260200191505060405180910390f35b34801561092457600080fd5b5061092d611256565b6040518082815260200191505060405180910390f35b61096f6004803603602081101561095957600080fd5b810190808035906020019092919050505061125c565b6040518082815260200191505060405180910390f35b34801561099157600080fd5b5061099a6118c2565b6040518082815260200191505060405180910390f35b3480156109bc57600080fd5b506109c56118c8565b6040518082815260200191505060405180910390f35b3480156109e757600080fd5b506109f06118ce565b005b3480156109fe57600080fd5b50610a076118fe565b005b610a11611910565b005b348015610a1f57600080fd5b50610a5660048036036040811015610a3657600080fd5b81019080803590602001909291908035906020019092919050505061192d565b6040518082815260200191505060405180910390f35b348015610a7857600080fd5b50610a81611a4e565b6040518082815260200191505060405180910390f35b348015610aa357600080fd5b50610ae660048036036020811015610aba57600080fd5b81019080803573ffffffffffffffffffffffffffffffffffffffff169060200190929190505050611a54565b005b348015610af457600080fd5b50610afd611a73565b6040518082815260200191505060405180910390f35b6000808284019050838110151515610b2a57600080fd5b8091505092915050565b610b3c6111ff565b1515610b4757600080fd5b8060148190555050565b600b5481565b60175481565b600d5481565b610b6b6111ff565b1515610b7657600080fd5b80600b8190555050565b600c60009054906101000a900473ffffffffffffffffffffffffffffffffffffffff1681565b610bae6111ff565b1515610bb957600080fd5b3073ffffffffffffffffffffffffffffffffffffffff163160125411151515610c4a576040517f08c379a000000000000000000000000000000000000000000000000000000000815260040180806020018281038252601d8152602001807f4a61636b706f74206c6f776572207468616e2053432062616c616e636500000081525060200191505060405180910390fd5b6015543073ffffffffffffffffffffffffffffffffffffffff163110158015610c77575060155460125410155b1515610cce576040517f08c379a000000000000000000000000000000000000000000000000000000000815260040180806020018281038252602b815260200180613f4c602b913960400191505060405180910390fd5b6001601360006101000a81548160ff021916908315150217905550565b60165481565b610d30828260006040519080825280601f01601f191660200182016040528015610d2a5781602001600182028038833980820191505090505b50610d3a565b5050565b600a5481565b610d42611a79565b73ffffffffffffffffffffffffffffffffffffffff163373ffffffffffffffffffffffffffffffffffffffff16141515610dc7576040517f08c379a0000000000000000000000000000000000000000000000000000000008152600401808060200182810382526037815260200180613e496037913960400191505060405180910390fd5b610dd983610dd484611def565b611e03565b505050565b610de781611f80565b600060128190555050565b60125481565b600f6020528060005260406000206000915090505481565b600660009054906101000a900460ff1681565b601360009054906101000a900460ff1681565b610e3e6111ff565b1515610e4957600080fd5b600073ffffffffffffffffffffffffffffffffffffffff166000809054906101000a900473ffffffffffffffffffffffffffffffffffffffff1673ffffffffffffffffffffffffffffffffffffffff167f8be0079c531659141344cd1fd0a4f28419497f9722a3daafe3b4186f6b6457e060405160405180910390a360008060006101000a81548173ffffffffffffffffffffffffffffffffffffffff021916908373ffffffffffffffffffffffffffffffffffffffff160217905550565b60106020528060005260406000206000915090505481565b610f28612064565b610f306118ce565b565b600080600080600080610f43613bc7565b60116000898152602001908152602001600020604051806101400160405290816000820160405180606001604052908160008201548152602001600182015481526020016002820160009054906101000a900473ffffffffffffffffffffffffffffffffffffffff1673ffffffffffffffffffffffffffffffffffffffff1673ffffffffffffffffffffffffffffffffffffffff168152505081526020016003820160405180606001604052908160008201548152602001600182015481526020016002820160009054906101000a900473ffffffffffffffffffffffffffffffffffffffff1673ffffffffffffffffffffffffffffffffffffffff1673ffffffffffffffffffffffffffffffffffffffff16815250508152602001600682015481526020016007820160009054906101000a900473ffffffffffffffffffffffffffffffffffffffff1673ffffffffffffffffffffffffffffffffffffffff1673ffffffffffffffffffffffffffffffffffffffff1681526020016007820160149054906101000a900460ff161515151581526020016007820160159054906101000a900460ff161515151581526020016008820160009054906101000a900473ffffffffffffffffffffffffffffffffffffffff1673ffffffffffffffffffffffffffffffffffffffff1673ffffffffffffffffffffffffffffffffffffffff16815260200160098201548152602001600a8201548152602001600b82016040518060600160405290816000820154815260200160018201548152602001600282015481525050815250509050806000015160400151816000015160000151826040015183610120015160000151846060015185608001518595509650965096509650965096505091939550919395565b60008060009054906101000a900473ffffffffffffffffffffffffffffffffffffffff16905090565b60008060009054906101000a900473ffffffffffffffffffffffffffffffffffffffff1673ffffffffffffffffffffffffffffffffffffffff163373ffffffffffffffffffffffffffffffffffffffff1614905090565b60155481565b60006001801515600660009054906101000a900460ff1615151415156112cd576040517f08c379a000000000000000000000000000000000000000000000000000000000815260040180806020018281038252602c815260200180613ec2602c913960400191505060405180910390fd5b600d600081548092919060010191905055506000600d5490506000849050600033905060003490506000611301828561192d565b905060006113426002611334843073ffffffffffffffffffffffffffffffffffffffff163161210490919063ffffffff16565b61212690919063ffffffff16565b90507fadeaade94d61b1de6450a378938d3b7226431f1129423ef8b283f5991164fbc7816040518080602001838152602001828103825260168152602001807f4d6178696d756d206265742061636365707465643a20000000000000000000008152506020019250505060405180910390a13073ffffffffffffffffffffffffffffffffffffffff163183101515611442576040517f08c379a000000000000000000000000000000000000000000000000000000000815260040180806020018281038252601f8152602001807f4e6f7420656e6f7567682062616c616e636520666f722074686973206265740081525060200191505060405180910390fd5b61144f8360075483612150565b15156114c3576040517f08c379a000000000000000000000000000000000000000000000000000000000815260040180806020018281038252600d8152602001807f4e6f742076616c6964206265740000000000000000000000000000000000000081525060200191505060405180910390fd5b6114d283600754601254612150565b1515611546576040517f08c379a000000000000000000000000000000000000000000000000000000000815260040180806020018281038252600d8152602001807f4e6f742076616c6964206265740000000000000000000000000000000000000081525060200191505060405180910390fd5b6115558560165460175461216a565b15156115c9576040517f08c379a000000000000000000000000000000000000000000000000000000000815260040180806020018281038252600e8152602001807f4e6f742076616c6964207269736b00000000000000000000000000000000000081525060200191505060405180910390fd5b6012543411151515611643576040517f08c379a000000000000000000000000000000000000000000000000000000000815260040180806020018281038252600c8152602001807f42657420746f6f2068696768000000000000000000000000000000000000000081525060200191505060405180910390fd5b7f0493f0ee102db9238dcfc674e3590d07343d625075476694341009d96d90553930858786604051808573ffffffffffffffffffffffffffffffffffffffff1673ffffffffffffffffffffffffffffffffffffffff1681526020018473ffffffffffffffffffffffffffffffffffffffff1673ffffffffffffffffffffffffffffffffffffffff16815260200183815260200182815260200194505050505060405180910390a16008543410151515611764576040517f08c379a00000000000000000000000000000000000000000000000000000000081526004018080602001828103825260158152602001807f6f7261636c652063616e6e6f742063616c6c206d65000000000000000000000081525060200191505060405180910390fd5b7f5c624037da372bb459131a7137f1657ae380b2419ed6071d29d957c194ed200c3085604051808373ffffffffffffffffffffffffffffffffffffffff1673ffffffffffffffffffffffffffffffffffffffff1681526020018273ffffffffffffffffffffffffffffffffffffffff1673ffffffffffffffffffffffffffffffffffffffff1681526020018060200182810382526042815260200180613e8060429139606001935050505060405180910390a1846011600088815260200190815260200160002060000160000181905550826011600088815260200190815260200160002060060181905550836011600088815260200190815260200160002060000160020160006101000a81548173ffffffffffffffffffffffffffffffffffffffff021916908373ffffffffffffffffffffffffffffffffffffffff1602179055506118b3606487612184565b85975050505050505050919050565b60075481565b60185481565b6118d66111ff565b15156118e157600080fd5b6000601360006101000a81548160ff021916908315150217905550565b6119066122e8565b61190e610ba6565b565b61192534601254610b1390919063ffffffff16565b601281905550565b600080620f4240611949611388866123f090919063ffffffff16565b81151561195257fe5b0490506000620f4240611970600954876123f090919063ffffffff16565b81151561197957fe5b0490506000611994620f4240866123f090919063ffffffff16565b90506119aa60648261212690919063ffffffff16565b9050600081620f424003905060006119d082620f4240800261212690919063ffffffff16565b905060006119e789836123f090919063ffffffff16565b90506119ff620f42408261212690919063ffffffff16565b90506000611a3c600854611a2e88611a208b8761210490919063ffffffff16565b61210490919063ffffffff16565b61210490919063ffffffff16565b90508097505050505050505092915050565b60145481565b611a5c6111ff565b1515611a6757600080fd5b611a708161242e565b50565b600e5481565b60008073ffffffffffffffffffffffffffffffffffffffff16600260009054906101000a900473ffffffffffffffffffffffffffffffffffffffff1673ffffffffffffffffffffffffffffffffffffffff161480611b0157506000611aff600260009054906101000a900473ffffffffffffffffffffffffffffffffffffffff16612528565b145b15611b1257611b106000612533565b505b600260009054906101000a900473ffffffffffffffffffffffffffffffffffffffff1673ffffffffffffffffffffffffffffffffffffffff166338cc48316040518163ffffffff167c0100000000000000000000000000000000000000000000000000000000028152600401602060405180830381600087803b158015611b9857600080fd5b505af1158015611bac573d6000803e3d6000fd5b505050506040513d6020811015611bc257600080fd5b810190808051906020019092919050505073ffffffffffffffffffffffffffffffffffffffff16600160009054906101000a900473ffffffffffffffffffffffffffffffffffffffff1673ffffffffffffffffffffffffffffffffffffffff16141515611d2b57600260009054906101000a900473ffffffffffffffffffffffffffffffffffffffff1673ffffffffffffffffffffffffffffffffffffffff166338cc48316040518163ffffffff167c0100000000000000000000000000000000000000000000000000000000028152600401602060405180830381600087803b158015611caf57600080fd5b505af1158015611cc3573d6000803e3d6000fd5b505050506040513d6020811015611cd957600080fd5b8101908080519060200190929190505050600160006101000a81548173ffffffffffffffffffffffffffffffffffffffff021916908373ffffffffffffffffffffffffffffffffffffffff1602179055505b600160009054906101000a900473ffffffffffffffffffffffffffffffffffffffff1673ffffffffffffffffffffffffffffffffffffffff1663c281d19e6040518163ffffffff167c010000000000000000000000000000000000000000000000000000000002815260040160206040518083038186803b158015611daf57600080fd5b505afa158015611dc3573d6000803e3d6000fd5b505050506040513d6020811015611dd957600080fd5b8101908080519060200190929190505050905090565b6000611dfc826000612544565b9050919050565b60008090506000600f600085815260200190815260200160002054141515611e4057600f6000848152602001908152602001600020549050611e75565b60006010600085815260200190815260200160002054141515611e7457601060008481526020019081526020016000205490505b5b60006011600083815260200190815260200160002090506000600f600086815260200190815260200160002054141515611eba578281600b0160010181905550611ee5565b60006010600086815260200190815260200160002054141515611ee4578281600b01600201819055505b5b600081600b016001015414158015611f055750600081600b016002015414155b15611f7a576000600e5482600b016002015483600b016001015418811515611f2957fe5b0690508082600b01600001819055507f2a2a80fe64b9843e83b5281d100235d26f12d2c8a19427e7c64b7badede75e1b816040518082815260200191505060405180910390a1611f78836127df565b505b50505050565b611f886111ff565b1515611f9357600080fd5b6000801515600660009054906101000a900460ff161515141515612002576040517f08c379a000000000000000000000000000000000000000000000000000000000815260040180806020018281038252602c815260200180613ec2602c913960400191505060405180910390fd5b8173ffffffffffffffffffffffffffffffffffffffff166108fc3073ffffffffffffffffffffffffffffffffffffffff16319081150290604051600060405180830381858888f1935050505015801561205f573d6000803e3d6000fd5b505050565b61206c6111ff565b151561207757600080fd5b6001801515600660009054906101000a900460ff1615151415156120e6576040517f08c379a000000000000000000000000000000000000000000000000000000000815260040180806020018281038252602c815260200180613ec2602c913960400191505060405180910390fd5b6000600660006101000a81548160ff02191690831515021790555050565b600082821115151561211557600080fd5b600082840390508091505092915050565b6000808211151561213657600080fd5b6000828481151561214357fe5b0490508091505092915050565b600082841015801561216157508184105b90509392505050565b6000828411801561217b5750818411155b90509392505050565b60006121de6040518060400160405280600381526020017f55524c000000000000000000000000000000000000000000000000000000000081525060405180610120016040528060ec8152602001613d5d60ec9139612a69565b905060006122396040518060400160405280600381526020017f55524c00000000000000000000000000000000000000000000000000000000008152506040518060800160405280605e8152602001613eee605e9139612a69565b905082600f60008381526020019081526020016000208190555082601060008481526020019081526020016000208190555083600e819055507faf1377970ad92b4d34c9f58cf958a17a5537f57bc9f97f126c28b07637e94be3816040518080602001838152602001828103825260128152602001807f67657474696e672072616e646f6d6e65737300000000000000000000000000008152506020019250505060405180910390a150505050565b6122f06111ff565b15156122fb57600080fd5b6000801515600660009054906101000a900460ff16151514151561236a576040517f08c379a000000000000000000000000000000000000000000000000000000000815260040180806020018281038252602c815260200180613ec2602c913960400191505060405180910390fd5b6001600660006101000a81548160ff0219169083151502179055507f4c49022e3faa3d594bcd4c0a41d358281ad8bb232d3d0cdb1add1e71a9daf26660405180806020018281038252600c8152602001807f67616d652073746172746564000000000000000000000000000000000000000081525060200191505060405180910390a150565b6000808314156124035760009050612428565b6000828402905082848281151561241657fe5b0414151561242357600080fd5b809150505b92915050565b600073ffffffffffffffffffffffffffffffffffffffff168173ffffffffffffffffffffffffffffffffffffffff161415151561246a57600080fd5b8073ffffffffffffffffffffffffffffffffffffffff166000809054906101000a900473ffffffffffffffffffffffffffffffffffffffff1673ffffffffffffffffffffffffffffffffffffffff167f8be0079c531659141344cd1fd0a4f28419497f9722a3daafe3b4186f6b6457e060405160405180910390a3806000806101000a81548173ffffffffffffffffffffffffffffffffffffffff021916908373ffffffffffffffffffffffffffffffffffffffff16021790555050565b6000813b9050919050565b600061253d613026565b9050919050565b600060608390506000809050600080905060008090505b83518110156127c0576030848281518110151561257457fe5b9060200101517f010000000000000000000000000000000000000000000000000000000000000090047f0100000000000000000000000000000000000000000000000000000000000000027f0100000000000000000000000000000000000000000000000000000000000000900460ff16101580156126725750603984828151811015156125fe57fe5b9060200101517f010000000000000000000000000000000000000000000000000000000000000090047f0100000000000000000000000000000000000000000000000000000000000000027f0100000000000000000000000000000000000000000000000000000000000000900460ff1611155b1561272657811561269557600086141561268b576127c0565b8580600190039650505b600a83029250603084828151811015156126ab57fe5b9060200101517f010000000000000000000000000000000000000000000000000000000000000090047f0100000000000000000000000000000000000000000000000000000000000000027f0100000000000000000000000000000000000000000000000000000000000000900460ff1603830192506127b3565b602e848281518110151561273657fe5b9060200101517f010000000000000000000000000000000000000000000000000000000000000090047f0100000000000000000000000000000000000000000000000000000000000000027f0100000000000000000000000000000000000000000000000000000000000000900460ff1614156127b257600191505b5b808060010191505061255b565b5060008511156127d35784600a0a820291505b81935050505092915050565b6000601160008381526020019081526020016000209050600081600b016000015490508160000160000154811115612880578160000160020160009054906101000a900473ffffffffffffffffffffffffffffffffffffffff168260070160006101000a81548173ffffffffffffffffffffffffffffffffffffffff021916908373ffffffffffffffffffffffffffffffffffffffff1602179055506128c4565b308260070160006101000a81548173ffffffffffffffffffffffffffffffffffffffff021916908373ffffffffffffffffffffffffffffffffffffffff1602179055505b60006128cf846134bc565b90508260000160020160009054906101000a900473ffffffffffffffffffffffffffffffffffffffff1673ffffffffffffffffffffffffffffffffffffffff167f463292da9bb42170650d7f7da233bb7cad9c5336f3bb8968639a78522be77a08858560070160009054906101000a900473ffffffffffffffffffffffffffffffffffffffff168660060154876000016000015488600b016000015487604051808781526020018673ffffffffffffffffffffffffffffffffffffffff1673ffffffffffffffffffffffffffffffffffffffff168152602001858152602001848152602001838152602001828152602001965050505050505060405180910390a2601360009054906101000a900460ff1615612a6357612a168360000160020160009054906101000a900473ffffffffffffffffffffffffffffffffffffffff168561390c565b508260070160159054906101000a900460ff161515612a6257612a608360030160020160009054906101000a900473ffffffffffffffffffffffffffffffffffffffff168561390c565b505b5b50505050565b60008073ffffffffffffffffffffffffffffffffffffffff16600260009054906101000a900473ffffffffffffffffffffffffffffffffffffffff1673ffffffffffffffffffffffffffffffffffffffff161480612af157506000612aef600260009054906101000a900473ffffffffffffffffffffffffffffffffffffffff16612528565b145b15612b0257612b006000612533565b505b600260009054906101000a900473ffffffffffffffffffffffffffffffffffffffff1673ffffffffffffffffffffffffffffffffffffffff166338cc48316040518163ffffffff167c0100000000000000000000000000000000000000000000000000000000028152600401602060405180830381600087803b158015612b8857600080fd5b505af1158015612b9c573d6000803e3d6000fd5b505050506040513d6020811015612bb257600080fd5b810190808051906020019092919050505073ffffffffffffffffffffffffffffffffffffffff16600160009054906101000a900473ffffffffffffffffffffffffffffffffffffffff1673ffffffffffffffffffffffffffffffffffffffff16141515612d1b57600260009054906101000a900473ffffffffffffffffffffffffffffffffffffffff1673ffffffffffffffffffffffffffffffffffffffff166338cc48316040518163ffffffff167c0100000000000000000000000000000000000000000000000000000000028152600401602060405180830381600087803b158015612c9f57600080fd5b505af1158015612cb3573d6000803e3d6000fd5b505050506040513d6020811015612cc957600080fd5b8101908080519060200190929190505050600160006101000a81548173ffffffffffffffffffffffffffffffffffffffff021916908373ffffffffffffffffffffffffffffffffffffffff1602179055505b6000600160009054906101000a900473ffffffffffffffffffffffffffffffffffffffff1673ffffffffffffffffffffffffffffffffffffffff1663524f3889856040518263ffffffff167c01000000000000000000000000000000000000000000000000000000000281526004018080602001828103825283818151815260200191508051906020019080838360005b83811015612dc7578082015181840152602081019050612dac565b50505050905090810190601f168015612df45780820380516001836020036101000a031916815260200191505b5092505050602060405180830381600087803b158015612e1357600080fd5b505af1158015612e27573d6000803e3d6000fd5b505050506040513d6020811015612e3d57600080fd5b8101908080519060200190929190505050905062030d403a02670de0b6b3a764000001811115612e74576000600102915050613020565b600160009054906101000a900473ffffffffffffffffffffffffffffffffffffffff1673ffffffffffffffffffffffffffffffffffffffff1663adf59f9982600087876040518563ffffffff167c0100000000000000000000000000000000000000000000000000000000028152600401808481526020018060200180602001838103835285818151815260200191508051906020019080838360005b83811015612f2c578082015181840152602081019050612f11565b50505050905090810190601f168015612f595780820380516001836020036101000a031916815260200191505b50838103825284818151815260200191508051906020019080838360005b83811015612f92578082015181840152602081019050612f77565b50505050905090810190601f168015612fbf5780820380516001836020036101000a031916815260200191505b50955050505050506020604051808303818588803b158015612fe057600080fd5b505af1158015612ff4573d6000803e3d6000fd5b50505050506040513d602081101561300b57600080fd5b81019080805190602001909291905050509150505b92915050565b600080613046731d3b2638a7cc9f2cb3d298a3da7a90b67e5506ed612528565b11156130e857731d3b2638a7cc9f2cb3d298a3da7a90b67e5506ed600260006101000a81548173ffffffffffffffffffffffffffffffffffffffff021916908373ffffffffffffffffffffffffffffffffffffffff1602179055506130df6040518060400160405280600b81526020017f6574685f6d61696e6e6574000000000000000000000000000000000000000000815250613ad6565b600190506134b9565b600061310773c03a2615d5efaf5f49f60b7bb6583eaec212fdf1612528565b11156131a95773c03a2615d5efaf5f49f60b7bb6583eaec212fdf1600260006101000a81548173ffffffffffffffffffffffffffffffffffffffff021916908373ffffffffffffffffffffffffffffffffffffffff1602179055506131a06040518060400160405280600c81526020017f6574685f726f707374656e330000000000000000000000000000000000000000815250613ad6565b600190506134b9565b60006131c873b7a07bcf2ba2f2703b24c0691b5278999c59ac7e612528565b111561326a5773b7a07bcf2ba2f2703b24c0691b5278999c59ac7e600260006101000a81548173ffffffffffffffffffffffffffffffffffffffff021916908373ffffffffffffffffffffffffffffffffffffffff1602179055506132616040518060400160405280600981526020017f6574685f6b6f76616e0000000000000000000000000000000000000000000000815250613ad6565b600190506134b9565b600061328973146500cfd35b22e4a392fe0adc06de1a1368ed48612528565b111561332b5773146500cfd35b22e4a392fe0adc06de1a1368ed48600260006101000a81548173ffffffffffffffffffffffffffffffffffffffff021916908373ffffffffffffffffffffffffffffffffffffffff1602179055506133226040518060400160405280600b81526020017f6574685f72696e6b656279000000000000000000000000000000000000000000815250613ad6565b600190506134b9565b600061334a736f485c8bf6fc43ea212e93bbf8ce046c7f1cb475612528565b11156133ae57736f485c8bf6fc43ea212e93bbf8ce046c7f1cb475600260006101000a81548173ffffffffffffffffffffffffffffffffffffffff021916908373ffffffffffffffffffffffffffffffffffffffff160217905550600190506134b9565b60006133cd7320e12a1f859b3feae5fb2a0a32c18f5a65555bbf612528565b1115613431577320e12a1f859b3feae5fb2a0a32c18f5a65555bbf600260006101000a81548173ffffffffffffffffffffffffffffffffffffffff021916908373ffffffffffffffffffffffffffffffffffffffff160217905550600190506134b9565b60006134507351efaf4c8b3c9afbd5ab9f4bbc82784ab6ef8faa612528565b11156134b4577351efaf4c8b3c9afbd5ab9f4bbc82784ab6ef8faa600260006101000a81548173ffffffffffffffffffffffffffffffffffffffff021916908373ffffffffffffffffffffffffffffffffffffffff160217905550600190506134b9565b600090505b90565b60008060116000848152602001908152602001600020905060008160000160020160009054906101000a900473ffffffffffffffffffffffffffffffffffffffff1673ffffffffffffffffffffffffffffffffffffffff168260070160009054906101000a900473ffffffffffffffffffffffffffffffffffffffff1673ffffffffffffffffffffffffffffffffffffffff1614905060018260070160146101000a81548160ff0219169083151502179055506000601254905060003073ffffffffffffffffffffffffffffffffffffffff163190506000620f42406135b161138887600601546123f090919063ffffffff16565b8115156135ba57fe5b049050600084156137c0576135da8660060154876000016000015461192d565b90508086600a018190555060008111156137bf5785600601543073ffffffffffffffffffffffffffffffffffffffff163110151515613681576040517f08c379a000000000000000000000000000000000000000000000000000000000815260040180806020018281038252600a8152602001807f63616e6e6f74207061790000000000000000000000000000000000000000000081525060200191505060405180910390fd5b7f1d1f8e36149fc07505f5876cceb2ca561904e9e3a940effa716d74765df24c2e8660000160020160009054906101000a900473ffffffffffffffffffffffffffffffffffffffff16876006015460405180806020018473ffffffffffffffffffffffffffffffffffffffff1673ffffffffffffffffffffffffffffffffffffffff1681526020018381526020018281038252600c8152602001807f5061792077696e6e65723a200000000000000000000000000000000000000000815250602001935050505060405180910390a18560000160020160009054906101000a900473ffffffffffffffffffffffffffffffffffffffff1673ffffffffffffffffffffffffffffffffffffffff166108fc829081150290604051600060405180830381858888f193505050501580156137bd573d6000803e3d6000fd5b505b5b6000151585151514156138e0577f18008b5f6086bd3b79827452d1500916d620037ff83bf69d6d7e739040733d0f308760000160020160009054906101000a900473ffffffffffffffffffffffffffffffffffffffff1688600b0160000154896006015460405180806020018673ffffffffffffffffffffffffffffffffffffffff1673ffffffffffffffffffffffffffffffffffffffff1681526020018573ffffffffffffffffffffffffffffffffffffffff1673ffffffffffffffffffffffffffffffffffffffff1681526020018481526020018381526020018281038252600d8152602001807f506c61796572206c6f73653a20000000000000000000000000000000000000008152506020019550505050505060405180910390a15b3073ffffffffffffffffffffffffffffffffffffffff1631601281905550809650505050505050919050565b6000806011600084815260200190815260200160002090506000601454600d5486600143034085600b0160010154604051602001808581526020018473ffffffffffffffffffffffffffffffffffffffff1673ffffffffffffffffffffffffffffffffffffffff166c0100000000000000000000000002815260140183815260200182815260200194505050505060405160208183030381529060405280519060200120600190048115156139bd57fe5b061415613aca57600073ffffffffffffffffffffffffffffffffffffffff168160080160009054906101000a900473ffffffffffffffffffffffffffffffffffffffff1673ffffffffffffffffffffffffffffffffffffffff16141515613a6f576040517f08c379a0000000000000000000000000000000000000000000000000000000008152600401808060200182810382526021815260200180613f776021913960400191505060405180910390fd5b838160080160006101000a81548173ffffffffffffffffffffffffffffffffffffffff021916908373ffffffffffffffffffffffffffffffffffffffff160217905550613ac0848260060154613af0565b6001915050613ad0565b60009150505b92915050565b8060039080519060200190613aec929190613c5c565b5050565b8173ffffffffffffffffffffffffffffffffffffffff166108fc3073ffffffffffffffffffffffffffffffffffffffff16319081150290604051600060405180830381858888f19350505050158015613b4d573d6000803e3d6000fd5b507f59eb56f0aaebc4c2e1de6e254bc52af79350363a072c9ef59851f0d0861a964282601254604051808373ffffffffffffffffffffffffffffffffffffffff1673ffffffffffffffffffffffffffffffffffffffff1681526020018281526020019250505060405180910390a160006012819055505050565b604051806102000160405280613bdb613cdc565b8152602001613be8613cdc565b815260200160008152602001600073ffffffffffffffffffffffffffffffffffffffff168152602001600015158152602001600015158152602001600073ffffffffffffffffffffffffffffffffffffffff1681526020016000815260200160008152602001613c56613d16565b81525090565b828054600181600116156101000203166002900490600052602060002090601f016020900481019282601f10613c9d57805160ff1916838001178555613ccb565b82800160010185558215613ccb579182015b82811115613cca578251825591602001919060010190613caf565b5b509050613cd89190613d37565b5090565b60405180606001604052806000815260200160008019168152602001600073ffffffffffffffffffffffffffffffffffffffff1681525090565b60405180606001604052806000815260200160008152602001600081525090565b613d5991905b80821115613d55576000816000905550600101613d3d565b5090565b9056fe424456754c326831416c33432f7a49764e72306e4655586b48762b5838576c337768522f617342336665685441593456554d3667453434644d714e72437a58687a6178515555522b5a4b50542f655a2f7176663436333669654c6f7a476c7a482b6431444d61326b614b49506a2b686a622b7054554b46786f574f68793632316b6c763357334336794f7057507356774d4c7231546e4d6748523769364755693178333437756d69506d4247745675785a707a68464f57505563737a4a414a4b366c377333654774527433776976426a784551434967444333664a56476f355a2b4448542b7379574b773d3d44656e6965642061636365737320746f2063616c6c6261636b2066756e6374696f6e2c206f7261636c65206f6e6c7920616c6c6f7765644f7261636c697a6520717565727920746f2072616e646f6d2e6f7267207761732073656e742c207374616e64696e6720627920666f722074686520616e737765722e46756e6374696f6e20617661696c61626c65206f6e6c79207768656e2067616d652069732072756e6e696e6768747470733a2f2f7777772e72616e646f6d2e6f72672f696e7465676572732f3f6e756d3d31266d696e3d30266d61783d3130303030303030303026636f6c3d3126626173653d313026666f726d61743d706c61696e26726e643d6e65774d696e696d756d204a61636b706f74206973206e656564656420666f72207374617274696e672067616d654f6e6c79206f6e65206c6f74657272792077696e6e65722070657220726f756e64a165627a7a7230582072caa007bf98c4c07825664978888407bf5526f1304242f1d59fdf44240f577a0029",
  "source": "pragma solidity ^0.5.0;\n\n\nimport \"./GamblingGame.sol\";\nimport \"./oraclizeAPI.sol\";\nimport \"./LotteryGame.sol\";\n//import \"./StartStopGame.sol\";\n\n\n/** @title Dice - Dice game\n  * @author Rodrigo Gmez Gentil, Antonio Cruz Surez\n */\n\ncontract Dice is usingOraclize, GamblingGame, LotteryGame {\n\n    using SafeMath for uint;\n\n    // uint public minimumBet = 0.0001 ether;\n    uint public minimumRisk = 1;\n    uint public maximumRisk = 99;\n    uint public feeJackpot =  5000000000000000;  // Fund to jackpot 0.005 ether as a fee\n\n    uint constant DICE_RANDOM_RANGE = 100;\n\n    event GameStarted(string message);\n\n    // Events\n    event logPlayerBetAccepted(address _contract, address _player, uint _risk, uint _bet);\n    event logRollDice(address _contract, address _player, string _description);\n    event logRolledDiceNumber(uint _rolledDiceNumber);\n    event logPlayerLose(string description, address _contract, address _player, uint _rolledDiceNumber, uint _betAmount);\n    event logPlayerWins(string description, address _contract, address _winner, uint _rolledDiceNumber, uint _profit);\n    event logNewOraclizeQuery(string description);\n    event logContractBalance(uint _contractBalance);\n    event logJackpotBalance(string description, address _ownerAddress, uint _ownerBalance);\n    event logPayWinner(string description, address _playerAddress, uint _winAmount);\n    event logMaxAllowedBet(string description, uint _maxAllowedBet);\n\n    event RoundResolved(\n        uint roundId,\n        address winner,\n        uint betAmount,\n        address indexed player,\n        uint choice,\n        uint rolledDiceNumber,\n        uint winAmount\n    );\n\n\n    constructor()\n    public\n    {\n        // Replace the next line with your version:\n        //OAR = OraclizeAddrResolverI(0x18C0cAb11428daf78bF6Fcc0fcb8Dea742ab715D);\n\n        // set Oraclize proof type\n        //oraclize_setProof(proofType_TLSNotary | proofStorage_IPFS);\n    }\n\n    function startGame() public {\n        super.startGame();\n        startLottery();\n    }\n\n    function stopGame() public {\n        super.stopGame();\n        stopLottery();\n    }\n\n    function getRoundInfo(\n        uint roundId\n    )\n        external\n        view\n        returns(\n            address playerAddress,\n            uint risk,\n            uint betAmount,\n            uint rolledDiceNumber,\n            address payable winner,\n            bool isClosed\n        )\n    {\n        Round memory myRound = rounds[roundId];\n        return (\n            myRound.player1.playerAddress,\n            myRound.player1.choice,\n            myRound.betAmount,\n            myRound.oraclizeCallback.oraclesChoice,\n            myRound.winner,\n            myRound.isClosed\n        );\n    }\n\n    function calculateProfit(uint betAmount, uint risk)\n    public\n    view\n    returns (uint)\n    {\n        uint jackpotFee = betAmount.mul(jackpotFeeRate) / feeUnits;\n        uint businessFee = betAmount.mul(businessFeeRate) / feeUnits;\n\n        uint riskEarnings = risk.mul(feeUnits);\n        riskEarnings = riskEarnings.div(100);\n        uint earningRate = (feeUnits - riskEarnings); // 0.5 * fe\n        uint x = (feeUnits * feeUnits).div(earningRate);\n        uint grossProfit = x.mul(betAmount);\n        grossProfit = grossProfit.div(feeUnits);\n        uint netProfit = grossProfit.sub(jackpotFee).sub(businessFee).sub(feeOraclize);\n        return netProfit;\n\n    }\n\n    /**\n     * @notice Test if the risk assumed by the user is the minimum accepted by the game\n     * @param _risk : Risk assumed by the player\n     * @param _minimumRisk Indicates the minimum risk accepted to play the game\n     * @return True if the risk is over 30, False otherwise.\n     */\n    function isValidRisk (uint _risk, uint _minimumRisk, uint _maximumRisk)\n        internal\n        pure\n        returns (bool)\n    {\n        return ((_risk > _minimumRisk) && (_risk <= _maximumRisk));\n    }\n\n    function playSoloRound(uint _choice) public payable gameIsOn(true) returns(uint) {\n\n        roundCount++;\n        uint roundId = roundCount;\n\n        uint risk = _choice;\n        // bytes32 oraclizeQueryId;\n        address payable playerAddress = msg.sender;\n\n        uint betAmount = msg.value;\n        uint netPossibleProfit = calculateProfit(betAmount, risk);\n        uint maximumBet = address(this).balance.sub(netPossibleProfit).div(2);\n\n        emit logMaxAllowedBet(\"Maximum bet accepted: \", maximumBet);\n\n        require(betAmount < address(this).balance, \"Not enough balance for this bet\");\n        require(isValidBet(betAmount, minimumBet, maximumBet), \"Not valid bet\");\n        require(isValidBet(betAmount, minimumBet, jackpot), \"Not valid bet\");\n        require(isValidRisk(risk, minimumRisk, maximumRisk), \"Not valid risk\");\n        require(msg.value <= jackpot, \"Bet too high\");\n        emit logPlayerBetAccepted(address(this), playerAddress, risk, betAmount);\n        require(msg.value >= feeOraclize, \"oracle cannot call me\");\n\n        // Making oraclized query to random.org.\n        emit logRollDice(address(this), playerAddress, \"Oraclize query to random.org was sent, standing by for the answer.\");\n\n        // rounds[roundId].risk = risk;\n        rounds[roundId].player1.choice = risk;\n        rounds[roundId].betAmount = betAmount;\n        rounds[roundId].player1.playerAddress = playerAddress;\n\n        _setRandomness(DICE_RANDOM_RANGE, roundId);\n\n        return roundId;\n    }\n\n    function _resolveRound(uint _roundId) private {\n        Round storage round = rounds[_roundId];\n        uint rolledDiceNumber = round.oraclizeCallback.oraclesChoice;\n\n        // If the number of the rolled dice is higher than the assumed risk then the player wins\n        if(rolledDiceNumber > round.player1.choice) {\n            round.winner = round.player1.playerAddress;\n        } else {\n            round.winner = address(this);\n        }\n\n        uint winAmount = _payRound(_roundId);\n\n        emit RoundResolved(\n            _roundId, round.winner,\n            round.betAmount,\n            round.player1.playerAddress,\n            round.player1.choice,\n            round.oraclizeCallback.oraclesChoice,\n            winAmount\n        );\n\n        if (lotteryOn) {\n            _playLottery(round.player1.playerAddress, _roundId);\n            if (!round.isSolo) {\n                _playLottery(round.player2.playerAddress, _roundId);\n            }\n        }\n    }\n\n    function _checkWinner(Player memory player1, Player memory player2) private pure returns(address payable) {\n        if ((uint(player1.choice) + 1) % 3 == uint(player2.choice)) {\n            return player2.playerAddress;\n        } else if ((uint(player1.choice) + 2) % 3 == uint(player2.choice)) {\n            return player1.playerAddress;\n        } else {\n            return address(0);\n        }\n    }\n\n    function _payRound(uint _roundId) private returns(uint) {\n        Round storage round = rounds[_roundId];\n        bool playerWins = round.winner == round.player1.playerAddress;\n        round.isClosed = true;\n        uint inititalJackpot = jackpot;\n        uint initialBalance = address(this).balance;\n        uint jackpotFee = round.betAmount.mul(jackpotFeeRate) / feeUnits;\n        uint netProfit;\n\n        if(playerWins) {\n\n            // Calculate player profit\n            netProfit = calculateProfit(round.betAmount, round.player1.choice);\n\n            round.profit = netProfit;\n\n            if(netProfit > 0) {\n                // payWinner(round.player1.playerAddress, round.betAmount, netProfit);\n                // winAmount = round.betAmount.add(netProfit);\n                require( address(this).balance >= round.betAmount, \"cannot pay\" );\n                emit logPayWinner(\"Pay winner: \", round.player1.playerAddress, round.betAmount);\n                round.player1.playerAddress.transfer(netProfit);\n            }\n\n        }\n\n         if(playerWins==false) {\n             emit logPlayerLose(\"Player lose: \",address(this), round.player1.playerAddress, round.oraclizeCallback.oraclesChoice, round.betAmount);\n        }\n\n        jackpot = address(this).balance;\n\n        return netProfit;\n    }\n\n    function _setResult(bytes32 myid, uint oraclizeResult) private\n    {\n        uint roundId = 0;\n\n        if (queryIdToRounds[myid] != 0) {\n            roundId = queryIdToRounds[myid];\n        } else if (secretQueryIdToRounds[myid] != 0) {\n            roundId = secretQueryIdToRounds[myid];\n        }\n\n        Round storage round = rounds[roundId];\n\n        if (queryIdToRounds[myid] != 0) {\n            round.oraclizeCallback.queryResult = oraclizeResult;\n        } else if (secretQueryIdToRounds[myid] != 0) {\n            round.oraclizeCallback.secretQueryResult = oraclizeResult;\n        }\n\n        if (round.oraclizeCallback.queryResult != 0 && round.oraclizeCallback.secretQueryResult != 0) {\n            uint rolledDiceNumber = (round.oraclizeCallback.queryResult ^ round.oraclizeCallback.secretQueryResult) % gameRandomRange;\n            round.oraclizeCallback.oraclesChoice = rolledDiceNumber;\n            emit logRolledDiceNumber(rolledDiceNumber);\n            _resolveRound(roundId);\n        }\n    }\n\n    /** @notice Play lottery for the round\n      * @dev TODO: It is needed to implement a mechanism that assures that existing rounds can be paid altoudh\n             someone has hit the jakpot. Curerntly if someone hits the jackpot he/she gets all value of the contract\n      * @param playerAddress address of the player\n      * @param _roundId id number that identify the round to resolve\n      * @return if player wins the lottery or not\n     */\n    function _playLottery(address payable playerAddress, uint _roundId) private returns (bool) {\n        Round storage myRound = rounds[_roundId];  // Pointer to round\n        if ((uint(keccak256(abi.encodePacked(roundCount, playerAddress, blockhash(block.number - 1), myRound.oraclizeCallback.queryResult)))\n            % lotteryRate) == 0) {\n            require(myRound.lotteryWinner == address(0), \"Only one loterry winner per round\");\n            myRound.lotteryWinner = playerAddress;\n            _payLotteryWinner(playerAddress, myRound.betAmount);\n            return true;\n        }\n        return false;\n    }\n\n    function withdrawFunds(address payable _myAddress) public {\n        super.withdrawFunds(_myAddress);\n        jackpot = 0;\n    }\n}",
  "sourcePath": "/home/rggentil/Documents/master_ethereum/BLOCKCHAINTFM/Ethereum_Gambling_Games/contracts/Dice.sol",
  "compiler": {
    "name": "solc",
    "version": "0.5.5+commit.47a71e8f.Emscripten.clang"
  },
  "schemaVersion": "3.0.6",
  "updatedAt": "2019-04-16T15:55:03.570Z",
  "devdoc": {
    "author": "Rodrigo Gmez Gentil, Antonio Cruz Surez",
    "methods": {
      "__callback(bytes32,string,bytes)": {
        "details": "Get the querys using the parameter myid",
        "params": {
          "myid": "The id of the query",
          "proof": "Necessary for validating Oraclize's call",
          "result": "The result of the query"
        }
      },
      "fundGame()": {
        "details": "It's just the same as fallback function."
      },
      "isOwner()": {
        "return": "true if `msg.sender` is the owner of the contract."
      },
      "owner()": {
        "return": "the address of the owner."
      },
      "renounceOwnership()": {
        "details": "Allows the current owner to relinquish control of the contract."
      },
      "setLotteryRate(uint256)": {
        "details": "Mostly for testing porpuse. It should be removed in final deployment or no modifiable by anyone",
        "params": {
          "newLotteryRate": "new lottery rate"
        }
      },
      "setminBusinessFeePayment(uint256)": {
        "details": "Mostly for testing porpuse. It should be removed in final deployment or no modifiable by anyone",
        "params": {
          "newMinBusinessFeePayment": "new min amount of ETH to transfer to business"
        }
      },
      "transferOwnership(address)": {
        "details": "Allows the current owner to transfer control of the contract to a newOwner.",
        "params": {
          "newOwner": "The address to transfer ownership to."
        }
      }
    },
    "title": "Dice - Dice game"
  },
  "userdoc": {
    "methods": {
      "__callback(bytes32,string,bytes)": {
        "notice": "Callback function to emit the events with the information we want."
      },
      "fundGame()": {
        "notice": "Payable, to fund game by adding ethers to contract and to the jackpot"
      },
      "renounceOwnership()": {
        "notice": "Renouncing to ownership will leave the contract without an owner. It will not be possible to call the functions with the `onlyOwner` modifier anymore."
      },
      "setLotteryRate(uint256)": {
        "notice": "Set the lottery rate in percentage, how easy is to hit the jackpot"
      },
      "setminBusinessFeePayment(uint256)": {
        "notice": "Set the minimum amount of ETH to be transfered when collecting business fees"
      },
      "startLottery()": {
        "notice": "Start lottery (this means playing for jackpot)"
      },
      "stopLottery()": {
        "notice": "Stop lottery (this means stop playing for jackpot)"
      }
    }
  }
}