{
  "contractName": "Dice",
  "abi": [
    {
      "constant": false,
      "inputs": [
        {
          "name": "newLotteryRate",
          "type": "uint256"
        }
      ],
      "name": "setLotteryRate",
      "outputs": [],
      "payable": false,
      "stateMutability": "nonpayable",
      "type": "function",
      "signature": "0x06385b21"
    },
    {
      "constant": true,
      "inputs": [],
      "name": "minBusinessFeePayment",
      "outputs": [
        {
          "name": "",
          "type": "uint256"
        }
      ],
      "payable": false,
      "stateMutability": "view",
      "type": "function",
      "signature": "0x0c071222"
    },
    {
      "constant": true,
      "inputs": [],
      "name": "maximumRisk",
      "outputs": [
        {
          "name": "",
          "type": "uint256"
        }
      ],
      "payable": false,
      "stateMutability": "view",
      "type": "function",
      "signature": "0x101a4406"
    },
    {
      "constant": true,
      "inputs": [],
      "name": "roundCount",
      "outputs": [
        {
          "name": "",
          "type": "uint256"
        }
      ],
      "payable": false,
      "stateMutability": "view",
      "type": "function",
      "signature": "0x127f0b3f"
    },
    {
      "constant": false,
      "inputs": [
        {
          "name": "newMinBusinessFeePayment",
          "type": "uint256"
        }
      ],
      "name": "setminBusinessFeePayment",
      "outputs": [],
      "payable": false,
      "stateMutability": "nonpayable",
      "type": "function",
      "signature": "0x12a0e070"
    },
    {
      "constant": true,
      "inputs": [],
      "name": "businessAddress",
      "outputs": [
        {
          "name": "",
          "type": "address"
        }
      ],
      "payable": false,
      "stateMutability": "view",
      "type": "function",
      "signature": "0x1583deb2"
    },
    {
      "constant": false,
      "inputs": [],
      "name": "startLottery",
      "outputs": [],
      "payable": false,
      "stateMutability": "nonpayable",
      "type": "function",
      "signature": "0x160344e2"
    },
    {
      "constant": true,
      "inputs": [],
      "name": "minimumRisk",
      "outputs": [
        {
          "name": "",
          "type": "uint256"
        }
      ],
      "payable": false,
      "stateMutability": "view",
      "type": "function",
      "signature": "0x1b9300e9"
    },
    {
      "constant": false,
      "inputs": [
        {
          "name": "_myid",
          "type": "bytes32"
        },
        {
          "name": "_result",
          "type": "string"
        }
      ],
      "name": "__callback",
      "outputs": [],
      "payable": false,
      "stateMutability": "nonpayable",
      "type": "function",
      "signature": "0x27dc297e"
    },
    {
      "constant": true,
      "inputs": [],
      "name": "totalBusinessFee",
      "outputs": [
        {
          "name": "",
          "type": "uint256"
        }
      ],
      "payable": false,
      "stateMutability": "view",
      "type": "function",
      "signature": "0x3580ecd0"
    },
    {
      "constant": false,
      "inputs": [
        {
          "name": "myid",
          "type": "bytes32"
        },
        {
          "name": "result",
          "type": "string"
        },
        {
          "name": "proof",
          "type": "bytes"
        }
      ],
      "name": "__callback",
      "outputs": [],
      "payable": false,
      "stateMutability": "nonpayable",
      "type": "function",
      "signature": "0x38bbfa50"
    },
    {
      "constant": false,
      "inputs": [
        {
          "name": "_myAddress",
          "type": "address"
        }
      ],
      "name": "withdrawFunds",
      "outputs": [],
      "payable": false,
      "stateMutability": "nonpayable",
      "type": "function",
      "signature": "0x68742da6"
    },
    {
      "constant": true,
      "inputs": [],
      "name": "jackpot",
      "outputs": [
        {
          "name": "",
          "type": "uint256"
        }
      ],
      "payable": false,
      "stateMutability": "view",
      "type": "function",
      "signature": "0x6b31ee01"
    },
    {
      "constant": true,
      "inputs": [
        {
          "name": "",
          "type": "bytes32"
        }
      ],
      "name": "queryIdToRounds",
      "outputs": [
        {
          "name": "",
          "type": "uint256"
        }
      ],
      "payable": false,
      "stateMutability": "view",
      "type": "function",
      "signature": "0x6b930399"
    },
    {
      "constant": true,
      "inputs": [],
      "name": "gameRunning",
      "outputs": [
        {
          "name": "",
          "type": "bool"
        }
      ],
      "payable": false,
      "stateMutability": "view",
      "type": "function",
      "signature": "0x6e8c2caf"
    },
    {
      "constant": true,
      "inputs": [],
      "name": "lotteryOn",
      "outputs": [
        {
          "name": "",
          "type": "bool"
        }
      ],
      "payable": false,
      "stateMutability": "view",
      "type": "function",
      "signature": "0x6f1573c3"
    },
    {
      "constant": false,
      "inputs": [],
      "name": "renounceOwnership",
      "outputs": [],
      "payable": false,
      "stateMutability": "nonpayable",
      "type": "function",
      "signature": "0x715018a6"
    },
    {
      "constant": true,
      "inputs": [
        {
          "name": "",
          "type": "bytes32"
        }
      ],
      "name": "secretQueryIdToRounds",
      "outputs": [
        {
          "name": "",
          "type": "uint256"
        }
      ],
      "payable": false,
      "stateMutability": "view",
      "type": "function",
      "signature": "0x7de37f2a"
    },
    {
      "constant": true,
      "inputs": [],
      "name": "owner",
      "outputs": [
        {
          "name": "",
          "type": "address"
        }
      ],
      "payable": false,
      "stateMutability": "view",
      "type": "function",
      "signature": "0x8da5cb5b"
    },
    {
      "constant": true,
      "inputs": [],
      "name": "isOwner",
      "outputs": [
        {
          "name": "",
          "type": "bool"
        }
      ],
      "payable": false,
      "stateMutability": "view",
      "type": "function",
      "signature": "0x8f32d59b"
    },
    {
      "constant": true,
      "inputs": [],
      "name": "minJackpot",
      "outputs": [
        {
          "name": "",
          "type": "uint256"
        }
      ],
      "payable": false,
      "stateMutability": "view",
      "type": "function",
      "signature": "0x911d0189"
    },
    {
      "constant": true,
      "inputs": [],
      "name": "minimumBet",
      "outputs": [
        {
          "name": "",
          "type": "uint256"
        }
      ],
      "payable": false,
      "stateMutability": "view",
      "type": "function",
      "signature": "0xc38a8afd"
    },
    {
      "constant": true,
      "inputs": [],
      "name": "feeJackpot",
      "outputs": [
        {
          "name": "",
          "type": "uint256"
        }
      ],
      "payable": false,
      "stateMutability": "view",
      "type": "function",
      "signature": "0xc4e7b6a4"
    },
    {
      "constant": false,
      "inputs": [],
      "name": "stopLottery",
      "outputs": [],
      "payable": false,
      "stateMutability": "nonpayable",
      "type": "function",
      "signature": "0xd5c62498"
    },
    {
      "constant": false,
      "inputs": [],
      "name": "fundGame",
      "outputs": [],
      "payable": true,
      "stateMutability": "payable",
      "type": "function",
      "signature": "0xe169bf6c"
    },
    {
      "constant": true,
      "inputs": [],
      "name": "lotteryRate",
      "outputs": [
        {
          "name": "",
          "type": "uint256"
        }
      ],
      "payable": false,
      "stateMutability": "view",
      "type": "function",
      "signature": "0xf2564737"
    },
    {
      "constant": false,
      "inputs": [
        {
          "name": "newOwner",
          "type": "address"
        }
      ],
      "name": "transferOwnership",
      "outputs": [],
      "payable": false,
      "stateMutability": "nonpayable",
      "type": "function",
      "signature": "0xf2fde38b"
    },
    {
      "constant": true,
      "inputs": [],
      "name": "gameRandomRange",
      "outputs": [
        {
          "name": "",
          "type": "uint256"
        }
      ],
      "payable": false,
      "stateMutability": "view",
      "type": "function",
      "signature": "0xfed67fe4"
    },
    {
      "inputs": [],
      "payable": false,
      "stateMutability": "nonpayable",
      "type": "constructor",
      "signature": "constructor"
    },
    {
      "payable": true,
      "stateMutability": "payable",
      "type": "fallback"
    },
    {
      "anonymous": false,
      "inputs": [
        {
          "indexed": false,
          "name": "message",
          "type": "string"
        }
      ],
      "name": "GameStarted",
      "type": "event",
      "signature": "0x4c49022e3faa3d594bcd4c0a41d358281ad8bb232d3d0cdb1add1e71a9daf266"
    },
    {
      "anonymous": false,
      "inputs": [
        {
          "indexed": false,
          "name": "_contract",
          "type": "address"
        },
        {
          "indexed": false,
          "name": "_player",
          "type": "address"
        },
        {
          "indexed": false,
          "name": "_risk",
          "type": "uint256"
        },
        {
          "indexed": false,
          "name": "_bet",
          "type": "uint256"
        }
      ],
      "name": "logPlayerBetAccepted",
      "type": "event",
      "signature": "0x0493f0ee102db9238dcfc674e3590d07343d625075476694341009d96d905539"
    },
    {
      "anonymous": false,
      "inputs": [
        {
          "indexed": false,
          "name": "_contract",
          "type": "address"
        },
        {
          "indexed": false,
          "name": "_player",
          "type": "address"
        },
        {
          "indexed": false,
          "name": "_description",
          "type": "string"
        }
      ],
      "name": "logRollDice",
      "type": "event",
      "signature": "0x5c624037da372bb459131a7137f1657ae380b2419ed6071d29d957c194ed200c"
    },
    {
      "anonymous": false,
      "inputs": [
        {
          "indexed": false,
          "name": "_rolledDiceNumber",
          "type": "uint256"
        }
      ],
      "name": "logRolledDiceNumber",
      "type": "event",
      "signature": "0x2a2a80fe64b9843e83b5281d100235d26f12d2c8a19427e7c64b7badede75e1b"
    },
    {
      "anonymous": false,
      "inputs": [
        {
          "indexed": false,
          "name": "description",
          "type": "string"
        },
        {
          "indexed": false,
          "name": "_contract",
          "type": "address"
        },
        {
          "indexed": false,
          "name": "_player",
          "type": "address"
        },
        {
          "indexed": false,
          "name": "_rolledDiceNumber",
          "type": "uint256"
        },
        {
          "indexed": false,
          "name": "_betAmount",
          "type": "uint256"
        }
      ],
      "name": "logPlayerLose",
      "type": "event",
      "signature": "0x18008b5f6086bd3b79827452d1500916d620037ff83bf69d6d7e739040733d0f"
    },
    {
      "anonymous": false,
      "inputs": [
        {
          "indexed": false,
          "name": "description",
          "type": "string"
        },
        {
          "indexed": false,
          "name": "_contract",
          "type": "address"
        },
        {
          "indexed": false,
          "name": "_winner",
          "type": "address"
        },
        {
          "indexed": false,
          "name": "_rolledDiceNumber",
          "type": "uint256"
        },
        {
          "indexed": false,
          "name": "_profit",
          "type": "uint256"
        }
      ],
      "name": "logPlayerWins",
      "type": "event",
      "signature": "0xc4cfaea7e643952941f9703b6024c682372fc04075a3bf87687287b71f074469"
    },
    {
      "anonymous": false,
      "inputs": [
        {
          "indexed": false,
          "name": "description",
          "type": "string"
        }
      ],
      "name": "logNewOraclizeQuery",
      "type": "event",
      "signature": "0xd0f9dea447b4e92bc04cc421beba62dbef9e0f6d77e1d798c15ff591941edd70"
    },
    {
      "anonymous": false,
      "inputs": [
        {
          "indexed": false,
          "name": "_contractBalance",
          "type": "uint256"
        }
      ],
      "name": "logContractBalance",
      "type": "event",
      "signature": "0xd4a125efef1c3fca9f2d63ea257a143623b80df1843e34bf3bb8c3021739faf8"
    },
    {
      "anonymous": false,
      "inputs": [
        {
          "indexed": false,
          "name": "description",
          "type": "string"
        },
        {
          "indexed": false,
          "name": "_ownerAddress",
          "type": "address"
        },
        {
          "indexed": false,
          "name": "_ownerBalance",
          "type": "uint256"
        }
      ],
      "name": "logJackpotBalance",
      "type": "event",
      "signature": "0xd8846f41f4f0707db7a462eb57d3e2708cb1e9cb641b44000ca2edcd8cad1b8e"
    },
    {
      "anonymous": false,
      "inputs": [
        {
          "indexed": false,
          "name": "description",
          "type": "string"
        },
        {
          "indexed": false,
          "name": "_playerAddress",
          "type": "address"
        },
        {
          "indexed": false,
          "name": "_winAmount",
          "type": "uint256"
        }
      ],
      "name": "logPayWinner",
      "type": "event",
      "signature": "0x1d1f8e36149fc07505f5876cceb2ca561904e9e3a940effa716d74765df24c2e"
    },
    {
      "anonymous": false,
      "inputs": [
        {
          "indexed": false,
          "name": "description",
          "type": "string"
        },
        {
          "indexed": false,
          "name": "_maxAllowedBet",
          "type": "uint256"
        }
      ],
      "name": "logMaxAllowedBet",
      "type": "event",
      "signature": "0xadeaade94d61b1de6450a378938d3b7226431f1129423ef8b283f5991164fbc7"
    },
    {
      "anonymous": false,
      "inputs": [
        {
          "indexed": false,
          "name": "roundId",
          "type": "uint256"
        },
        {
          "indexed": false,
          "name": "winner",
          "type": "address"
        },
        {
          "indexed": false,
          "name": "betAmount",
          "type": "uint256"
        },
        {
          "indexed": true,
          "name": "player",
          "type": "address"
        },
        {
          "indexed": false,
          "name": "choice",
          "type": "uint256"
        },
        {
          "indexed": false,
          "name": "rolledDiceNumber",
          "type": "uint256"
        },
        {
          "indexed": false,
          "name": "winAmount",
          "type": "uint256"
        }
      ],
      "name": "RoundResolved",
      "type": "event",
      "signature": "0x463292da9bb42170650d7f7da233bb7cad9c5336f3bb8968639a78522be77a08"
    },
    {
      "anonymous": false,
      "inputs": [
        {
          "indexed": false,
          "name": "winner",
          "type": "address"
        },
        {
          "indexed": false,
          "name": "jackpot",
          "type": "uint256"
        }
      ],
      "name": "LotteryWin",
      "type": "event",
      "signature": "0x59eb56f0aaebc4c2e1de6e254bc52af79350363a072c9ef59851f0d0861a9642"
    },
    {
      "anonymous": false,
      "inputs": [
        {
          "indexed": false,
          "name": "paidAddress",
          "type": "address"
        },
        {
          "indexed": false,
          "name": "amount",
          "type": "uint256"
        }
      ],
      "name": "Payment",
      "type": "event",
      "signature": "0xd4f43975feb89f48dd30cabbb32011045be187d1e11c8ea9faa43efc35282519"
    },
    {
      "anonymous": false,
      "inputs": [
        {
          "indexed": false,
          "name": "_rolledDiceNumber",
          "type": "uint256"
        }
      ],
      "name": "logRolledDiceNumberBefore",
      "type": "event",
      "signature": "0x49dcaffba7966c6924976e0ac118fcce6a60d667c6c84d6be952873b6ba77236"
    },
    {
      "anonymous": false,
      "inputs": [
        {
          "indexed": false,
          "name": "_rolledDiceNumber",
          "type": "uint256"
        }
      ],
      "name": "logRolledDiceNumberBeforeS",
      "type": "event",
      "signature": "0x74d8386f755b69a79610e97d8fef7567d75ed25455b2e2ff9465b4b68b4d5268"
    },
    {
      "anonymous": false,
      "inputs": [
        {
          "indexed": false,
          "name": "_rolledDiceNumber",
          "type": "uint256"
        }
      ],
      "name": "logRolledDiceNumberAfter",
      "type": "event",
      "signature": "0x3279a0448c20679f0e2e5c95d03df3a09d3e08e5972d3852317a48fd43c6d6db"
    },
    {
      "anonymous": false,
      "inputs": [
        {
          "indexed": false,
          "name": "roundId",
          "type": "uint256"
        }
      ],
      "name": "logRoundIdIs",
      "type": "event",
      "signature": "0x43a741f052e02ea395a3fbdff0a24402ea494b6ba0a1e73942e849816c724e09"
    },
    {
      "anonymous": false,
      "inputs": [
        {
          "indexed": false,
          "name": "roundId",
          "type": "uint256"
        }
      ],
      "name": "logRoundIdIsS",
      "type": "event",
      "signature": "0xd19a09df91b9d9432db8c7f95a8db04f1aeb7fd9157f874cc1390d5667b446b0"
    },
    {
      "anonymous": false,
      "inputs": [
        {
          "indexed": false,
          "name": "message",
          "type": "string"
        },
        {
          "indexed": false,
          "name": "queryId",
          "type": "bytes32"
        }
      ],
      "name": "LogGetRandomness",
      "type": "event",
      "signature": "0xaf1377970ad92b4d34c9f58cf958a17a5537f57bc9f97f126c28b07637e94be3"
    },
    {
      "anonymous": false,
      "inputs": [
        {
          "indexed": true,
          "name": "previousOwner",
          "type": "address"
        },
        {
          "indexed": true,
          "name": "newOwner",
          "type": "address"
        }
      ],
      "name": "OwnershipTransferred",
      "type": "event",
      "signature": "0x8be0079c531659141344cd1fd0a4f28419497f9722a3daafe3b4186f6b6457e0"
    },
    {
      "constant": false,
      "inputs": [],
      "name": "startGame",
      "outputs": [],
      "payable": false,
      "stateMutability": "nonpayable",
      "type": "function",
      "signature": "0xd65ab5f2"
    },
    {
      "constant": false,
      "inputs": [],
      "name": "stopGame",
      "outputs": [],
      "payable": false,
      "stateMutability": "nonpayable",
      "type": "function",
      "signature": "0x83bd72ba"
    },
    {
      "constant": true,
      "inputs": [
        {
          "name": "roundId",
          "type": "uint256"
        }
      ],
      "name": "getRoundInfo",
      "outputs": [
        {
          "name": "playerAddress",
          "type": "address"
        },
        {
          "name": "risk",
          "type": "uint256"
        },
        {
          "name": "betAmount",
          "type": "uint256"
        },
        {
          "name": "rolledDiceNumber",
          "type": "uint256"
        },
        {
          "name": "winner",
          "type": "address"
        },
        {
          "name": "isClosed",
          "type": "bool"
        }
      ],
      "payable": false,
      "stateMutability": "view",
      "type": "function",
      "signature": "0x88c3ffb0"
    },
    {
      "constant": false,
      "inputs": [
        {
          "name": "_choice",
          "type": "uint256"
        }
      ],
      "name": "playSoloRound",
      "outputs": [
        {
          "name": "",
          "type": "uint256"
        }
      ],
      "payable": true,
      "stateMutability": "payable",
      "type": "function",
      "signature": "0xb86a3159"
    }
  ],
  "bytecode": "0x6080604052655af3107a40006007556103e86002026008556000600955662386f26fc10000600a5573fb6916095ca1df60bb79ce92ce3ea74c37c5d359600b60006101000a81548173ffffffffffffffffffffffffffffffffffffffff021916908373ffffffffffffffffffffffffffffffffffffffff1602179055506103e8601355670de0b6b3a7640000601455600160155560636016556611c37937e08000601755348015620000b057600080fd5b50336000806101000a81548173ffffffffffffffffffffffffffffffffffffffff021916908373ffffffffffffffffffffffffffffffffffffffff1602179055506000809054906101000a900473ffffffffffffffffffffffffffffffffffffffff1673ffffffffffffffffffffffffffffffffffffffff16600073ffffffffffffffffffffffffffffffffffffffff167f8be0079c531659141344cd1fd0a4f28419497f9722a3daafe3b4186f6b6457e060405160405180910390a3736f485c8bf6fc43ea212e93bbf8ce046c7f1cb475600260006101000a81548173ffffffffffffffffffffffffffffffffffffffff021916908373ffffffffffffffffffffffffffffffffffffffff1602179055506200022460017f01000000000000000000000000000000000000000000000000000000000000000260107f010000000000000000000000000000000000000000000000000000000000000002176200022a640100000000026401000000009004565b62000c4f565b600073ffffffffffffffffffffffffffffffffffffffff16600260009054906101000a900473ffffffffffffffffffffffffffffffffffffffff1673ffffffffffffffffffffffffffffffffffffffff161480620002c357506000620002c1600260009054906101000a900473ffffffffffffffffffffffffffffffffffffffff16620005f8640100000000026401000000009004565b145b15620002e657620002e4600062000603640100000000026401000000009004565b505b600260009054906101000a900473ffffffffffffffffffffffffffffffffffffffff1673ffffffffffffffffffffffffffffffffffffffff166338cc48316040518163ffffffff167c0100000000000000000000000000000000000000000000000000000000028152600401602060405180830381600087803b1580156200036d57600080fd5b505af115801562000382573d6000803e3d6000fd5b505050506040513d60208110156200039957600080fd5b810190808051906020019092919050505073ffffffffffffffffffffffffffffffffffffffff16600160009054906101000a900473ffffffffffffffffffffffffffffffffffffffff1673ffffffffffffffffffffffffffffffffffffffff161415156200050657600260009054906101000a900473ffffffffffffffffffffffffffffffffffffffff1673ffffffffffffffffffffffffffffffffffffffff166338cc48316040518163ffffffff167c0100000000000000000000000000000000000000000000000000000000028152600401602060405180830381600087803b1580156200048857600080fd5b505af11580156200049d573d6000803e3d6000fd5b505050506040513d6020811015620004b457600080fd5b8101908080519060200190929190505050600160006101000a81548173ffffffffffffffffffffffffffffffffffffffff021916908373ffffffffffffffffffffffffffffffffffffffff1602179055505b600160009054906101000a900473ffffffffffffffffffffffffffffffffffffffff1673ffffffffffffffffffffffffffffffffffffffff1663688dcfd7826040518263ffffffff167c010000000000000000000000000000000000000000000000000000000002815260040180827effffffffffffffffffffffffffffffffffffffffffffffffffffffffffffff19167effffffffffffffffffffffffffffffffffffffffffffffffffffffffffffff19168152602001915050600060405180830381600087803b158015620005dc57600080fd5b505af1158015620005f1573d6000803e3d6000fd5b5050505050565b6000813b9050919050565b60006200061e62000625640100000000026401000000009004565b9050919050565b60008062000656731d3b2638a7cc9f2cb3d298a3da7a90b67e5506ed620005f8640100000000026401000000009004565b11156200070b57731d3b2638a7cc9f2cb3d298a3da7a90b67e5506ed600260006101000a81548173ffffffffffffffffffffffffffffffffffffffff021916908373ffffffffffffffffffffffffffffffffffffffff160217905550620007016040518060400160405280600b81526020017f6574685f6d61696e6e657400000000000000000000000000000000000000000081525062000b84640100000000026401000000009004565b6001905062000b81565b60006200073b73c03a2615d5efaf5f49f60b7bb6583eaec212fdf1620005f8640100000000026401000000009004565b1115620007f05773c03a2615d5efaf5f49f60b7bb6583eaec212fdf1600260006101000a81548173ffffffffffffffffffffffffffffffffffffffff021916908373ffffffffffffffffffffffffffffffffffffffff160217905550620007e66040518060400160405280600c81526020017f6574685f726f707374656e33000000000000000000000000000000000000000081525062000b84640100000000026401000000009004565b6001905062000b81565b60006200082073b7a07bcf2ba2f2703b24c0691b5278999c59ac7e620005f8640100000000026401000000009004565b1115620008d55773b7a07bcf2ba2f2703b24c0691b5278999c59ac7e600260006101000a81548173ffffffffffffffffffffffffffffffffffffffff021916908373ffffffffffffffffffffffffffffffffffffffff160217905550620008cb6040518060400160405280600981526020017f6574685f6b6f76616e000000000000000000000000000000000000000000000081525062000b84640100000000026401000000009004565b6001905062000b81565b60006200090573146500cfd35b22e4a392fe0adc06de1a1368ed48620005f8640100000000026401000000009004565b1115620009ba5773146500cfd35b22e4a392fe0adc06de1a1368ed48600260006101000a81548173ffffffffffffffffffffffffffffffffffffffff021916908373ffffffffffffffffffffffffffffffffffffffff160217905550620009b06040518060400160405280600b81526020017f6574685f72696e6b65627900000000000000000000000000000000000000000081525062000b84640100000000026401000000009004565b6001905062000b81565b6000620009ea736f485c8bf6fc43ea212e93bbf8ce046c7f1cb475620005f8640100000000026401000000009004565b111562000a5057736f485c8bf6fc43ea212e93bbf8ce046c7f1cb475600260006101000a81548173ffffffffffffffffffffffffffffffffffffffff021916908373ffffffffffffffffffffffffffffffffffffffff1602179055506001905062000b81565b600062000a807320e12a1f859b3feae5fb2a0a32c18f5a65555bbf620005f8640100000000026401000000009004565b111562000ae6577320e12a1f859b3feae5fb2a0a32c18f5a65555bbf600260006101000a81548173ffffffffffffffffffffffffffffffffffffffff021916908373ffffffffffffffffffffffffffffffffffffffff1602179055506001905062000b81565b600062000b167351efaf4c8b3c9afbd5ab9f4bbc82784ab6ef8faa620005f8640100000000026401000000009004565b111562000b7c577351efaf4c8b3c9afbd5ab9f4bbc82784ab6ef8faa600260006101000a81548173ffffffffffffffffffffffffffffffffffffffff021916908373ffffffffffffffffffffffffffffffffffffffff1602179055506001905062000b81565b600090505b90565b806003908051906020019062000b9c92919062000ba0565b5050565b828054600181600116156101000203166002900490600052602060002090601f016020900481019282601f1062000be357805160ff191683800117855562000c14565b8280016001018555821562000c14579182015b8281111562000c1357825182559160200191906001019062000bf6565b5b50905062000c23919062000c27565b5090565b62000c4c91905b8082111562000c4857600081600090555060010162000c2e565b5090565b90565b613a588062000c5f6000396000f3fe608060405260043610610200576000357c010000000000000000000000000000000000000000000000000000000090048063715018a61161011f578063c38a8afd116100b2578063e169bf6c11610081578063e169bf6c146109fe578063f256473714610a08578063f2fde38b14610a33578063fed67fe414610a8457610200565b8063c38a8afd1461097a578063c4e7b6a4146109a5578063d5c62498146109d0578063d65ab5f2146109e757610200565b80638da5cb5b116100ee5780638da5cb5b146108875780638f32d59b146108de578063911d01891461090d578063b86a31591461093857610200565b8063715018a61461073c5780637de37f2a1461075357806383bd72ba146107a257806388c3ffb0146107b957610200565b806327dc297e116101975780636b31ee01116101665780636b31ee01146106645780636b9303991461068f5780636e8c2caf146106de5780636f1573c31461070d57610200565b806327dc297e146103ad5780633580ecd01461047f57806338bbfa50146104aa57806368742da61461061357610200565b806312a0e070116101d357806312a0e070146102d95780631583deb214610314578063160344e21461036b5780631b9300e91461038257610200565b806306385b211461021d5780630c07122214610258578063101a440614610283578063127f0b3f146102ae575b61021534601154610aaf90919063ffffffff16565b601181905550005b34801561022957600080fd5b506102566004803603602081101561024057600080fd5b8101908080359060200190929190505050610ad0565b005b34801561026457600080fd5b5061026d610aed565b6040518082815260200191505060405180910390f35b34801561028f57600080fd5b50610298610af3565b6040518082815260200191505060405180910390f35b3480156102ba57600080fd5b506102c3610af9565b6040518082815260200191505060405180910390f35b3480156102e557600080fd5b50610312600480360360208110156102fc57600080fd5b8101908080359060200190929190505050610aff565b005b34801561032057600080fd5b50610329610b1c565b604051808273ffffffffffffffffffffffffffffffffffffffff1673ffffffffffffffffffffffffffffffffffffffff16815260200191505060405180910390f35b34801561037757600080fd5b50610380610b42565b005b34801561038e57600080fd5b50610397610c87565b6040518082815260200191505060405180910390f35b3480156103b957600080fd5b5061047d600480360360408110156103d057600080fd5b8101908080359060200190929190803590602001906401000000008111156103f757600080fd5b82018360208201111561040957600080fd5b8035906020019184600183028401116401000000008311171561042b57600080fd5b91908080601f016020809104026020016040519081016040528093929190818152602001838380828437600081840152601f19601f820116905080830192505050505050509192919290505050610c8d565b005b34801561048b57600080fd5b50610494610cd0565b6040518082815260200191505060405180910390f35b3480156104b657600080fd5b50610611600480360360608110156104cd57600080fd5b8101908080359060200190929190803590602001906401000000008111156104f457600080fd5b82018360208201111561050657600080fd5b8035906020019184600183028401116401000000008311171561052857600080fd5b91908080601f016020809104026020016040519081016040528093929190818152602001838380828437600081840152601f19601f8201169050808301925050505050505091929192908035906020019064010000000081111561058b57600080fd5b82018360208201111561059d57600080fd5b803590602001918460018302840111640100000000831117156105bf57600080fd5b91908080601f016020809104026020016040519081016040528093929190818152602001838380828437600081840152601f19601f820116905080830192505050505050509192919290505050610cd6565b005b34801561061f57600080fd5b506106626004803603602081101561063657600080fd5b81019080803573ffffffffffffffffffffffffffffffffffffffff169060200190929190505050610d7a565b005b34801561067057600080fd5b50610679610e5e565b6040518082815260200191505060405180910390f35b34801561069b57600080fd5b506106c8600480360360208110156106b257600080fd5b8101908080359060200190929190505050610e64565b6040518082815260200191505060405180910390f35b3480156106ea57600080fd5b506106f3610e7c565b604051808215151515815260200191505060405180910390f35b34801561071957600080fd5b50610722610e8f565b604051808215151515815260200191505060405180910390f35b34801561074857600080fd5b50610751610ea2565b005b34801561075f57600080fd5b5061078c6004803603602081101561077657600080fd5b8101908080359060200190929190505050610f74565b6040518082815260200191505060405180910390f35b3480156107ae57600080fd5b506107b7610f8c565b005b3480156107c557600080fd5b506107f2600480360360208110156107dc57600080fd5b8101908080359060200190929190505050610f9e565b604051808773ffffffffffffffffffffffffffffffffffffffff1673ffffffffffffffffffffffffffffffffffffffff1681526020018681526020018581526020018481526020018373ffffffffffffffffffffffffffffffffffffffff1673ffffffffffffffffffffffffffffffffffffffff16815260200182151515158152602001965050505050505060405180910390f35b34801561089357600080fd5b5061089c611242565b604051808273ffffffffffffffffffffffffffffffffffffffff1673ffffffffffffffffffffffffffffffffffffffff16815260200191505060405180910390f35b3480156108ea57600080fd5b506108f361126b565b604051808215151515815260200191505060405180910390f35b34801561091957600080fd5b506109226112c2565b6040518082815260200191505060405180910390f35b6109646004803603602081101561094e57600080fd5b81019080803590602001909291905050506112c8565b6040518082815260200191505060405180910390f35b34801561098657600080fd5b5061098f611836565b6040518082815260200191505060405180910390f35b3480156109b157600080fd5b506109ba61183c565b6040518082815260200191505060405180910390f35b3480156109dc57600080fd5b506109e5611842565b005b3480156109f357600080fd5b506109fc611872565b005b610a06611884565b005b348015610a1457600080fd5b50610a1d6118a1565b6040518082815260200191505060405180910390f35b348015610a3f57600080fd5b50610a8260048036036020811015610a5657600080fd5b81019080803573ffffffffffffffffffffffffffffffffffffffff1690602001909291905050506118a7565b005b348015610a9057600080fd5b50610a996118c6565b6040518082815260200191505060405180910390f35b6000808284019050838110151515610ac657600080fd5b8091505092915050565b610ad861126b565b1515610ae357600080fd5b8060138190555050565b600a5481565b60165481565b600c5481565b610b0761126b565b1515610b1257600080fd5b80600a8190555050565b600b60009054906101000a900473ffffffffffffffffffffffffffffffffffffffff1681565b610b4a61126b565b1515610b5557600080fd5b3073ffffffffffffffffffffffffffffffffffffffff163160115411151515610be6576040517f08c379a000000000000000000000000000000000000000000000000000000000815260040180806020018281038252601d8152602001807f4a61636b706f74206c6f776572207468616e2053432062616c616e636500000081525060200191505060405180910390fd5b6014543073ffffffffffffffffffffffffffffffffffffffff163110158015610c13575060145460115410155b1515610c6a576040517f08c379a000000000000000000000000000000000000000000000000000000000815260040180806020018281038252602b815260200180613a02602b913960400191505060405180910390fd5b6001601260006101000a81548160ff021916908315150217905550565b60155481565b610ccc828260006040519080825280601f01601f191660200182016040528015610cc65781602001600182028038833980820191505090505b50610cd6565b5050565b60095481565b610cde6118cc565b73ffffffffffffffffffffffffffffffffffffffff163373ffffffffffffffffffffffffffffffffffffffff16141515610d63576040517f08c379a00000000000000000000000000000000000000000000000000000000081526004018080602001828103825260378152602001806138ff6037913960400191505060405180910390fd5b610d7583610d7084611c42565b611c56565b505050565b610d8261126b565b1515610d8d57600080fd5b6000801515600660009054906101000a900460ff161515141515610dfc576040517f08c379a000000000000000000000000000000000000000000000000000000000815260040180806020018281038252602c815260200180613978602c913960400191505060405180910390fd5b8173ffffffffffffffffffffffffffffffffffffffff166108fc3073ffffffffffffffffffffffffffffffffffffffff16319081150290604051600060405180830381858888f19350505050158015610e59573d6000803e3d6000fd5b505050565b60115481565b600e6020528060005260406000206000915090505481565b600660009054906101000a900460ff1681565b601260009054906101000a900460ff1681565b610eaa61126b565b1515610eb557600080fd5b600073ffffffffffffffffffffffffffffffffffffffff166000809054906101000a900473ffffffffffffffffffffffffffffffffffffffff1673ffffffffffffffffffffffffffffffffffffffff167f8be0079c531659141344cd1fd0a4f28419497f9722a3daafe3b4186f6b6457e060405160405180910390a360008060006101000a81548173ffffffffffffffffffffffffffffffffffffffff021916908373ffffffffffffffffffffffffffffffffffffffff160217905550565b600f6020528060005260406000206000915090505481565b610f94611dd3565b610f9c611842565b565b600080600080600080610faf61367d565b60106000898152602001908152602001600020604051806101400160405290816000820160405180606001604052908160008201548152602001600182015481526020016002820160009054906101000a900473ffffffffffffffffffffffffffffffffffffffff1673ffffffffffffffffffffffffffffffffffffffff1673ffffffffffffffffffffffffffffffffffffffff168152505081526020016003820160405180606001604052908160008201548152602001600182015481526020016002820160009054906101000a900473ffffffffffffffffffffffffffffffffffffffff1673ffffffffffffffffffffffffffffffffffffffff1673ffffffffffffffffffffffffffffffffffffffff16815250508152602001600682015481526020016007820160009054906101000a900473ffffffffffffffffffffffffffffffffffffffff1673ffffffffffffffffffffffffffffffffffffffff1673ffffffffffffffffffffffffffffffffffffffff1681526020016007820160149054906101000a900460ff161515151581526020016007820160159054906101000a900460ff161515151581526020016008820160009054906101000a900473ffffffffffffffffffffffffffffffffffffffff1673ffffffffffffffffffffffffffffffffffffffff1673ffffffffffffffffffffffffffffffffffffffff16815260200160098201548152602001600a8201548152602001600b82016040518060600160405290816000820154815260200160018201548152602001600282015481525050815250509050806000015160400151816000015160000151826040015183610120015160000151846060015185608001518595509650965096509650965096505091939550919395565b60008060009054906101000a900473ffffffffffffffffffffffffffffffffffffffff16905090565b60008060009054906101000a900473ffffffffffffffffffffffffffffffffffffffff1673ffffffffffffffffffffffffffffffffffffffff163373ffffffffffffffffffffffffffffffffffffffff1614905090565b60145481565b60006001801515600660009054906101000a900460ff161515141515611339576040517f08c379a000000000000000000000000000000000000000000000000000000000815260040180806020018281038252602c815260200180613978602c913960400191505060405180910390fd5b600c600081548092919060010191905055506000600c549050600084905060003390506000349050600061136d8285611e73565b905060006113ae60026113a0843073ffffffffffffffffffffffffffffffffffffffff1631611f4190919063ffffffff16565b611f6390919063ffffffff16565b90507fadeaade94d61b1de6450a378938d3b7226431f1129423ef8b283f5991164fbc7816040518080602001838152602001828103825260168152602001807f4d6178696d756d206265742061636365707465643a20000000000000000000008152506020019250505060405180910390a13073ffffffffffffffffffffffffffffffffffffffff1631831015156114ae576040517f08c379a000000000000000000000000000000000000000000000000000000000815260040180806020018281038252601f8152602001807f4e6f7420656e6f7567682062616c616e636520666f722074686973206265740081525060200191505060405180910390fd5b6114bb8360075483611f8d565b151561152f576040517f08c379a000000000000000000000000000000000000000000000000000000000815260040180806020018281038252600d8152602001807f4e6f742076616c6964206265740000000000000000000000000000000000000081525060200191505060405180910390fd5b61153e85601554601654611fa7565b15156115b2576040517f08c379a000000000000000000000000000000000000000000000000000000000815260040180806020018281038252600e8152602001807f4e6f742076616c6964207269736b00000000000000000000000000000000000081525060200191505060405180910390fd5b7f0493f0ee102db9238dcfc674e3590d07343d625075476694341009d96d90553930858786604051808573ffffffffffffffffffffffffffffffffffffffff1673ffffffffffffffffffffffffffffffffffffffff1681526020018473ffffffffffffffffffffffffffffffffffffffff1673ffffffffffffffffffffffffffffffffffffffff16815260200183815260200182815260200194505050505060405180910390a1661c6bf52634000034101515156116d8576040517f08c379a00000000000000000000000000000000000000000000000000000000081526004018080602001828103825260158152602001807f6f7261636c652063616e6e6f742063616c6c206d65000000000000000000000081525060200191505060405180910390fd5b7f5c624037da372bb459131a7137f1657ae380b2419ed6071d29d957c194ed200c3085604051808373ffffffffffffffffffffffffffffffffffffffff1673ffffffffffffffffffffffffffffffffffffffff1681526020018273ffffffffffffffffffffffffffffffffffffffff1673ffffffffffffffffffffffffffffffffffffffff168152602001806020018281038252604281526020018061393660429139606001935050505060405180910390a1846010600088815260200190815260200160002060000160000181905550826010600088815260200190815260200160002060060181905550836010600088815260200190815260200160002060000160020160006101000a81548173ffffffffffffffffffffffffffffffffffffffff021916908373ffffffffffffffffffffffffffffffffffffffff160217905550611827606487611fc1565b85975050505050505050919050565b60075481565b60175481565b61184a61126b565b151561185557600080fd5b6000601260006101000a81548160ff021916908315150217905550565b61187a612125565b611882610b42565b565b61189934601154610aaf90919063ffffffff16565b601181905550565b60135481565b6118af61126b565b15156118ba57600080fd5b6118c38161222d565b50565b600d5481565b60008073ffffffffffffffffffffffffffffffffffffffff16600260009054906101000a900473ffffffffffffffffffffffffffffffffffffffff1673ffffffffffffffffffffffffffffffffffffffff16148061195457506000611952600260009054906101000a900473ffffffffffffffffffffffffffffffffffffffff16612327565b145b15611965576119636000612332565b505b600260009054906101000a900473ffffffffffffffffffffffffffffffffffffffff1673ffffffffffffffffffffffffffffffffffffffff166338cc48316040518163ffffffff167c0100000000000000000000000000000000000000000000000000000000028152600401602060405180830381600087803b1580156119eb57600080fd5b505af11580156119ff573d6000803e3d6000fd5b505050506040513d6020811015611a1557600080fd5b810190808051906020019092919050505073ffffffffffffffffffffffffffffffffffffffff16600160009054906101000a900473ffffffffffffffffffffffffffffffffffffffff1673ffffffffffffffffffffffffffffffffffffffff16141515611b7e57600260009054906101000a900473ffffffffffffffffffffffffffffffffffffffff1673ffffffffffffffffffffffffffffffffffffffff166338cc48316040518163ffffffff167c0100000000000000000000000000000000000000000000000000000000028152600401602060405180830381600087803b158015611b0257600080fd5b505af1158015611b16573d6000803e3d6000fd5b505050506040513d6020811015611b2c57600080fd5b8101908080519060200190929190505050600160006101000a81548173ffffffffffffffffffffffffffffffffffffffff021916908373ffffffffffffffffffffffffffffffffffffffff1602179055505b600160009054906101000a900473ffffffffffffffffffffffffffffffffffffffff1673ffffffffffffffffffffffffffffffffffffffff1663c281d19e6040518163ffffffff167c010000000000000000000000000000000000000000000000000000000002815260040160206040518083038186803b158015611c0257600080fd5b505afa158015611c16573d6000803e3d6000fd5b505050506040513d6020811015611c2c57600080fd5b8101908080519060200190929190505050905090565b6000611c4f826000612343565b9050919050565b60008090506000600e600085815260200190815260200160002054141515611c9357600e6000848152602001908152602001600020549050611cc8565b6000600f600085815260200190815260200160002054141515611cc757600f60008481526020019081526020016000205490505b5b60006010600083815260200190815260200160002090506000600e600086815260200190815260200160002054141515611d0d578281600b0160010181905550611d38565b6000600f600086815260200190815260200160002054141515611d37578281600b01600201819055505b5b600081600b016001015414158015611d585750600081600b016002015414155b15611dcd576000600d5482600b016002015483600b016001015418811515611d7c57fe5b0690508082600b01600001819055507f2a2a80fe64b9843e83b5281d100235d26f12d2c8a19427e7c64b7badede75e1b816040518082815260200191505060405180910390a1611dcb836125de565b505b50505050565b611ddb61126b565b1515611de657600080fd5b6001801515600660009054906101000a900460ff161515141515611e55576040517f08c379a000000000000000000000000000000000000000000000000000000000815260040180806020018281038252602c815260200180613978602c913960400191505060405180910390fd5b6000600660006101000a81548160ff02191690831515021790555050565b600080661c6bf52634000090506000611ea86064611e9a86886127d590919063ffffffff16565b611f6390919063ffffffff16565b90506000620f4240611ec5611388886127d590919063ffffffff16565b811515611ece57fe5b0490506000620f4240611eec600854896127d590919063ffffffff16565b811515611ef557fe5b0490506000611f3185611f2384611f158789611f4190919063ffffffff16565b611f4190919063ffffffff16565b611f4190919063ffffffff16565b9050809550505050505092915050565b6000828211151515611f5257600080fd5b600082840390508091505092915050565b60008082111515611f7357600080fd5b60008284811515611f8057fe5b0490508091505092915050565b6000828410158015611f9e57508184105b90509392505050565b60008284118015611fb85750818411155b90509392505050565b600061201b6040518060400160405280600381526020017f55524c000000000000000000000000000000000000000000000000000000000081525060405180610120016040528060ec815260200161381360ec9139612813565b905060006120766040518060400160405280600381526020017f55524c00000000000000000000000000000000000000000000000000000000008152506040518060800160405280605e81526020016139a4605e9139612813565b905082600e60008381526020019081526020016000208190555082600f60008481526020019081526020016000208190555083600d819055507faf1377970ad92b4d34c9f58cf958a17a5537f57bc9f97f126c28b07637e94be3816040518080602001838152602001828103825260128152602001807f67657474696e672072616e646f6d6e65737300000000000000000000000000008152506020019250505060405180910390a150505050565b61212d61126b565b151561213857600080fd5b6000801515600660009054906101000a900460ff1615151415156121a7576040517f08c379a000000000000000000000000000000000000000000000000000000000815260040180806020018281038252602c815260200180613978602c913960400191505060405180910390fd5b6001600660006101000a81548160ff0219169083151502179055507f4c49022e3faa3d594bcd4c0a41d358281ad8bb232d3d0cdb1add1e71a9daf26660405180806020018281038252600c8152602001807f67616d652073746172746564000000000000000000000000000000000000000081525060200191505060405180910390a150565b600073ffffffffffffffffffffffffffffffffffffffff168173ffffffffffffffffffffffffffffffffffffffff161415151561226957600080fd5b8073ffffffffffffffffffffffffffffffffffffffff166000809054906101000a900473ffffffffffffffffffffffffffffffffffffffff1673ffffffffffffffffffffffffffffffffffffffff167f8be0079c531659141344cd1fd0a4f28419497f9722a3daafe3b4186f6b6457e060405160405180910390a3806000806101000a81548173ffffffffffffffffffffffffffffffffffffffff021916908373ffffffffffffffffffffffffffffffffffffffff16021790555050565b6000813b9050919050565b600061233c612dd0565b9050919050565b600060608390506000809050600080905060008090505b83518110156125bf576030848281518110151561237357fe5b9060200101517f010000000000000000000000000000000000000000000000000000000000000090047f0100000000000000000000000000000000000000000000000000000000000000027f0100000000000000000000000000000000000000000000000000000000000000900460ff16101580156124715750603984828151811015156123fd57fe5b9060200101517f010000000000000000000000000000000000000000000000000000000000000090047f0100000000000000000000000000000000000000000000000000000000000000027f0100000000000000000000000000000000000000000000000000000000000000900460ff1611155b1561252557811561249457600086141561248a576125bf565b8580600190039650505b600a83029250603084828151811015156124aa57fe5b9060200101517f010000000000000000000000000000000000000000000000000000000000000090047f0100000000000000000000000000000000000000000000000000000000000000027f0100000000000000000000000000000000000000000000000000000000000000900460ff1603830192506125b2565b602e848281518110151561253557fe5b9060200101517f010000000000000000000000000000000000000000000000000000000000000090047f0100000000000000000000000000000000000000000000000000000000000000027f0100000000000000000000000000000000000000000000000000000000000000900460ff1614156125b157600191505b5b808060010191505061235a565b5060008511156125d25784600a0a820291505b81935050505092915050565b6000601060008381526020019081526020016000209050600081600b01600001549050816000016000015481111561267f578160000160020160009054906101000a900473ffffffffffffffffffffffffffffffffffffffff168260070160006101000a81548173ffffffffffffffffffffffffffffffffffffffff021916908373ffffffffffffffffffffffffffffffffffffffff1602179055506126c3565b308260070160006101000a81548173ffffffffffffffffffffffffffffffffffffffff021916908373ffffffffffffffffffffffffffffffffffffffff1602179055505b60006126ce84613266565b90508260000160020160009054906101000a900473ffffffffffffffffffffffffffffffffffffffff1673ffffffffffffffffffffffffffffffffffffffff167f463292da9bb42170650d7f7da233bb7cad9c5336f3bb8968639a78522be77a08858560070160009054906101000a900473ffffffffffffffffffffffffffffffffffffffff168660060154876000016000015488600b016000015487604051808781526020018673ffffffffffffffffffffffffffffffffffffffff1673ffffffffffffffffffffffffffffffffffffffff168152602001858152602001848152602001838152602001828152602001965050505050505060405180910390a250505050565b6000808314156127e8576000905061280d565b600082840290508284828115156127fb57fe5b0414151561280857600080fd5b809150505b92915050565b60008073ffffffffffffffffffffffffffffffffffffffff16600260009054906101000a900473ffffffffffffffffffffffffffffffffffffffff1673ffffffffffffffffffffffffffffffffffffffff16148061289b57506000612899600260009054906101000a900473ffffffffffffffffffffffffffffffffffffffff16612327565b145b156128ac576128aa6000612332565b505b600260009054906101000a900473ffffffffffffffffffffffffffffffffffffffff1673ffffffffffffffffffffffffffffffffffffffff166338cc48316040518163ffffffff167c0100000000000000000000000000000000000000000000000000000000028152600401602060405180830381600087803b15801561293257600080fd5b505af1158015612946573d6000803e3d6000fd5b505050506040513d602081101561295c57600080fd5b810190808051906020019092919050505073ffffffffffffffffffffffffffffffffffffffff16600160009054906101000a900473ffffffffffffffffffffffffffffffffffffffff1673ffffffffffffffffffffffffffffffffffffffff16141515612ac557600260009054906101000a900473ffffffffffffffffffffffffffffffffffffffff1673ffffffffffffffffffffffffffffffffffffffff166338cc48316040518163ffffffff167c0100000000000000000000000000000000000000000000000000000000028152600401602060405180830381600087803b158015612a4957600080fd5b505af1158015612a5d573d6000803e3d6000fd5b505050506040513d6020811015612a7357600080fd5b8101908080519060200190929190505050600160006101000a81548173ffffffffffffffffffffffffffffffffffffffff021916908373ffffffffffffffffffffffffffffffffffffffff1602179055505b6000600160009054906101000a900473ffffffffffffffffffffffffffffffffffffffff1673ffffffffffffffffffffffffffffffffffffffff1663524f3889856040518263ffffffff167c01000000000000000000000000000000000000000000000000000000000281526004018080602001828103825283818151815260200191508051906020019080838360005b83811015612b71578082015181840152602081019050612b56565b50505050905090810190601f168015612b9e5780820380516001836020036101000a031916815260200191505b5092505050602060405180830381600087803b158015612bbd57600080fd5b505af1158015612bd1573d6000803e3d6000fd5b505050506040513d6020811015612be757600080fd5b8101908080519060200190929190505050905062030d403a02670de0b6b3a764000001811115612c1e576000600102915050612dca565b600160009054906101000a900473ffffffffffffffffffffffffffffffffffffffff1673ffffffffffffffffffffffffffffffffffffffff1663adf59f9982600087876040518563ffffffff167c0100000000000000000000000000000000000000000000000000000000028152600401808481526020018060200180602001838103835285818151815260200191508051906020019080838360005b83811015612cd6578082015181840152602081019050612cbb565b50505050905090810190601f168015612d035780820380516001836020036101000a031916815260200191505b50838103825284818151815260200191508051906020019080838360005b83811015612d3c578082015181840152602081019050612d21565b50505050905090810190601f168015612d695780820380516001836020036101000a031916815260200191505b50955050505050506020604051808303818588803b158015612d8a57600080fd5b505af1158015612d9e573d6000803e3d6000fd5b50505050506040513d6020811015612db557600080fd5b81019080805190602001909291905050509150505b92915050565b600080612df0731d3b2638a7cc9f2cb3d298a3da7a90b67e5506ed612327565b1115612e9257731d3b2638a7cc9f2cb3d298a3da7a90b67e5506ed600260006101000a81548173ffffffffffffffffffffffffffffffffffffffff021916908373ffffffffffffffffffffffffffffffffffffffff160217905550612e896040518060400160405280600b81526020017f6574685f6d61696e6e6574000000000000000000000000000000000000000000815250613663565b60019050613263565b6000612eb173c03a2615d5efaf5f49f60b7bb6583eaec212fdf1612327565b1115612f535773c03a2615d5efaf5f49f60b7bb6583eaec212fdf1600260006101000a81548173ffffffffffffffffffffffffffffffffffffffff021916908373ffffffffffffffffffffffffffffffffffffffff160217905550612f4a6040518060400160405280600c81526020017f6574685f726f707374656e330000000000000000000000000000000000000000815250613663565b60019050613263565b6000612f7273b7a07bcf2ba2f2703b24c0691b5278999c59ac7e612327565b11156130145773b7a07bcf2ba2f2703b24c0691b5278999c59ac7e600260006101000a81548173ffffffffffffffffffffffffffffffffffffffff021916908373ffffffffffffffffffffffffffffffffffffffff16021790555061300b6040518060400160405280600981526020017f6574685f6b6f76616e0000000000000000000000000000000000000000000000815250613663565b60019050613263565b600061303373146500cfd35b22e4a392fe0adc06de1a1368ed48612327565b11156130d55773146500cfd35b22e4a392fe0adc06de1a1368ed48600260006101000a81548173ffffffffffffffffffffffffffffffffffffffff021916908373ffffffffffffffffffffffffffffffffffffffff1602179055506130cc6040518060400160405280600b81526020017f6574685f72696e6b656279000000000000000000000000000000000000000000815250613663565b60019050613263565b60006130f4736f485c8bf6fc43ea212e93bbf8ce046c7f1cb475612327565b111561315857736f485c8bf6fc43ea212e93bbf8ce046c7f1cb475600260006101000a81548173ffffffffffffffffffffffffffffffffffffffff021916908373ffffffffffffffffffffffffffffffffffffffff16021790555060019050613263565b60006131777320e12a1f859b3feae5fb2a0a32c18f5a65555bbf612327565b11156131db577320e12a1f859b3feae5fb2a0a32c18f5a65555bbf600260006101000a81548173ffffffffffffffffffffffffffffffffffffffff021916908373ffffffffffffffffffffffffffffffffffffffff16021790555060019050613263565b60006131fa7351efaf4c8b3c9afbd5ab9f4bbc82784ab6ef8faa612327565b111561325e577351efaf4c8b3c9afbd5ab9f4bbc82784ab6ef8faa600260006101000a81548173ffffffffffffffffffffffffffffffffffffffff021916908373ffffffffffffffffffffffffffffffffffffffff16021790555060019050613263565b600090505b90565b60008060106000848152602001908152602001600020905060008160000160020160009054906101000a900473ffffffffffffffffffffffffffffffffffffffff1673ffffffffffffffffffffffffffffffffffffffff168260070160009054906101000a900473ffffffffffffffffffffffffffffffffffffffff1673ffffffffffffffffffffffffffffffffffffffff1614905060018260070160146101000a81548160ff0219169083151502179055506000811561353857600061333884600601548560000160000154611e73565b90508084600a0181905550600081111561353657613363818560060154610aaf90919063ffffffff16565b915083600601543073ffffffffffffffffffffffffffffffffffffffff1631101515156133f8576040517f08c379a000000000000000000000000000000000000000000000000000000000815260040180806020018281038252600a8152602001807f63616e6e6f74207061790000000000000000000000000000000000000000000081525060200191505060405180910390fd5b7f1d1f8e36149fc07505f5876cceb2ca561904e9e3a940effa716d74765df24c2e8460000160020160009054906101000a900473ffffffffffffffffffffffffffffffffffffffff16856006015460405180806020018473ffffffffffffffffffffffffffffffffffffffff1673ffffffffffffffffffffffffffffffffffffffff1681526020018381526020018281038252600c8152602001807f5061792077696e6e65723a200000000000000000000000000000000000000000815250602001935050505060405180910390a18360000160020160009054906101000a900473ffffffffffffffffffffffffffffffffffffffff1673ffffffffffffffffffffffffffffffffffffffff166108fc839081150290604051600060405180830381858888f19350505050158015613534573d6000803e3d6000fd5b505b505b600015158215151415613658577f18008b5f6086bd3b79827452d1500916d620037ff83bf69d6d7e739040733d0f308460000160020160009054906101000a900473ffffffffffffffffffffffffffffffffffffffff1685600b0160000154866006015460405180806020018673ffffffffffffffffffffffffffffffffffffffff1673ffffffffffffffffffffffffffffffffffffffff1681526020018573ffffffffffffffffffffffffffffffffffffffff1673ffffffffffffffffffffffffffffffffffffffff1681526020018481526020018381526020018281038252600d8152602001807f506c61796572206c6f73653a20000000000000000000000000000000000000008152506020019550505050505060405180910390a15b809350505050919050565b8060039080519060200190613679929190613712565b5050565b604051806102000160405280613691613792565b815260200161369e613792565b815260200160008152602001600073ffffffffffffffffffffffffffffffffffffffff168152602001600015158152602001600015158152602001600073ffffffffffffffffffffffffffffffffffffffff168152602001600081526020016000815260200161370c6137cc565b81525090565b828054600181600116156101000203166002900490600052602060002090601f016020900481019282601f1061375357805160ff1916838001178555613781565b82800160010185558215613781579182015b82811115613780578251825591602001919060010190613765565b5b50905061378e91906137ed565b5090565b60405180606001604052806000815260200160008019168152602001600073ffffffffffffffffffffffffffffffffffffffff1681525090565b60405180606001604052806000815260200160008152602001600081525090565b61380f91905b8082111561380b5760008160009055506001016137f3565b5090565b9056fe424456754c326831416c33432f7a49764e72306e4655586b48762b5838576c337768522f617342336665685441593456554d3667453434644d714e72437a58687a6178515555522b5a4b50542f655a2f7176663436333669654c6f7a476c7a482b6431444d61326b614b49506a2b686a622b7054554b46786f574f68793632316b6c763357334336794f7057507356774d4c7231546e4d6748523769364755693178333437756d69506d4247745675785a707a68464f57505563737a4a414a4b366c377333654774527433776976426a784551434967444333664a56476f355a2b4448542b7379574b773d3d44656e6965642061636365737320746f2063616c6c6261636b2066756e6374696f6e2c206f7261636c65206f6e6c7920616c6c6f7765644f7261636c697a6520717565727920746f2072616e646f6d2e6f7267207761732073656e742c207374616e64696e6720627920666f722074686520616e737765722e46756e6374696f6e20617661696c61626c65206f6e6c79207768656e2067616d652069732072756e6e696e6768747470733a2f2f7777772e72616e646f6d2e6f72672f696e7465676572732f3f6e756d3d31266d696e3d30266d61783d3130303030303030303026636f6c3d3126626173653d313026666f726d61743d706c61696e26726e643d6e65774d696e696d756d204a61636b706f74206973206e656564656420666f72207374617274696e672067616d65a165627a7a723058202ac9d9949ac706fc738c86fe40581452fd9189c8ac4a26b2aead9e858d3a71130029",
  "source": "pragma solidity ^0.5.0;\n\n\nimport \"./GamblingGame.sol\";\nimport \"./oraclizeAPI.sol\";\nimport \"./LotteryGame.sol\";\n//import \"./StartStopGame.sol\";\n\n\n/** @title Dice - Dice game\n  * @author Rodrigo Gmez Gentil, Antonio Cruz Surez\n */\n\ncontract Dice is usingOraclize, GamblingGame, LotteryGame {\n\n    using SafeMath for uint;\n\n    // uint public minimumBet = 0.0001 ether;\n    uint public minimumRisk = 1;\n    uint public maximumRisk = 99;\n    uint public feeJackpot =  5000000000000000;  // Fund to jackpot 0.005 ether as a fee\n\n    uint constant DICE_RANDOM_RANGE = 100;\n\n    event GameStarted(string message);\n\n    // Events\n    event logPlayerBetAccepted(address _contract, address _player, uint _risk, uint _bet);\n    event logRollDice(address _contract, address _player, string _description);\n    event logRolledDiceNumber(uint _rolledDiceNumber);\n    event logPlayerLose(string description, address _contract, address _player, uint _rolledDiceNumber, uint _betAmount);\n    event logPlayerWins(string description, address _contract, address _winner, uint _rolledDiceNumber, uint _profit);\n    event logNewOraclizeQuery(string description);\n    event logContractBalance(uint _contractBalance);\n    event logJackpotBalance(string description, address _ownerAddress, uint _ownerBalance);\n    event logPayWinner(string description, address _playerAddress, uint _winAmount);\n    event logMaxAllowedBet(string description, uint _maxAllowedBet);\n\n    event RoundResolved(\n        uint roundId,\n        address winner,\n        uint betAmount,\n        address indexed player,\n        uint choice,\n        uint rolledDiceNumber,\n        uint winAmount\n    );\n\n\n    constructor()\n    public\n    {\n        // Replace the next line with your version:\n        //OAR = OraclizeAddrResolverI(0x18C0cAb11428daf78bF6Fcc0fcb8Dea742ab715D);\n\n        // set Oraclize proof type\n        //oraclize_setProof(proofType_TLSNotary | proofStorage_IPFS);\n    }\n\n    function startGame() public {\n        super.startGame();\n        startLottery();\n    }\n\n    function stopGame() public {\n        super.stopGame();\n        stopLottery();\n    }\n\n    function getRoundInfo(\n        uint roundId\n    )\n        external\n        view\n        returns(\n            address playerAddress,\n            uint risk,\n            uint betAmount,\n            uint rolledDiceNumber,\n            address payable winner,\n            bool isClosed\n        )\n    {\n        Round memory myRound = rounds[roundId];\n        return (\n            myRound.player1.playerAddress,\n            myRound.player1.choice,\n            myRound.betAmount,\n            myRound.oraclizeCallback.oraclesChoice,\n            myRound.winner,\n            myRound.isClosed\n        );\n    }\n\n    function calculateProfit(uint betAmount, uint risk)\n    private\n    view\n    returns (uint)\n    {\n        uint feeOraclize = 0.008 ether; // Oraclize service charges 0.004 Ether as a fee for querying random.org, two queries\n\n        uint grossProfit = betAmount.mul(risk).div(100);\n\n        uint jackpotFee = betAmount.mul(jackpotFeeRate) / feeUnits;\n        uint businessFee = betAmount.mul(businessFeeRate) / feeUnits;\n\n        uint netProfit = grossProfit.sub(jackpotFee).sub(businessFee).sub(feeOraclize);\n        return (netProfit);\n\n    }\n\n    /**\n     * @notice Test if the risk assumed by the user is the minimum accepted by the game\n     * @param _risk : Risk assumed by the player\n     * @param _minimumRisk Indicates the minimum risk accepted to play the game\n     * @return True if the risk is over 30, False otherwise.\n     */\n    function isValidRisk (uint _risk, uint _minimumRisk, uint _maximumRisk)\n        internal\n        pure\n        returns (bool)\n    {\n        return ((_risk > _minimumRisk) && (_risk <= _maximumRisk));\n    }\n\n    function playSoloRound(uint _choice) public payable gameIsOn(true) returns(uint) {\n\n        roundCount++;\n        uint roundId = roundCount;\n\n        uint risk = _choice;\n        // bytes32 oraclizeQueryId;\n        address payable playerAddress = msg.sender;\n\n        uint betAmount = msg.value;\n        uint netPossibleProfit = calculateProfit(betAmount, risk);\n        uint maximumBet = address(this).balance.sub(netPossibleProfit).div(2);\n\n        emit logMaxAllowedBet(\"Maximum bet accepted: \", maximumBet);\n\n        require(betAmount < address(this).balance, \"Not enough balance for this bet\");\n        require(isValidBet(betAmount, minimumBet, maximumBet), \"Not valid bet\");\n        require(isValidRisk(risk, minimumRisk, maximumRisk), \"Not valid risk\");\n        emit logPlayerBetAccepted(address(this), playerAddress, risk, betAmount);\n        require(msg.value >= 0.008 ether, \"oracle cannot call me\");\n\n        // Making oraclized query to random.org.\n        emit logRollDice(address(this), playerAddress, \"Oraclize query to random.org was sent, standing by for the answer.\");\n\n        // rounds[roundId].risk = risk;\n        rounds[roundId].player1.choice = risk;\n        rounds[roundId].betAmount = betAmount;\n        rounds[roundId].player1.playerAddress = playerAddress;\n\n        _setRandomness(DICE_RANDOM_RANGE, roundId);\n\n        return roundId;\n    }\n\n    function _resolveRound(uint _roundId) private {\n        Round storage round = rounds[_roundId];\n        uint rolledDiceNumber = round.oraclizeCallback.oraclesChoice;\n\n        // If the number of the rolled dice is higher than the assumed risk then the player wins\n        if(rolledDiceNumber > round.player1.choice) {\n            round.winner = round.player1.playerAddress;\n        } else {\n            round.winner = address(this);\n        }\n\n        uint winAmount = _payRound(_roundId);\n\n        emit RoundResolved(\n            _roundId, round.winner,\n            round.betAmount,\n            round.player1.playerAddress,\n            round.player1.choice,\n            round.oraclizeCallback.oraclesChoice,\n            winAmount\n        );\n    }\n\n    function _checkWinner(Player memory player1, Player memory player2) private pure returns(address payable) {\n        if ((uint(player1.choice) + 1) % 3 == uint(player2.choice)) {\n            return player2.playerAddress;\n        } else if ((uint(player1.choice) + 2) % 3 == uint(player2.choice)) {\n            return player1.playerAddress;\n        } else {\n            return address(0);\n        }\n    }\n\n    function _payRound(uint _roundId) private returns(uint) {\n        Round storage round = rounds[_roundId];\n        bool playerWins = round.winner == round.player1.playerAddress;\n        round.isClosed = true;\n        uint winAmount;\n        if(playerWins) {\n\n            // Calculate player profit\n            uint netProfit = calculateProfit(round.betAmount, round.player1.choice);\n\n            round.profit = netProfit;\n            //emit logPlayerWins(\"Player wins: \", address(this), round.player1.playerAddress, round.rolledDiceNumber, netProfit);\n\n            if(netProfit > 0) {\n                // payWinner(round.player1.playerAddress, round.betAmount, netProfit);\n                winAmount = round.betAmount.add(netProfit);\n                require( address(this).balance >= round.betAmount, \"cannot pay\" );\n                emit logPayWinner(\"Pay winner: \", round.player1.playerAddress, round.betAmount);\n                round.player1.playerAddress.transfer(winAmount);\n            }\n\n         }\n\n         if(playerWins==false) {\n             emit logPlayerLose(\"Player lose: \",address(this), round.player1.playerAddress, round.oraclizeCallback.oraclesChoice, round.betAmount);\n        }\n        return winAmount;\n    }\n\n    function _playLottery(address payable playerAddress, uint _roundId) private returns (bool) {\n        return false;\n    }\n\n\n    function _setResult(bytes32 myid, uint oraclizeResult) private\n    {\n        uint roundId = 0;\n\n        if (queryIdToRounds[myid] != 0) {\n            roundId = queryIdToRounds[myid];\n        } else if (secretQueryIdToRounds[myid] != 0) {\n            roundId = secretQueryIdToRounds[myid];\n        }\n\n        Round storage round = rounds[roundId];\n\n        if (queryIdToRounds[myid] != 0) {\n            round.oraclizeCallback.queryResult = oraclizeResult;\n        } else if (secretQueryIdToRounds[myid] != 0) {\n            round.oraclizeCallback.secretQueryResult = oraclizeResult;\n        }\n\n        if (round.oraclizeCallback.queryResult != 0 && round.oraclizeCallback.secretQueryResult != 0) {\n            uint rolledDiceNumber = (round.oraclizeCallback.queryResult ^ round.oraclizeCallback.secretQueryResult) % gameRandomRange;\n            round.oraclizeCallback.oraclesChoice = rolledDiceNumber;\n            emit logRolledDiceNumber(rolledDiceNumber);\n            _resolveRound(roundId);\n        }\n    }\n}",
  "sourcePath": "/home/rggentil/Documents/master_ethereum/BLOCKCHAINTFM/RPS_commit_and_reveal/contracts/Dice.sol",
  "compiler": {
    "name": "solc",
    "version": "0.5.5+commit.47a71e8f.Emscripten.clang"
  },
  "schemaVersion": "3.0.6",
  "updatedAt": "2019-04-13T18:28:47.537Z",
  "devdoc": {
    "author": "Rodrigo Gmez Gentil, Antonio Cruz Surez",
    "methods": {
      "__callback(bytes32,string,bytes)": {
        "details": "Get the querys using the parameter myid",
        "params": {
          "myid": "The id of the query",
          "result": "The result of the query"
        }
      },
      "fundGame()": {
        "details": "It's just the same as fallback function."
      },
      "isOwner()": {
        "return": "true if `msg.sender` is the owner of the contract."
      },
      "owner()": {
        "return": "the address of the owner."
      },
      "renounceOwnership()": {
        "details": "Allows the current owner to relinquish control of the contract."
      },
      "setLotteryRate(uint256)": {
        "details": "Mostly for testing porpuse. It should be removed in final deployment or no modifiable by anyone",
        "params": {
          "newLotteryRate": "new lottery rate"
        }
      },
      "setminBusinessFeePayment(uint256)": {
        "details": "Mostly for testing porpuse. It should be removed in final deployment or no modifiable by anyone",
        "params": {
          "newMinBusinessFeePayment": "new min amount of ETH to transfer to business"
        }
      },
      "transferOwnership(address)": {
        "details": "Allows the current owner to transfer control of the contract to a newOwner.",
        "params": {
          "newOwner": "The address to transfer ownership to."
        }
      },
      "withdrawFunds(address)": {
        "params": {
          "_myAddress": "addres to withdraw funds to"
        }
      }
    },
    "title": "Dice - Dice game"
  },
  "userdoc": {
    "methods": {
      "__callback(bytes32,string,bytes)": {
        "notice": "Callback function to emit the events with the information we want."
      },
      "fundGame()": {
        "notice": "Payable, to fund game by adding ethers to contract and to the jackpot"
      },
      "renounceOwnership()": {
        "notice": "Renouncing to ownership will leave the contract without an owner. It will not be possible to call the functions with the `onlyOwner` modifier anymore."
      },
      "setLotteryRate(uint256)": {
        "notice": "Set the lottery rate in percentage, how easy is to hit the jackpot"
      },
      "setminBusinessFeePayment(uint256)": {
        "notice": "Set the minimum amount of ETH to be transfered when collecting business fees"
      },
      "startLottery()": {
        "notice": "Start lottery (this means playing for jackpot)"
      },
      "stopLottery()": {
        "notice": "Stop lottery (this means stop playing for jackpot)"
      },
      "withdrawFunds(address)": {
        "notice": "Withdraw funds in case of an emergengy. Set jackpot to 0."
      }
    }
  }
}