{
  "contractName": "Game",
  "abi": [
    {
      "constant": true,
      "inputs": [],
      "name": "jackpot",
      "outputs": [
        {
          "name": "",
          "type": "uint256"
        }
      ],
      "payable": false,
      "stateMutability": "view",
      "type": "function"
    },
    {
      "constant": true,
      "inputs": [],
      "name": "gameRunning",
      "outputs": [
        {
          "name": "",
          "type": "bool"
        }
      ],
      "payable": false,
      "stateMutability": "view",
      "type": "function"
    },
    {
      "constant": true,
      "inputs": [],
      "name": "lotteryOn",
      "outputs": [
        {
          "name": "",
          "type": "bool"
        }
      ],
      "payable": false,
      "stateMutability": "view",
      "type": "function"
    },
    {
      "constant": false,
      "inputs": [],
      "name": "renounceOwnership",
      "outputs": [],
      "payable": false,
      "stateMutability": "nonpayable",
      "type": "function"
    },
    {
      "constant": true,
      "inputs": [],
      "name": "owner",
      "outputs": [
        {
          "name": "",
          "type": "address"
        }
      ],
      "payable": false,
      "stateMutability": "view",
      "type": "function"
    },
    {
      "constant": true,
      "inputs": [],
      "name": "isOwner",
      "outputs": [
        {
          "name": "",
          "type": "bool"
        }
      ],
      "payable": false,
      "stateMutability": "view",
      "type": "function"
    },
    {
      "constant": true,
      "inputs": [],
      "name": "minJackpot",
      "outputs": [
        {
          "name": "",
          "type": "uint256"
        }
      ],
      "payable": false,
      "stateMutability": "view",
      "type": "function"
    },
    {
      "constant": false,
      "inputs": [
        {
          "name": "newOwner",
          "type": "address"
        }
      ],
      "name": "transferOwnership",
      "outputs": [],
      "payable": false,
      "stateMutability": "nonpayable",
      "type": "function"
    },
    {
      "inputs": [],
      "payable": true,
      "stateMutability": "payable",
      "type": "constructor"
    },
    {
      "payable": true,
      "stateMutability": "payable",
      "type": "fallback"
    },
    {
      "anonymous": false,
      "inputs": [
        {
          "indexed": true,
          "name": "previousOwner",
          "type": "address"
        },
        {
          "indexed": true,
          "name": "newOwner",
          "type": "address"
        }
      ],
      "name": "OwnershipTransferred",
      "type": "event"
    },
    {
      "constant": false,
      "inputs": [],
      "name": "fundGame",
      "outputs": [],
      "payable": true,
      "stateMutability": "payable",
      "type": "function"
    },
    {
      "constant": false,
      "inputs": [],
      "name": "startGame",
      "outputs": [],
      "payable": false,
      "stateMutability": "nonpayable",
      "type": "function"
    }
  ],
  "bytecode": "0x6080604052670de0b6b3a7640000600355336000806101000a81548173ffffffffffffffffffffffffffffffffffffffff021916908373ffffffffffffffffffffffffffffffffffffffff1602179055506000809054906101000a900473ffffffffffffffffffffffffffffffffffffffff1673ffffffffffffffffffffffffffffffffffffffff16600073ffffffffffffffffffffffffffffffffffffffff167f8be0079c531659141344cd1fd0a4f28419497f9722a3daafe3b4186f6b6457e060405160405180910390a36107bc806100db6000396000f3fe6080604052600436106100ae576000357c0100000000000000000000000000000000000000000000000000000000900480638f32d59b116100765780638f32d59b146101c2578063911d0189146101f1578063d65ab5f21461021c578063e169bf6c14610233578063f2fde38b1461023d576100ae565b80636b31ee01146100cb5780636e8c2caf146100f65780636f1573c314610125578063715018a6146101545780638da5cb5b1461016b575b6100c33460015461028e90919063ffffffff16565b600181905550005b3480156100d757600080fd5b506100e06102af565b6040518082815260200191505060405180910390f35b34801561010257600080fd5b5061010b6102b5565b604051808215151515815260200191505060405180910390f35b34801561013157600080fd5b5061013a6102c8565b604051808215151515815260200191505060405180910390f35b34801561016057600080fd5b506101696102db565b005b34801561017757600080fd5b506101806103ad565b604051808273ffffffffffffffffffffffffffffffffffffffff1673ffffffffffffffffffffffffffffffffffffffff16815260200191505060405180910390f35b3480156101ce57600080fd5b506101d76103d6565b604051808215151515815260200191505060405180910390f35b3480156101fd57600080fd5b5061020661042d565b6040518082815260200191505060405180910390f35b34801561022857600080fd5b50610231610433565b005b61023b610603565b005b34801561024957600080fd5b5061028c6004803603602081101561026057600080fd5b81019080803573ffffffffffffffffffffffffffffffffffffffff169060200190929190505050610620565b005b60008082840190508381101515156102a557600080fd5b8091505092915050565b60015481565b600260009054906101000a900460ff1681565b600260019054906101000a900460ff1681565b6102e36103d6565b15156102ee57600080fd5b600073ffffffffffffffffffffffffffffffffffffffff166000809054906101000a900473ffffffffffffffffffffffffffffffffffffffff1673ffffffffffffffffffffffffffffffffffffffff167f8be0079c531659141344cd1fd0a4f28419497f9722a3daafe3b4186f6b6457e060405160405180910390a360008060006101000a81548173ffffffffffffffffffffffffffffffffffffffff021916908373ffffffffffffffffffffffffffffffffffffffff160217905550565b60008060009054906101000a900473ffffffffffffffffffffffffffffffffffffffff16905090565b60008060009054906101000a900473ffffffffffffffffffffffffffffffffffffffff1673ffffffffffffffffffffffffffffffffffffffff163373ffffffffffffffffffffffffffffffffffffffff1614905090565b60035481565b61043b6103d6565b151561044657600080fd5b6000801515600260009054906101000a900460ff1615151415156104b5576040517f08c379a000000000000000000000000000000000000000000000000000000000815260040180806020018281038252602c81526020018061073a602c913960400191505060405180910390fd5b3073ffffffffffffffffffffffffffffffffffffffff163160015411151515610546576040517f08c379a000000000000000000000000000000000000000000000000000000000815260040180806020018281038252601d8152602001807f4a61636b706f74206c6f776572207468616e2053432062616c616e636500000081525060200191505060405180910390fd5b6003543073ffffffffffffffffffffffffffffffffffffffff163110158015610573575060035460015410155b15156105ca576040517f08c379a000000000000000000000000000000000000000000000000000000000815260040180806020018281038252602b815260200180610766602b913960400191505060405180910390fd5b6001600260006101000a81548160ff0219169083151502179055506001600260016101000a81548160ff02191690831515021790555050565b6106183460015461028e90919063ffffffff16565b600181905550565b6106286103d6565b151561063357600080fd5b61063c8161063f565b50565b600073ffffffffffffffffffffffffffffffffffffffff168173ffffffffffffffffffffffffffffffffffffffff161415151561067b57600080fd5b8073ffffffffffffffffffffffffffffffffffffffff166000809054906101000a900473ffffffffffffffffffffffffffffffffffffffff1673ffffffffffffffffffffffffffffffffffffffff167f8be0079c531659141344cd1fd0a4f28419497f9722a3daafe3b4186f6b6457e060405160405180910390a3806000806101000a81548173ffffffffffffffffffffffffffffffffffffffff021916908373ffffffffffffffffffffffffffffffffffffffff1602179055505056fe46756e6374696f6e20617661696c61626c65206f6e6c79207768656e2067616d652069732072756e6e696e674d696e696d756d204a61636b706f74206973206e656564656420666f72207374617274696e672067616d65a165627a7a72305820d093eee30b6d713b2ca9cc2af03a1d295ae8231b9310ef72338306a0e16292360029",
  "source": "pragma solidity >=0.5;\n\nimport \"openzeppelin-solidity/contracts/ownership/Ownable.sol\";\nimport \"openzeppelin-solidity/contracts/math/SafeMath.sol\";\n\n/** @title RPS - RockPaperScissor P2P game, playing also for a jackpot.\n  * @author rggentil\n  * @notice This is just a simple game done mostly for learning solidity\n            and web3 development, do not use betting real value since\n            it has some known vulnerabilities.\n  * @dev My first smartcontract, so probably code could be improved.\n */\ncontract Game is Ownable {\n    using SafeMath for uint;\n\n    uint public jackpot;\n    bool public gameRunning;\n    bool public lotteryOn;\n    uint public minJackpot = 1 ether;  // TODO: probably better as a param in constructor\n\n    /** @dev Modifier for functions available only when game is running\n      * @param _isRunning bool to check is we need the game is running or not\n    */\n    modifier gameIsRunning(bool _isRunning) {\n        require(gameRunning == _isRunning, \"Function available only when game is running\");\n        _;\n    }\n\n    constructor() public payable {\n        // We could handle games through constructor and setting variables like\n        // minimum bet, max jackpot, fees, etc.\n    }\n\n    /** @notice Fallback, just in case of receiving funds, to the jackpot\n    */\n    function () external payable {\n        jackpot = jackpot.add(msg.value);\n    }\n\n    /** @notice Payable, to fund game by adding ethers to contract and to the jackpot\n      * @dev It's just the same as fallback function.\n    */\n    function fundGame() public payable {\n        jackpot = jackpot.add(msg.value);\n    }\n\n    /** @notice When we have everything ready owner can start game so anyone can play. Also it starts lottery.\n                Also for restarting game after having stopped it\n    */\n    function startGame() public onlyOwner gameIsRunning(false){\n        require(jackpot <= address(this).balance, \"Jackpot lower than SC balance\");\n        require((address(this).balance >= minJackpot) && (jackpot >= minJackpot), \"Minimum Jackpot is needed for starting game\");\n        gameRunning = true;\n        lotteryOn = true;\n    }\n\n}",
  "sourcePath": "/home/rggentil/Documents/master_ethereum/BLOCKCHAINTFM/RPS_commit_and_reveal/contracts/Game.sol",
  "compiler": {
    "name": "solc",
    "version": "0.5.5+commit.47a71e8f.Emscripten.clang"
  },
  "schemaVersion": "3.0.2",
  "updatedAt": "2019-03-09T07:21:42.448Z",
  "devdoc": {
    "author": "rggentil",
    "details": "My first smartcontract, so probably code could be improved.",
    "methods": {
      "fundGame()": {
        "details": "It's just the same as fallback function."
      },
      "isOwner()": {
        "return": "true if `msg.sender` is the owner of the contract."
      },
      "owner()": {
        "return": "the address of the owner."
      },
      "renounceOwnership()": {
        "details": "Allows the current owner to relinquish control of the contract."
      },
      "transferOwnership(address)": {
        "details": "Allows the current owner to transfer control of the contract to a newOwner.",
        "params": {
          "newOwner": "The address to transfer ownership to."
        }
      }
    },
    "title": "RPS - RockPaperScissor P2P game, playing also for a jackpot."
  },
  "userdoc": {
    "methods": {
      "fundGame()": {
        "notice": "Payable, to fund game by adding ethers to contract and to the jackpot"
      },
      "renounceOwnership()": {
        "notice": "Renouncing to ownership will leave the contract without an owner. It will not be possible to call the functions with the `onlyOwner` modifier anymore."
      },
      "startGame()": {
        "notice": "When we have everything ready owner can start game so anyone can play. Also it starts lottery. Also for restarting game after having stopped it"
      }
    },
    "notice": "This is just a simple game done mostly for learning solidity and web3 development, do not use betting real value since it has some known vulnerabilities."
  }
}