{
  "contractName": "RPS",
  "abi": [
    {
      "constant": false,
      "inputs": [
        {
          "name": "newLotteryRate",
          "type": "uint256"
        }
      ],
      "name": "setLotteryRate",
      "outputs": [],
      "payable": false,
      "stateMutability": "nonpayable",
      "type": "function"
    },
    {
      "constant": true,
      "inputs": [],
      "name": "minBusinessFeePayment",
      "outputs": [
        {
          "name": "",
          "type": "uint256"
        }
      ],
      "payable": false,
      "stateMutability": "view",
      "type": "function"
    },
    {
      "constant": true,
      "inputs": [],
      "name": "roundCount",
      "outputs": [
        {
          "name": "",
          "type": "uint256"
        }
      ],
      "payable": false,
      "stateMutability": "view",
      "type": "function"
    },
    {
      "constant": false,
      "inputs": [
        {
          "name": "newMinBusinessFeePayment",
          "type": "uint256"
        }
      ],
      "name": "setminBusinessFeePayment",
      "outputs": [],
      "payable": false,
      "stateMutability": "nonpayable",
      "type": "function"
    },
    {
      "constant": true,
      "inputs": [],
      "name": "businessAddress",
      "outputs": [
        {
          "name": "",
          "type": "address"
        }
      ],
      "payable": false,
      "stateMutability": "view",
      "type": "function"
    },
    {
      "constant": false,
      "inputs": [],
      "name": "startLottery",
      "outputs": [],
      "payable": false,
      "stateMutability": "nonpayable",
      "type": "function"
    },
    {
      "constant": false,
      "inputs": [
        {
          "name": "_myid",
          "type": "bytes32"
        },
        {
          "name": "_result",
          "type": "string"
        }
      ],
      "name": "__callback",
      "outputs": [],
      "payable": false,
      "stateMutability": "nonpayable",
      "type": "function"
    },
    {
      "constant": true,
      "inputs": [],
      "name": "totalBusinessFee",
      "outputs": [
        {
          "name": "",
          "type": "uint256"
        }
      ],
      "payable": false,
      "stateMutability": "view",
      "type": "function"
    },
    {
      "constant": false,
      "inputs": [
        {
          "name": "myid",
          "type": "bytes32"
        },
        {
          "name": "result",
          "type": "string"
        },
        {
          "name": "proof",
          "type": "bytes"
        }
      ],
      "name": "__callback",
      "outputs": [],
      "payable": false,
      "stateMutability": "nonpayable",
      "type": "function"
    },
    {
      "constant": false,
      "inputs": [
        {
          "name": "_roundId",
          "type": "uint256"
        },
        {
          "name": "_choice",
          "type": "uint256"
        },
        {
          "name": "_secret",
          "type": "string"
        }
      ],
      "name": "cancelRound",
      "outputs": [],
      "payable": false,
      "stateMutability": "nonpayable",
      "type": "function"
    },
    {
      "constant": true,
      "inputs": [],
      "name": "jackpot",
      "outputs": [
        {
          "name": "",
          "type": "uint256"
        }
      ],
      "payable": false,
      "stateMutability": "view",
      "type": "function"
    },
    {
      "constant": true,
      "inputs": [
        {
          "name": "",
          "type": "bytes32"
        }
      ],
      "name": "queryIdToRounds",
      "outputs": [
        {
          "name": "",
          "type": "uint256"
        }
      ],
      "payable": false,
      "stateMutability": "view",
      "type": "function"
    },
    {
      "constant": true,
      "inputs": [],
      "name": "gameRunning",
      "outputs": [
        {
          "name": "",
          "type": "bool"
        }
      ],
      "payable": false,
      "stateMutability": "view",
      "type": "function"
    },
    {
      "constant": true,
      "inputs": [],
      "name": "lotteryOn",
      "outputs": [
        {
          "name": "",
          "type": "bool"
        }
      ],
      "payable": false,
      "stateMutability": "view",
      "type": "function"
    },
    {
      "constant": false,
      "inputs": [],
      "name": "renounceOwnership",
      "outputs": [],
      "payable": false,
      "stateMutability": "nonpayable",
      "type": "function"
    },
    {
      "constant": false,
      "inputs": [
        {
          "name": "_roundId",
          "type": "uint256"
        }
      ],
      "name": "cancelRoundSender",
      "outputs": [],
      "payable": false,
      "stateMutability": "nonpayable",
      "type": "function"
    },
    {
      "constant": true,
      "inputs": [
        {
          "name": "",
          "type": "bytes32"
        }
      ],
      "name": "secretQueryIdToRounds",
      "outputs": [
        {
          "name": "",
          "type": "uint256"
        }
      ],
      "payable": false,
      "stateMutability": "view",
      "type": "function"
    },
    {
      "constant": true,
      "inputs": [],
      "name": "owner",
      "outputs": [
        {
          "name": "",
          "type": "address"
        }
      ],
      "payable": false,
      "stateMutability": "view",
      "type": "function"
    },
    {
      "constant": true,
      "inputs": [],
      "name": "isOwner",
      "outputs": [
        {
          "name": "",
          "type": "bool"
        }
      ],
      "payable": false,
      "stateMutability": "view",
      "type": "function"
    },
    {
      "constant": true,
      "inputs": [],
      "name": "minJackpot",
      "outputs": [
        {
          "name": "",
          "type": "uint256"
        }
      ],
      "payable": false,
      "stateMutability": "view",
      "type": "function"
    },
    {
      "constant": true,
      "inputs": [],
      "name": "minimumBet",
      "outputs": [
        {
          "name": "",
          "type": "uint256"
        }
      ],
      "payable": false,
      "stateMutability": "view",
      "type": "function"
    },
    {
      "constant": false,
      "inputs": [],
      "name": "stopLottery",
      "outputs": [],
      "payable": false,
      "stateMutability": "nonpayable",
      "type": "function"
    },
    {
      "constant": false,
      "inputs": [],
      "name": "fundGame",
      "outputs": [],
      "payable": true,
      "stateMutability": "payable",
      "type": "function"
    },
    {
      "constant": true,
      "inputs": [],
      "name": "lotteryRate",
      "outputs": [
        {
          "name": "",
          "type": "uint256"
        }
      ],
      "payable": false,
      "stateMutability": "view",
      "type": "function"
    },
    {
      "constant": false,
      "inputs": [
        {
          "name": "newOwner",
          "type": "address"
        }
      ],
      "name": "transferOwnership",
      "outputs": [],
      "payable": false,
      "stateMutability": "nonpayable",
      "type": "function"
    },
    {
      "constant": true,
      "inputs": [],
      "name": "gameRandomRange",
      "outputs": [
        {
          "name": "",
          "type": "uint256"
        }
      ],
      "payable": false,
      "stateMutability": "view",
      "type": "function"
    },
    {
      "inputs": [],
      "payable": true,
      "stateMutability": "payable",
      "type": "constructor"
    },
    {
      "payable": true,
      "stateMutability": "payable",
      "type": "fallback"
    },
    {
      "anonymous": false,
      "inputs": [
        {
          "indexed": false,
          "name": "roundId",
          "type": "uint256"
        },
        {
          "indexed": false,
          "name": "betAmount",
          "type": "uint256"
        },
        {
          "indexed": true,
          "name": "player1",
          "type": "address"
        },
        {
          "indexed": false,
          "name": "isSolo",
          "type": "bool"
        }
      ],
      "name": "RoundCreated",
      "type": "event"
    },
    {
      "anonymous": false,
      "inputs": [
        {
          "indexed": false,
          "name": "roundId",
          "type": "uint256"
        },
        {
          "indexed": false,
          "name": "winner",
          "type": "address"
        },
        {
          "indexed": false,
          "name": "betAmount",
          "type": "uint256"
        },
        {
          "indexed": true,
          "name": "player1",
          "type": "address"
        },
        {
          "indexed": false,
          "name": "choice1",
          "type": "uint256"
        },
        {
          "indexed": false,
          "name": "player2",
          "type": "address"
        },
        {
          "indexed": false,
          "name": "choice2",
          "type": "uint256"
        }
      ],
      "name": "RoundResolved",
      "type": "event"
    },
    {
      "anonymous": false,
      "inputs": [
        {
          "indexed": false,
          "name": "secret",
          "type": "bytes32"
        }
      ],
      "name": "Secret",
      "type": "event"
    },
    {
      "anonymous": false,
      "inputs": [
        {
          "indexed": false,
          "name": "businessAddress",
          "type": "address"
        },
        {
          "indexed": false,
          "name": "payment",
          "type": "uint256"
        }
      ],
      "name": "BusinessPayment",
      "type": "event"
    },
    {
      "anonymous": false,
      "inputs": [
        {
          "indexed": false,
          "name": "winner",
          "type": "address"
        },
        {
          "indexed": false,
          "name": "jackpot",
          "type": "uint256"
        }
      ],
      "name": "LotteryWin",
      "type": "event"
    },
    {
      "anonymous": false,
      "inputs": [
        {
          "indexed": false,
          "name": "paidAddress",
          "type": "address"
        },
        {
          "indexed": false,
          "name": "amount",
          "type": "uint256"
        }
      ],
      "name": "Payment",
      "type": "event"
    },
    {
      "anonymous": false,
      "inputs": [
        {
          "indexed": false,
          "name": "message",
          "type": "string"
        }
      ],
      "name": "GameStarted",
      "type": "event"
    },
    {
      "anonymous": false,
      "inputs": [
        {
          "indexed": false,
          "name": "message",
          "type": "string"
        },
        {
          "indexed": false,
          "name": "queryId",
          "type": "bytes32"
        }
      ],
      "name": "LogGetRandomness",
      "type": "event"
    },
    {
      "anonymous": false,
      "inputs": [
        {
          "indexed": false,
          "name": "_rolledDiceNumber",
          "type": "uint256"
        }
      ],
      "name": "LogGameRandomValue",
      "type": "event"
    },
    {
      "anonymous": false,
      "inputs": [
        {
          "indexed": true,
          "name": "previousOwner",
          "type": "address"
        },
        {
          "indexed": true,
          "name": "newOwner",
          "type": "address"
        }
      ],
      "name": "OwnershipTransferred",
      "type": "event"
    },
    {
      "constant": true,
      "inputs": [
        {
          "name": "roundId",
          "type": "uint256"
        }
      ],
      "name": "getRoundInfo",
      "outputs": [
        {
          "name": "player1Address",
          "type": "address"
        },
        {
          "name": "player1Choice",
          "type": "uint256"
        },
        {
          "name": "player2Address",
          "type": "address"
        },
        {
          "name": "player2Choice",
          "type": "uint256"
        },
        {
          "name": "betAmount",
          "type": "uint256"
        },
        {
          "name": "winner",
          "type": "address"
        },
        {
          "name": "isSolo",
          "type": "bool"
        },
        {
          "name": "lotteryWinner",
          "type": "address"
        }
      ],
      "payable": false,
      "stateMutability": "view",
      "type": "function"
    },
    {
      "constant": false,
      "inputs": [
        {
          "name": "_choice",
          "type": "uint256"
        }
      ],
      "name": "playSoloRound",
      "outputs": [
        {
          "name": "",
          "type": "uint256"
        }
      ],
      "payable": true,
      "stateMutability": "payable",
      "type": "function"
    },
    {
      "constant": false,
      "inputs": [
        {
          "name": "_secretChoice",
          "type": "bytes32"
        }
      ],
      "name": "createSecretRound",
      "outputs": [
        {
          "name": "",
          "type": "uint256"
        }
      ],
      "payable": true,
      "stateMutability": "payable",
      "type": "function"
    },
    {
      "constant": false,
      "inputs": [
        {
          "name": "_roundId",
          "type": "uint256"
        },
        {
          "name": "_choice",
          "type": "uint256"
        }
      ],
      "name": "joinSecretRound",
      "outputs": [],
      "payable": true,
      "stateMutability": "payable",
      "type": "function"
    },
    {
      "constant": false,
      "inputs": [
        {
          "name": "_roundId",
          "type": "uint256"
        },
        {
          "name": "_choice",
          "type": "uint256"
        },
        {
          "name": "_secret",
          "type": "string"
        }
      ],
      "name": "revealChoice",
      "outputs": [],
      "payable": false,
      "stateMutability": "nonpayable",
      "type": "function"
    },
    {
      "constant": false,
      "inputs": [],
      "name": "startGame",
      "outputs": [],
      "payable": false,
      "stateMutability": "nonpayable",
      "type": "function"
    },
    {
      "constant": false,
      "inputs": [],
      "name": "stopGame",
      "outputs": [],
      "payable": false,
      "stateMutability": "nonpayable",
      "type": "function"
    },
    {
      "constant": false,
      "inputs": [
        {
          "name": "_myAddress",
          "type": "address"
        }
      ],
      "name": "withdrawFunds",
      "outputs": [],
      "payable": false,
      "stateMutability": "nonpayable",
      "type": "function"
    }
  ],
  "bytecode": "0x60806040526000600660006101000a81548160ff021916908315150217905550655af3107a4000600755661c6bf5263400006008556103e86002026009556000600a55662386f26fc10000600b5573fb6916095ca1df60bb79ce92ce3ea74c37c5d359600c60006101000a81548173ffffffffffffffffffffffffffffffffffffffff021916908373ffffffffffffffffffffffffffffffffffffffff1602179055506103e8601455670de0b6b3a7640000601555336000806101000a81548173ffffffffffffffffffffffffffffffffffffffff021916908373ffffffffffffffffffffffffffffffffffffffff1602179055506000809054906101000a900473ffffffffffffffffffffffffffffffffffffffff1673ffffffffffffffffffffffffffffffffffffffff16600073ffffffffffffffffffffffffffffffffffffffff167f8be0079c531659141344cd1fd0a4f28419497f9722a3daafe3b4186f6b6457e060405160405180910390a3736f485c8bf6fc43ea212e93bbf8ce046c7f1cb475600260006101000a81548173ffffffffffffffffffffffffffffffffffffffff021916908373ffffffffffffffffffffffffffffffffffffffff1602179055506200022760017f01000000000000000000000000000000000000000000000000000000000000000260107f010000000000000000000000000000000000000000000000000000000000000002176200022d640100000000026401000000009004565b62000c52565b600073ffffffffffffffffffffffffffffffffffffffff16600260009054906101000a900473ffffffffffffffffffffffffffffffffffffffff1673ffffffffffffffffffffffffffffffffffffffff161480620002c657506000620002c4600260009054906101000a900473ffffffffffffffffffffffffffffffffffffffff16620005fb640100000000026401000000009004565b145b15620002e957620002e7600062000606640100000000026401000000009004565b505b600260009054906101000a900473ffffffffffffffffffffffffffffffffffffffff1673ffffffffffffffffffffffffffffffffffffffff166338cc48316040518163ffffffff167c0100000000000000000000000000000000000000000000000000000000028152600401602060405180830381600087803b1580156200037057600080fd5b505af115801562000385573d6000803e3d6000fd5b505050506040513d60208110156200039c57600080fd5b810190808051906020019092919050505073ffffffffffffffffffffffffffffffffffffffff16600160009054906101000a900473ffffffffffffffffffffffffffffffffffffffff1673ffffffffffffffffffffffffffffffffffffffff161415156200050957600260009054906101000a900473ffffffffffffffffffffffffffffffffffffffff1673ffffffffffffffffffffffffffffffffffffffff166338cc48316040518163ffffffff167c0100000000000000000000000000000000000000000000000000000000028152600401602060405180830381600087803b1580156200048b57600080fd5b505af1158015620004a0573d6000803e3d6000fd5b505050506040513d6020811015620004b757600080fd5b8101908080519060200190929190505050600160006101000a81548173ffffffffffffffffffffffffffffffffffffffff021916908373ffffffffffffffffffffffffffffffffffffffff1602179055505b600160009054906101000a900473ffffffffffffffffffffffffffffffffffffffff1673ffffffffffffffffffffffffffffffffffffffff1663688dcfd7826040518263ffffffff167c010000000000000000000000000000000000000000000000000000000002815260040180827effffffffffffffffffffffffffffffffffffffffffffffffffffffffffffff19167effffffffffffffffffffffffffffffffffffffffffffffffffffffffffffff19168152602001915050600060405180830381600087803b158015620005df57600080fd5b505af1158015620005f4573d6000803e3d6000fd5b5050505050565b6000813b9050919050565b60006200062162000628640100000000026401000000009004565b9050919050565b60008062000659731d3b2638a7cc9f2cb3d298a3da7a90b67e5506ed620005fb640100000000026401000000009004565b11156200070e57731d3b2638a7cc9f2cb3d298a3da7a90b67e5506ed600260006101000a81548173ffffffffffffffffffffffffffffffffffffffff021916908373ffffffffffffffffffffffffffffffffffffffff160217905550620007046040518060400160405280600b81526020017f6574685f6d61696e6e657400000000000000000000000000000000000000000081525062000b87640100000000026401000000009004565b6001905062000b84565b60006200073e73c03a2615d5efaf5f49f60b7bb6583eaec212fdf1620005fb640100000000026401000000009004565b1115620007f35773c03a2615d5efaf5f49f60b7bb6583eaec212fdf1600260006101000a81548173ffffffffffffffffffffffffffffffffffffffff021916908373ffffffffffffffffffffffffffffffffffffffff160217905550620007e96040518060400160405280600c81526020017f6574685f726f707374656e33000000000000000000000000000000000000000081525062000b87640100000000026401000000009004565b6001905062000b84565b60006200082373b7a07bcf2ba2f2703b24c0691b5278999c59ac7e620005fb640100000000026401000000009004565b1115620008d85773b7a07bcf2ba2f2703b24c0691b5278999c59ac7e600260006101000a81548173ffffffffffffffffffffffffffffffffffffffff021916908373ffffffffffffffffffffffffffffffffffffffff160217905550620008ce6040518060400160405280600981526020017f6574685f6b6f76616e000000000000000000000000000000000000000000000081525062000b87640100000000026401000000009004565b6001905062000b84565b60006200090873146500cfd35b22e4a392fe0adc06de1a1368ed48620005fb640100000000026401000000009004565b1115620009bd5773146500cfd35b22e4a392fe0adc06de1a1368ed48600260006101000a81548173ffffffffffffffffffffffffffffffffffffffff021916908373ffffffffffffffffffffffffffffffffffffffff160217905550620009b36040518060400160405280600b81526020017f6574685f72696e6b65627900000000000000000000000000000000000000000081525062000b87640100000000026401000000009004565b6001905062000b84565b6000620009ed736f485c8bf6fc43ea212e93bbf8ce046c7f1cb475620005fb640100000000026401000000009004565b111562000a5357736f485c8bf6fc43ea212e93bbf8ce046c7f1cb475600260006101000a81548173ffffffffffffffffffffffffffffffffffffffff021916908373ffffffffffffffffffffffffffffffffffffffff1602179055506001905062000b84565b600062000a837320e12a1f859b3feae5fb2a0a32c18f5a65555bbf620005fb640100000000026401000000009004565b111562000ae9577320e12a1f859b3feae5fb2a0a32c18f5a65555bbf600260006101000a81548173ffffffffffffffffffffffffffffffffffffffff021916908373ffffffffffffffffffffffffffffffffffffffff1602179055506001905062000b84565b600062000b197351efaf4c8b3c9afbd5ab9f4bbc82784ab6ef8faa620005fb640100000000026401000000009004565b111562000b7f577351efaf4c8b3c9afbd5ab9f4bbc82784ab6ef8faa600260006101000a81548173ffffffffffffffffffffffffffffffffffffffff021916908373ffffffffffffffffffffffffffffffffffffffff1602179055506001905062000b84565b600090505b90565b806003908051906020019062000b9f92919062000ba3565b5050565b828054600181600116156101000203166002900490600052602060002090601f016020900481019282601f1062000be657805160ff191683800117855562000c17565b8280016001018555821562000c17579182015b8281111562000c1657825182559160200191906001019062000bf9565b5b50905062000c26919062000c2a565b5090565b62000c4f91905b8082111562000c4b57600081600090555060010162000c31565b5090565b90565b6150458062000c626000396000f3fe608060405260043610610216576000357c010000000000000000000000000000000000000000000000000000000090048063774efa441161012a578063b86a3159116100bd578063e169bf6c1161008c578063e169bf6c14610c2e578063f256473714610c38578063f2fde38b14610c63578063f8c9dbcb14610cb4578063fed67fe414610cec57610216565b8063b86a315914610b93578063c38a8afd14610bd5578063d5c6249814610c00578063d65ab5f214610c1757610216565b80638da5cb5b116100f95780638da5cb5b14610aa05780638f32d59b14610af7578063911d018914610b26578063a059dace14610b5157610216565b8063774efa44146108cb5780637de37f2a1461090657806383bd72ba1461095557806388c3ffb01461096c57610216565b806338bbfa50116101ad5780636b31ee011161017c5780636b31ee01146107dc5780636b930399146108075780636e8c2caf146108565780636f1573c314610885578063715018a6146108b457610216565b806338bbfa501461046a578063420100a7146105d35780635afa1fd8146106af57806368742da61461078b57610216565b80631583deb2116101e95780631583deb2146102ff578063160344e21461035657806327dc297e1461036d5780633580ecd01461043f57610216565b806306385b21146102335780630c0712221461026e578063127f0b3f1461029957806312a0e070146102c4575b61022b34601254610d1790919063ffffffff16565b601281905550005b34801561023f57600080fd5b5061026c6004803603602081101561025657600080fd5b8101908080359060200190929190505050610d38565b005b34801561027a57600080fd5b50610283610d55565b6040518082815260200191505060405180910390f35b3480156102a557600080fd5b506102ae610d5b565b6040518082815260200191505060405180910390f35b3480156102d057600080fd5b506102fd600480360360208110156102e757600080fd5b8101908080359060200190929190505050610d61565b005b34801561030b57600080fd5b50610314610d7e565b604051808273ffffffffffffffffffffffffffffffffffffffff1673ffffffffffffffffffffffffffffffffffffffff16815260200191505060405180910390f35b34801561036257600080fd5b5061036b610da4565b005b34801561037957600080fd5b5061043d6004803603604081101561039057600080fd5b8101908080359060200190929190803590602001906401000000008111156103b757600080fd5b8201836020820111156103c957600080fd5b803590602001918460018302840111640100000000831117156103eb57600080fd5b91908080601f016020809104026020016040519081016040528093929190818152602001838380828437600081840152601f19601f820116905080830192505050505050509192919290505050610ee9565b005b34801561044b57600080fd5b50610454610f2c565b6040518082815260200191505060405180910390f35b34801561047657600080fd5b506105d16004803603606081101561048d57600080fd5b8101908080359060200190929190803590602001906401000000008111156104b457600080fd5b8201836020820111156104c657600080fd5b803590602001918460018302840111640100000000831117156104e857600080fd5b91908080601f016020809104026020016040519081016040528093929190818152602001838380828437600081840152601f19601f8201169050808301925050505050505091929192908035906020019064010000000081111561054b57600080fd5b82018360208201111561055d57600080fd5b8035906020019184600183028401116401000000008311171561057f57600080fd5b91908080601f016020809104026020016040519081016040528093929190818152602001838380828437600081840152601f19601f820116905080830192505050505050509192919290505050610f32565b005b3480156105df57600080fd5b506106ad600480360360608110156105f657600080fd5b8101908080359060200190929190803590602001909291908035906020019064010000000081111561062757600080fd5b82018360208201111561063957600080fd5b8035906020019184600183028401116401000000008311171561065b57600080fd5b91908080601f016020809104026020016040519081016040528093929190818152602001838380828437600081840152601f19601f820116905080830192505050505050509192919290505050610fd6565b005b3480156106bb57600080fd5b50610789600480360360608110156106d257600080fd5b8101908080359060200190929190803590602001909291908035906020019064010000000081111561070357600080fd5b82018360208201111561071557600080fd5b8035906020019184600183028401116401000000008311171561073757600080fd5b91908080601f016020809104026020016040519081016040528093929190818152602001838380828437600081840152601f19601f8201169050808301925050505050505091929192905050506110d2565b005b34801561079757600080fd5b506107da600480360360208110156107ae57600080fd5b81019080803573ffffffffffffffffffffffffffffffffffffffff1690602001909291905050506113c9565b005b3480156107e857600080fd5b506107f16113dd565b6040518082815260200191505060405180910390f35b34801561081357600080fd5b506108406004803603602081101561082a57600080fd5b81019080803590602001909291905050506113e3565b6040518082815260200191505060405180910390f35b34801561086257600080fd5b5061086b6113fb565b604051808215151515815260200191505060405180910390f35b34801561089157600080fd5b5061089a61140e565b604051808215151515815260200191505060405180910390f35b3480156108c057600080fd5b506108c9611421565b005b3480156108d757600080fd5b50610904600480360360208110156108ee57600080fd5b81019080803590602001909291905050506114f3565b005b34801561091257600080fd5b5061093f6004803603602081101561092957600080fd5b81019080803590602001909291905050506115be565b6040518082815260200191505060405180910390f35b34801561096157600080fd5b5061096a6115d6565b005b34801561097857600080fd5b506109a56004803603602081101561098f57600080fd5b81019080803590602001909291905050506115e8565b604051808973ffffffffffffffffffffffffffffffffffffffff1673ffffffffffffffffffffffffffffffffffffffff1681526020018881526020018773ffffffffffffffffffffffffffffffffffffffff1673ffffffffffffffffffffffffffffffffffffffff1681526020018681526020018581526020018473ffffffffffffffffffffffffffffffffffffffff1673ffffffffffffffffffffffffffffffffffffffff168152602001831515151581526020018273ffffffffffffffffffffffffffffffffffffffff1673ffffffffffffffffffffffffffffffffffffffff1681526020019850505050505050505060405180910390f35b348015610aac57600080fd5b50610ab56118a8565b604051808273ffffffffffffffffffffffffffffffffffffffff1673ffffffffffffffffffffffffffffffffffffffff16815260200191505060405180910390f35b348015610b0357600080fd5b50610b0c6118d1565b604051808215151515815260200191505060405180910390f35b348015610b3257600080fd5b50610b3b611928565b6040518082815260200191505060405180910390f35b610b7d60048036036020811015610b6757600080fd5b810190808035906020019092919050505061192e565b6040518082815260200191505060405180910390f35b610bbf60048036036020811015610ba957600080fd5b8101908080359060200190929190505050611ba3565b6040518082815260200191505060405180910390f35b348015610be157600080fd5b50610bea611f63565b6040518082815260200191505060405180910390f35b348015610c0c57600080fd5b50610c15611f69565b005b348015610c2357600080fd5b50610c2c611f99565b005b610c36611fab565b005b348015610c4457600080fd5b50610c4d611fc8565b6040518082815260200191505060405180910390f35b348015610c6f57600080fd5b50610cb260048036036020811015610c8657600080fd5b81019080803573ffffffffffffffffffffffffffffffffffffffff169060200190929190505050611fce565b005b610cea60048036036040811015610cca57600080fd5b810190808035906020019092919080359060200190929190505050611fed565b005b348015610cf857600080fd5b50610d016123ae565b6040518082815260200191505060405180910390f35b6000808284019050838110151515610d2e57600080fd5b8091505092915050565b610d406118d1565b1515610d4b57600080fd5b8060148190555050565b600b5481565b600d5481565b610d696118d1565b1515610d7457600080fd5b80600b8190555050565b600c60009054906101000a900473ffffffffffffffffffffffffffffffffffffffff1681565b610dac6118d1565b1515610db757600080fd5b3073ffffffffffffffffffffffffffffffffffffffff163160125411151515610e48576040517f08c379a000000000000000000000000000000000000000000000000000000000815260040180806020018281038252601d8152602001807f4a61636b706f74206c6f776572207468616e2053432062616c616e636500000081525060200191505060405180910390fd5b6015543073ffffffffffffffffffffffffffffffffffffffff163110158015610e75575060155460125410155b1515610ecc576040517f08c379a000000000000000000000000000000000000000000000000000000000815260040180806020018281038252602b815260200180614f52602b913960400191505060405180910390fd5b6001601360006101000a81548160ff021916908315150217905550565b610f28828260006040519080825280601f01601f191660200182016040528015610f225781602001600182028038833980820191505090505b50610f32565b5050565b600a5481565b610f3a6123b4565b73ffffffffffffffffffffffffffffffffffffffff163373ffffffffffffffffffffffffffffffffffffffff16141515610fbf576040517f08c379a0000000000000000000000000000000000000000000000000000000008152600401808060200182810382526037815260200180614e686037913960400191505060405180910390fd5b610fd183610fcc8461272a565b61273e565b505050565b601160008481526020019081526020016000206000016001015482826040516020018083815260200182805190602001908083835b602083101515611030578051825260208201915060208101905060208303925061100b565b6001836020036101000a03801982511681845116808217855250505050505090500192505050604051602081830303815290604052805190602001201415156110c4576040517f08c379a0000000000000000000000000000000000000000000000000000000008152600401808060200182810382526034815260200180614fe66034913960400191505060405180910390fd5b6110cd836128c7565b505050565b6001801515600660009054906101000a900460ff161515141515611141576040517f08c379a000000000000000000000000000000000000000000000000000000000815260040180806020018281038252602c815260200180614e9f602c913960400191505060405180910390fd5b6000601160008681526020019081526020016000209050600073ffffffffffffffffffffffffffffffffffffffff168160030160020160009054906101000a900473ffffffffffffffffffffffffffffffffffffffff1673ffffffffffffffffffffffffffffffffffffffff1614151515611207576040517f08c379a0000000000000000000000000000000000000000000000000000000008152600401808060200182810382526030815260200180614cf76030913960400191505060405180910390fd5b3373ffffffffffffffffffffffffffffffffffffffff168160000160020160009054906101000a900473ffffffffffffffffffffffffffffffffffffffff1673ffffffffffffffffffffffffffffffffffffffff161415156112b4576040517f08c379a0000000000000000000000000000000000000000000000000000000008152600401808060200182810382526029815260200180614f296029913960400191505060405180910390fd5b806000016001015483856040516020018083805190602001908083835b6020831015156112f657805182526020820191506020810190506020830392506112d1565b6001836020036101000a03801982511681845116808217855250505050505090500182815260200192505050604051602081830303815290604052805190602001201415156113ad576040517f08c379a000000000000000000000000000000000000000000000000000000000815260040180806020018281038252601d8152602001807f4572726f7220747279696e6720746f2072657665616c2063686f69636500000081525060200191505060405180910390fd5b8381600001600001819055506113c285612a7b565b5050505050565b6113d281612e65565b600060128190555050565b60125481565b600f6020528060005260406000206000915090505481565b600660009054906101000a900460ff1681565b601360009054906101000a900460ff1681565b6114296118d1565b151561143457600080fd5b600073ffffffffffffffffffffffffffffffffffffffff166000809054906101000a900473ffffffffffffffffffffffffffffffffffffffff1673ffffffffffffffffffffffffffffffffffffffff167f8be0079c531659141344cd1fd0a4f28419497f9722a3daafe3b4186f6b6457e060405160405180910390a360008060006101000a81548173ffffffffffffffffffffffffffffffffffffffff021916908373ffffffffffffffffffffffffffffffffffffffff160217905550565b3373ffffffffffffffffffffffffffffffffffffffff166011600083815260200190815260200160002060000160020160009054906101000a900473ffffffffffffffffffffffffffffffffffffffff1673ffffffffffffffffffffffffffffffffffffffff161415156115b2576040517f08c379a0000000000000000000000000000000000000000000000000000000008152600401808060200182810382526048815260200180614f7d6048913960600191505060405180910390fd5b6115bb816128c7565b50565b60106020528060005260406000206000915090505481565b6115de612f49565b6115e6611f69565b565b6000806000806000806000806115fc614b61565b601160008b8152602001908152602001600020604051806101400160405290816000820160405180606001604052908160008201548152602001600182015481526020016002820160009054906101000a900473ffffffffffffffffffffffffffffffffffffffff1673ffffffffffffffffffffffffffffffffffffffff1673ffffffffffffffffffffffffffffffffffffffff168152505081526020016003820160405180606001604052908160008201548152602001600182015481526020016002820160009054906101000a900473ffffffffffffffffffffffffffffffffffffffff1673ffffffffffffffffffffffffffffffffffffffff1673ffffffffffffffffffffffffffffffffffffffff16815250508152602001600682015481526020016007820160009054906101000a900473ffffffffffffffffffffffffffffffffffffffff1673ffffffffffffffffffffffffffffffffffffffff1673ffffffffffffffffffffffffffffffffffffffff1681526020016007820160149054906101000a900460ff161515151581526020016007820160159054906101000a900460ff161515151581526020016008820160009054906101000a900473ffffffffffffffffffffffffffffffffffffffff1673ffffffffffffffffffffffffffffffffffffffff1673ffffffffffffffffffffffffffffffffffffffff16815260200160098201548152602001600a8201548152602001600b82016040518060600160405290816000820154815260200160018201548152602001600282015481525050815250509050806000015160400151816000015160000151826020015160400151836020015160000151846040015185606001518660a001518760c001518797508595508292509850985098509850985098509850985050919395975091939597565b60008060009054906101000a900473ffffffffffffffffffffffffffffffffffffffff16905090565b60008060009054906101000a900473ffffffffffffffffffffffffffffffffffffffff1673ffffffffffffffffffffffffffffffffffffffff163373ffffffffffffffffffffffffffffffffffffffff1614905090565b60155481565b60006001801515600660009054906101000a900460ff16151514151561199f576040517f08c379a000000000000000000000000000000000000000000000000000000000815260040180806020018281038252602c815260200180614e9f602c913960400191505060405180910390fd5b6007543410151515611a19576040517f08c379a00000000000000000000000000000000000000000000000000000000081526004018080602001828103825260158152602001807f4e6f7420656e6f75676820616d6f756e7420626574000000000000000000000081525060200191505060405180910390fd5b600d600081548092919060010191905055506000600d5490506000601160008381526020019081526020016000209050338160000160020160006101000a81548173ffffffffffffffffffffffffffffffffffffffff021916908373ffffffffffffffffffffffffffffffffffffffff16021790555084816000016001018190555034816006018190555060008160070160156101000a81548160ff0219169083151502179055508060000160020160009054906101000a900473ffffffffffffffffffffffffffffffffffffffff1673ffffffffffffffffffffffffffffffffffffffff167fb3b1bde84bcee68ebfec5d442001436ebf6966913748ad5f78f4d21d9f93486f600d5483600601548460070160159054906101000a900460ff166040518084815260200183815260200182151515158152602001935050505060405180910390a27f3035d573a995700b37c3e3b8e22b2d05d3a969fd3cc69cf31998c64a84fc741e856040518082815260200191505060405180910390a1819350505050919050565b60006001801515600660009054906101000a900460ff161515141515611c14576040517f08c379a000000000000000000000000000000000000000000000000000000000815260040180806020018281038252602c815260200180614e9f602c913960400191505060405180910390fd5b82600280811115611c2157fe5b8111151515611c98576040517f08c379a00000000000000000000000000000000000000000000000000000000081526004018080602001828103825260148152602001807f5250532063686f696365206e6f742076616c696400000000000000000000000081525060200191505060405180910390fd5b6007543410151515611d12576040517f08c379a00000000000000000000000000000000000000000000000000000000081526004018080602001828103825260158152602001807f4e6f7420656e6f75676820616d6f756e7420626574000000000000000000000081525060200191505060405180910390fd5b600d600081548092919060010191905055506000600d5490506000601160008381526020019081526020016000209050338160000160020160006101000a81548173ffffffffffffffffffffffffffffffffffffffff021916908373ffffffffffffffffffffffffffffffffffffffff16021790555085816000016000018190555034816006018190555060018160070160156101000a81548160ff0219169083151502179055508060000160020160009054906101000a900473ffffffffffffffffffffffffffffffffffffffff1673ffffffffffffffffffffffffffffffffffffffff167fb3b1bde84bcee68ebfec5d442001436ebf6966913748ad5f78f4d21d9f93486f600d5483600601548460070160159054906101000a900460ff166040518084815260200183815260200182151515158152602001935050505060405180910390a28060070160159054906101000a900460ff1615611f5757611e8034600754601254612fe9565b1515611e8b57600080fd5b6012543411151515611f05576040517f08c379a000000000000000000000000000000000000000000000000000000000815260040180806020018281038252600c8152602001807f42657420746f6f2068696768000000000000000000000000000000000000000081525060200191505060405180910390fd5b308160030160020160006101000a81548173ffffffffffffffffffffffffffffffffffffffff021916908373ffffffffffffffffffffffffffffffffffffffff160217905550611f56600383613003565b5b81945050505050919050565b60075481565b611f716118d1565b1515611f7c57600080fd5b6000601360006101000a81548160ff021916908315150217905550565b611fa1613167565b611fa9610da4565b565b611fc034601254610d1790919063ffffffff16565b601281905550565b60145481565b611fd66118d1565b1515611fe157600080fd5b611fea8161326f565b50565b6001801515600660009054906101000a900460ff16151514151561205c576040517f08c379a000000000000000000000000000000000000000000000000000000000815260040180806020018281038252602c815260200180614e9f602c913960400191505060405180910390fd5b8160028081111561206957fe5b81111515156120e0576040517f08c379a00000000000000000000000000000000000000000000000000000000081526004018080602001828103825260148152602001807f5250532063686f696365206e6f742076616c696400000000000000000000000081525060200191505060405180910390fd5b6000601160008681526020019081526020016000209050600073ffffffffffffffffffffffffffffffffffffffff168160000160020160009054906101000a900473ffffffffffffffffffffffffffffffffffffffff1673ffffffffffffffffffffffffffffffffffffffff16141515156121c3576040517f08c379a00000000000000000000000000000000000000000000000000000000081526004018080602001828103825260148152602001807f526f756e6420646f6573206e6f7420657869737400000000000000000000000081525060200191505060405180910390fd5b600073ffffffffffffffffffffffffffffffffffffffff168160030160020160009054906101000a900473ffffffffffffffffffffffffffffffffffffffff1673ffffffffffffffffffffffffffffffffffffffff1614801561223557508060070160149054906101000a900460ff16155b15156122a9576040517f08c379a00000000000000000000000000000000000000000000000000000000081526004018080602001828103825260168152602001807f526f756e6420616c72656164792066696e69736865640000000000000000000081525060200191505060405180910390fd5b80600601543410151515612308576040517f08c379a0000000000000000000000000000000000000000000000000000000008152600401808060200182810382526021815260200180614e476021913960400191505060405180910390fd5b3373ffffffffffffffffffffffffffffffffffffffff166108fc826006015434039081150290604051600060405180830381858888f19350505050158015612354573d6000803e3d6000fd5b50338160030160020160006101000a81548173ffffffffffffffffffffffffffffffffffffffff021916908373ffffffffffffffffffffffffffffffffffffffff1602179055508381600301600001819055505050505050565b600e5481565b60008073ffffffffffffffffffffffffffffffffffffffff16600260009054906101000a900473ffffffffffffffffffffffffffffffffffffffff1673ffffffffffffffffffffffffffffffffffffffff16148061243c5750600061243a600260009054906101000a900473ffffffffffffffffffffffffffffffffffffffff16613369565b145b1561244d5761244b6000613374565b505b600260009054906101000a900473ffffffffffffffffffffffffffffffffffffffff1673ffffffffffffffffffffffffffffffffffffffff166338cc48316040518163ffffffff167c0100000000000000000000000000000000000000000000000000000000028152600401602060405180830381600087803b1580156124d357600080fd5b505af11580156124e7573d6000803e3d6000fd5b505050506040513d60208110156124fd57600080fd5b810190808051906020019092919050505073ffffffffffffffffffffffffffffffffffffffff16600160009054906101000a900473ffffffffffffffffffffffffffffffffffffffff1673ffffffffffffffffffffffffffffffffffffffff1614151561266657600260009054906101000a900473ffffffffffffffffffffffffffffffffffffffff1673ffffffffffffffffffffffffffffffffffffffff166338cc48316040518163ffffffff167c0100000000000000000000000000000000000000000000000000000000028152600401602060405180830381600087803b1580156125ea57600080fd5b505af11580156125fe573d6000803e3d6000fd5b505050506040513d602081101561261457600080fd5b8101908080519060200190929190505050600160006101000a81548173ffffffffffffffffffffffffffffffffffffffff021916908373ffffffffffffffffffffffffffffffffffffffff1602179055505b600160009054906101000a900473ffffffffffffffffffffffffffffffffffffffff1673ffffffffffffffffffffffffffffffffffffffff1663c281d19e6040518163ffffffff167c010000000000000000000000000000000000000000000000000000000002815260040160206040518083038186803b1580156126ea57600080fd5b505afa1580156126fe573d6000803e3d6000fd5b505050506040513d602081101561271457600080fd5b8101908080519060200190929190505050905090565b6000612737826000613385565b9050919050565b60008090506000600f60008581526020019081526020016000205414151561277b57600f60008481526020019081526020016000205490506127b0565b600060106000858152602001908152602001600020541415156127af57601060008481526020019081526020016000205490505b5b60006011600083815260200190815260200160002090506000600f6000868152602001908152602001600020541415156127f5578281600b0160010181905550612820565b6000601060008681526020019081526020016000205414151561281f578281600b01600201819055505b5b600081600b0160010154141580156128405750600081600b016002015414155b156128c1576000600e5482600b016002015483600b01600101541881151561286457fe5b0690508082600b016000018190555080826003016000018190555061288883612a7b565b7f6c1c763501524538fee7a899a38cd84735bf5a5b3e7a5e89653c8f4f2b16ce00816040518082815260200191505060405180910390a1505b50505050565b6000601160008381526020019081526020016000209050600073ffffffffffffffffffffffffffffffffffffffff168160030160020160009054906101000a900473ffffffffffffffffffffffffffffffffffffffff1673ffffffffffffffffffffffffffffffffffffffff1614151561298c576040517f08c379a0000000000000000000000000000000000000000000000000000000008152600401808060200182810382526034815260200180614d276034913960400191505060405180910390fd5b6000620f42406129ab611388846006015461362090919063ffffffff16565b8115156129b457fe5b0490506000620f42406129d6600954856006015461362090919063ffffffff16565b8115156129df57fe5b0490508260000160020160009054906101000a900473ffffffffffffffffffffffffffffffffffffffff1673ffffffffffffffffffffffffffffffffffffffff166108fc8284866006015403039081150290604051600060405180830381858888f19350505050158015612a57573d6000803e3d6000fd5b5060018360070160146101000a81548160ff02191690831515021790555050505050565b60006011600083815260200190815260200160002090508060070160149054906101000a900460ff16151515612b19576040517f08c379a00000000000000000000000000000000000000000000000000000000081526004018080602001828103825260148152602001807f526f756e6420616c726561647920636c6f73656400000000000000000000000081525060200191505060405180910390fd5b612c138160000160405180606001604052908160008201548152602001600182015481526020016002820160009054906101000a900473ffffffffffffffffffffffffffffffffffffffff1673ffffffffffffffffffffffffffffffffffffffff1673ffffffffffffffffffffffffffffffffffffffff16815250508260030160405180606001604052908160008201548152602001600182015481526020016002820160009054906101000a900473ffffffffffffffffffffffffffffffffffffffff1673ffffffffffffffffffffffffffffffffffffffff1673ffffffffffffffffffffffffffffffffffffffff168152505061365e565b8160070160006101000a81548173ffffffffffffffffffffffffffffffffffffffff021916908373ffffffffffffffffffffffffffffffffffffffff160217905550612c5e826136c1565b508060000160020160009054906101000a900473ffffffffffffffffffffffffffffffffffffffff1673ffffffffffffffffffffffffffffffffffffffff167f093d5ddf522e009238c06d0c0525094e3f0a69f76eed0fbd89a7886cab2c3683838360070160009054906101000a900473ffffffffffffffffffffffffffffffffffffffff16846006015485600001600001548660030160020160009054906101000a900473ffffffffffffffffffffffffffffffffffffffff168760030160000154604051808781526020018673ffffffffffffffffffffffffffffffffffffffff1673ffffffffffffffffffffffffffffffffffffffff1681526020018581526020018481526020018373ffffffffffffffffffffffffffffffffffffffff1673ffffffffffffffffffffffffffffffffffffffff168152602001828152602001965050505050505060405180910390a260018160070160156101000a81548160ff021916908315150217905550601360009054906101000a900460ff1615612e6157612e148160000160020160009054906101000a900473ffffffffffffffffffffffffffffffffffffffff1683613e31565b508060070160159054906101000a900460ff161515612e6057612e5e8160030160020160009054906101000a900473ffffffffffffffffffffffffffffffffffffffff1683613e31565b505b5b5050565b612e6d6118d1565b1515612e7857600080fd5b6000801515600660009054906101000a900460ff161515141515612ee7576040517f08c379a000000000000000000000000000000000000000000000000000000000815260040180806020018281038252602c815260200180614e9f602c913960400191505060405180910390fd5b8173ffffffffffffffffffffffffffffffffffffffff166108fc3073ffffffffffffffffffffffffffffffffffffffff16319081150290604051600060405180830381858888f19350505050158015612f44573d6000803e3d6000fd5b505050565b612f516118d1565b1515612f5c57600080fd5b6001801515600660009054906101000a900460ff161515141515612fcb576040517f08c379a000000000000000000000000000000000000000000000000000000000815260040180806020018281038252602c815260200180614e9f602c913960400191505060405180910390fd5b6000600660006101000a81548160ff02191690831515021790555050565b6000828410158015612ffa57508184105b90509392505050565b600061305d6040518060400160405280600381526020017f55524c000000000000000000000000000000000000000000000000000000000081525060405180610120016040528060ec8152602001614d5b60ec9139613ffb565b905060006130b86040518060400160405280600381526020017f55524c00000000000000000000000000000000000000000000000000000000008152506040518060800160405280605e8152602001614ecb605e9139613ffb565b905082600f60008381526020019081526020016000208190555082601060008481526020019081526020016000208190555083600e819055507faf1377970ad92b4d34c9f58cf958a17a5537f57bc9f97f126c28b07637e94be3816040518080602001838152602001828103825260128152602001807f67657474696e672072616e646f6d6e65737300000000000000000000000000008152506020019250505060405180910390a150505050565b61316f6118d1565b151561317a57600080fd5b6000801515600660009054906101000a900460ff1615151415156131e9576040517f08c379a000000000000000000000000000000000000000000000000000000000815260040180806020018281038252602c815260200180614e9f602c913960400191505060405180910390fd5b6001600660006101000a81548160ff0219169083151502179055507f4c49022e3faa3d594bcd4c0a41d358281ad8bb232d3d0cdb1add1e71a9daf26660405180806020018281038252600c8152602001807f67616d652073746172746564000000000000000000000000000000000000000081525060200191505060405180910390a150565b600073ffffffffffffffffffffffffffffffffffffffff168173ffffffffffffffffffffffffffffffffffffffff16141515156132ab57600080fd5b8073ffffffffffffffffffffffffffffffffffffffff166000809054906101000a900473ffffffffffffffffffffffffffffffffffffffff1673ffffffffffffffffffffffffffffffffffffffff167f8be0079c531659141344cd1fd0a4f28419497f9722a3daafe3b4186f6b6457e060405160405180910390a3806000806101000a81548173ffffffffffffffffffffffffffffffffffffffff021916908373ffffffffffffffffffffffffffffffffffffffff16021790555050565b6000813b9050919050565b600061337e6145b8565b9050919050565b600060608390506000809050600080905060008090505b835181101561360157603084828151811015156133b557fe5b9060200101517f010000000000000000000000000000000000000000000000000000000000000090047f0100000000000000000000000000000000000000000000000000000000000000027f0100000000000000000000000000000000000000000000000000000000000000900460ff16101580156134b357506039848281518110151561343f57fe5b9060200101517f010000000000000000000000000000000000000000000000000000000000000090047f0100000000000000000000000000000000000000000000000000000000000000027f0100000000000000000000000000000000000000000000000000000000000000900460ff1611155b156135675781156134d65760008614156134cc57613601565b8580600190039650505b600a83029250603084828151811015156134ec57fe5b9060200101517f010000000000000000000000000000000000000000000000000000000000000090047f0100000000000000000000000000000000000000000000000000000000000000027f0100000000000000000000000000000000000000000000000000000000000000900460ff1603830192506135f4565b602e848281518110151561357757fe5b9060200101517f010000000000000000000000000000000000000000000000000000000000000090047f0100000000000000000000000000000000000000000000000000000000000000027f0100000000000000000000000000000000000000000000000000000000000000900460ff1614156135f357600191505b5b808060010191505061339c565b5060008511156136145784600a0a820291505b81935050505092915050565b6000808314156136335760009050613658565b6000828402905082848281151561364657fe5b0414151561365357600080fd5b809150505b92915050565b600081600001516003600185600001510181151561367857fe5b06141561368b57816040015190506136bb565b8160000151600360028560000151018115156136a357fe5b0614156136b657826040015190506136bb565b600090505b92915050565b60008060116000848152602001908152602001600020905060008160070160009054906101000a900473ffffffffffffffffffffffffffffffffffffffff1690508160070160149054906101000a900460ff16151515613789576040517f08c379a00000000000000000000000000000000000000000000000000000000081526004018080602001828103825260148152602001807f526f756e6420616c726561647920636c6f73656400000000000000000000000081525060200191505060405180910390fd5b60018260070160146101000a81548160ff0219169083151502179055506000601254905060003073ffffffffffffffffffffffffffffffffffffffff163190506000620f42406137e8611388876006015461362090919063ffffffff16565b8115156137f157fe5b0490506000620f4240613813600954886006015461362090919063ffffffff16565b81151561381c57fe5b0490508560070160159054906101000a900460ff1615613a6f57600073ffffffffffffffffffffffffffffffffffffffff168573ffffffffffffffffffffffffffffffffffffffff161415613901578560000160020160009054906101000a900473ffffffffffffffffffffffffffffffffffffffff1673ffffffffffffffffffffffffffffffffffffffff166108fc8284896006015403039081150290604051600060405180830381858888f193505050501580156138e0573d6000803e3d6000fd5b506138f682601254610d1790919063ffffffff16565b601281905550613a6a565b3073ffffffffffffffffffffffffffffffffffffffff168573ffffffffffffffffffffffffffffffffffffffff1614156139595761394e8660060154601254610d1790919063ffffffff16565b601281905550613a69565b6139728660060154601254614a4e90919063ffffffff16565b6012819055508473ffffffffffffffffffffffffffffffffffffffff166108fc82846139ac60028b6006015461362090919063ffffffff16565b03039081150290604051600060405180830381858888f193505050501580156139d9573d6000803e3d6000fd5b507fd4f43975feb89f48dd30cabbb32011045be187d1e11c8ea9faa43efc3528251985828489600601540303604051808373ffffffffffffffffffffffffffffffffffffffff1673ffffffffffffffffffffffffffffffffffffffff1681526020018281526020019250505060405180910390a1613a6282601254610d1790919063ffffffff16565b6012819055505b5b613cbd565b600073ffffffffffffffffffffffffffffffffffffffff168573ffffffffffffffffffffffffffffffffffffffff161415613bcb578560000160020160009054906101000a900473ffffffffffffffffffffffffffffffffffffffff1673ffffffffffffffffffffffffffffffffffffffff166108fc600283811515613af157fe5b0484896006015403039081150290604051600060405180830381858888f19350505050158015613b25573d6000803e3d6000fd5b508560030160020160009054906101000a900473ffffffffffffffffffffffffffffffffffffffff1673ffffffffffffffffffffffffffffffffffffffff166108fc600283811515613b7357fe5b0484896006015403039081150290604051600060405180830381858888f19350505050158015613ba7573d6000803e3d6000fd5b50613bc082600202601254610d1790919063ffffffff16565b601281905550613cbc565b8473ffffffffffffffffffffffffffffffffffffffff166108fc8284613bff60028b6006015461362090919063ffffffff16565b03039081150290604051600060405180830381858888f19350505050158015613c2c573d6000803e3d6000fd5b507fd4f43975feb89f48dd30cabbb32011045be187d1e11c8ea9faa43efc3528251985828489600601540303604051808373ffffffffffffffffffffffffffffffffffffffff1673ffffffffffffffffffffffffffffffffffffffff1681526020018281526020019250505060405180910390a1613cb582601254610d1790919063ffffffff16565b6012819055505b5b80600a60008282540192505081905550600b54600a541115613ddc577f7fc2eef842cb1dfa1b90b4c29935e29807b384d9334c1c6f2bb2ff9103260d9b600c60009054906101000a900473ffffffffffffffffffffffffffffffffffffffff16600a54604051808373ffffffffffffffffffffffffffffffffffffffff1673ffffffffffffffffffffffffffffffffffffffff1681526020018281526020019250505060405180910390a1600c60009054906101000a900473ffffffffffffffffffffffffffffffffffffffff1673ffffffffffffffffffffffffffffffffffffffff166108fc600a549081150290604051600060405180830381858888f19350505050158015613dd2573d6000803e3d6000fd5b506000600a819055505b8560060154600202840360125410158015613e175750856006015460020283033073ffffffffffffffffffffffffffffffffffffffff163110155b1515613e1f57fe5b85600601549650505050505050919050565b6000806011600084815260200190815260200160002090506000601454600d5486600143034085600b0160010154604051602001808581526020018473ffffffffffffffffffffffffffffffffffffffff1673ffffffffffffffffffffffffffffffffffffffff166c010000000000000000000000000281526014018381526020018281526020019450505050506040516020818303038152906040528051906020012060019004811515613ee257fe5b061415613fef57600073ffffffffffffffffffffffffffffffffffffffff168160080160009054906101000a900473ffffffffffffffffffffffffffffffffffffffff1673ffffffffffffffffffffffffffffffffffffffff16141515613f94576040517f08c379a0000000000000000000000000000000000000000000000000000000008152600401808060200182810382526021815260200180614fc56021913960400191505060405180910390fd5b838160080160006101000a81548173ffffffffffffffffffffffffffffffffffffffff021916908373ffffffffffffffffffffffffffffffffffffffff160217905550613fe5848260060154614a70565b6001915050613ff5565b60009150505b92915050565b60008073ffffffffffffffffffffffffffffffffffffffff16600260009054906101000a900473ffffffffffffffffffffffffffffffffffffffff1673ffffffffffffffffffffffffffffffffffffffff16148061408357506000614081600260009054906101000a900473ffffffffffffffffffffffffffffffffffffffff16613369565b145b15614094576140926000613374565b505b600260009054906101000a900473ffffffffffffffffffffffffffffffffffffffff1673ffffffffffffffffffffffffffffffffffffffff166338cc48316040518163ffffffff167c0100000000000000000000000000000000000000000000000000000000028152600401602060405180830381600087803b15801561411a57600080fd5b505af115801561412e573d6000803e3d6000fd5b505050506040513d602081101561414457600080fd5b810190808051906020019092919050505073ffffffffffffffffffffffffffffffffffffffff16600160009054906101000a900473ffffffffffffffffffffffffffffffffffffffff1673ffffffffffffffffffffffffffffffffffffffff161415156142ad57600260009054906101000a900473ffffffffffffffffffffffffffffffffffffffff1673ffffffffffffffffffffffffffffffffffffffff166338cc48316040518163ffffffff167c0100000000000000000000000000000000000000000000000000000000028152600401602060405180830381600087803b15801561423157600080fd5b505af1158015614245573d6000803e3d6000fd5b505050506040513d602081101561425b57600080fd5b8101908080519060200190929190505050600160006101000a81548173ffffffffffffffffffffffffffffffffffffffff021916908373ffffffffffffffffffffffffffffffffffffffff1602179055505b6000600160009054906101000a900473ffffffffffffffffffffffffffffffffffffffff1673ffffffffffffffffffffffffffffffffffffffff1663524f3889856040518263ffffffff167c01000000000000000000000000000000000000000000000000000000000281526004018080602001828103825283818151815260200191508051906020019080838360005b8381101561435957808201518184015260208101905061433e565b50505050905090810190601f1680156143865780820380516001836020036101000a031916815260200191505b5092505050602060405180830381600087803b1580156143a557600080fd5b505af11580156143b9573d6000803e3d6000fd5b505050506040513d60208110156143cf57600080fd5b8101908080519060200190929190505050905062030d403a02670de0b6b3a7640000018111156144065760006001029150506145b2565b600160009054906101000a900473ffffffffffffffffffffffffffffffffffffffff1673ffffffffffffffffffffffffffffffffffffffff1663adf59f9982600087876040518563ffffffff167c0100000000000000000000000000000000000000000000000000000000028152600401808481526020018060200180602001838103835285818151815260200191508051906020019080838360005b838110156144be5780820151818401526020810190506144a3565b50505050905090810190601f1680156144eb5780820380516001836020036101000a031916815260200191505b50838103825284818151815260200191508051906020019080838360005b83811015614524578082015181840152602081019050614509565b50505050905090810190601f1680156145515780820380516001836020036101000a031916815260200191505b50955050505050506020604051808303818588803b15801561457257600080fd5b505af1158015614586573d6000803e3d6000fd5b50505050506040513d602081101561459d57600080fd5b81019080805190602001909291905050509150505b92915050565b6000806145d8731d3b2638a7cc9f2cb3d298a3da7a90b67e5506ed613369565b111561467a57731d3b2638a7cc9f2cb3d298a3da7a90b67e5506ed600260006101000a81548173ffffffffffffffffffffffffffffffffffffffff021916908373ffffffffffffffffffffffffffffffffffffffff1602179055506146716040518060400160405280600b81526020017f6574685f6d61696e6e6574000000000000000000000000000000000000000000815250614b47565b60019050614a4b565b600061469973c03a2615d5efaf5f49f60b7bb6583eaec212fdf1613369565b111561473b5773c03a2615d5efaf5f49f60b7bb6583eaec212fdf1600260006101000a81548173ffffffffffffffffffffffffffffffffffffffff021916908373ffffffffffffffffffffffffffffffffffffffff1602179055506147326040518060400160405280600c81526020017f6574685f726f707374656e330000000000000000000000000000000000000000815250614b47565b60019050614a4b565b600061475a73b7a07bcf2ba2f2703b24c0691b5278999c59ac7e613369565b11156147fc5773b7a07bcf2ba2f2703b24c0691b5278999c59ac7e600260006101000a81548173ffffffffffffffffffffffffffffffffffffffff021916908373ffffffffffffffffffffffffffffffffffffffff1602179055506147f36040518060400160405280600981526020017f6574685f6b6f76616e0000000000000000000000000000000000000000000000815250614b47565b60019050614a4b565b600061481b73146500cfd35b22e4a392fe0adc06de1a1368ed48613369565b11156148bd5773146500cfd35b22e4a392fe0adc06de1a1368ed48600260006101000a81548173ffffffffffffffffffffffffffffffffffffffff021916908373ffffffffffffffffffffffffffffffffffffffff1602179055506148b46040518060400160405280600b81526020017f6574685f72696e6b656279000000000000000000000000000000000000000000815250614b47565b60019050614a4b565b60006148dc736f485c8bf6fc43ea212e93bbf8ce046c7f1cb475613369565b111561494057736f485c8bf6fc43ea212e93bbf8ce046c7f1cb475600260006101000a81548173ffffffffffffffffffffffffffffffffffffffff021916908373ffffffffffffffffffffffffffffffffffffffff16021790555060019050614a4b565b600061495f7320e12a1f859b3feae5fb2a0a32c18f5a65555bbf613369565b11156149c3577320e12a1f859b3feae5fb2a0a32c18f5a65555bbf600260006101000a81548173ffffffffffffffffffffffffffffffffffffffff021916908373ffffffffffffffffffffffffffffffffffffffff16021790555060019050614a4b565b60006149e27351efaf4c8b3c9afbd5ab9f4bbc82784ab6ef8faa613369565b1115614a46577351efaf4c8b3c9afbd5ab9f4bbc82784ab6ef8faa600260006101000a81548173ffffffffffffffffffffffffffffffffffffffff021916908373ffffffffffffffffffffffffffffffffffffffff16021790555060019050614a4b565b600090505b90565b6000828211151515614a5f57600080fd5b600082840390508091505092915050565b8173ffffffffffffffffffffffffffffffffffffffff166108fc3073ffffffffffffffffffffffffffffffffffffffff16319081150290604051600060405180830381858888f19350505050158015614acd573d6000803e3d6000fd5b507f59eb56f0aaebc4c2e1de6e254bc52af79350363a072c9ef59851f0d0861a964282601254604051808373ffffffffffffffffffffffffffffffffffffffff1673ffffffffffffffffffffffffffffffffffffffff1681526020018281526020019250505060405180910390a160006012819055505050565b8060039080519060200190614b5d929190614bf6565b5050565b604051806102000160405280614b75614c76565b8152602001614b82614c76565b815260200160008152602001600073ffffffffffffffffffffffffffffffffffffffff168152602001600015158152602001600015158152602001600073ffffffffffffffffffffffffffffffffffffffff1681526020016000815260200160008152602001614bf0614cb0565b81525090565b828054600181600116156101000203166002900490600052602060002090601f016020900481019282601f10614c3757805160ff1916838001178555614c65565b82800160010185558215614c65579182015b82811115614c64578251825591602001919060010190614c49565b5b509050614c729190614cd1565b5090565b60405180606001604052806000815260200160008019168152602001600073ffffffffffffffffffffffffffffffffffffffff1681525090565b60405180606001604052806000815260200160008152602001600081525090565b614cf391905b80821115614cef576000816000905550600101614cd7565b5090565b9056fe4e6f626f6479206a6f696e656420746f2074686520726f756e642c2069742063616e2774206265207265736f6c7665644f6e6c7920706f737369626c6520746f2063616e63656c20726f756e64207768656e206e6f626f647920686173206a6f696e6564424456754c326831416c33432f7a49764e72306e4655586b48762b5838576c337768522f617342336665685441593456554d3667453434644d714e72437a58687a6178515555522b5a4b50542f655a2f7176663436333669654c6f7a476c7a482b6431444d61326b614b49506a2b686a622b7054554b46786f574f68793632316b6c763357334336794f7057507356774d4c7231546e4d6748523769364755693178333437756d69506d4247745675785a707a68464f57505563737a4a414a4b366c377333654774527433776976426a784551434967444333664a56476f355a2b4448542b7379574b773d3d53656e64206174206c65617374207468652073616d652062657420616d6f756e7444656e6965642061636365737320746f2063616c6c6261636b2066756e6374696f6e2c206f7261636c65206f6e6c7920616c6c6f77656446756e6374696f6e20617661696c61626c65206f6e6c79207768656e2067616d652069732072756e6e696e6768747470733a2f2f7777772e72616e646f6d2e6f72672f696e7465676572732f3f6e756d3d31266d696e3d30266d61783d3130303030303030303026636f6c3d3126626173653d313026666f726d61743d706c61696e26726e643d6e6577526f756e642063616e206f6e6c792062652072657665616c6564206279206974732063726561746f724d696e696d756d204a61636b706f74206973206e656564656420666f72207374617274696e672067616d654572726f7220747279696e6720746f2063616e63656c20726f756e643a207468652073656e646572206973206e6f74207468652063726561746f72206f662074686520726f756e644f6e6c79206f6e65206c6f74657272792077696e6e65722070657220726f756e644572726f7220747279696e6720746f2063616e63656c20726f756e643a2077726f6e672063686f696365206f7220736563726574a165627a7a72305820f8ba2b2bdd4a920d4ce6fb27685858106311a41b7c5e2031d313c37f3a0dc94e0029",
  "source": "pragma solidity >=0.5;\n\nimport \"./P2PGamblingGame.sol\";\nimport \"./LotteryGame.sol\";\n\n\n/** @title RPS - RockPaperScissor P2P game, playing also for a jackpot.\n  * @author Rodrigo Gmez Gentil, Antonio Cruz Surez\n  * @notice This is just a simple game done mostly for learning solidity\n            and web3 development, do not use betting real value since\n            it has some known vulnerabilities.\n  * @dev My first smartcontract, so probably code could be improved.\n */\ncontract RPS is P2PGamblingGame, LotteryGame {\n\n    enum Choice { Rock, Paper, Scissors }\n\n    uint constant RPS_RANDOM_RANGE = 3;\n\n    modifier isChoice(uint choice) {\n        require(choice <= uint(Choice.Scissors), \"RPS choice not valid\");\n        _;\n    }\n\n    event RoundCreated(\n        uint roundId,\n        uint betAmount,\n        address indexed player1,\n        bool isSolo\n    );\n\n    event RoundResolved(\n        uint roundId,\n        address winner,\n        uint betAmount,\n        address indexed player1,\n        uint choice1,\n        address player2,\n        uint choice2\n    );\n\n    event Secret(bytes32 secret);\n\n    event BusinessPayment(address businessAddress, uint payment);\n\n    constructor() public payable {\n    }\n\n    /** @notice Get info from rounds.\n      * @dev This function is implemented mainly for debugging purpose.\n             Actually getting info from front-end is managed through events.\n      * @param roundId round id number that identify a round\n      * @return player1Address address of player1\n      * @return player1Choice secret choice of player1\n      * @return player2Address address of player2\n      * @return player2Choice choice of player2\n      * @return betAmount amount of the bet of this round, in wei.\n      * @return winner address of the winner, it's 0x0 if not finished or draw\n    */\n    function getRoundInfo(\n        uint roundId\n    )\n        external\n        view\n        returns(\n            address player1Address,\n            uint player1Choice,\n            address player2Address,\n            uint player2Choice,\n            uint betAmount,\n            address winner,\n            bool isSolo,\n            address lotteryWinner\n        )\n    {\n        Round memory myRound = rounds[roundId];\n        return (\n            myRound.player1.playerAddress,\n            myRound.player1.choice,\n            myRound.player2.playerAddress,\n            myRound.player2.choice,\n            myRound.betAmount,\n            myRound.winner,\n            myRound.isSolo,\n            myRound.lotteryWinner\n        );\n    }\n\n\n    /**\n     * @notice Function to create a round playing against the blockchain.\n     * @param _choice Choice made by player\n     * @return Round Id of the round\n     */\n    function playSoloRound(uint _choice)\n        public\n        gameIsOn(true)\n        isChoice(_choice)\n        payable\n        returns(uint)\n    {\n        require(msg.value >= minimumBet, \"Not enough amount bet\");\n        roundCount++;\n        uint roundId = roundCount;\n        Round storage round = rounds[roundId];\n        round.player1.playerAddress = msg.sender;\n        round.player1.choice = _choice;\n        round.betAmount = msg.value;\n        round.isSolo = true;\n\n        emit RoundCreated(\n            roundCount,\n            round.betAmount,\n            round.player1.playerAddress,\n            round.isSolo\n        );\n\n        if (round.isSolo) {\n            require(isValidBet(msg.value, minimumBet, jackpot));\n            require(msg.value <= jackpot, \"Bet too high\");\n            round.player2.playerAddress = address(this);\n            _setRandomness(RPS_RANDOM_RANGE, roundId);\n        }\n\n        return roundId;\n    }\n\n    /** @notice Function called each time we want to create a round for playing with other players.\n                Payable function thar receives the bet amount.\n      * @param _secretChoice bytes32 with the encrypted choice plus a secret string\n      * @return roundId id number that identify the round created\n     */\n    function createSecretRound(bytes32 _secretChoice)\n        public\n        gameIsOn(true)\n        payable\n        returns(uint)\n    {\n        require(msg.value >= minimumBet, \"Not enough amount bet\");\n\n        roundCount++;\n        uint roundId = roundCount;\n        Round storage round = rounds[roundId];\n        round.player1.playerAddress = msg.sender;\n        round.player1.secretChoice = _secretChoice;\n        round.betAmount = msg.value;\n        round.isSolo = false;\n\n        emit RoundCreated(\n            roundCount,\n            round.betAmount,\n            round.player1.playerAddress,\n            round.isSolo\n        );\n\n        emit Secret(_secretChoice);\n\n        return roundId;\n    }\n\n    /** @notice Join to an existing round created by other player\n                Payable function thar receives the bet amount.\n      * @param _roundId id number that identify the round to join\n      * @param _choice choose Choice enum value: ROCK, PAPER, SCISSOR\n     */\n    function joinSecretRound(uint _roundId, uint _choice) public gameIsOn(true) isChoice(_choice) payable {\n        Round storage myRound = rounds[_roundId];  // Pointer to round\n        require(myRound.player1.playerAddress != address(0), \"Round does not exist\");\n        require(myRound.player2.playerAddress == address(0) && !myRound.isClosed, \"Round already finished\");\n        require(msg.value >= myRound.betAmount, \"Send at least the same bet amount\");\n\n        // Send back the excess of the amount sent minus the real bet amount\n        // Use Safe Math, althouth this should never be overflow bc substract uints is another uint\n        // Using transfer should prevent from fallback reentrancy, but...\n        // Also, a reentrancy would have to send more value than betAmount, I think an attack has no sense\n        // but I would have to analyze it a bit more.\n        msg.sender.transfer(msg.value - myRound.betAmount);  // No need to use SafeMath since this can't be negative\n\n        myRound.player2.playerAddress = msg.sender;\n        myRound.player2.choice = _choice;\n    }\n\n    /** @notice Player 1 reveals choice when other player has joined to player 1's round\n     */\n    function revealChoice(uint _roundId, uint256 _choice, string memory _secret) public gameIsOn(true) {\n        Round storage myRound = rounds[_roundId];  // Pointer to round\n        require(myRound.player2.playerAddress != address(0), \"Nobody joined to the round, it can't be resolved\");\n        require(myRound.player1.playerAddress == msg.sender, \"Round can only be revealed by its creator\");\n        require(keccak256(abi.encodePacked(_secret, _choice)) == myRound.player1.secretChoice, \"Error trying to reveal choice\");\n        myRound.player1.choice = _choice;\n        _resolveRound(_roundId);\n    }\n\n    /** @notice When we have everything ready owner can start game so anyone can play.\n                Also for restarting game after having stopped it\n                Call parent function and start lottery as well\n    */\n    function startGame() public {\n        super.startGame();\n        startLottery();\n    }\n\n    /** @notice Function for emergengies. Call parent function and stop lottery as well\n    */\n    function stopGame() public {\n        super.stopGame();\n        stopLottery();\n    }\n\n    /** @notice Withdraw funds in case of an emergengy. Set jackpot to 0.\n      * @param _myAddress addres to withdraw funds to\n    */\n    function withdrawFunds(address payable _myAddress) public {\n        super.withdrawFunds(_myAddress);\n        jackpot = 0;\n    }\n\n    /** @notice Resolve round, both vs House or vs other player.\n                Pay winner if any.\n      * @param _roundId id number that identify the round to resolve\n     */\n    function _resolveRound(uint _roundId) private {\n        Round storage myRound = rounds[_roundId];  // Pointer to round\n        require(!myRound.isClosed, \"Round already closed\");\n        myRound.winner = _checkWinner(myRound.player1, myRound.player2);\n        _payRound(_roundId);\n        emit RoundResolved(\n            _roundId,\n            myRound.winner,\n            myRound.betAmount,\n            myRound.player1.playerAddress,\n            myRound.player1.choice,\n            myRound.player2.playerAddress,\n            myRound.player2.choice\n        );\n        myRound.isSolo = true;\n        if (lotteryOn) {\n            _playLottery(myRound.player1.playerAddress, _roundId);\n            if (!myRound.isSolo) {\n                _playLottery(myRound.player2.playerAddress, _roundId);\n            }\n        }\n    }\n\n    /** @notice Pay winner of the round resolved.\n      * @param _roundId id number that identify the round to resolve\n     */\n    function _payRound(uint _roundId) private returns (uint) {\n        Round storage myRound = rounds[_roundId];  // Pointer to round\n        address payable winner = myRound.winner;\n\n        // I think this is necessary to avoid possible reentrancy attacks (although we're using transfer).\n        // I also think we are protected since this function is private, the one which calls this one is\n        // also private and the parent you need to send value to join round.\n        require(!myRound.isClosed, \"Round already closed\");\n        myRound.isClosed = true;\n\n        uint inititalJackpot = jackpot;\n        uint initialBalance = address(this).balance;\n        uint jackpotFee = myRound.betAmount.mul(jackpotFeeRate) / feeUnits;\n        uint businessFee = myRound.betAmount.mul(businessFeeRate) / feeUnits;\n\n        if(myRound.isSolo) {  // 1 player mode\n            if (winner == address(0)){  // Draw, player recevies what he bet minus fees\n                myRound.player1.playerAddress.transfer(myRound.betAmount - jackpotFee - businessFee);\n                jackpot = jackpot.add(jackpotFee);\n            } else if (winner == address(this)) {  // Player looses, bet to jackpot\n                jackpot = jackpot.add(myRound.betAmount);\n            } else {  // Player wins\n                // SafeMath is not necessary, jackpot and betAmount are uint, and the substraction can only be uint.\n                // Used to show using a Library. Consider to change it to use -, since it saves same gas.\n                jackpot = jackpot.sub(myRound.betAmount);\n                winner.transfer(myRound.betAmount.mul(2) - jackpotFee - businessFee);\n                emit Payment(winner, myRound.betAmount - jackpotFee - businessFee);\n                jackpot = jackpot.add(jackpotFee);\n            }\n\n        } else { // 2 players mode\n            if (winner == address(0)){  // Draw, players receive what they bet minus jackpot and business fee\n                // We might consider to study this a bit more, but I think that when playing 2 players\n                // we may just charge half of business fee to each player and that's OK for avoiding\n                // attacks in case of a draw.\n                myRound.player1.playerAddress.transfer(myRound.betAmount - jackpotFee - businessFee / 2);\n                myRound.player2.playerAddress.transfer(myRound.betAmount - jackpotFee - businessFee / 2);\n                jackpot = jackpot.add(2 * jackpotFee);\n            } else {  // Bet to the winner minus jackpot and business fee\n                winner.transfer(myRound.betAmount.mul(2) - jackpotFee - businessFee);\n                emit Payment(winner, myRound.betAmount - jackpotFee - businessFee);\n                jackpot = jackpot.add(jackpotFee);\n            }\n        }\n\n        // We must do the transfer of business fee to businessAddress but since they're supposed to be very small we should wait\n        // till collecting a bigger amount, for avoiding paying more gas than actual money.\n        totalBusinessFee += businessFee;\n        if (totalBusinessFee > minBusinessFeePayment) {\n            emit BusinessPayment(businessAddress, totalBusinessFee);\n            businessAddress.transfer(totalBusinessFee);\n            totalBusinessFee = 0;\n        }\n\n\n        // Additional check por security for reentrancy (kind of formal verification)\n        // These additional checks may not be necessary since we are using transfer that limits gas to 2300,\n        // so in the final deployment we could ommit all these additional checks in order to save same uncessary gas\n        assert((jackpot >= inititalJackpot - (2 * myRound.betAmount)) && (address(this).balance >= initialBalance - (2 * myRound.betAmount)));\n\n        return myRound.betAmount;\n    }\n\n    /** @notice Check winner of the round, both vs House or vs other player.\n      * @param player1 player struct (with player's address and choice)\n      * @param player2 player struct (with player's address and choice)\n      * @return address of the winner\n     */\n    function _checkWinner(Player memory player1, Player memory player2) private pure returns(address payable) {\n        if ((uint(player1.choice) + 1) % 3 == uint(player2.choice)) {\n            return player2.playerAddress;\n        } else if ((uint(player1.choice) + 2) % 3 == uint(player2.choice)) {\n            return player1.playerAddress;\n        } else {\n            return address(0);\n        }\n    }\n\n    /** @notice Play lottery for the round\n      * @dev TODO: It is needed to implement a mechanism that assures that existing rounds can be paid altoudh\n             someone has hit the jakpot. Curerntly if someone hits the jackpot he/she gets all value of the contract\n      * @param playerAddress address of the player\n      * @param _roundId id number that identify the round to resolve\n      * @return if player wins the lottery or not\n     */\n    function _playLottery(address payable playerAddress, uint _roundId) private returns (bool) {\n        Round storage myRound = rounds[_roundId];  // Pointer to round\n        if ((uint(keccak256(abi.encodePacked(roundCount, playerAddress, blockhash(block.number - 1), myRound.oraclizeCallback.queryResult)))\n            % lotteryRate) == 0) {\n            require(myRound.lotteryWinner == address(0), \"Only one loterry winner per round\");\n            myRound.lotteryWinner = playerAddress;\n            _payLotteryWinner(playerAddress, myRound.betAmount);\n            return true;\n        }\n        return false;\n    }\n\n}\n",
  "sourcePath": "/home/rggentil/Documents/master_ethereum/BLOCKCHAINTFM/Ethereum_Gambling_Games/contracts/RPS.sol",
  "compiler": {
    "name": "solc",
    "version": "0.5.5+commit.47a71e8f.Emscripten.clang"
  },
  "schemaVersion": "3.0.6",
  "updatedAt": "2019-04-17T05:06:53.270Z",
  "devdoc": {
    "author": "Rodrigo Gmez Gentil, Antonio Cruz Surez",
    "details": "My first smartcontract, so probably code could be improved.",
    "methods": {
      "__callback(bytes32,string,bytes)": {
        "details": "Get the querys using the parameter myid",
        "params": {
          "myid": "The id of the query",
          "proof": "Necessary for validating Oraclize's call",
          "result": "The result of the query"
        }
      },
      "cancelRound(uint256,uint256,string)": {
        "params": {
          "_choice": "original choice",
          "_roundId": "Round Id of the round",
          "_secret": "secret word of the round"
        }
      },
      "cancelRoundSender(uint256)": {
        "params": {
          "_roundId": "Round Id of the round"
        }
      },
      "createSecretRound(bytes32)": {
        "params": {
          "_secretChoice": "bytes32 with the encrypted choice plus a secret string"
        },
        "return": "roundId id number that identify the round created"
      },
      "fundGame()": {
        "details": "It's just the same as fallback function."
      },
      "getRoundInfo(uint256)": {
        "details": "This function is implemented mainly for debugging purpose. Actually getting info from front-end is managed through events.",
        "params": {
          "roundId": "round id number that identify a round"
        },
        "return": "player1Address address of player1player1Choice secret choice of player1player2Address address of player2player2Choice choice of player2betAmount amount of the bet of this round, in wei.winner address of the winner, it's 0x0 if not finished or draw"
      },
      "isOwner()": {
        "return": "true if `msg.sender` is the owner of the contract."
      },
      "joinSecretRound(uint256,uint256)": {
        "params": {
          "_choice": "choose Choice enum value: ROCK, PAPER, SCISSOR",
          "_roundId": "id number that identify the round to join"
        }
      },
      "owner()": {
        "return": "the address of the owner."
      },
      "playSoloRound(uint256)": {
        "params": {
          "_choice": "Choice made by player"
        },
        "return": "Round Id of the round"
      },
      "renounceOwnership()": {
        "details": "Allows the current owner to relinquish control of the contract."
      },
      "setLotteryRate(uint256)": {
        "details": "Mostly for testing porpuse. It should be removed in final deployment or no modifiable by anyone",
        "params": {
          "newLotteryRate": "new lottery rate"
        }
      },
      "setminBusinessFeePayment(uint256)": {
        "details": "Mostly for testing porpuse. It should be removed in final deployment or no modifiable by anyone",
        "params": {
          "newMinBusinessFeePayment": "new min amount of ETH to transfer to business"
        }
      },
      "transferOwnership(address)": {
        "details": "Allows the current owner to transfer control of the contract to a newOwner.",
        "params": {
          "newOwner": "The address to transfer ownership to."
        }
      },
      "withdrawFunds(address)": {
        "params": {
          "_myAddress": "addres to withdraw funds to"
        }
      }
    },
    "title": "RPS - RockPaperScissor P2P game, playing also for a jackpot."
  },
  "userdoc": {
    "methods": {
      "__callback(bytes32,string,bytes)": {
        "notice": "Callback function to emit the events with the information we want."
      },
      "cancelRound(uint256,uint256,string)": {
        "notice": "Abstract function to cancel an existing round providing the choice and the secret        with a commit-reveal scheme"
      },
      "cancelRoundSender(uint256)": {
        "notice": "Abstract function for the original creator to cancel an existing round        with a commit-reveal scheme"
      },
      "createSecretRound(bytes32)": {
        "notice": "Function called each time we want to create a round for playing with other players. Payable function thar receives the bet amount."
      },
      "fundGame()": {
        "notice": "Payable, to fund game by adding ethers to contract and to the jackpot"
      },
      "getRoundInfo(uint256)": {
        "notice": "Get info from rounds."
      },
      "joinSecretRound(uint256,uint256)": {
        "notice": "Join to an existing round created by other player Payable function thar receives the bet amount."
      },
      "playSoloRound(uint256)": {
        "notice": "Function to create a round playing against the blockchain."
      },
      "renounceOwnership()": {
        "notice": "Renouncing to ownership will leave the contract without an owner. It will not be possible to call the functions with the `onlyOwner` modifier anymore."
      },
      "revealChoice(uint256,uint256,string)": {
        "notice": "Player 1 reveals choice when other player has joined to player 1's round"
      },
      "setLotteryRate(uint256)": {
        "notice": "Set the lottery rate in percentage, how easy is to hit the jackpot"
      },
      "setminBusinessFeePayment(uint256)": {
        "notice": "Set the minimum amount of ETH to be transfered when collecting business fees"
      },
      "startGame()": {
        "notice": "When we have everything ready owner can start game so anyone can play. Also for restarting game after having stopped it Call parent function and start lottery as well"
      },
      "startLottery()": {
        "notice": "Start lottery (this means playing for jackpot)"
      },
      "stopGame()": {
        "notice": "Function for emergengies. Call parent function and stop lottery as well"
      },
      "stopLottery()": {
        "notice": "Stop lottery (this means stop playing for jackpot)"
      },
      "withdrawFunds(address)": {
        "notice": "Withdraw funds in case of an emergengy. Set jackpot to 0."
      }
    },
    "notice": "This is just a simple game done mostly for learning solidity and web3 development, do not use betting real value since it has some known vulnerabilities."
  }
}