{
  "contractName": "RPS",
  "abi": [
    {
      "constant": false,
      "inputs": [
        {
          "name": "newLotteryRate",
          "type": "uint256"
        }
      ],
      "name": "setLotteryRate",
      "outputs": [],
      "payable": false,
      "stateMutability": "nonpayable",
      "type": "function",
      "signature": "0x06385b21"
    },
    {
      "constant": true,
      "inputs": [],
      "name": "minBusinessFeePayment",
      "outputs": [
        {
          "name": "",
          "type": "uint256"
        }
      ],
      "payable": false,
      "stateMutability": "view",
      "type": "function",
      "signature": "0x0c071222"
    },
    {
      "constant": true,
      "inputs": [],
      "name": "roundCount",
      "outputs": [
        {
          "name": "",
          "type": "uint256"
        }
      ],
      "payable": false,
      "stateMutability": "view",
      "type": "function",
      "signature": "0x127f0b3f"
    },
    {
      "constant": false,
      "inputs": [
        {
          "name": "newMinBusinessFeePayment",
          "type": "uint256"
        }
      ],
      "name": "setminBusinessFeePayment",
      "outputs": [],
      "payable": false,
      "stateMutability": "nonpayable",
      "type": "function",
      "signature": "0x12a0e070"
    },
    {
      "constant": true,
      "inputs": [],
      "name": "businessAddress",
      "outputs": [
        {
          "name": "",
          "type": "address"
        }
      ],
      "payable": false,
      "stateMutability": "view",
      "type": "function",
      "signature": "0x1583deb2"
    },
    {
      "constant": false,
      "inputs": [],
      "name": "startLottery",
      "outputs": [],
      "payable": false,
      "stateMutability": "nonpayable",
      "type": "function",
      "signature": "0x160344e2"
    },
    {
      "constant": false,
      "inputs": [
        {
          "name": "_myid",
          "type": "bytes32"
        },
        {
          "name": "_result",
          "type": "string"
        }
      ],
      "name": "__callback",
      "outputs": [],
      "payable": false,
      "stateMutability": "nonpayable",
      "type": "function",
      "signature": "0x27dc297e"
    },
    {
      "constant": true,
      "inputs": [],
      "name": "totalBusinessFee",
      "outputs": [
        {
          "name": "",
          "type": "uint256"
        }
      ],
      "payable": false,
      "stateMutability": "view",
      "type": "function",
      "signature": "0x3580ecd0"
    },
    {
      "constant": false,
      "inputs": [
        {
          "name": "myid",
          "type": "bytes32"
        },
        {
          "name": "result",
          "type": "string"
        },
        {
          "name": "proof",
          "type": "bytes"
        }
      ],
      "name": "__callback",
      "outputs": [],
      "payable": false,
      "stateMutability": "nonpayable",
      "type": "function",
      "signature": "0x38bbfa50"
    },
    {
      "constant": true,
      "inputs": [],
      "name": "jackpot",
      "outputs": [
        {
          "name": "",
          "type": "uint256"
        }
      ],
      "payable": false,
      "stateMutability": "view",
      "type": "function",
      "signature": "0x6b31ee01"
    },
    {
      "constant": true,
      "inputs": [
        {
          "name": "",
          "type": "bytes32"
        }
      ],
      "name": "queryIdToRounds",
      "outputs": [
        {
          "name": "",
          "type": "uint256"
        }
      ],
      "payable": false,
      "stateMutability": "view",
      "type": "function",
      "signature": "0x6b930399"
    },
    {
      "constant": true,
      "inputs": [],
      "name": "gameRunning",
      "outputs": [
        {
          "name": "",
          "type": "bool"
        }
      ],
      "payable": false,
      "stateMutability": "view",
      "type": "function",
      "signature": "0x6e8c2caf"
    },
    {
      "constant": true,
      "inputs": [],
      "name": "lotteryOn",
      "outputs": [
        {
          "name": "",
          "type": "bool"
        }
      ],
      "payable": false,
      "stateMutability": "view",
      "type": "function",
      "signature": "0x6f1573c3"
    },
    {
      "constant": false,
      "inputs": [],
      "name": "renounceOwnership",
      "outputs": [],
      "payable": false,
      "stateMutability": "nonpayable",
      "type": "function",
      "signature": "0x715018a6"
    },
    {
      "constant": true,
      "inputs": [
        {
          "name": "",
          "type": "bytes32"
        }
      ],
      "name": "secretQueryIdToRounds",
      "outputs": [
        {
          "name": "",
          "type": "uint256"
        }
      ],
      "payable": false,
      "stateMutability": "view",
      "type": "function",
      "signature": "0x7de37f2a"
    },
    {
      "constant": true,
      "inputs": [],
      "name": "owner",
      "outputs": [
        {
          "name": "",
          "type": "address"
        }
      ],
      "payable": false,
      "stateMutability": "view",
      "type": "function",
      "signature": "0x8da5cb5b"
    },
    {
      "constant": true,
      "inputs": [],
      "name": "isOwner",
      "outputs": [
        {
          "name": "",
          "type": "bool"
        }
      ],
      "payable": false,
      "stateMutability": "view",
      "type": "function",
      "signature": "0x8f32d59b"
    },
    {
      "constant": true,
      "inputs": [],
      "name": "minJackpot",
      "outputs": [
        {
          "name": "",
          "type": "uint256"
        }
      ],
      "payable": false,
      "stateMutability": "view",
      "type": "function",
      "signature": "0x911d0189"
    },
    {
      "constant": true,
      "inputs": [],
      "name": "minimumBet",
      "outputs": [
        {
          "name": "",
          "type": "uint256"
        }
      ],
      "payable": false,
      "stateMutability": "view",
      "type": "function",
      "signature": "0xc38a8afd"
    },
    {
      "constant": false,
      "inputs": [],
      "name": "stopLottery",
      "outputs": [],
      "payable": false,
      "stateMutability": "nonpayable",
      "type": "function",
      "signature": "0xd5c62498"
    },
    {
      "constant": false,
      "inputs": [],
      "name": "fundGame",
      "outputs": [],
      "payable": true,
      "stateMutability": "payable",
      "type": "function",
      "signature": "0xe169bf6c"
    },
    {
      "constant": true,
      "inputs": [],
      "name": "lotteryRate",
      "outputs": [
        {
          "name": "",
          "type": "uint256"
        }
      ],
      "payable": false,
      "stateMutability": "view",
      "type": "function",
      "signature": "0xf2564737"
    },
    {
      "constant": false,
      "inputs": [
        {
          "name": "newOwner",
          "type": "address"
        }
      ],
      "name": "transferOwnership",
      "outputs": [],
      "payable": false,
      "stateMutability": "nonpayable",
      "type": "function",
      "signature": "0xf2fde38b"
    },
    {
      "constant": true,
      "inputs": [],
      "name": "gameRandomRange",
      "outputs": [
        {
          "name": "",
          "type": "uint256"
        }
      ],
      "payable": false,
      "stateMutability": "view",
      "type": "function",
      "signature": "0xfed67fe4"
    },
    {
      "inputs": [],
      "payable": true,
      "stateMutability": "payable",
      "type": "constructor",
      "signature": "constructor"
    },
    {
      "payable": true,
      "stateMutability": "payable",
      "type": "fallback"
    },
    {
      "anonymous": false,
      "inputs": [
        {
          "indexed": false,
          "name": "roundId",
          "type": "uint256"
        },
        {
          "indexed": false,
          "name": "betAmount",
          "type": "uint256"
        },
        {
          "indexed": true,
          "name": "player1",
          "type": "address"
        },
        {
          "indexed": false,
          "name": "isSolo",
          "type": "bool"
        }
      ],
      "name": "RoundCreated",
      "type": "event",
      "signature": "0xb3b1bde84bcee68ebfec5d442001436ebf6966913748ad5f78f4d21d9f93486f"
    },
    {
      "anonymous": false,
      "inputs": [
        {
          "indexed": false,
          "name": "roundId",
          "type": "uint256"
        },
        {
          "indexed": false,
          "name": "winner",
          "type": "address"
        },
        {
          "indexed": false,
          "name": "betAmount",
          "type": "uint256"
        },
        {
          "indexed": true,
          "name": "player1",
          "type": "address"
        },
        {
          "indexed": false,
          "name": "choice1",
          "type": "uint256"
        },
        {
          "indexed": false,
          "name": "player2",
          "type": "address"
        },
        {
          "indexed": false,
          "name": "choice2",
          "type": "uint256"
        }
      ],
      "name": "RoundResolved",
      "type": "event",
      "signature": "0x093d5ddf522e009238c06d0c0525094e3f0a69f76eed0fbd89a7886cab2c3683"
    },
    {
      "anonymous": false,
      "inputs": [
        {
          "indexed": false,
          "name": "secret",
          "type": "bytes32"
        }
      ],
      "name": "Secret",
      "type": "event",
      "signature": "0x3035d573a995700b37c3e3b8e22b2d05d3a969fd3cc69cf31998c64a84fc741e"
    },
    {
      "anonymous": false,
      "inputs": [
        {
          "indexed": false,
          "name": "businessAddress",
          "type": "address"
        },
        {
          "indexed": false,
          "name": "payment",
          "type": "uint256"
        }
      ],
      "name": "BusinessPayment",
      "type": "event",
      "signature": "0x7fc2eef842cb1dfa1b90b4c29935e29807b384d9334c1c6f2bb2ff9103260d9b"
    },
    {
      "anonymous": false,
      "inputs": [
        {
          "indexed": false,
          "name": "jackpot",
          "type": "uint256"
        }
      ],
      "name": "CurrentJackpot",
      "type": "event",
      "signature": "0x617061f07c080b5108039e6c0147988ffdd1719082e1e277777ed0ccae5e8dda"
    },
    {
      "anonymous": false,
      "inputs": [
        {
          "indexed": false,
          "name": "winner",
          "type": "address"
        },
        {
          "indexed": false,
          "name": "jackpot",
          "type": "uint256"
        }
      ],
      "name": "LotteryWin",
      "type": "event",
      "signature": "0x59eb56f0aaebc4c2e1de6e254bc52af79350363a072c9ef59851f0d0861a9642"
    },
    {
      "anonymous": false,
      "inputs": [
        {
          "indexed": false,
          "name": "paidAddress",
          "type": "address"
        },
        {
          "indexed": false,
          "name": "amount",
          "type": "uint256"
        }
      ],
      "name": "Payment",
      "type": "event",
      "signature": "0xd4f43975feb89f48dd30cabbb32011045be187d1e11c8ea9faa43efc35282519"
    },
    {
      "anonymous": false,
      "inputs": [
        {
          "indexed": false,
          "name": "message",
          "type": "string"
        }
      ],
      "name": "GameStarted",
      "type": "event",
      "signature": "0x4c49022e3faa3d594bcd4c0a41d358281ad8bb232d3d0cdb1add1e71a9daf266"
    },
    {
      "anonymous": false,
      "inputs": [
        {
          "indexed": false,
          "name": "_rolledDiceNumber",
          "type": "uint256"
        }
      ],
      "name": "logRolledDiceNumber",
      "type": "event",
      "signature": "0x2a2a80fe64b9843e83b5281d100235d26f12d2c8a19427e7c64b7badede75e1b"
    },
    {
      "anonymous": false,
      "inputs": [
        {
          "indexed": false,
          "name": "_rolledDiceNumber",
          "type": "uint256"
        }
      ],
      "name": "logRolledDiceNumberBefore",
      "type": "event",
      "signature": "0x49dcaffba7966c6924976e0ac118fcce6a60d667c6c84d6be952873b6ba77236"
    },
    {
      "anonymous": false,
      "inputs": [
        {
          "indexed": false,
          "name": "_rolledDiceNumber",
          "type": "uint256"
        }
      ],
      "name": "logRolledDiceNumberBeforeS",
      "type": "event",
      "signature": "0x74d8386f755b69a79610e97d8fef7567d75ed25455b2e2ff9465b4b68b4d5268"
    },
    {
      "anonymous": false,
      "inputs": [
        {
          "indexed": false,
          "name": "_rolledDiceNumber",
          "type": "uint256"
        }
      ],
      "name": "logRolledDiceNumberAfter",
      "type": "event",
      "signature": "0x3279a0448c20679f0e2e5c95d03df3a09d3e08e5972d3852317a48fd43c6d6db"
    },
    {
      "anonymous": false,
      "inputs": [
        {
          "indexed": false,
          "name": "roundId",
          "type": "uint256"
        }
      ],
      "name": "logRoundIdIs",
      "type": "event",
      "signature": "0x43a741f052e02ea395a3fbdff0a24402ea494b6ba0a1e73942e849816c724e09"
    },
    {
      "anonymous": false,
      "inputs": [
        {
          "indexed": false,
          "name": "roundId",
          "type": "uint256"
        }
      ],
      "name": "logRoundIdIsS",
      "type": "event",
      "signature": "0xd19a09df91b9d9432db8c7f95a8db04f1aeb7fd9157f874cc1390d5667b446b0"
    },
    {
      "anonymous": false,
      "inputs": [
        {
          "indexed": false,
          "name": "message",
          "type": "string"
        },
        {
          "indexed": false,
          "name": "queryId",
          "type": "bytes32"
        }
      ],
      "name": "LogGetRandomness",
      "type": "event",
      "signature": "0xaf1377970ad92b4d34c9f58cf958a17a5537f57bc9f97f126c28b07637e94be3"
    },
    {
      "anonymous": false,
      "inputs": [
        {
          "indexed": true,
          "name": "previousOwner",
          "type": "address"
        },
        {
          "indexed": true,
          "name": "newOwner",
          "type": "address"
        }
      ],
      "name": "OwnershipTransferred",
      "type": "event",
      "signature": "0x8be0079c531659141344cd1fd0a4f28419497f9722a3daafe3b4186f6b6457e0"
    },
    {
      "constant": true,
      "inputs": [
        {
          "name": "roundId",
          "type": "uint256"
        }
      ],
      "name": "getRoundInfo",
      "outputs": [
        {
          "name": "player1Address",
          "type": "address"
        },
        {
          "name": "player1Choice",
          "type": "uint256"
        },
        {
          "name": "player2Address",
          "type": "address"
        },
        {
          "name": "player2Choice",
          "type": "uint256"
        },
        {
          "name": "betAmount",
          "type": "uint256"
        },
        {
          "name": "winner",
          "type": "address"
        },
        {
          "name": "isSolo",
          "type": "bool"
        },
        {
          "name": "lotteryWinner",
          "type": "address"
        }
      ],
      "payable": false,
      "stateMutability": "view",
      "type": "function",
      "signature": "0x88c3ffb0"
    },
    {
      "constant": false,
      "inputs": [
        {
          "name": "_choice",
          "type": "uint256"
        }
      ],
      "name": "playSoloRound",
      "outputs": [
        {
          "name": "",
          "type": "uint256"
        }
      ],
      "payable": true,
      "stateMutability": "payable",
      "type": "function",
      "signature": "0xb86a3159"
    },
    {
      "constant": false,
      "inputs": [
        {
          "name": "_secretChoice",
          "type": "bytes32"
        }
      ],
      "name": "createSecretRound",
      "outputs": [
        {
          "name": "",
          "type": "uint256"
        }
      ],
      "payable": true,
      "stateMutability": "payable",
      "type": "function",
      "signature": "0xa059dace"
    },
    {
      "constant": false,
      "inputs": [
        {
          "name": "_choice",
          "type": "uint256"
        }
      ],
      "name": "createRound",
      "outputs": [
        {
          "name": "",
          "type": "uint256"
        }
      ],
      "payable": true,
      "stateMutability": "payable",
      "type": "function",
      "signature": "0x3da1bba1"
    },
    {
      "constant": false,
      "inputs": [
        {
          "name": "_roundId",
          "type": "uint256"
        },
        {
          "name": "_choice",
          "type": "uint256"
        }
      ],
      "name": "joinSecretRound",
      "outputs": [],
      "payable": true,
      "stateMutability": "payable",
      "type": "function",
      "signature": "0xf8c9dbcb"
    },
    {
      "constant": false,
      "inputs": [
        {
          "name": "_roundId",
          "type": "uint256"
        },
        {
          "name": "_choice",
          "type": "uint256"
        }
      ],
      "name": "joinRound",
      "outputs": [],
      "payable": true,
      "stateMutability": "payable",
      "type": "function",
      "signature": "0x031287bc"
    },
    {
      "constant": false,
      "inputs": [
        {
          "name": "_roundId",
          "type": "uint256"
        },
        {
          "name": "_choice",
          "type": "uint256"
        },
        {
          "name": "_secret",
          "type": "string"
        }
      ],
      "name": "revealChoice",
      "outputs": [],
      "payable": false,
      "stateMutability": "nonpayable",
      "type": "function",
      "signature": "0x5afa1fd8"
    },
    {
      "constant": false,
      "inputs": [
        {
          "name": "_roundId",
          "type": "uint256"
        }
      ],
      "name": "cancelRoundSender",
      "outputs": [],
      "payable": false,
      "stateMutability": "nonpayable",
      "type": "function",
      "signature": "0x774efa44"
    },
    {
      "constant": false,
      "inputs": [
        {
          "name": "_roundId",
          "type": "uint256"
        },
        {
          "name": "_choice",
          "type": "uint256"
        },
        {
          "name": "_secret",
          "type": "string"
        }
      ],
      "name": "cancelRound",
      "outputs": [],
      "payable": false,
      "stateMutability": "nonpayable",
      "type": "function",
      "signature": "0x420100a7"
    },
    {
      "constant": false,
      "inputs": [],
      "name": "startGame",
      "outputs": [],
      "payable": false,
      "stateMutability": "nonpayable",
      "type": "function",
      "signature": "0xd65ab5f2"
    },
    {
      "constant": false,
      "inputs": [],
      "name": "stopGame",
      "outputs": [],
      "payable": false,
      "stateMutability": "nonpayable",
      "type": "function",
      "signature": "0x83bd72ba"
    },
    {
      "constant": false,
      "inputs": [
        {
          "name": "_myAddress",
          "type": "address"
        }
      ],
      "name": "withdrawFunds",
      "outputs": [],
      "payable": false,
      "stateMutability": "nonpayable",
      "type": "function",
      "signature": "0x68742da6"
    }
  ],
  "bytecode": "0x6080604052655af3107a4000600755661c6bf5263400006008556103e86002026009556000600a55662386f26fc10000600b5573fb6916095ca1df60bb79ce92ce3ea74c37c5d359600c60006101000a81548173ffffffffffffffffffffffffffffffffffffffff021916908373ffffffffffffffffffffffffffffffffffffffff1602179055506103e8601455670de0b6b3a7640000601555336000806101000a81548173ffffffffffffffffffffffffffffffffffffffff021916908373ffffffffffffffffffffffffffffffffffffffff1602179055506000809054906101000a900473ffffffffffffffffffffffffffffffffffffffff1673ffffffffffffffffffffffffffffffffffffffff16600073ffffffffffffffffffffffffffffffffffffffff167f8be0079c531659141344cd1fd0a4f28419497f9722a3daafe3b4186f6b6457e060405160405180910390a3736f485c8bf6fc43ea212e93bbf8ce046c7f1cb475600260006101000a81548173ffffffffffffffffffffffffffffffffffffffff021916908373ffffffffffffffffffffffffffffffffffffffff1602179055506200020c60017f01000000000000000000000000000000000000000000000000000000000000000260107f0100000000000000000000000000000000000000000000000000000000000000021762000212640100000000026401000000009004565b62000c37565b600073ffffffffffffffffffffffffffffffffffffffff16600260009054906101000a900473ffffffffffffffffffffffffffffffffffffffff1673ffffffffffffffffffffffffffffffffffffffff161480620002ab57506000620002a9600260009054906101000a900473ffffffffffffffffffffffffffffffffffffffff16620005e0640100000000026401000000009004565b145b15620002ce57620002cc6000620005eb640100000000026401000000009004565b505b600260009054906101000a900473ffffffffffffffffffffffffffffffffffffffff1673ffffffffffffffffffffffffffffffffffffffff166338cc48316040518163ffffffff167c0100000000000000000000000000000000000000000000000000000000028152600401602060405180830381600087803b1580156200035557600080fd5b505af11580156200036a573d6000803e3d6000fd5b505050506040513d60208110156200038157600080fd5b810190808051906020019092919050505073ffffffffffffffffffffffffffffffffffffffff16600160009054906101000a900473ffffffffffffffffffffffffffffffffffffffff1673ffffffffffffffffffffffffffffffffffffffff16141515620004ee57600260009054906101000a900473ffffffffffffffffffffffffffffffffffffffff1673ffffffffffffffffffffffffffffffffffffffff166338cc48316040518163ffffffff167c0100000000000000000000000000000000000000000000000000000000028152600401602060405180830381600087803b1580156200047057600080fd5b505af115801562000485573d6000803e3d6000fd5b505050506040513d60208110156200049c57600080fd5b8101908080519060200190929190505050600160006101000a81548173ffffffffffffffffffffffffffffffffffffffff021916908373ffffffffffffffffffffffffffffffffffffffff1602179055505b600160009054906101000a900473ffffffffffffffffffffffffffffffffffffffff1673ffffffffffffffffffffffffffffffffffffffff1663688dcfd7826040518263ffffffff167c010000000000000000000000000000000000000000000000000000000002815260040180827effffffffffffffffffffffffffffffffffffffffffffffffffffffffffffff19167effffffffffffffffffffffffffffffffffffffffffffffffffffffffffffff19168152602001915050600060405180830381600087803b158015620005c457600080fd5b505af1158015620005d9573d6000803e3d6000fd5b5050505050565b6000813b9050919050565b6000620006066200060d640100000000026401000000009004565b9050919050565b6000806200063e731d3b2638a7cc9f2cb3d298a3da7a90b67e5506ed620005e0640100000000026401000000009004565b1115620006f357731d3b2638a7cc9f2cb3d298a3da7a90b67e5506ed600260006101000a81548173ffffffffffffffffffffffffffffffffffffffff021916908373ffffffffffffffffffffffffffffffffffffffff160217905550620006e96040518060400160405280600b81526020017f6574685f6d61696e6e657400000000000000000000000000000000000000000081525062000b6c640100000000026401000000009004565b6001905062000b69565b60006200072373c03a2615d5efaf5f49f60b7bb6583eaec212fdf1620005e0640100000000026401000000009004565b1115620007d85773c03a2615d5efaf5f49f60b7bb6583eaec212fdf1600260006101000a81548173ffffffffffffffffffffffffffffffffffffffff021916908373ffffffffffffffffffffffffffffffffffffffff160217905550620007ce6040518060400160405280600c81526020017f6574685f726f707374656e33000000000000000000000000000000000000000081525062000b6c640100000000026401000000009004565b6001905062000b69565b60006200080873b7a07bcf2ba2f2703b24c0691b5278999c59ac7e620005e0640100000000026401000000009004565b1115620008bd5773b7a07bcf2ba2f2703b24c0691b5278999c59ac7e600260006101000a81548173ffffffffffffffffffffffffffffffffffffffff021916908373ffffffffffffffffffffffffffffffffffffffff160217905550620008b36040518060400160405280600981526020017f6574685f6b6f76616e000000000000000000000000000000000000000000000081525062000b6c640100000000026401000000009004565b6001905062000b69565b6000620008ed73146500cfd35b22e4a392fe0adc06de1a1368ed48620005e0640100000000026401000000009004565b1115620009a25773146500cfd35b22e4a392fe0adc06de1a1368ed48600260006101000a81548173ffffffffffffffffffffffffffffffffffffffff021916908373ffffffffffffffffffffffffffffffffffffffff160217905550620009986040518060400160405280600b81526020017f6574685f72696e6b65627900000000000000000000000000000000000000000081525062000b6c640100000000026401000000009004565b6001905062000b69565b6000620009d2736f485c8bf6fc43ea212e93bbf8ce046c7f1cb475620005e0640100000000026401000000009004565b111562000a3857736f485c8bf6fc43ea212e93bbf8ce046c7f1cb475600260006101000a81548173ffffffffffffffffffffffffffffffffffffffff021916908373ffffffffffffffffffffffffffffffffffffffff1602179055506001905062000b69565b600062000a687320e12a1f859b3feae5fb2a0a32c18f5a65555bbf620005e0640100000000026401000000009004565b111562000ace577320e12a1f859b3feae5fb2a0a32c18f5a65555bbf600260006101000a81548173ffffffffffffffffffffffffffffffffffffffff021916908373ffffffffffffffffffffffffffffffffffffffff1602179055506001905062000b69565b600062000afe7351efaf4c8b3c9afbd5ab9f4bbc82784ab6ef8faa620005e0640100000000026401000000009004565b111562000b64577351efaf4c8b3c9afbd5ab9f4bbc82784ab6ef8faa600260006101000a81548173ffffffffffffffffffffffffffffffffffffffff021916908373ffffffffffffffffffffffffffffffffffffffff1602179055506001905062000b69565b600090505b90565b806003908051906020019062000b8492919062000b88565b5050565b828054600181600116156101000203166002900490600052602060002090601f016020900481019282601f1062000bcb57805160ff191683800117855562000bfc565b8280016001018555821562000bfc579182015b8281111562000bfb57825182559160200191906001019062000bde565b5b50905062000c0b919062000c0f565b5090565b62000c3491905b8082111562000c3057600081600090555060010162000c16565b5090565b90565b6156248062000c476000396000f3fe60806040526004361061022c576000357c010000000000000000000000000000000000000000000000000000000090048063715018a611610135578063b86a3159116100bd578063e169bf6c1161008c578063e169bf6c14610cbe578063f256473714610cc8578063f2fde38b14610cf3578063f8c9dbcb14610d44578063fed67fe414610d7c5761022c565b8063b86a315914610c23578063c38a8afd14610c65578063d5c6249814610c90578063d65ab5f214610ca75761022c565b806388c3ffb01161010457806388c3ffb0146109fc5780638da5cb5b14610b305780638f32d59b14610b87578063911d018914610bb6578063a059dace14610be15761022c565b8063715018a614610944578063774efa441461095b5780637de37f2a1461099657806383bd72ba146109e55761022c565b806338bbfa50116101b857806368742da61161018757806368742da61461081b5780636b31ee011461086c5780636b930399146108975780636e8c2caf146108e65780636f1573c3146109155761022c565b806338bbfa50146104b85780633da1bba114610621578063420100a7146106635780635afa1fd81461073f5761022c565b806312a0e070116101ff57806312a0e070146103125780631583deb21461034d578063160344e2146103a457806327dc297e146103bb5780633580ecd01461048d5761022c565b8063031287bc1461024957806306385b21146102815780630c071222146102bc578063127f0b3f146102e7575b61024134601254610da790919063ffffffff16565b601281905550005b61027f6004803603604081101561025f57600080fd5b810190808035906020019092919080359060200190929190505050610dc8565b005b34801561028d57600080fd5b506102ba600480360360208110156102a457600080fd5b8101908080359060200190929190505050610ed4565b005b3480156102c857600080fd5b506102d1610ef1565b6040518082815260200191505060405180910390f35b3480156102f357600080fd5b506102fc610ef7565b6040518082815260200191505060405180910390f35b34801561031e57600080fd5b5061034b6004803603602081101561033557600080fd5b8101908080359060200190929190505050610efd565b005b34801561035957600080fd5b50610362610f1a565b604051808273ffffffffffffffffffffffffffffffffffffffff1673ffffffffffffffffffffffffffffffffffffffff16815260200191505060405180910390f35b3480156103b057600080fd5b506103b9610f40565b005b3480156103c757600080fd5b5061048b600480360360408110156103de57600080fd5b81019080803590602001909291908035906020019064010000000081111561040557600080fd5b82018360208201111561041757600080fd5b8035906020019184600183028401116401000000008311171561043957600080fd5b91908080601f016020809104026020016040519081016040528093929190818152602001838380828437600081840152601f19601f820116905080830192505050505050509192919290505050611085565b005b34801561049957600080fd5b506104a26110c8565b6040518082815260200191505060405180910390f35b3480156104c457600080fd5b5061061f600480360360608110156104db57600080fd5b81019080803590602001909291908035906020019064010000000081111561050257600080fd5b82018360208201111561051457600080fd5b8035906020019184600183028401116401000000008311171561053657600080fd5b91908080601f016020809104026020016040519081016040528093929190818152602001838380828437600081840152601f19601f8201169050808301925050505050505091929192908035906020019064010000000081111561059957600080fd5b8201836020820111156105ab57600080fd5b803590602001918460018302840111640100000000831117156105cd57600080fd5b91908080601f016020809104026020016040519081016040528093929190818152602001838380828437600081840152601f19601f8201169050808301925050505050505091929192905050506110ce565b005b61064d6004803603602081101561063757600080fd5b8101908080359060200190929190505050611172565b6040518082815260200191505060405180910390f35b34801561066f57600080fd5b5061073d6004803603606081101561068657600080fd5b810190808035906020019092919080359060200190929190803590602001906401000000008111156106b757600080fd5b8201836020820111156106c957600080fd5b803590602001918460018302840111640100000000831117156106eb57600080fd5b91908080601f016020809104026020016040519081016040528093929190818152602001838380828437600081840152601f19601f820116905080830192505050505050509192919290505050611435565b005b34801561074b57600080fd5b506108196004803603606081101561076257600080fd5b8101908080359060200190929190803590602001909291908035906020019064010000000081111561079357600080fd5b8201836020820111156107a557600080fd5b803590602001918460018302840111640100000000831117156107c757600080fd5b91908080601f016020809104026020016040519081016040528093929190818152602001838380828437600081840152601f19601f820116905080830192505050505050509192919290505050611531565b005b34801561082757600080fd5b5061086a6004803603602081101561083e57600080fd5b81019080803573ffffffffffffffffffffffffffffffffffffffff169060200190929190505050611828565b005b34801561087857600080fd5b5061088161183c565b6040518082815260200191505060405180910390f35b3480156108a357600080fd5b506108d0600480360360208110156108ba57600080fd5b8101908080359060200190929190505050611842565b6040518082815260200191505060405180910390f35b3480156108f257600080fd5b506108fb61185a565b604051808215151515815260200191505060405180910390f35b34801561092157600080fd5b5061092a61186d565b604051808215151515815260200191505060405180910390f35b34801561095057600080fd5b50610959611880565b005b34801561096757600080fd5b506109946004803603602081101561097e57600080fd5b8101908080359060200190929190505050611952565b005b3480156109a257600080fd5b506109cf600480360360208110156109b957600080fd5b8101908080359060200190929190505050611a1d565b6040518082815260200191505060405180910390f35b3480156109f157600080fd5b506109fa611a35565b005b348015610a0857600080fd5b50610a3560048036036020811015610a1f57600080fd5b8101908080359060200190929190505050611a47565b604051808973ffffffffffffffffffffffffffffffffffffffff1673ffffffffffffffffffffffffffffffffffffffff1681526020018881526020018773ffffffffffffffffffffffffffffffffffffffff1673ffffffffffffffffffffffffffffffffffffffff1681526020018681526020018581526020018473ffffffffffffffffffffffffffffffffffffffff1673ffffffffffffffffffffffffffffffffffffffff168152602001831515151581526020018273ffffffffffffffffffffffffffffffffffffffff1673ffffffffffffffffffffffffffffffffffffffff1681526020019850505050505050505060405180910390f35b348015610b3c57600080fd5b50610b45611d07565b604051808273ffffffffffffffffffffffffffffffffffffffff1673ffffffffffffffffffffffffffffffffffffffff16815260200191505060405180910390f35b348015610b9357600080fd5b50610b9c611d30565b604051808215151515815260200191505060405180910390f35b348015610bc257600080fd5b50610bcb611d87565b6040518082815260200191505060405180910390f35b610c0d60048036036020811015610bf757600080fd5b8101908080359060200190929190505050611d8d565b6040518082815260200191505060405180910390f35b610c4f60048036036020811015610c3957600080fd5b8101908080359060200190929190505050612002565b6040518082815260200191505060405180910390f35b348015610c7157600080fd5b50610c7a6123fb565b6040518082815260200191505060405180910390f35b348015610c9c57600080fd5b50610ca5612401565b005b348015610cb357600080fd5b50610cbc612431565b005b610cc6612443565b005b348015610cd457600080fd5b50610cdd612460565b6040518082815260200191505060405180910390f35b348015610cff57600080fd5b50610d4260048036036020811015610d1657600080fd5b81019080803573ffffffffffffffffffffffffffffffffffffffff169060200190929190505050612466565b005b610d7a60048036036040811015610d5a57600080fd5b810190808035906020019092919080359060200190929190505050612485565b005b348015610d8857600080fd5b50610d91612846565b6040518082815260200191505060405180910390f35b6000808284019050838110151515610dbe57600080fd5b8091505092915050565b6001801515600660009054906101000a900460ff161515141515610e37576040517f08c379a000000000000000000000000000000000000000000000000000000000815260040180806020018281038252602c81526020018061547e602c913960400191505060405180910390fd5b81600280811115610e4457fe5b8111151515610ebb576040517f08c379a00000000000000000000000000000000000000000000000000000000081526004018080602001828103825260148152602001807f5250532063686f696365206e6f742076616c696400000000000000000000000081525060200191505060405180910390fd5b610ec58484610dc8565b610ece8461284c565b50505050565b610edc611d30565b1515610ee757600080fd5b8060148190555050565b600b5481565b600d5481565b610f05611d30565b1515610f1057600080fd5b80600b8190555050565b600c60009054906101000a900473ffffffffffffffffffffffffffffffffffffffff1681565b610f48611d30565b1515610f5357600080fd5b3073ffffffffffffffffffffffffffffffffffffffff163160125411151515610fe4576040517f08c379a000000000000000000000000000000000000000000000000000000000815260040180806020018281038252601d8152602001807f4a61636b706f74206c6f776572207468616e2053432062616c616e636500000081525060200191505060405180910390fd5b6015543073ffffffffffffffffffffffffffffffffffffffff163110158015611011575060155460125410155b1515611068576040517f08c379a000000000000000000000000000000000000000000000000000000000815260040180806020018281038252602b815260200180615531602b913960400191505060405180910390fd5b6001601360006101000a81548160ff021916908315150217905550565b6110c4828260006040519080825280601f01601f1916602001820160405280156110be5781602001600182028038833980820191505090505b506110ce565b5050565b600a5481565b6110d6612c36565b73ffffffffffffffffffffffffffffffffffffffff163373ffffffffffffffffffffffffffffffffffffffff1614151561115b576040517f08c379a00000000000000000000000000000000000000000000000000000000081526004018080602001828103825260378152602001806154476037913960400191505060405180910390fd5b61116d8361116884612fac565b612fc0565b505050565b60006001801515600660009054906101000a900460ff1615151415156111e3576040517f08c379a000000000000000000000000000000000000000000000000000000000815260040180806020018281038252602c81526020018061547e602c913960400191505060405180910390fd5b826002808111156111f057fe5b8111151515611267576040517f08c379a00000000000000000000000000000000000000000000000000000000081526004018080602001828103825260148152602001807f5250532063686f696365206e6f742076616c696400000000000000000000000081525060200191505060405180910390fd5b60075434101515156112e1576040517f08c379a00000000000000000000000000000000000000000000000000000000081526004018080602001828103825260158152602001807f4e6f7420656e6f75676820616d6f756e7420626574000000000000000000000081525060200191505060405180910390fd5b600d600081548092919060010191905055506000600d5490506000601160008381526020019081526020016000209050338160000160020160006101000a81548173ffffffffffffffffffffffffffffffffffffffff021916908373ffffffffffffffffffffffffffffffffffffffff16021790555085816000016000018190555034816006018190555060008160070160156101000a81548160ff0219169083151502179055508060000160020160009054906101000a900473ffffffffffffffffffffffffffffffffffffffff1673ffffffffffffffffffffffffffffffffffffffff167fb3b1bde84bcee68ebfec5d442001436ebf6966913748ad5f78f4d21d9f93486f600d5483600601548460070160159054906101000a900460ff166040518084815260200183815260200182151515158152602001935050505060405180910390a281945050505050919050565b601160008481526020019081526020016000206000016001015482826040516020018083815260200182805190602001908083835b60208310151561148f578051825260208201915060208101905060208303925061146a565b6001836020036101000a0380198251168184511680821785525050505050509050019250505060405160208183030381529060405280519060200120141515611523576040517f08c379a00000000000000000000000000000000000000000000000000000000081526004018080602001828103825260348152602001806155c56034913960400191505060405180910390fd5b61152c83613290565b505050565b6001801515600660009054906101000a900460ff1615151415156115a0576040517f08c379a000000000000000000000000000000000000000000000000000000000815260040180806020018281038252602c81526020018061547e602c913960400191505060405180910390fd5b6000601160008681526020019081526020016000209050600073ffffffffffffffffffffffffffffffffffffffff168160030160020160009054906101000a900473ffffffffffffffffffffffffffffffffffffffff1673ffffffffffffffffffffffffffffffffffffffff1614151515611666576040517f08c379a00000000000000000000000000000000000000000000000000000000081526004018080602001828103825260308152602001806152d66030913960400191505060405180910390fd5b3373ffffffffffffffffffffffffffffffffffffffff168160000160020160009054906101000a900473ffffffffffffffffffffffffffffffffffffffff1673ffffffffffffffffffffffffffffffffffffffff16141515611713576040517f08c379a00000000000000000000000000000000000000000000000000000000081526004018080602001828103825260298152602001806155086029913960400191505060405180910390fd5b806000016001015483856040516020018083805190602001908083835b6020831015156117555780518252602082019150602081019050602083039250611730565b6001836020036101000a038019825116818451168082178552505050505050905001828152602001925050506040516020818303038152906040528051906020012014151561180c576040517f08c379a000000000000000000000000000000000000000000000000000000000815260040180806020018281038252601d8152602001807f4572726f7220747279696e6720746f2072657665616c2063686f69636500000081525060200191505060405180910390fd5b8381600001600001819055506118218561284c565b5050505050565b61183181613444565b600060128190555050565b60125481565b600f6020528060005260406000206000915090505481565b600660009054906101000a900460ff1681565b601360009054906101000a900460ff1681565b611888611d30565b151561189357600080fd5b600073ffffffffffffffffffffffffffffffffffffffff166000809054906101000a900473ffffffffffffffffffffffffffffffffffffffff1673ffffffffffffffffffffffffffffffffffffffff167f8be0079c531659141344cd1fd0a4f28419497f9722a3daafe3b4186f6b6457e060405160405180910390a360008060006101000a81548173ffffffffffffffffffffffffffffffffffffffff021916908373ffffffffffffffffffffffffffffffffffffffff160217905550565b3373ffffffffffffffffffffffffffffffffffffffff166011600083815260200190815260200160002060000160020160009054906101000a900473ffffffffffffffffffffffffffffffffffffffff1673ffffffffffffffffffffffffffffffffffffffff16141515611a11576040517f08c379a000000000000000000000000000000000000000000000000000000000815260040180806020018281038252604881526020018061555c6048913960600191505060405180910390fd5b611a1a81613290565b50565b60106020528060005260406000206000915090505481565b611a3d613528565b611a45612401565b565b600080600080600080600080611a5b615140565b601160008b8152602001908152602001600020604051806101400160405290816000820160405180606001604052908160008201548152602001600182015481526020016002820160009054906101000a900473ffffffffffffffffffffffffffffffffffffffff1673ffffffffffffffffffffffffffffffffffffffff1673ffffffffffffffffffffffffffffffffffffffff168152505081526020016003820160405180606001604052908160008201548152602001600182015481526020016002820160009054906101000a900473ffffffffffffffffffffffffffffffffffffffff1673ffffffffffffffffffffffffffffffffffffffff1673ffffffffffffffffffffffffffffffffffffffff16815250508152602001600682015481526020016007820160009054906101000a900473ffffffffffffffffffffffffffffffffffffffff1673ffffffffffffffffffffffffffffffffffffffff1673ffffffffffffffffffffffffffffffffffffffff1681526020016007820160149054906101000a900460ff161515151581526020016007820160159054906101000a900460ff161515151581526020016008820160009054906101000a900473ffffffffffffffffffffffffffffffffffffffff1673ffffffffffffffffffffffffffffffffffffffff1673ffffffffffffffffffffffffffffffffffffffff16815260200160098201548152602001600a8201548152602001600b82016040518060600160405290816000820154815260200160018201548152602001600282015481525050815250509050806000015160400151816000015160000151826020015160400151836020015160000151846040015185606001518660a001518760c001518797508595508292509850985098509850985098509850985050919395975091939597565b60008060009054906101000a900473ffffffffffffffffffffffffffffffffffffffff16905090565b60008060009054906101000a900473ffffffffffffffffffffffffffffffffffffffff1673ffffffffffffffffffffffffffffffffffffffff163373ffffffffffffffffffffffffffffffffffffffff1614905090565b60155481565b60006001801515600660009054906101000a900460ff161515141515611dfe576040517f08c379a000000000000000000000000000000000000000000000000000000000815260040180806020018281038252602c81526020018061547e602c913960400191505060405180910390fd5b6007543410151515611e78576040517f08c379a00000000000000000000000000000000000000000000000000000000081526004018080602001828103825260158152602001807f4e6f7420656e6f75676820616d6f756e7420626574000000000000000000000081525060200191505060405180910390fd5b600d600081548092919060010191905055506000600d5490506000601160008381526020019081526020016000209050338160000160020160006101000a81548173ffffffffffffffffffffffffffffffffffffffff021916908373ffffffffffffffffffffffffffffffffffffffff16021790555084816000016001018190555034816006018190555060008160070160156101000a81548160ff0219169083151502179055508060000160020160009054906101000a900473ffffffffffffffffffffffffffffffffffffffff1673ffffffffffffffffffffffffffffffffffffffff167fb3b1bde84bcee68ebfec5d442001436ebf6966913748ad5f78f4d21d9f93486f600d5483600601548460070160159054906101000a900460ff166040518084815260200183815260200182151515158152602001935050505060405180910390a27f3035d573a995700b37c3e3b8e22b2d05d3a969fd3cc69cf31998c64a84fc741e856040518082815260200191505060405180910390a1819350505050919050565b60006001801515600660009054906101000a900460ff161515141515612073576040517f08c379a000000000000000000000000000000000000000000000000000000000815260040180806020018281038252602c81526020018061547e602c913960400191505060405180910390fd5b8260028081111561208057fe5b81111515156120f7576040517f08c379a00000000000000000000000000000000000000000000000000000000081526004018080602001828103825260148152602001807f5250532063686f696365206e6f742076616c696400000000000000000000000081525060200191505060405180910390fd5b6007543410151515612171576040517f08c379a00000000000000000000000000000000000000000000000000000000081526004018080602001828103825260158152602001807f4e6f7420656e6f75676820616d6f756e7420626574000000000000000000000081525060200191505060405180910390fd5b600d600081548092919060010191905055506000600d5490506000601160008381526020019081526020016000209050338160000160020160006101000a81548173ffffffffffffffffffffffffffffffffffffffff021916908373ffffffffffffffffffffffffffffffffffffffff16021790555085816000016000018190555034816006018190555060018160070160156101000a81548160ff0219169083151502179055508060000160020160009054906101000a900473ffffffffffffffffffffffffffffffffffffffff1673ffffffffffffffffffffffffffffffffffffffff167fb3b1bde84bcee68ebfec5d442001436ebf6966913748ad5f78f4d21d9f93486f600d5483600601548460070160159054906101000a900460ff166040518084815260200183815260200182151515158152602001935050505060405180910390a28060070160159054906101000a900460ff16156123ef577f617061f07c080b5108039e6c0147988ffdd1719082e1e277777ed0ccae5e8dda6012546040518082815260200191505060405180910390a1612318346007546012546135c8565b151561232357600080fd5b601254341115151561239d576040517f08c379a000000000000000000000000000000000000000000000000000000000815260040180806020018281038252600c8152602001807f42657420746f6f2068696768000000000000000000000000000000000000000081525060200191505060405180910390fd5b308160030160020160006101000a81548173ffffffffffffffffffffffffffffffffffffffff021916908373ffffffffffffffffffffffffffffffffffffffff1602179055506123ee6003836135e2565b5b81945050505050919050565b60075481565b612409611d30565b151561241457600080fd5b6000601360006101000a81548160ff021916908315150217905550565b612439613746565b612441610f40565b565b61245834601254610da790919063ffffffff16565b601281905550565b60145481565b61246e611d30565b151561247957600080fd5b6124828161384e565b50565b6001801515600660009054906101000a900460ff1615151415156124f4576040517f08c379a000000000000000000000000000000000000000000000000000000000815260040180806020018281038252602c81526020018061547e602c913960400191505060405180910390fd5b8160028081111561250157fe5b8111151515612578576040517f08c379a00000000000000000000000000000000000000000000000000000000081526004018080602001828103825260148152602001807f5250532063686f696365206e6f742076616c696400000000000000000000000081525060200191505060405180910390fd5b6000601160008681526020019081526020016000209050600073ffffffffffffffffffffffffffffffffffffffff168160000160020160009054906101000a900473ffffffffffffffffffffffffffffffffffffffff1673ffffffffffffffffffffffffffffffffffffffff161415151561265b576040517f08c379a00000000000000000000000000000000000000000000000000000000081526004018080602001828103825260148152602001807f526f756e6420646f6573206e6f7420657869737400000000000000000000000081525060200191505060405180910390fd5b600073ffffffffffffffffffffffffffffffffffffffff168160030160020160009054906101000a900473ffffffffffffffffffffffffffffffffffffffff1673ffffffffffffffffffffffffffffffffffffffff161480156126cd57508060070160149054906101000a900460ff16155b1515612741576040517f08c379a00000000000000000000000000000000000000000000000000000000081526004018080602001828103825260168152602001807f526f756e6420616c72656164792066696e69736865640000000000000000000081525060200191505060405180910390fd5b806006015434101515156127a0576040517f08c379a00000000000000000000000000000000000000000000000000000000081526004018080602001828103825260218152602001806154266021913960400191505060405180910390fd5b3373ffffffffffffffffffffffffffffffffffffffff166108fc826006015434039081150290604051600060405180830381858888f193505050501580156127ec573d6000803e3d6000fd5b50338160030160020160006101000a81548173ffffffffffffffffffffffffffffffffffffffff021916908373ffffffffffffffffffffffffffffffffffffffff1602179055508381600301600001819055505050505050565b600e5481565b60006011600083815260200190815260200160002090508060070160149054906101000a900460ff161515156128ea576040517f08c379a00000000000000000000000000000000000000000000000000000000081526004018080602001828103825260148152602001807f526f756e6420616c726561647920636c6f73656400000000000000000000000081525060200191505060405180910390fd5b6129e48160000160405180606001604052908160008201548152602001600182015481526020016002820160009054906101000a900473ffffffffffffffffffffffffffffffffffffffff1673ffffffffffffffffffffffffffffffffffffffff1673ffffffffffffffffffffffffffffffffffffffff16815250508260030160405180606001604052908160008201548152602001600182015481526020016002820160009054906101000a900473ffffffffffffffffffffffffffffffffffffffff1673ffffffffffffffffffffffffffffffffffffffff1673ffffffffffffffffffffffffffffffffffffffff1681525050613948565b8160070160006101000a81548173ffffffffffffffffffffffffffffffffffffffff021916908373ffffffffffffffffffffffffffffffffffffffff160217905550612a2f826139ab565b508060000160020160009054906101000a900473ffffffffffffffffffffffffffffffffffffffff1673ffffffffffffffffffffffffffffffffffffffff167f093d5ddf522e009238c06d0c0525094e3f0a69f76eed0fbd89a7886cab2c3683838360070160009054906101000a900473ffffffffffffffffffffffffffffffffffffffff16846006015485600001600001548660030160020160009054906101000a900473ffffffffffffffffffffffffffffffffffffffff168760030160000154604051808781526020018673ffffffffffffffffffffffffffffffffffffffff1673ffffffffffffffffffffffffffffffffffffffff1681526020018581526020018481526020018373ffffffffffffffffffffffffffffffffffffffff1673ffffffffffffffffffffffffffffffffffffffff168152602001828152602001965050505050505060405180910390a260018160070160156101000a81548160ff021916908315150217905550601360009054906101000a900460ff1615612c3257612be58160000160020160009054906101000a900473ffffffffffffffffffffffffffffffffffffffff168361411b565b508060070160159054906101000a900460ff161515612c3157612c2f8160030160020160009054906101000a900473ffffffffffffffffffffffffffffffffffffffff168361411b565b505b5b5050565b60008073ffffffffffffffffffffffffffffffffffffffff16600260009054906101000a900473ffffffffffffffffffffffffffffffffffffffff1673ffffffffffffffffffffffffffffffffffffffff161480612cbe57506000612cbc600260009054906101000a900473ffffffffffffffffffffffffffffffffffffffff166142e5565b145b15612ccf57612ccd60006142f0565b505b600260009054906101000a900473ffffffffffffffffffffffffffffffffffffffff1673ffffffffffffffffffffffffffffffffffffffff166338cc48316040518163ffffffff167c0100000000000000000000000000000000000000000000000000000000028152600401602060405180830381600087803b158015612d5557600080fd5b505af1158015612d69573d6000803e3d6000fd5b505050506040513d6020811015612d7f57600080fd5b810190808051906020019092919050505073ffffffffffffffffffffffffffffffffffffffff16600160009054906101000a900473ffffffffffffffffffffffffffffffffffffffff1673ffffffffffffffffffffffffffffffffffffffff16141515612ee857600260009054906101000a900473ffffffffffffffffffffffffffffffffffffffff1673ffffffffffffffffffffffffffffffffffffffff166338cc48316040518163ffffffff167c0100000000000000000000000000000000000000000000000000000000028152600401602060405180830381600087803b158015612e6c57600080fd5b505af1158015612e80573d6000803e3d6000fd5b505050506040513d6020811015612e9657600080fd5b8101908080519060200190929190505050600160006101000a81548173ffffffffffffffffffffffffffffffffffffffff021916908373ffffffffffffffffffffffffffffffffffffffff1602179055505b600160009054906101000a900473ffffffffffffffffffffffffffffffffffffffff1673ffffffffffffffffffffffffffffffffffffffff1663c281d19e6040518163ffffffff167c010000000000000000000000000000000000000000000000000000000002815260040160206040518083038186803b158015612f6c57600080fd5b505afa158015612f80573d6000803e3d6000fd5b505050506040513d6020811015612f9657600080fd5b8101908080519060200190929190505050905090565b6000612fb9826000614301565b9050919050565b60008090506000600f600085815260200190815260200160002054141515612ffd57600f6000848152602001908152602001600020549050613032565b6000601060008581526020019081526020016000205414151561303157601060008481526020019081526020016000205490505b5b60006011600083815260200190815260200160002090507f2a2a80fe64b9843e83b5281d100235d26f12d2c8a19427e7c64b7badede75e1b836040518082815260200191505060405180910390a17f49dcaffba7966c6924976e0ac118fcce6a60d667c6c84d6be952873b6ba7723681600b01600101546040518082815260200191505060405180910390a17f74d8386f755b69a79610e97d8fef7567d75ed25455b2e2ff9465b4b68b4d526881600b01600201546040518082815260200191505060405180910390a17f43a741f052e02ea395a3fbdff0a24402ea494b6ba0a1e73942e849816c724e09600f6000868152602001908152602001600020546040518082815260200191505060405180910390a17fd19a09df91b9d9432db8c7f95a8db04f1aeb7fd9157f874cc1390d5667b446b060106000868152602001908152602001600020546040518082815260200191505060405180910390a16000600f6000868152602001908152602001600020541415156131be578281600b01600101819055506131e9565b600060106000868152602001908152602001600020541415156131e8578281600b01600201819055505b5b600081600b0160010154141580156132095750600081600b016002015414155b1561328a576000600e5482600b016002015483600b01600101541881151561322d57fe5b0690508082600b01600001819055508082600301600001819055506132518361284c565b7f3279a0448c20679f0e2e5c95d03df3a09d3e08e5972d3852317a48fd43c6d6db816040518082815260200191505060405180910390a1505b50505050565b6000601160008381526020019081526020016000209050600073ffffffffffffffffffffffffffffffffffffffff168160030160020160009054906101000a900473ffffffffffffffffffffffffffffffffffffffff1673ffffffffffffffffffffffffffffffffffffffff16141515613355576040517f08c379a00000000000000000000000000000000000000000000000000000000081526004018080602001828103825260348152602001806153066034913960400191505060405180910390fd5b6000620f4240613374611388846006015461459c90919063ffffffff16565b81151561337d57fe5b0490506000620f424061339f600954856006015461459c90919063ffffffff16565b8115156133a857fe5b0490508260000160020160009054906101000a900473ffffffffffffffffffffffffffffffffffffffff1673ffffffffffffffffffffffffffffffffffffffff166108fc8284866006015403039081150290604051600060405180830381858888f19350505050158015613420573d6000803e3d6000fd5b5060018360070160146101000a81548160ff02191690831515021790555050505050565b61344c611d30565b151561345757600080fd5b6000801515600660009054906101000a900460ff1615151415156134c6576040517f08c379a000000000000000000000000000000000000000000000000000000000815260040180806020018281038252602c81526020018061547e602c913960400191505060405180910390fd5b8173ffffffffffffffffffffffffffffffffffffffff166108fc3073ffffffffffffffffffffffffffffffffffffffff16319081150290604051600060405180830381858888f19350505050158015613523573d6000803e3d6000fd5b505050565b613530611d30565b151561353b57600080fd5b6001801515600660009054906101000a900460ff1615151415156135aa576040517f08c379a000000000000000000000000000000000000000000000000000000000815260040180806020018281038252602c81526020018061547e602c913960400191505060405180910390fd5b6000600660006101000a81548160ff02191690831515021790555050565b60008284101580156135d957508184105b90509392505050565b600061363c6040518060400160405280600381526020017f55524c000000000000000000000000000000000000000000000000000000000081525060405180610120016040528060ec815260200161533a60ec91396145da565b905060006136976040518060400160405280600381526020017f55524c00000000000000000000000000000000000000000000000000000000008152506040518060800160405280605e81526020016154aa605e91396145da565b905082600f60008381526020019081526020016000208190555082601060008481526020019081526020016000208190555083600e819055507faf1377970ad92b4d34c9f58cf958a17a5537f57bc9f97f126c28b07637e94be3816040518080602001838152602001828103825260128152602001807f67657474696e672072616e646f6d6e65737300000000000000000000000000008152506020019250505060405180910390a150505050565b61374e611d30565b151561375957600080fd5b6000801515600660009054906101000a900460ff1615151415156137c8576040517f08c379a000000000000000000000000000000000000000000000000000000000815260040180806020018281038252602c81526020018061547e602c913960400191505060405180910390fd5b6001600660006101000a81548160ff0219169083151502179055507f4c49022e3faa3d594bcd4c0a41d358281ad8bb232d3d0cdb1add1e71a9daf26660405180806020018281038252600c8152602001807f67616d652073746172746564000000000000000000000000000000000000000081525060200191505060405180910390a150565b600073ffffffffffffffffffffffffffffffffffffffff168173ffffffffffffffffffffffffffffffffffffffff161415151561388a57600080fd5b8073ffffffffffffffffffffffffffffffffffffffff166000809054906101000a900473ffffffffffffffffffffffffffffffffffffffff1673ffffffffffffffffffffffffffffffffffffffff167f8be0079c531659141344cd1fd0a4f28419497f9722a3daafe3b4186f6b6457e060405160405180910390a3806000806101000a81548173ffffffffffffffffffffffffffffffffffffffff021916908373ffffffffffffffffffffffffffffffffffffffff16021790555050565b600081600001516003600185600001510181151561396257fe5b06141561397557816040015190506139a5565b81600001516003600285600001510181151561398d57fe5b0614156139a057826040015190506139a5565b600090505b92915050565b60008060116000848152602001908152602001600020905060008160070160009054906101000a900473ffffffffffffffffffffffffffffffffffffffff1690508160070160149054906101000a900460ff16151515613a73576040517f08c379a00000000000000000000000000000000000000000000000000000000081526004018080602001828103825260148152602001807f526f756e6420616c726561647920636c6f73656400000000000000000000000081525060200191505060405180910390fd5b60018260070160146101000a81548160ff0219169083151502179055506000601254905060003073ffffffffffffffffffffffffffffffffffffffff163190506000620f4240613ad2611388876006015461459c90919063ffffffff16565b811515613adb57fe5b0490506000620f4240613afd600954886006015461459c90919063ffffffff16565b811515613b0657fe5b0490508560070160159054906101000a900460ff1615613d5957600073ffffffffffffffffffffffffffffffffffffffff168573ffffffffffffffffffffffffffffffffffffffff161415613beb578560000160020160009054906101000a900473ffffffffffffffffffffffffffffffffffffffff1673ffffffffffffffffffffffffffffffffffffffff166108fc8284896006015403039081150290604051600060405180830381858888f19350505050158015613bca573d6000803e3d6000fd5b50613be082601254610da790919063ffffffff16565b601281905550613d54565b3073ffffffffffffffffffffffffffffffffffffffff168573ffffffffffffffffffffffffffffffffffffffff161415613c4357613c388660060154601254610da790919063ffffffff16565b601281905550613d53565b613c5c8660060154601254614b9790919063ffffffff16565b6012819055508473ffffffffffffffffffffffffffffffffffffffff166108fc8284613c9660028b6006015461459c90919063ffffffff16565b03039081150290604051600060405180830381858888f19350505050158015613cc3573d6000803e3d6000fd5b507fd4f43975feb89f48dd30cabbb32011045be187d1e11c8ea9faa43efc3528251985828489600601540303604051808373ffffffffffffffffffffffffffffffffffffffff1673ffffffffffffffffffffffffffffffffffffffff1681526020018281526020019250505060405180910390a1613d4c82601254610da790919063ffffffff16565b6012819055505b5b613fa7565b600073ffffffffffffffffffffffffffffffffffffffff168573ffffffffffffffffffffffffffffffffffffffff161415613eb5578560000160020160009054906101000a900473ffffffffffffffffffffffffffffffffffffffff1673ffffffffffffffffffffffffffffffffffffffff166108fc600283811515613ddb57fe5b0484896006015403039081150290604051600060405180830381858888f19350505050158015613e0f573d6000803e3d6000fd5b508560030160020160009054906101000a900473ffffffffffffffffffffffffffffffffffffffff1673ffffffffffffffffffffffffffffffffffffffff166108fc600283811515613e5d57fe5b0484896006015403039081150290604051600060405180830381858888f19350505050158015613e91573d6000803e3d6000fd5b50613eaa82600202601254610da790919063ffffffff16565b601281905550613fa6565b8473ffffffffffffffffffffffffffffffffffffffff166108fc8284613ee960028b6006015461459c90919063ffffffff16565b03039081150290604051600060405180830381858888f19350505050158015613f16573d6000803e3d6000fd5b507fd4f43975feb89f48dd30cabbb32011045be187d1e11c8ea9faa43efc3528251985828489600601540303604051808373ffffffffffffffffffffffffffffffffffffffff1673ffffffffffffffffffffffffffffffffffffffff1681526020018281526020019250505060405180910390a1613f9f82601254610da790919063ffffffff16565b6012819055505b5b80600a60008282540192505081905550600b54600a5411156140c6577f7fc2eef842cb1dfa1b90b4c29935e29807b384d9334c1c6f2bb2ff9103260d9b600c60009054906101000a900473ffffffffffffffffffffffffffffffffffffffff16600a54604051808373ffffffffffffffffffffffffffffffffffffffff1673ffffffffffffffffffffffffffffffffffffffff1681526020018281526020019250505060405180910390a1600c60009054906101000a900473ffffffffffffffffffffffffffffffffffffffff1673ffffffffffffffffffffffffffffffffffffffff166108fc600a549081150290604051600060405180830381858888f193505050501580156140bc573d6000803e3d6000fd5b506000600a819055505b85600601546002028403601254101580156141015750856006015460020283033073ffffffffffffffffffffffffffffffffffffffff163110155b151561410957fe5b85600601549650505050505050919050565b6000806011600084815260200190815260200160002090506000601454600d5486600143034085600b0160010154604051602001808581526020018473ffffffffffffffffffffffffffffffffffffffff1673ffffffffffffffffffffffffffffffffffffffff166c0100000000000000000000000002815260140183815260200182815260200194505050505060405160208183030381529060405280519060200120600190048115156141cc57fe5b0614156142d957600073ffffffffffffffffffffffffffffffffffffffff168160080160009054906101000a900473ffffffffffffffffffffffffffffffffffffffff1673ffffffffffffffffffffffffffffffffffffffff1614151561427e576040517f08c379a00000000000000000000000000000000000000000000000000000000081526004018080602001828103825260218152602001806155a46021913960400191505060405180910390fd5b838160080160006101000a81548173ffffffffffffffffffffffffffffffffffffffff021916908373ffffffffffffffffffffffffffffffffffffffff1602179055506142cf848260060154614bb9565b60019150506142df565b60009150505b92915050565b6000813b9050919050565b60006142fa614c90565b9050919050565b600060608390506000809050600080905060008090505b835181101561457d576030848281518110151561433157fe5b9060200101517f010000000000000000000000000000000000000000000000000000000000000090047f0100000000000000000000000000000000000000000000000000000000000000027f0100000000000000000000000000000000000000000000000000000000000000900460ff161015801561442f5750603984828151811015156143bb57fe5b9060200101517f010000000000000000000000000000000000000000000000000000000000000090047f0100000000000000000000000000000000000000000000000000000000000000027f0100000000000000000000000000000000000000000000000000000000000000900460ff1611155b156144e35781156144525760008614156144485761457d565b8580600190039650505b600a830292506030848281518110151561446857fe5b9060200101517f010000000000000000000000000000000000000000000000000000000000000090047f0100000000000000000000000000000000000000000000000000000000000000027f0100000000000000000000000000000000000000000000000000000000000000900460ff160383019250614570565b602e84828151811015156144f357fe5b9060200101517f010000000000000000000000000000000000000000000000000000000000000090047f0100000000000000000000000000000000000000000000000000000000000000027f0100000000000000000000000000000000000000000000000000000000000000900460ff16141561456f57600191505b5b8080600101915050614318565b5060008511156145905784600a0a820291505b81935050505092915050565b6000808314156145af57600090506145d4565b600082840290508284828115156145c257fe5b041415156145cf57600080fd5b809150505b92915050565b60008073ffffffffffffffffffffffffffffffffffffffff16600260009054906101000a900473ffffffffffffffffffffffffffffffffffffffff1673ffffffffffffffffffffffffffffffffffffffff16148061466257506000614660600260009054906101000a900473ffffffffffffffffffffffffffffffffffffffff166142e5565b145b156146735761467160006142f0565b505b600260009054906101000a900473ffffffffffffffffffffffffffffffffffffffff1673ffffffffffffffffffffffffffffffffffffffff166338cc48316040518163ffffffff167c0100000000000000000000000000000000000000000000000000000000028152600401602060405180830381600087803b1580156146f957600080fd5b505af115801561470d573d6000803e3d6000fd5b505050506040513d602081101561472357600080fd5b810190808051906020019092919050505073ffffffffffffffffffffffffffffffffffffffff16600160009054906101000a900473ffffffffffffffffffffffffffffffffffffffff1673ffffffffffffffffffffffffffffffffffffffff1614151561488c57600260009054906101000a900473ffffffffffffffffffffffffffffffffffffffff1673ffffffffffffffffffffffffffffffffffffffff166338cc48316040518163ffffffff167c0100000000000000000000000000000000000000000000000000000000028152600401602060405180830381600087803b15801561481057600080fd5b505af1158015614824573d6000803e3d6000fd5b505050506040513d602081101561483a57600080fd5b8101908080519060200190929190505050600160006101000a81548173ffffffffffffffffffffffffffffffffffffffff021916908373ffffffffffffffffffffffffffffffffffffffff1602179055505b6000600160009054906101000a900473ffffffffffffffffffffffffffffffffffffffff1673ffffffffffffffffffffffffffffffffffffffff1663524f3889856040518263ffffffff167c01000000000000000000000000000000000000000000000000000000000281526004018080602001828103825283818151815260200191508051906020019080838360005b8381101561493857808201518184015260208101905061491d565b50505050905090810190601f1680156149655780820380516001836020036101000a031916815260200191505b5092505050602060405180830381600087803b15801561498457600080fd5b505af1158015614998573d6000803e3d6000fd5b505050506040513d60208110156149ae57600080fd5b8101908080519060200190929190505050905062030d403a02670de0b6b3a7640000018111156149e5576000600102915050614b91565b600160009054906101000a900473ffffffffffffffffffffffffffffffffffffffff1673ffffffffffffffffffffffffffffffffffffffff1663adf59f9982600087876040518563ffffffff167c0100000000000000000000000000000000000000000000000000000000028152600401808481526020018060200180602001838103835285818151815260200191508051906020019080838360005b83811015614a9d578082015181840152602081019050614a82565b50505050905090810190601f168015614aca5780820380516001836020036101000a031916815260200191505b50838103825284818151815260200191508051906020019080838360005b83811015614b03578082015181840152602081019050614ae8565b50505050905090810190601f168015614b305780820380516001836020036101000a031916815260200191505b50955050505050506020604051808303818588803b158015614b5157600080fd5b505af1158015614b65573d6000803e3d6000fd5b50505050506040513d6020811015614b7c57600080fd5b81019080805190602001909291905050509150505b92915050565b6000828211151515614ba857600080fd5b600082840390508091505092915050565b8173ffffffffffffffffffffffffffffffffffffffff166108fc3073ffffffffffffffffffffffffffffffffffffffff16319081150290604051600060405180830381858888f19350505050158015614c16573d6000803e3d6000fd5b507f59eb56f0aaebc4c2e1de6e254bc52af79350363a072c9ef59851f0d0861a964282601254604051808373ffffffffffffffffffffffffffffffffffffffff1673ffffffffffffffffffffffffffffffffffffffff1681526020018281526020019250505060405180910390a160006012819055505050565b600080614cb0731d3b2638a7cc9f2cb3d298a3da7a90b67e5506ed6142e5565b1115614d5257731d3b2638a7cc9f2cb3d298a3da7a90b67e5506ed600260006101000a81548173ffffffffffffffffffffffffffffffffffffffff021916908373ffffffffffffffffffffffffffffffffffffffff160217905550614d496040518060400160405280600b81526020017f6574685f6d61696e6e6574000000000000000000000000000000000000000000815250615126565b60019050615123565b6000614d7173c03a2615d5efaf5f49f60b7bb6583eaec212fdf16142e5565b1115614e135773c03a2615d5efaf5f49f60b7bb6583eaec212fdf1600260006101000a81548173ffffffffffffffffffffffffffffffffffffffff021916908373ffffffffffffffffffffffffffffffffffffffff160217905550614e0a6040518060400160405280600c81526020017f6574685f726f707374656e330000000000000000000000000000000000000000815250615126565b60019050615123565b6000614e3273b7a07bcf2ba2f2703b24c0691b5278999c59ac7e6142e5565b1115614ed45773b7a07bcf2ba2f2703b24c0691b5278999c59ac7e600260006101000a81548173ffffffffffffffffffffffffffffffffffffffff021916908373ffffffffffffffffffffffffffffffffffffffff160217905550614ecb6040518060400160405280600981526020017f6574685f6b6f76616e0000000000000000000000000000000000000000000000815250615126565b60019050615123565b6000614ef373146500cfd35b22e4a392fe0adc06de1a1368ed486142e5565b1115614f955773146500cfd35b22e4a392fe0adc06de1a1368ed48600260006101000a81548173ffffffffffffffffffffffffffffffffffffffff021916908373ffffffffffffffffffffffffffffffffffffffff160217905550614f8c6040518060400160405280600b81526020017f6574685f72696e6b656279000000000000000000000000000000000000000000815250615126565b60019050615123565b6000614fb4736f485c8bf6fc43ea212e93bbf8ce046c7f1cb4756142e5565b111561501857736f485c8bf6fc43ea212e93bbf8ce046c7f1cb475600260006101000a81548173ffffffffffffffffffffffffffffffffffffffff021916908373ffffffffffffffffffffffffffffffffffffffff16021790555060019050615123565b60006150377320e12a1f859b3feae5fb2a0a32c18f5a65555bbf6142e5565b111561509b577320e12a1f859b3feae5fb2a0a32c18f5a65555bbf600260006101000a81548173ffffffffffffffffffffffffffffffffffffffff021916908373ffffffffffffffffffffffffffffffffffffffff16021790555060019050615123565b60006150ba7351efaf4c8b3c9afbd5ab9f4bbc82784ab6ef8faa6142e5565b111561511e577351efaf4c8b3c9afbd5ab9f4bbc82784ab6ef8faa600260006101000a81548173ffffffffffffffffffffffffffffffffffffffff021916908373ffffffffffffffffffffffffffffffffffffffff16021790555060019050615123565b600090505b90565b806003908051906020019061513c9291906151d5565b5050565b604051806102000160405280615154615255565b8152602001615161615255565b815260200160008152602001600073ffffffffffffffffffffffffffffffffffffffff168152602001600015158152602001600015158152602001600073ffffffffffffffffffffffffffffffffffffffff16815260200160008152602001600081526020016151cf61528f565b81525090565b828054600181600116156101000203166002900490600052602060002090601f016020900481019282601f1061521657805160ff1916838001178555615244565b82800160010185558215615244579182015b82811115615243578251825591602001919060010190615228565b5b50905061525191906152b0565b5090565b60405180606001604052806000815260200160008019168152602001600073ffffffffffffffffffffffffffffffffffffffff1681525090565b60405180606001604052806000815260200160008152602001600081525090565b6152d291905b808211156152ce5760008160009055506001016152b6565b5090565b9056fe4e6f626f6479206a6f696e656420746f2074686520726f756e642c2069742063616e2774206265207265736f6c7665644f6e6c7920706f737369626c6520746f2063616e63656c20726f756e64207768656e206e6f626f647920686173206a6f696e6564424456754c326831416c33432f7a49764e72306e4655586b48762b5838576c337768522f617342336665685441593456554d3667453434644d714e72437a58687a6178515555522b5a4b50542f655a2f7176663436333669654c6f7a476c7a482b6431444d61326b614b49506a2b686a622b7054554b46786f574f68793632316b6c763357334336794f7057507356774d4c7231546e4d6748523769364755693178333437756d69506d4247745675785a707a68464f57505563737a4a414a4b366c377333654774527433776976426a784551434967444333664a56476f355a2b4448542b7379574b773d3d53656e64206174206c65617374207468652073616d652062657420616d6f756e7444656e6965642061636365737320746f2063616c6c6261636b2066756e6374696f6e2c206f7261636c65206f6e6c7920616c6c6f77656446756e6374696f6e20617661696c61626c65206f6e6c79207768656e2067616d652069732072756e6e696e6768747470733a2f2f7777772e72616e646f6d2e6f72672f696e7465676572732f3f6e756d3d31266d696e3d30266d61783d3130303030303030303026636f6c3d3126626173653d313026666f726d61743d706c61696e26726e643d6e6577526f756e642063616e206f6e6c792062652072657665616c6564206279206974732063726561746f724d696e696d756d204a61636b706f74206973206e656564656420666f72207374617274696e672067616d654572726f7220747279696e6720746f2063616e63656c20726f756e643a207468652073656e646572206973206e6f74207468652063726561746f72206f662074686520726f756e644f6e6c79206f6e65206c6f74657272792077696e6e65722070657220726f756e644572726f7220747279696e6720746f2063616e63656c20726f756e643a2077726f6e672063686f696365206f7220736563726574a165627a7a72305820ca185939534ca8727d09337a0e2ddb6acfa88cc131a2372f49ebe6be65e9d45c0029",
  "source": "pragma solidity >=0.5;\n\nimport \"./P2PGamblingGame.sol\";\nimport \"./LotteryGame.sol\";\n\n\n/** @title RPS - RockPaperScissor P2P game, playing also for a jackpot.\n  * @author rggentil\n  * @notice This is just a simple game done mostly for learning solidity\n            and web3 development, do not use betting real value since\n            it has some known vulnerabilities.\n  * @dev My first smartcontract, so probably code could be improved.\n */\ncontract RPS is P2PGamblingGame, LotteryGame {\n\n    enum Choice { Rock, Paper, Scissors }\n\n    uint constant RPS_RANDOM_RANGE = 3;\n\n    modifier isChoice(uint choice) {\n        require(choice <= uint(Choice.Scissors), \"RPS choice not valid\");\n        _;\n    }\n\n    event RoundCreated(\n        uint roundId,\n        uint betAmount,\n        address indexed player1,\n        bool isSolo\n    );\n\n    event RoundResolved(\n        uint roundId,\n        address winner,\n        uint betAmount,\n        address indexed player1,\n        uint choice1,\n        address player2,\n        uint choice2\n    );\n\n    event Secret(bytes32 secret);\n\n    event BusinessPayment(address businessAddress, uint payment);\n\n    constructor() public payable {\n        // We could handle games through constructor and setting variables like\n        // minimum bet, max jackpot, fees, etc.\n\n    }\n\n    /** @notice Get info from rounds.\n                TODO: This function should be removed in final deployment because\n                it facilitates getting other player's choice before betting.\n      * @dev This function is implemented mainly for debugging purpose.\n             Actually getting info from front-end is managed through events.\n      * @param roundId round id number that identify a round\n      * @return player1Address address of player1\n      * @return player1Choice choice of player1\n      * @return player2Address address of player2\n      * @return player2Choice choice of player2\n      * @return betAmount amount of the bet of this round, in wei.\n      * @return winner address of the winner, it's 0x0 if not finished or draw\n      TODO: THIS CAN'T BE ACCESSIBLE BECAUSE ANYONE COULD KNOW THE CHOICES JUST\n            REQUESTING THIS FUNCTION\n    */\n    function getRoundInfo(\n        uint roundId\n    )\n        external\n        view\n        returns(\n            address player1Address,\n            uint player1Choice,\n            address player2Address,\n            uint player2Choice,\n            uint betAmount,\n            address winner,\n            bool isSolo,\n            address lotteryWinner\n        )\n    {\n        Round memory myRound = rounds[roundId];\n        return (\n            myRound.player1.playerAddress,\n            myRound.player1.choice,\n            myRound.player2.playerAddress,\n            myRound.player2.choice,\n            myRound.betAmount,\n            myRound.winner,\n            myRound.isSolo,\n            myRound.lotteryWinner\n        );\n    }\n \n\n    event CurrentJackpot(uint jackpot);\n    function playSoloRound(uint _choice)\n        public\n        gameIsOn(true)\n        isChoice(_choice)\n        payable\n        returns(uint)\n    {\n        require(msg.value >= minimumBet, \"Not enough amount bet\");\n        roundCount++;\n        uint roundId = roundCount;\n        Round storage round = rounds[roundId];\n        round.player1.playerAddress = msg.sender;\n        round.player1.choice = _choice;\n        round.betAmount = msg.value;\n        round.isSolo = true;\n\n        emit RoundCreated(\n            roundCount,\n            round.betAmount,\n            round.player1.playerAddress,\n            round.isSolo\n        );\n\n        if (round.isSolo) {\n            emit CurrentJackpot(jackpot);\n            require(isValidBet(msg.value, minimumBet, jackpot));\n            require(msg.value <= jackpot, \"Bet too high\");\n            round.player2.playerAddress = address(this);\n            _setRandomness(RPS_RANDOM_RANGE, roundId);\n        }\n\n        return roundId;\n    }\n\n    /** @notice Function called each time we want to create a round for playing with other players.\n                Payable function thar receives the bet amount.\n      * @param _secretChoice bytes32 with the encrypted choice plus a secret string\n      * @return roundId id number that identify the round created\n     */\n    function createSecretRound(bytes32 _secretChoice)\n        public\n        gameIsOn(true)\n        payable\n        returns(uint)\n    {\n        require(msg.value >= minimumBet, \"Not enough amount bet\");\n\n        roundCount++;\n        uint roundId = roundCount;\n        Round storage round = rounds[roundId];\n        round.player1.playerAddress = msg.sender;\n        round.player1.secretChoice = _secretChoice;\n        round.betAmount = msg.value;\n        round.isSolo = false;\n\n        emit RoundCreated(\n            roundCount,\n            round.betAmount,\n            round.player1.playerAddress,\n            round.isSolo\n        );\n\n        emit Secret(_secretChoice);\n\n        return roundId;\n    }\n\n    /** @notice Function called each time we want to play.\n                Payable function thar receives the bet amount.\n      * @param _choice choose Choice enum value: ROCK, PAPER, SCISSOR\n      * @return roundId id number that identify the round created\n     */\n    function createRound(uint _choice)\n        public\n        gameIsOn(true)\n        isChoice(_choice)\n        payable\n        returns(uint)\n    {\n        require(msg.value >= minimumBet, \"Not enough amount bet\");\n\n        roundCount++;\n        uint roundId = roundCount;\n        Round storage round = rounds[roundId];\n        round.player1.playerAddress = msg.sender;\n        round.player1.choice = _choice;\n        round.betAmount = msg.value;\n        round.isSolo = false;\n\n        emit RoundCreated(\n            roundCount,\n            round.betAmount,\n            round.player1.playerAddress,\n            round.isSolo\n        );\n\n        return roundId;\n    }\n\n    /** @notice Join to an existing round created by other player\n                Payable function thar receives the bet amount.\n      * @param _roundId id number that identify the round to join\n      * @param _choice choose Choice enum value: ROCK, PAPER, SCISSOR\n     */\n    function joinSecretRound(uint _roundId, uint _choice) public gameIsOn(true) isChoice(_choice) payable {\n        Round storage myRound = rounds[_roundId];  // Pointer to round\n        require(myRound.player1.playerAddress != address(0), \"Round does not exist\");\n        require(myRound.player2.playerAddress == address(0) && !myRound.isClosed, \"Round already finished\");\n        require(msg.value >= myRound.betAmount, \"Send at least the same bet amount\");\n\n        // Send back the excess of the amount sent minus the real bet amount\n        // Use Safe Math, althouth this should never be overflow bc substract uints is another uint\n        // Using transfer should prevent from fallback reentrancy, but...\n        // Also, a reentrancy would have to send more value than betAmount, I think an attack has no sense\n        // but I would have to analyze it a bit more.\n        msg.sender.transfer(msg.value - myRound.betAmount);  // No need to use SafeMath since this can't be negative\n\n        myRound.player2.playerAddress = msg.sender;\n        myRound.player2.choice = _choice;\n    }\n\n    /** @notice Join to an existing round created by other player\n                Payable function thar receives the bet amount.\n      * @param _roundId id number that identify the round to join\n      * @param _choice choose Choice enum value: ROCK, PAPER, SCISSOR\n     */\n    function joinRound(uint _roundId, uint _choice)\n        public\n        gameIsOn(true)\n        isChoice(_choice)\n        payable\n    {\n        joinRound(_roundId, _choice);\n        _resolveRound(_roundId);\n    }\n\n    /** @notice Player 1 reveals choice when other player has joined to player 1's round\n     */\n    function revealChoice(uint _roundId, uint256 _choice, string memory _secret) public gameIsOn(true) {\n        Round storage myRound = rounds[_roundId];  // Pointer to round\n        require(myRound.player2.playerAddress != address(0), \"Nobody joined to the round, it can't be resolved\");\n        require(myRound.player1.playerAddress == msg.sender, \"Round can only be revealed by its creator\");\n        require(keccak256(abi.encodePacked(_secret, _choice)) == myRound.player1.secretChoice, \"Error trying to reveal choice\");\n        myRound.player1.choice = _choice;\n        _resolveRound(_roundId);\n    }\n\n    /**  @dev For some reason, overloading that used to work fine now it fails, so I've changed the name of the funciton\n              to differentiate from the other cancelRound\n    */\n    function cancelRoundSender(uint _roundId) public {\n        require(rounds[_roundId].player1.playerAddress == msg.sender, \"Error trying to cancel round: the sender is not the creator of the round\");\n        _cancelRound(_roundId);\n    }\n\n    function cancelRound(uint _roundId, uint256 _choice, string memory _secret) public {\n        require(keccak256(abi.encodePacked(_choice, _secret)) == rounds[_roundId].player1.secretChoice, \"Error trying to cancel round: wrong choice or secret\");\n        _cancelRound(_roundId);\n    }\n\n    function startGame() public {\n        super.startGame();\n        startLottery();\n    }\n\n    function stopGame() public {\n        super.stopGame();\n        stopLottery();\n    }\n\n    function withdrawFunds(address payable _myAddress) public {\n        super.withdrawFunds(_myAddress);\n        jackpot = 0;\n    }\n\n    function _cancelRound(uint _roundId) private {\n        Round storage myRound = rounds[_roundId];  // Pointer to round\n        require(myRound.player2.playerAddress == address(0), \"Only possible to cancel round when nobody has joined\");\n\n        // Player can cancel round and receives the bet amount minus fees\n        uint jackpotFee = myRound.betAmount.mul(jackpotFeeRate) / feeUnits;\n        uint businessFee = myRound.betAmount.mul(businessFeeRate) / feeUnits;\n        myRound.player1.playerAddress.transfer(myRound.betAmount - jackpotFee - businessFee);\n        myRound.isClosed = true;\n    }\n\n    /** @notice Function that generates randomness for the game, used when playing vs House and playing\n                for the jackpot. This implementation is not safe since it can be easyly attacked.\n      * @dev It uses the blockhash of the last block, with two other params but it is not safe for a gambling\n            platform. Change randomness in case we want it to be realistic. Probably it needs Oraclize.\n      * @return Choice enum value (ROCK, PAPER, SCISSOR) chosen randomly.\n    */\n    function getRandomChoice() private view returns(uint){\n        return uint(keccak256(abi.encodePacked(roundCount, msg.sender, blockhash(block.number - 1)))) % 3;\n    }\n\n    /** @notice Resolve round, both vs House or vs other player.\n                Pay winner if any.\n      * @param _roundId id number that identify the round to resolve\n     */\n    function _resolveRound(uint _roundId) private {\n        Round storage myRound = rounds[_roundId];  // Pointer to round\n        require(!myRound.isClosed, \"Round already closed\");\n        myRound.winner = _checkWinner(myRound.player1, myRound.player2);\n        _payRound(_roundId);\n        emit RoundResolved(\n            _roundId,\n            myRound.winner,\n            myRound.betAmount,\n            myRound.player1.playerAddress,\n            myRound.player1.choice,\n            myRound.player2.playerAddress,\n            myRound.player2.choice\n        );\n        myRound.isSolo = true;\n        if (lotteryOn) {\n            _playLottery(myRound.player1.playerAddress, _roundId);\n            if (!myRound.isSolo) {\n                _playLottery(myRound.player2.playerAddress, _roundId);\n            }\n        }\n    }\n\n    /** @notice Pay winner of the round resolved.\n      * @param _roundId id number that identify the round to resolve\n     */\n    function _payRound(uint _roundId) private returns (uint) {\n        Round storage myRound = rounds[_roundId];  // Pointer to round\n        address payable winner = myRound.winner;\n\n        // I think this is necessary to avoid possible reentrancy attacks (although we're using transfer).\n        // I also think we are protected since this function is private, the one which calls this one is\n        // also private and the parent you need to send value to join round.\n        require(!myRound.isClosed, \"Round already closed\");\n        myRound.isClosed = true;\n\n        uint inititalJackpot = jackpot;\n        uint initialBalance = address(this).balance;\n        uint jackpotFee = myRound.betAmount.mul(jackpotFeeRate) / feeUnits;\n        uint businessFee = myRound.betAmount.mul(businessFeeRate) / feeUnits;\n\n        if(myRound.isSolo) {  // 1 player mode\n            if (winner == address(0)){  // Draw, player recevies what he bet minus fees\n                myRound.player1.playerAddress.transfer(myRound.betAmount - jackpotFee - businessFee);\n                jackpot = jackpot.add(jackpotFee);\n            } else if (winner == address(this)) {  // Player looses, bet to jackpot\n                jackpot = jackpot.add(myRound.betAmount);\n            } else {  // Player wins\n                // SafeMath is not necessary, jackpot and betAmount are uint, and the substraction can only be uint.\n                // Used to show using a Library. Consider to change it to use -, since it saves same gas.\n                jackpot = jackpot.sub(myRound.betAmount);\n                winner.transfer(myRound.betAmount.mul(2) - jackpotFee - businessFee);\n                emit Payment(winner, myRound.betAmount - jackpotFee - businessFee);\n                jackpot = jackpot.add(jackpotFee);\n            }\n\n        } else { // 2 players mode\n            if (winner == address(0)){  // Draw, players receive what they bet minus jackpot and business fee\n                // We might consider to study this a bit more, but I think that when playing 2 players\n                // we may just charge half of business fee to each player and that's OK for avoiding\n                // attacks in case of a draw.\n                myRound.player1.playerAddress.transfer(myRound.betAmount - jackpotFee - businessFee / 2);\n                myRound.player2.playerAddress.transfer(myRound.betAmount - jackpotFee - businessFee / 2);\n                jackpot = jackpot.add(2 * jackpotFee);\n            } else {  // Bet to the winner minus jackpot and business fee\n                winner.transfer(myRound.betAmount.mul(2) - jackpotFee - businessFee);\n                emit Payment(winner, myRound.betAmount - jackpotFee - businessFee);\n                jackpot = jackpot.add(jackpotFee);\n            }\n        }\n\n        // We must do the transfer of business fee to businessAddress but since they're supposed to be very small we should wait\n        // till collecting a bigger amount, for avoiding paying more gas than actual money.\n        totalBusinessFee += businessFee;\n        if (totalBusinessFee > minBusinessFeePayment) {\n            emit BusinessPayment(businessAddress, totalBusinessFee);\n            businessAddress.transfer(totalBusinessFee);\n            totalBusinessFee = 0;\n        }\n\n\n        // Additional check por security for reentrancy (kind of formal verification)\n        // These additional checks may not be necessary since we are using transfer that limits gas to 2300,\n        // so in the final deployment we could ommit all these additional checks in order to save same uncessary gas\n        assert((jackpot >= inititalJackpot - (2 * myRound.betAmount)) && (address(this).balance >= initialBalance - (2 * myRound.betAmount)));\n\n        return myRound.betAmount;\n    }\n\n    /** @notice Check winner of the round, both vs House or vs other player.\n      * @param player1 player struct (with player's address and choice)\n      * @param player2 player struct (with player's address and choice)\n      * @return address of the winner\n     */\n    function _checkWinner(Player memory player1, Player memory player2) private pure returns(address payable) {\n        if ((uint(player1.choice) + 1) % 3 == uint(player2.choice)) {\n            return player2.playerAddress;\n        } else if ((uint(player1.choice) + 2) % 3 == uint(player2.choice)) {\n            return player1.playerAddress;\n        } else {\n            return address(0);\n        }\n    }\n\n    /** @notice Play lottery for the round\n      * @dev TODO: Current randomness is not the best way for gambling since it can be attacked by miners.\n             TODO: It is needed to implement a mechanism that assures that existing rounds can be paid altoudh\n             someone has hit the jakpot. Curerntly if someone hits the jackpot he/she gets all value of the contract\n      * @param playerAddress address of the player\n      * @param _roundId id number that identify the round to resolve\n      * @return if player wins the lottery or not\n     */\n    function _playLottery(address payable playerAddress, uint _roundId) private returns (bool) {\n        Round storage myRound = rounds[_roundId];  // Pointer to round\n        if ((uint(keccak256(abi.encodePacked(roundCount, playerAddress, blockhash(block.number - 1), myRound.oraclizeCallback.queryResult)))\n            % lotteryRate) == 0) {\n            require(myRound.lotteryWinner == address(0), \"Only one loterry winner per round\");\n            myRound.lotteryWinner = playerAddress;\n            _payLotteryWinner(playerAddress, myRound.betAmount);\n            return true;\n        }\n        return false;\n    }\n\n    function _setResult(bytes32 myid, uint oraclizeResult) private {\n        uint roundId = 0;\n\n        if (queryIdToRounds[myid] != 0) {\n            roundId = queryIdToRounds[myid];\n        } else if (secretQueryIdToRounds[myid] != 0) {\n            roundId = secretQueryIdToRounds[myid];\n        }\n\n        Round storage round = rounds[roundId];\n\n        emit logRolledDiceNumber(oraclizeResult);\n        emit logRolledDiceNumberBefore(round.oraclizeCallback.queryResult);\n        emit logRolledDiceNumberBeforeS(round.oraclizeCallback.secretQueryResult);\n        emit logRoundIdIs(queryIdToRounds[myid]);\n        emit logRoundIdIsS(secretQueryIdToRounds[myid]);\n\n        if (queryIdToRounds[myid] != 0) {\n            round.oraclizeCallback.queryResult = oraclizeResult;\n        } else if (secretQueryIdToRounds[myid] != 0) {\n            round.oraclizeCallback.secretQueryResult = oraclizeResult;\n        }\n\n        if (round.oraclizeCallback.queryResult != 0 && round.oraclizeCallback.secretQueryResult != 0) {\n            uint rpsChoice = (round.oraclizeCallback.queryResult ^ round.oraclizeCallback.secretQueryResult) % gameRandomRange;\n            round.oraclizeCallback.oraclesChoice = rpsChoice;\n            round.player2.choice = rpsChoice;\n            _resolveRound(roundId);\n            emit logRolledDiceNumberAfter(rpsChoice);\n        }\n    }\n\n}\n",
  "sourcePath": "/home/rggentil/Documents/master_ethereum/BLOCKCHAINTFM/Ethereum_Gambling_Games/contracts/RPS.sol",
  "compiler": {
    "name": "solc",
    "version": "0.5.5+commit.47a71e8f.Emscripten.clang"
  },
  "schemaVersion": "3.0.6",
  "updatedAt": "2019-04-15T14:57:44.521Z",
  "devdoc": {
    "author": "rggentil",
    "details": "My first smartcontract, so probably code could be improved.",
    "methods": {
      "__callback(bytes32,string,bytes)": {
        "details": "Get the querys using the parameter myid",
        "params": {
          "myid": "The id of the query",
          "result": "The result of the query"
        }
      },
      "cancelRoundSender(uint256)": {
        "details": "For some reason, overloading that used to work fine now it fails, so I've changed the name of the funciton to differentiate from the other cancelRound"
      },
      "createRound(uint256)": {
        "params": {
          "_choice": "choose Choice enum value: ROCK, PAPER, SCISSOR"
        },
        "return": "roundId id number that identify the round created"
      },
      "createSecretRound(bytes32)": {
        "params": {
          "_secretChoice": "bytes32 with the encrypted choice plus a secret string"
        },
        "return": "roundId id number that identify the round created"
      },
      "fundGame()": {
        "details": "It's just the same as fallback function."
      },
      "getRoundInfo(uint256)": {
        "details": "This function is implemented mainly for debugging purpose. Actually getting info from front-end is managed through events.",
        "params": {
          "roundId": "round id number that identify a round"
        },
        "return": "player1Address address of player1player1Choice choice of player1player2Address address of player2player2Choice choice of player2betAmount amount of the bet of this round, in wei.winner address of the winner, it's 0x0 if not finished or draw TODO: THIS CAN'T BE ACCESSIBLE BECAUSE ANYONE COULD KNOW THE CHOICES JUST REQUESTING THIS FUNCTION"
      },
      "isOwner()": {
        "return": "true if `msg.sender` is the owner of the contract."
      },
      "joinRound(uint256,uint256)": {
        "params": {
          "_choice": "choose Choice enum value: ROCK, PAPER, SCISSOR",
          "_roundId": "id number that identify the round to join"
        }
      },
      "joinSecretRound(uint256,uint256)": {
        "params": {
          "_choice": "choose Choice enum value: ROCK, PAPER, SCISSOR",
          "_roundId": "id number that identify the round to join"
        }
      },
      "owner()": {
        "return": "the address of the owner."
      },
      "renounceOwnership()": {
        "details": "Allows the current owner to relinquish control of the contract."
      },
      "setLotteryRate(uint256)": {
        "details": "Mostly for testing porpuse. It should be removed in final deployment or no modifiable by anyone",
        "params": {
          "newLotteryRate": "new lottery rate"
        }
      },
      "setminBusinessFeePayment(uint256)": {
        "details": "Mostly for testing porpuse. It should be removed in final deployment or no modifiable by anyone",
        "params": {
          "newMinBusinessFeePayment": "new min amount of ETH to transfer to business"
        }
      },
      "transferOwnership(address)": {
        "details": "Allows the current owner to transfer control of the contract to a newOwner.",
        "params": {
          "newOwner": "The address to transfer ownership to."
        }
      }
    },
    "title": "RPS - RockPaperScissor P2P game, playing also for a jackpot."
  },
  "userdoc": {
    "methods": {
      "__callback(bytes32,string,bytes)": {
        "notice": "Callback function to emit the events with the information we want."
      },
      "createRound(uint256)": {
        "notice": "Function called each time we want to play. Payable function thar receives the bet amount."
      },
      "createSecretRound(bytes32)": {
        "notice": "Function called each time we want to create a round for playing with other players. Payable function thar receives the bet amount."
      },
      "fundGame()": {
        "notice": "Payable, to fund game by adding ethers to contract and to the jackpot"
      },
      "getRoundInfo(uint256)": {
        "notice": "Get info from rounds. TODO: This function should be removed in final deployment because it facilitates getting other player's choice before betting."
      },
      "joinRound(uint256,uint256)": {
        "notice": "Join to an existing round created by other player Payable function thar receives the bet amount."
      },
      "joinSecretRound(uint256,uint256)": {
        "notice": "Join to an existing round created by other player Payable function thar receives the bet amount."
      },
      "renounceOwnership()": {
        "notice": "Renouncing to ownership will leave the contract without an owner. It will not be possible to call the functions with the `onlyOwner` modifier anymore."
      },
      "revealChoice(uint256,uint256,string)": {
        "notice": "Player 1 reveals choice when other player has joined to player 1's round"
      },
      "setLotteryRate(uint256)": {
        "notice": "Set the lottery rate in percentage, how easy is to hit the jackpot"
      },
      "setminBusinessFeePayment(uint256)": {
        "notice": "Set the minimum amount of ETH to be transfered when collecting business fees"
      },
      "startLottery()": {
        "notice": "Start lottery (this means playing for jackpot)"
      },
      "stopLottery()": {
        "notice": "Stop lottery (this means stop playing for jackpot)"
      }
    },
    "notice": "This is just a simple game done mostly for learning solidity and web3 development, do not use betting real value since it has some known vulnerabilities."
  }
}