{
  "contractName": "Dice",
  "abi": [
    {
      "constant": true,
      "inputs": [],
      "name": "maximumRisk",
      "outputs": [
        {
          "name": "",
          "type": "uint256"
        }
      ],
      "payable": false,
      "stateMutability": "view",
      "type": "function",
      "signature": "0x101a4406"
    },
    {
      "constant": true,
      "inputs": [],
      "name": "minimumRisk",
      "outputs": [
        {
          "name": "",
          "type": "uint256"
        }
      ],
      "payable": false,
      "stateMutability": "view",
      "type": "function",
      "signature": "0x1b9300e9"
    },
    {
      "constant": true,
      "inputs": [],
      "name": "getGameStatus",
      "outputs": [
        {
          "name": "",
          "type": "bool"
        }
      ],
      "payable": false,
      "stateMutability": "view",
      "type": "function",
      "signature": "0x382396ee"
    },
    {
      "constant": true,
      "inputs": [
        {
          "name": "",
          "type": "bytes32"
        }
      ],
      "name": "oraclizeCallbacks",
      "outputs": [
        {
          "name": "player",
          "type": "address"
        },
        {
          "name": "queryId",
          "type": "bytes32"
        },
        {
          "name": "risk",
          "type": "uint256"
        },
        {
          "name": "betAmount",
          "type": "uint256"
        },
        {
          "name": "rolledDiceNumber",
          "type": "uint256"
        },
        {
          "name": "profit",
          "type": "uint256"
        }
      ],
      "payable": false,
      "stateMutability": "view",
      "type": "function",
      "signature": "0x426d5ef1"
    },
    {
      "constant": true,
      "inputs": [],
      "name": "emergencyStop",
      "outputs": [
        {
          "name": "",
          "type": "bool"
        }
      ],
      "payable": false,
      "stateMutability": "view",
      "type": "function",
      "signature": "0x63a599a4"
    },
    {
      "constant": true,
      "inputs": [],
      "name": "jackpot",
      "outputs": [
        {
          "name": "",
          "type": "uint256"
        }
      ],
      "payable": false,
      "stateMutability": "view",
      "type": "function",
      "signature": "0x6b31ee01"
    },
    {
      "constant": true,
      "inputs": [],
      "name": "gameStatus",
      "outputs": [
        {
          "name": "",
          "type": "bool"
        }
      ],
      "payable": false,
      "stateMutability": "view",
      "type": "function",
      "signature": "0x722fed7e"
    },
    {
      "constant": true,
      "inputs": [],
      "name": "owner",
      "outputs": [
        {
          "name": "",
          "type": "address"
        }
      ],
      "payable": false,
      "stateMutability": "view",
      "type": "function",
      "signature": "0x8da5cb5b"
    },
    {
      "constant": true,
      "inputs": [],
      "name": "isOwner",
      "outputs": [
        {
          "name": "",
          "type": "bool"
        }
      ],
      "payable": false,
      "stateMutability": "view",
      "type": "function",
      "signature": "0x8f32d59b"
    },
    {
      "constant": true,
      "inputs": [],
      "name": "minimumBet",
      "outputs": [
        {
          "name": "",
          "type": "uint256"
        }
      ],
      "payable": false,
      "stateMutability": "view",
      "type": "function",
      "signature": "0xc38a8afd"
    },
    {
      "constant": true,
      "inputs": [],
      "name": "feeJackpot",
      "outputs": [
        {
          "name": "",
          "type": "uint256"
        }
      ],
      "payable": false,
      "stateMutability": "view",
      "type": "function",
      "signature": "0xc4e7b6a4"
    },
    {
      "constant": false,
      "inputs": [
        {
          "name": "_status",
          "type": "bool"
        }
      ],
      "name": "setGameStatus",
      "outputs": [],
      "payable": false,
      "stateMutability": "nonpayable",
      "type": "function",
      "signature": "0xcbe2e97e"
    },
    {
      "inputs": [],
      "payable": false,
      "stateMutability": "nonpayable",
      "type": "constructor",
      "signature": "constructor"
    },
    {
      "payable": true,
      "stateMutability": "payable",
      "type": "fallback"
    },
    {
      "anonymous": false,
      "inputs": [
        {
          "indexed": false,
          "name": "_contract",
          "type": "address"
        },
        {
          "indexed": false,
          "name": "_player",
          "type": "address"
        },
        {
          "indexed": false,
          "name": "_risk",
          "type": "uint256"
        },
        {
          "indexed": false,
          "name": "_bet",
          "type": "uint256"
        }
      ],
      "name": "logPlayerBetAccepted",
      "type": "event",
      "signature": "0x0493f0ee102db9238dcfc674e3590d07343d625075476694341009d96d905539"
    },
    {
      "anonymous": false,
      "inputs": [
        {
          "indexed": false,
          "name": "_contract",
          "type": "address"
        },
        {
          "indexed": false,
          "name": "_player",
          "type": "address"
        },
        {
          "indexed": false,
          "name": "_description",
          "type": "string"
        }
      ],
      "name": "logRollDice",
      "type": "event",
      "signature": "0x5c624037da372bb459131a7137f1657ae380b2419ed6071d29d957c194ed200c"
    },
    {
      "anonymous": false,
      "inputs": [
        {
          "indexed": false,
          "name": "_contract",
          "type": "address"
        },
        {
          "indexed": false,
          "name": "_oraclizeQueryId",
          "type": "bytes32"
        },
        {
          "indexed": false,
          "name": "_risk",
          "type": "uint256"
        },
        {
          "indexed": false,
          "name": "_rolledDiceNumber",
          "type": "uint256"
        }
      ],
      "name": "logRolledDiceNumber",
      "type": "event",
      "signature": "0x07d71ce827b2c0ead9f18b5f031f0385143e283c9491b21b96713a278acfacc0"
    },
    {
      "anonymous": false,
      "inputs": [
        {
          "indexed": false,
          "name": "description",
          "type": "string"
        },
        {
          "indexed": false,
          "name": "_contract",
          "type": "address"
        },
        {
          "indexed": false,
          "name": "_player",
          "type": "address"
        },
        {
          "indexed": false,
          "name": "_rolledDiceNumber",
          "type": "uint256"
        },
        {
          "indexed": false,
          "name": "_betAmount",
          "type": "uint256"
        }
      ],
      "name": "logPlayerLose",
      "type": "event",
      "signature": "0x18008b5f6086bd3b79827452d1500916d620037ff83bf69d6d7e739040733d0f"
    },
    {
      "anonymous": false,
      "inputs": [
        {
          "indexed": false,
          "name": "description",
          "type": "string"
        },
        {
          "indexed": false,
          "name": "_contract",
          "type": "address"
        },
        {
          "indexed": false,
          "name": "_winner",
          "type": "address"
        },
        {
          "indexed": false,
          "name": "_rolledDiceNumber",
          "type": "uint256"
        },
        {
          "indexed": false,
          "name": "_profit",
          "type": "uint256"
        }
      ],
      "name": "logPlayerWins",
      "type": "event",
      "signature": "0xc4cfaea7e643952941f9703b6024c682372fc04075a3bf87687287b71f074469"
    },
    {
      "anonymous": false,
      "inputs": [
        {
          "indexed": false,
          "name": "_status",
          "type": "bool"
        }
      ],
      "name": "logGameStatus",
      "type": "event",
      "signature": "0x114356cc8b1254eb1c0a759cbf197793e81521b60f10fa8080e236421bd0c25e"
    },
    {
      "anonymous": false,
      "inputs": [
        {
          "indexed": false,
          "name": "description",
          "type": "string"
        }
      ],
      "name": "logNewOraclizeQuery",
      "type": "event",
      "signature": "0xd0f9dea447b4e92bc04cc421beba62dbef9e0f6d77e1d798c15ff591941edd70"
    },
    {
      "anonymous": false,
      "inputs": [
        {
          "indexed": false,
          "name": "_contractBalance",
          "type": "uint256"
        }
      ],
      "name": "logContractBalance",
      "type": "event",
      "signature": "0xd4a125efef1c3fca9f2d63ea257a143623b80df1843e34bf3bb8c3021739faf8"
    },
    {
      "anonymous": false,
      "inputs": [
        {
          "indexed": false,
          "name": "description",
          "type": "string"
        },
        {
          "indexed": false,
          "name": "_ownerAddress",
          "type": "address"
        },
        {
          "indexed": false,
          "name": "_ownerBalance",
          "type": "uint256"
        }
      ],
      "name": "logJackpotBalance",
      "type": "event",
      "signature": "0xd8846f41f4f0707db7a462eb57d3e2708cb1e9cb641b44000ca2edcd8cad1b8e"
    },
    {
      "anonymous": false,
      "inputs": [
        {
          "indexed": false,
          "name": "description",
          "type": "string"
        },
        {
          "indexed": false,
          "name": "_playerAddress",
          "type": "address"
        },
        {
          "indexed": false,
          "name": "_winAmount",
          "type": "uint256"
        }
      ],
      "name": "logPayWinner",
      "type": "event",
      "signature": "0x1d1f8e36149fc07505f5876cceb2ca561904e9e3a940effa716d74765df24c2e"
    },
    {
      "anonymous": false,
      "inputs": [
        {
          "indexed": false,
          "name": "description",
          "type": "string"
        },
        {
          "indexed": false,
          "name": "_maxAllowedBet",
          "type": "uint256"
        }
      ],
      "name": "logMaxAllowedBet",
      "type": "event",
      "signature": "0xadeaade94d61b1de6450a378938d3b7226431f1129423ef8b283f5991164fbc7"
    },
    {
      "constant": false,
      "inputs": [
        {
          "name": "risk",
          "type": "uint256"
        }
      ],
      "name": "rollDice",
      "outputs": [
        {
          "name": "success",
          "type": "bool"
        }
      ],
      "payable": true,
      "stateMutability": "payable",
      "type": "function",
      "signature": "0xacfff377"
    },
    {
      "constant": false,
      "inputs": [
        {
          "name": "myid",
          "type": "bytes32"
        },
        {
          "name": "result",
          "type": "string"
        }
      ],
      "name": "__callback",
      "outputs": [],
      "payable": false,
      "stateMutability": "nonpayable",
      "type": "function",
      "signature": "0x27dc297e"
    },
    {
      "constant": false,
      "inputs": [
        {
          "name": "_myid",
          "type": "bytes32"
        },
        {
          "name": "_result",
          "type": "string"
        },
        {
          "name": "_proof",
          "type": "bytes"
        }
      ],
      "name": "__callback",
      "outputs": [],
      "payable": false,
      "stateMutability": "nonpayable",
      "type": "function",
      "signature": "0x38bbfa50"
    },
    {
      "constant": true,
      "inputs": [],
      "name": "getContractBalance",
      "outputs": [
        {
          "name": "",
          "type": "uint256"
        }
      ],
      "payable": false,
      "stateMutability": "view",
      "type": "function",
      "signature": "0x6f9fb98a"
    },
    {
      "constant": false,
      "inputs": [],
      "name": "sendMoney",
      "outputs": [],
      "payable": true,
      "stateMutability": "payable",
      "type": "function",
      "signature": "0xcbedbf5a"
    },
    {
      "constant": false,
      "inputs": [],
      "name": "enableEmergency",
      "outputs": [],
      "payable": false,
      "stateMutability": "nonpayable",
      "type": "function",
      "signature": "0xe42c4e63"
    }
  ],
  "bytecode": "0x6080604052655af3107a4000600655601e600755605f6008556611c37937e080006009556000600a553480156200003557600080fd5b5033600560006101000a81548173ffffffffffffffffffffffffffffffffffffffff021916908373ffffffffffffffffffffffffffffffffffffffff160217905550736f485c8bf6fc43ea212e93bbf8ce046c7f1cb475600160006101000a81548173ffffffffffffffffffffffffffffffffffffffff021916908373ffffffffffffffffffffffffffffffffffffffff160217905550620000e7600162000140640100000000026401000000009004565b7f114356cc8b1254eb1c0a759cbf197793e81521b60f10fa8080e236421bd0c25e620001216200015d640100000000026401000000009004565b604051808215151515815260200191505060405180910390a162000174565b80600560146101000a81548160ff02191690831515021790555050565b6000600560149054906101000a900460ff16905090565b61266f80620001846000396000f3fe6080604052600436106100fc576000357c0100000000000000000000000000000000000000000000000000000000900463ffffffff168063101a4406146100fe5780631b9300e91461012957806327dc297e14610154578063382396ee1461022657806338bbfa5014610255578063426d5ef1146103be57806363a599a41461045c5780636b31ee011461048b5780636f9fb98a146104b6578063722fed7e146104e15780638da5cb5b146105105780638f32d59b14610567578063acfff37714610596578063c38a8afd146105dc578063c4e7b6a414610607578063cbe2e97e14610632578063cbedbf5a1461066f578063e42c4e6314610679575b005b34801561010a57600080fd5b50610113610690565b6040518082815260200191505060405180910390f35b34801561013557600080fd5b5061013e610696565b6040518082815260200191505060405180910390f35b34801561016057600080fd5b506102246004803603604081101561017757600080fd5b81019080803590602001909291908035906020019064010000000081111561019e57600080fd5b8201836020820111156101b057600080fd5b803590602001918460018302840111640100000000831117156101d257600080fd5b91908080601f016020809104026020016040519081016040528093929190818152602001838380828437600081840152601f19601f82011690508083019250505050505050919291929050505061069c565b005b34801561023257600080fd5b5061023b610c22565b604051808215151515815260200191505060405180910390f35b34801561026157600080fd5b506103bc6004803603606081101561027857600080fd5b81019080803590602001909291908035906020019064010000000081111561029f57600080fd5b8201836020820111156102b157600080fd5b803590602001918460018302840111640100000000831117156102d357600080fd5b91908080601f016020809104026020016040519081016040528093929190818152602001838380828437600081840152601f19601f8201169050808301925050505050505091929192908035906020019064010000000081111561033657600080fd5b82018360208201111561034857600080fd5b8035906020019184600183028401116401000000008311171561036a57600080fd5b91908080601f016020809104026020016040519081016040528093929190818152602001838380828437600081840152601f19601f820116905080830192505050505050509192919290505050610c39565b005b3480156103ca57600080fd5b506103f7600480360360208110156103e157600080fd5b8101908080359060200190929190505050610c3e565b604051808773ffffffffffffffffffffffffffffffffffffffff1673ffffffffffffffffffffffffffffffffffffffff168152602001868152602001858152602001848152602001838152602001828152602001965050505050505060405180910390f35b34801561046857600080fd5b50610471610c9a565b604051808215151515815260200191505060405180910390f35b34801561049757600080fd5b506104a0610cad565b6040518082815260200191505060405180910390f35b3480156104c257600080fd5b506104cb610cb3565b6040518082815260200191505060405180910390f35b3480156104ed57600080fd5b506104f6610cd2565b604051808215151515815260200191505060405180910390f35b34801561051c57600080fd5b50610525610ce5565b604051808273ffffffffffffffffffffffffffffffffffffffff1673ffffffffffffffffffffffffffffffffffffffff16815260200191505060405180910390f35b34801561057357600080fd5b5061057c610d0b565b604051808215151515815260200191505060405180910390f35b6105c2600480360360208110156105ac57600080fd5b8101908080359060200190929190505050610d63565b604051808215151515815260200191505060405180910390f35b3480156105e857600080fd5b506105f16111d2565b6040518082815260200191505060405180910390f35b34801561061357600080fd5b5061061c6111d8565b6040518082815260200191505060405180910390f35b34801561063e57600080fd5b5061066d6004803603602081101561065557600080fd5b810190808035151590602001909291905050506111de565b005b6106776111fb565b005b34801561068557600080fd5b5061068e6111fd565b005b60085481565b60075481565b60008090506106a961123c565b73ffffffffffffffffffffffffffffffffffffffff163373ffffffffffffffffffffffffffffffffffffffff161415156106e257600080fd5b6000600b600085815260200190815260200160002060000160009054906101000a900473ffffffffffffffffffffffffffffffffffffffff1690506000610728846115af565b905080600b6000878152602001908152602001600020600401819055506000600b60008781526020019081526020016000206002015490506000600b60008881526020019081526020016000206003015490507f07d71ce827b2c0ead9f18b5f031f0385143e283c9491b21b96713a278acfacc030888486604051808573ffffffffffffffffffffffffffffffffffffffff1673ffffffffffffffffffffffffffffffffffffffff16815260200184815260200183815260200182815260200194505050505060405180910390a18183111561080357600194505b8415610b2b57600061081582846115c3565b905080600b60008a8152602001908152602001600020600501819055507fc4cfaea7e643952941f9703b6024c682372fc04075a3bf87687287b71f0744693086868460405180806020018673ffffffffffffffffffffffffffffffffffffffff1673ffffffffffffffffffffffffffffffffffffffff1681526020018573ffffffffffffffffffffffffffffffffffffffff1673ffffffffffffffffffffffffffffffffffffffff1681526020018481526020018381526020018281038252600d8152602001807f506c617965722077696e733a20000000000000000000000000000000000000008152506020019550505050505060405180910390a1610988600954600c6000600560009054906101000a900473ffffffffffffffffffffffffffffffffffffffff1673ffffffffffffffffffffffffffffffffffffffff1673ffffffffffffffffffffffffffffffffffffffff1681526020019081526020016000205461167190919063ffffffff16565b600c6000600560009054906101000a900473ffffffffffffffffffffffffffffffffffffffff1673ffffffffffffffffffffffffffffffffffffffff1673ffffffffffffffffffffffffffffffffffffffff168152602001908152602001600020819055507fd8846f41f4f0707db7a462eb57d3e2708cb1e9cb641b44000ca2edcd8cad1b8e600560009054906101000a900473ffffffffffffffffffffffffffffffffffffffff16600c6000600560009054906101000a900473ffffffffffffffffffffffffffffffffffffffff1673ffffffffffffffffffffffffffffffffffffffff1673ffffffffffffffffffffffffffffffffffffffff1681526020019081526020016000205460405180806020018473ffffffffffffffffffffffffffffffffffffffff1673ffffffffffffffffffffffffffffffffffffffff1681526020018381526020018281038252600f8152602001807f42616c616e6365206f776e65723a200000000000000000000000000000000000815250602001935050505060405180910390a16000811115610b2957610b28858383611692565b5b505b600015158515151415610c19577f18008b5f6086bd3b79827452d1500916d620037ff83bf69d6d7e739040733d0f3085858460405180806020018673ffffffffffffffffffffffffffffffffffffffff1673ffffffffffffffffffffffffffffffffffffffff1681526020018573ffffffffffffffffffffffffffffffffffffffff1673ffffffffffffffffffffffffffffffffffffffff1681526020018481526020018381526020018281038252600d8152602001807f506c61796572206c6f73653a20000000000000000000000000000000000000008152506020019550505050505060405180910390a15b50505050505050565b6000600560149054906101000a900460ff16905090565b505050565b600b6020528060005260406000206000915090508060000160009054906101000a900473ffffffffffffffffffffffffffffffffffffffff16908060010154908060020154908060030154908060040154908060050154905086565b600560159054906101000a900460ff1681565b600a5481565b60003073ffffffffffffffffffffffffffffffffffffffff1631905090565b600560149054906101000a900460ff1681565b600560009054906101000a900473ffffffffffffffffffffffffffffffffffffffff1681565b6000600560009054906101000a900473ffffffffffffffffffffffffffffffffffffffff1673ffffffffffffffffffffffffffffffffffffffff163373ffffffffffffffffffffffffffffffffffffffff1614905090565b6000600560159054906101000a900460ff1615156111cd5760011515610d87610c22565b1515141515610d9557600080fd5b60008033905060003490506000806000610dad610cb3565b9050610db984896115c3565b9150610dce82826117c090919063ffffffff16565b9250610de46002846117e290919063ffffffff16565b92507fadeaade94d61b1de6450a378938d3b7226431f1129423ef8b283f5991164fbc7836040518080602001838152602001828103825260168152602001807f4d6178696d756d206265742061636365707465643a20000000000000000000008152506020019250505060405180910390a18084101515610e6457600080fd5b610e71846006548561180c565b1515610e7c57600080fd5b610e8b88600754600854611826565b1515610e9657600080fd5b7f0493f0ee102db9238dcfc674e3590d07343d625075476694341009d96d90553930868a87604051808573ffffffffffffffffffffffffffffffffffffffff1673ffffffffffffffffffffffffffffffffffffffff1681526020018473ffffffffffffffffffffffffffffffffffffffff1673ffffffffffffffffffffffffffffffffffffffff16815260200183815260200182815260200194505050505060405180910390a17f5c624037da372bb459131a7137f1657ae380b2419ed6071d29d957c194ed200c3086604051808373ffffffffffffffffffffffffffffffffffffffff1673ffffffffffffffffffffffffffffffffffffffff1681526020018273ffffffffffffffffffffffffffffffffffffffff1673ffffffffffffffffffffffffffffffffffffffff16815260200180602001828103825260428152602001807f4f7261636c697a6520717565727920746f2072616e646f6d2e6f72672077617381526020017f2073656e742c207374616e64696e6720627920666f722074686520616e73776581526020017f722e000000000000000000000000000000000000000000000000000000000000815250606001935050505060405180910390a161111a6040805190810160405280600381526020017f55524c0000000000000000000000000000000000000000000000000000000000815250608060405190810160405280605781526020017f68747470733a2f2f7777772e72616e646f6d2e6f72672f696e7465676572732f81526020017f3f6e756d3d31266d696e3d31266d61783d31303026636f6c3d3126626173653d81526020017f313026666f726d61743d706c61696e26726e643d6e6577000000000000000000815250611840565b955085600b60008881526020019081526020016000206001018190555084600b600088815260200190815260200160002060000160006101000a81548173ffffffffffffffffffffffffffffffffffffffff021916908373ffffffffffffffffffffffffffffffffffffffff16021790555087600b60008881526020019081526020016000206002018190555083600b600088815260200190815260200160002060030181905550600196505050505050505b919050565b60065481565b60095481565b80600560146101000a81548160ff02191690831515021790555050565b565b611205610d0b565b151561121057600080fd5b600560159054906101000a900460ff1615600560156101000a81548160ff021916908315150217905550565b60008073ffffffffffffffffffffffffffffffffffffffff16600160009054906101000a900473ffffffffffffffffffffffffffffffffffffffff1673ffffffffffffffffffffffffffffffffffffffff1614806112c4575060006112c2600160009054906101000a900473ffffffffffffffffffffffffffffffffffffffff16611df9565b145b156112d5576112d36000611e04565b505b600160009054906101000a900473ffffffffffffffffffffffffffffffffffffffff1673ffffffffffffffffffffffffffffffffffffffff166338cc48316040518163ffffffff167c0100000000000000000000000000000000000000000000000000000000028152600401602060405180830381600087803b15801561135b57600080fd5b505af115801561136f573d6000803e3d6000fd5b505050506040513d602081101561138557600080fd5b810190808051906020019092919050505073ffffffffffffffffffffffffffffffffffffffff166000809054906101000a900473ffffffffffffffffffffffffffffffffffffffff1673ffffffffffffffffffffffffffffffffffffffff161415156114ec57600160009054906101000a900473ffffffffffffffffffffffffffffffffffffffff1673ffffffffffffffffffffffffffffffffffffffff166338cc48316040518163ffffffff167c0100000000000000000000000000000000000000000000000000000000028152600401602060405180830381600087803b15801561147157600080fd5b505af1158015611485573d6000803e3d6000fd5b505050506040513d602081101561149b57600080fd5b81019080805190602001909291905050506000806101000a81548173ffffffffffffffffffffffffffffffffffffffff021916908373ffffffffffffffffffffffffffffffffffffffff1602179055505b6000809054906101000a900473ffffffffffffffffffffffffffffffffffffffff1673ffffffffffffffffffffffffffffffffffffffff1663c281d19e6040518163ffffffff167c010000000000000000000000000000000000000000000000000000000002815260040160206040518083038186803b15801561156f57600080fd5b505afa158015611583573d6000803e3d6000fd5b505050506040513d602081101561159957600080fd5b8101908080519060200190929190505050905090565b60006115bc826000611e15565b9050919050565b6000806000806000670de0b6b3a764000090506000660e35fa931a000090506115f587836120b090919063ffffffff16565b925061160b6064846117e290919063ffffffff16565b925061162083896120b090919063ffffffff16565b945061163582866117e290919063ffffffff16565b945061164c600954866117c090919063ffffffff16565b935061166181856117c090919063ffffffff16565b9350839550505050505092915050565b600080828401905083811015151561168857600080fd5b8091505092915050565b60006116a7828461167190919063ffffffff16565b9050803073ffffffffffffffffffffffffffffffffffffffff1631101515156116cf57600080fd5b7f1d1f8e36149fc07505f5876cceb2ca561904e9e3a940effa716d74765df24c2e848260405180806020018473ffffffffffffffffffffffffffffffffffffffff1673ffffffffffffffffffffffffffffffffffffffff1681526020018381526020018281038252600c8152602001807f5061792077696e6e65723a200000000000000000000000000000000000000000815250602001935050505060405180910390a18373ffffffffffffffffffffffffffffffffffffffff166108fc829081150290604051600060405180830381858888f193505050501580156117b9573d6000803e3d6000fd5b5050505050565b60008282111515156117d157600080fd5b600082840390508091505092915050565b600080821115156117f257600080fd5b600082848115156117ff57fe5b0490508091505092915050565b600082841015801561181d57508184105b90509392505050565b600082841180156118375750818411155b90509392505050565b60008073ffffffffffffffffffffffffffffffffffffffff16600160009054906101000a900473ffffffffffffffffffffffffffffffffffffffff1673ffffffffffffffffffffffffffffffffffffffff1614806118c8575060006118c6600160009054906101000a900473ffffffffffffffffffffffffffffffffffffffff16611df9565b145b156118d9576118d76000611e04565b505b600160009054906101000a900473ffffffffffffffffffffffffffffffffffffffff1673ffffffffffffffffffffffffffffffffffffffff166338cc48316040518163ffffffff167c0100000000000000000000000000000000000000000000000000000000028152600401602060405180830381600087803b15801561195f57600080fd5b505af1158015611973573d6000803e3d6000fd5b505050506040513d602081101561198957600080fd5b810190808051906020019092919050505073ffffffffffffffffffffffffffffffffffffffff166000809054906101000a900473ffffffffffffffffffffffffffffffffffffffff1673ffffffffffffffffffffffffffffffffffffffff16141515611af057600160009054906101000a900473ffffffffffffffffffffffffffffffffffffffff1673ffffffffffffffffffffffffffffffffffffffff166338cc48316040518163ffffffff167c0100000000000000000000000000000000000000000000000000000000028152600401602060405180830381600087803b158015611a7557600080fd5b505af1158015611a89573d6000803e3d6000fd5b505050506040513d6020811015611a9f57600080fd5b81019080805190602001909291905050506000806101000a81548173ffffffffffffffffffffffffffffffffffffffff021916908373ffffffffffffffffffffffffffffffffffffffff1602179055505b60008060009054906101000a900473ffffffffffffffffffffffffffffffffffffffff1673ffffffffffffffffffffffffffffffffffffffff1663524f3889856040518263ffffffff167c01000000000000000000000000000000000000000000000000000000000281526004018080602001828103825283818151815260200191508051906020019080838360005b83811015611b9b578082015181840152602081019050611b80565b50505050905090810190601f168015611bc85780820380516001836020036101000a031916815260200191505b5092505050602060405180830381600087803b158015611be757600080fd5b505af1158015611bfb573d6000803e3d6000fd5b505050506040513d6020811015611c1157600080fd5b8101908080519060200190929190505050905062030d403a02670de0b6b3a764000001811115611c48576000600102915050611df3565b6000809054906101000a900473ffffffffffffffffffffffffffffffffffffffff1673ffffffffffffffffffffffffffffffffffffffff1663adf59f9982600087876040518563ffffffff167c0100000000000000000000000000000000000000000000000000000000028152600401808481526020018060200180602001838103835285818151815260200191508051906020019080838360005b83811015611cff578082015181840152602081019050611ce4565b50505050905090810190601f168015611d2c5780820380516001836020036101000a031916815260200191505b50838103825284818151815260200191508051906020019080838360005b83811015611d65578082015181840152602081019050611d4a565b50505050905090810190601f168015611d925780820380516001836020036101000a031916815260200191505b50955050505050506020604051808303818588803b158015611db357600080fd5b505af1158015611dc7573d6000803e3d6000fd5b50505050506040513d6020811015611dde57600080fd5b81019080805190602001909291905050509150505b92915050565b6000813b9050919050565b6000611e0e6120ee565b9050919050565b600060608390506000809050600080905060008090505b83518110156120915760308482815181101515611e4557fe5b9060200101517f010000000000000000000000000000000000000000000000000000000000000090047f0100000000000000000000000000000000000000000000000000000000000000027f0100000000000000000000000000000000000000000000000000000000000000900460ff1610158015611f43575060398482815181101515611ecf57fe5b9060200101517f010000000000000000000000000000000000000000000000000000000000000090047f0100000000000000000000000000000000000000000000000000000000000000027f0100000000000000000000000000000000000000000000000000000000000000900460ff1611155b15611ff7578115611f66576000861415611f5c57612091565b8580600190039650505b600a8302925060308482815181101515611f7c57fe5b9060200101517f010000000000000000000000000000000000000000000000000000000000000090047f0100000000000000000000000000000000000000000000000000000000000000027f0100000000000000000000000000000000000000000000000000000000000000900460ff160383019250612084565b602e848281518110151561200757fe5b9060200101517f010000000000000000000000000000000000000000000000000000000000000090047f0100000000000000000000000000000000000000000000000000000000000000027f0100000000000000000000000000000000000000000000000000000000000000900460ff16141561208357600191505b5b8080600101915050611e2c565b5060008511156120a45784600a0a820291505b81935050505092915050565b6000808314156120c357600090506120e8565b600082840290508284828115156120d657fe5b041415156120e357600080fd5b809150505b92915050565b60008061210e731d3b2638a7cc9f2cb3d298a3da7a90b67e5506ed611df9565b11156121b057731d3b2638a7cc9f2cb3d298a3da7a90b67e5506ed600160006101000a81548173ffffffffffffffffffffffffffffffffffffffff021916908373ffffffffffffffffffffffffffffffffffffffff1602179055506121a76040805190810160405280600b81526020017f6574685f6d61696e6e6574000000000000000000000000000000000000000000815250612584565b60019050612581565b60006121cf73c03a2615d5efaf5f49f60b7bb6583eaec212fdf1611df9565b11156122715773c03a2615d5efaf5f49f60b7bb6583eaec212fdf1600160006101000a81548173ffffffffffffffffffffffffffffffffffffffff021916908373ffffffffffffffffffffffffffffffffffffffff1602179055506122686040805190810160405280600c81526020017f6574685f726f707374656e330000000000000000000000000000000000000000815250612584565b60019050612581565b600061229073b7a07bcf2ba2f2703b24c0691b5278999c59ac7e611df9565b11156123325773b7a07bcf2ba2f2703b24c0691b5278999c59ac7e600160006101000a81548173ffffffffffffffffffffffffffffffffffffffff021916908373ffffffffffffffffffffffffffffffffffffffff1602179055506123296040805190810160405280600981526020017f6574685f6b6f76616e0000000000000000000000000000000000000000000000815250612584565b60019050612581565b600061235173146500cfd35b22e4a392fe0adc06de1a1368ed48611df9565b11156123f35773146500cfd35b22e4a392fe0adc06de1a1368ed48600160006101000a81548173ffffffffffffffffffffffffffffffffffffffff021916908373ffffffffffffffffffffffffffffffffffffffff1602179055506123ea6040805190810160405280600b81526020017f6574685f72696e6b656279000000000000000000000000000000000000000000815250612584565b60019050612581565b6000612412736f485c8bf6fc43ea212e93bbf8ce046c7f1cb475611df9565b111561247657736f485c8bf6fc43ea212e93bbf8ce046c7f1cb475600160006101000a81548173ffffffffffffffffffffffffffffffffffffffff021916908373ffffffffffffffffffffffffffffffffffffffff16021790555060019050612581565b60006124957320e12a1f859b3feae5fb2a0a32c18f5a65555bbf611df9565b11156124f9577320e12a1f859b3feae5fb2a0a32c18f5a65555bbf600160006101000a81548173ffffffffffffffffffffffffffffffffffffffff021916908373ffffffffffffffffffffffffffffffffffffffff16021790555060019050612581565b60006125187351efaf4c8b3c9afbd5ab9f4bbc82784ab6ef8faa611df9565b111561257c577351efaf4c8b3c9afbd5ab9f4bbc82784ab6ef8faa600160006101000a81548173ffffffffffffffffffffffffffffffffffffffff021916908373ffffffffffffffffffffffffffffffffffffffff16021790555060019050612581565b600090505b90565b806002908051906020019061259a92919061259e565b5050565b828054600181600116156101000203166002900490600052602060002090601f016020900481019282601f106125df57805160ff191683800117855561260d565b8280016001018555821561260d579182015b8281111561260c5782518255916020019190600101906125f1565b5b50905061261a919061261e565b5090565b61264091905b8082111561263c576000816000905550600101612624565b5090565b9056fea165627a7a72305820876238be5c815476ac07f126d54139716cf559c4cbacb85d58621c5068c47bdc0029",
  "source": "pragma solidity ^0.5.0;\n\nimport \"./Ownable.sol\";\nimport \"./oraclizeAPI.sol\";\nimport \"./SafeMath.sol\";\nimport \"./DiceLib.sol\";\nimport \"./StartStopGame.sol\";\n\n\n/** @title Dice - Dice game\n  * @author Rodrigo Gmez Gentil, Antonio Cruz Surez\n */\n\ncontract Dice is usingOraclize, Ownable, StartStopGame {\n\n    using SafeMath for uint;\n\n    bool public emergencyStop;\n    \n    modifier noEmergency \n    { \n        if (!emergencyStop) \n        _;\n    }\n    \n    modifier inEmergency \n    {\n        if (emergencyStop) \n        _;\n    }\n\n    uint public minimumBet = 0.0001 ether;\n    uint public minimumRisk = 30;\n    uint public maximumRisk = 95;\n    uint public feeJackpot =  5000000000000000;  // Fund to jackpot 0.005 ether as a fee\n    \n    uint public jackpot = 0;\n    \n    // All oraclize calls will result in a common callback to __callback(...).\n    struct oraclizeCallback {\n        address payable player;\n        bytes32 queryId;\n        uint    risk;\n        uint    betAmount;\n        uint    rolledDiceNumber;\n        uint    profit;\n    }\n\n     mapping (bytes32 => oraclizeCallback) public oraclizeCallbacks;\n     mapping (address => uint) private balances;\n\n    // Events\n    event logPlayerBetAccepted(address _contract, address _player, uint _risk, uint _bet);\n    event logRollDice(address _contract, address _player, string _description);\n    event logRolledDiceNumber(address _contract, bytes32 _oraclizeQueryId, uint _risk, uint _rolledDiceNumber);\n    event logPlayerLose(string description, address _contract, address _player, uint _rolledDiceNumber, uint _betAmount);\n    event logPlayerWins(string description, address _contract, address _winner, uint _rolledDiceNumber, uint _profit);\n    event logGameStatus(bool _status);\n    event logNewOraclizeQuery(string description);\n    event logContractBalance(uint _contractBalance);\n    event logJackpotBalance(string description, address _ownerAddress, uint _ownerBalance);\n    event logPayWinner(string description, address _playerAddress, uint _winAmount);\n    event logMaxAllowedBet(string description, uint _maxAllowedBet);\n\n\n    constructor() \n    public\n    {\n        // Replace the next line with your version:\n        OAR = OraclizeAddrResolverI(0x6f485C8BF6fc43eA212E93BBF8ce046C7f1cb475);\n        setGameStatus(true);\n        emit logGameStatus(getGameStatus());\n\n    }\n\n    function rollDice(uint risk) \n        public \n        noEmergency\n        gameIsOn\n        payable\n        returns (bool success)\n    {\n        \n        bytes32 oraclizeQueryId;        \n        address payable player = msg.sender;                \n\n        uint betAmount = msg.value; \n        uint maximumBet;\n        uint netPossibleProfit;\n        uint contractBalance = getContractBalance();\n\n\n        netPossibleProfit = calculateProfit(betAmount, risk);\n        maximumBet = contractBalance.sub(netPossibleProfit);\n        maximumBet = maximumBet.div(2); \n        emit logMaxAllowedBet(\"Maximum bet accepted: \", maximumBet);\n\n        require(betAmount < contractBalance);       \n        require(DiceLib.isValidBet(betAmount, minimumBet, maximumBet));\n        require(DiceLib.isValidRisk(risk, minimumRisk, maximumRisk));\n        emit logPlayerBetAccepted(address(this), player, risk, betAmount);\n\n        // Making oraclized query to random.org.\n        emit logRollDice(address(this), player, \"Oraclize query to random.org was sent, standing by for the answer.\");\n        oraclizeQueryId = oraclize_query(\"URL\", \"https://www.random.org/integers/?num=1&min=1&max=100&col=1&base=10&format=plain&rnd=new\");\n\n        // Saving the struct        \n        oraclizeCallbacks[oraclizeQueryId].queryId = oraclizeQueryId;\n        oraclizeCallbacks[oraclizeQueryId].player = player;\n        oraclizeCallbacks[oraclizeQueryId].risk = risk;\n        oraclizeCallbacks[oraclizeQueryId].betAmount = betAmount;\n\n        return true;\n    }\n\n\n   /**\n    * @notice Callback function to emit the events with the information we want.\n    * @dev Get the querys using the parameter myid\n    * @param myid The id of the query\n    * @param result The result of the query\n    */\n\n    function __callback(bytes32 myid, string memory result) \n    public\n    {\n        \n\n        bool playerWins = false;     \n          \n\n        require (msg.sender == oraclize_cbAddress());\n        \n        address payable player = oraclizeCallbacks[myid].player;       \n        uint rolledDiceNumber = parseInt(result); \n        oraclizeCallbacks[myid].rolledDiceNumber = rolledDiceNumber;   \n        uint risk = oraclizeCallbacks[myid].risk;\n        uint betAmount = oraclizeCallbacks[myid].betAmount;     \n        emit logRolledDiceNumber(address(this), myid, risk, rolledDiceNumber);\n\n\n         // If the number of the rolled dice is higher than the assumed risk then the player wins\n         if(rolledDiceNumber > risk) {\n             playerWins = true;\n        }\n           \n        if(playerWins) {\n            \n            // Calculate player profit    \n            uint netProfit = calculateProfit(betAmount, risk);\n \n            oraclizeCallbacks[myid].profit = netProfit;  \n            emit logPlayerWins(\"Player wins: \", address(this), player, rolledDiceNumber, netProfit);\n\n            // Increase jackpot\n            balances[owner] = balances[owner].add(feeJackpot);\n            emit logJackpotBalance(\"Balance owner: \", owner, balances[owner]);            \n\n             if(netProfit > 0) {             \n                 payWinner(player, betAmount, netProfit);          \n             }\n            \n         }\n\n         if(playerWins==false) {\n             emit logPlayerLose(\"Player lose: \",address(this), player, rolledDiceNumber, betAmount);\n        }\n\n    }\n\n  \n    function getContractBalance()\n        public\n        view\n        returns (uint)\n    {\n        return (address(this).balance);\n    }\n\n \n    /** \n     * @notice Fallback function - Called if other functions don't match call or sent ether \n     * The sender's money is transferred to contract\n     */\n    function () external payable{ \n    }\n\n    /** \n     * @notice sendMoney function is equivalent to fallback function\n     * The sender's money is transferred to contract\n     */\n    function sendMoney() public payable{ \n    }\n\n    function calculateProfit(uint betAmount, uint risk) \n    private\n    view \n    returns (uint)\n    {\n        uint grossProfit;\n        uint netProfit;\n        uint riskPercentage;\n        uint feeUnits = 1000000000000000000;\n        uint feeOraclize = 4000000000000000; // Oraclize service charges 0.004 Ether as a fee for querying random.org\n\n       \n        riskPercentage = feeUnits.mul(risk); \n        riskPercentage = riskPercentage.div(100);\n        grossProfit = betAmount.mul(riskPercentage);\n        grossProfit = grossProfit.div(feeUnits);               \n        netProfit = grossProfit.sub(feeJackpot);\n        netProfit = netProfit.sub(feeOraclize);\n\n        return (netProfit);\n\n    }\n    function payWinner(address payable _player, uint _betAmount, uint _netProfit) \n    private \n    {\n        uint winAmount = _betAmount.add(_netProfit);\n        require( address(this).balance >= winAmount );\n        emit logPayWinner(\"Pay winner: \", _player, winAmount);            \n        _player.transfer(winAmount);\n    }\n\n   /**\n    * @notice Enable the emergency stop.\n    * @dev Owner of the smart contract activate the emergency stop.\n    */\n    function enableEmergency() \n        public \n        onlyOwner\n    {\n        emergencyStop = !emergencyStop;        \n    }\n\n}",
  "sourcePath": "/home/antonio/src/TFM/BLOCKCHAINTFM/RPS_Dapp/contracts/Dice.sol",
  "compiler": {
    "name": "solc",
    "version": "0.5.0+commit.1d4f565a.Emscripten.clang"
  },
  "schemaVersion": "3.0.2",
  "updatedAt": "2019-03-02T17:38:02.023Z",
  "devdoc": {
    "author": "Rodrigo Gmez Gentil, Antonio Cruz Surez",
    "methods": {
      "__callback(bytes32,string)": {
        "details": "Get the querys using the parameter myid",
        "params": {
          "myid": "The id of the query",
          "result": "The result of the query"
        }
      },
      "enableEmergency()": {
        "details": "Owner of the smart contract activate the emergency stop."
      }
    },
    "title": "Dice - Dice game"
  },
  "userdoc": {
    "methods": {
      "__callback(bytes32,string)": {
        "notice": "Callback function to emit the events with the information we want."
      },
      "enableEmergency()": {
        "notice": "Enable the emergency stop."
      },
      "sendMoney()": {
        "notice": "sendMoney function is equivalent to fallback function The sender's money is transferred to contract"
      }
    }
  }
}