{
  "contractName": "Dice",
  "abi": [
    {
      "constant": true,
      "inputs": [
        {
          "name": "",
          "type": "bytes32"
        }
      ],
      "name": "oraclizeCallbacks",
      "outputs": [
        {
          "name": "player",
          "type": "address"
        },
        {
          "name": "queryId",
          "type": "bytes32"
        },
        {
          "name": "risk",
          "type": "uint256"
        },
        {
          "name": "betAmount",
          "type": "uint256"
        },
        {
          "name": "rolledDiceNumber",
          "type": "uint256"
        },
        {
          "name": "winAmount",
          "type": "uint256"
        }
      ],
      "payable": false,
      "stateMutability": "view",
      "type": "function",
      "signature": "0x426d5ef1"
    },
    {
      "constant": true,
      "inputs": [],
      "name": "RANDOMNUMBER",
      "outputs": [
        {
          "name": "",
          "type": "string"
        }
      ],
      "payable": false,
      "stateMutability": "view",
      "type": "function",
      "signature": "0x5ffdc8da"
    },
    {
      "constant": true,
      "inputs": [],
      "name": "owner",
      "outputs": [
        {
          "name": "",
          "type": "address"
        }
      ],
      "payable": false,
      "stateMutability": "view",
      "type": "function",
      "signature": "0x8da5cb5b"
    },
    {
      "constant": true,
      "inputs": [],
      "name": "isOwner",
      "outputs": [
        {
          "name": "",
          "type": "bool"
        }
      ],
      "payable": false,
      "stateMutability": "view",
      "type": "function",
      "signature": "0x8f32d59b"
    },
    {
      "inputs": [],
      "payable": false,
      "stateMutability": "nonpayable",
      "type": "constructor",
      "signature": "constructor"
    },
    {
      "anonymous": false,
      "inputs": [
        {
          "indexed": false,
          "name": "_contract",
          "type": "address"
        },
        {
          "indexed": false,
          "name": "_player",
          "type": "address"
        },
        {
          "indexed": false,
          "name": "_risk",
          "type": "uint256"
        },
        {
          "indexed": false,
          "name": "_bet",
          "type": "uint256"
        }
      ],
      "name": "logPlayerBetAccepted",
      "type": "event",
      "signature": "0x0493f0ee102db9238dcfc674e3590d07343d625075476694341009d96d905539"
    },
    {
      "anonymous": false,
      "inputs": [
        {
          "indexed": false,
          "name": "_contract",
          "type": "address"
        },
        {
          "indexed": false,
          "name": "_player",
          "type": "address"
        },
        {
          "indexed": false,
          "name": "_description",
          "type": "string"
        }
      ],
      "name": "logRollDice",
      "type": "event",
      "signature": "0x5c624037da372bb459131a7137f1657ae380b2419ed6071d29d957c194ed200c"
    },
    {
      "anonymous": false,
      "inputs": [
        {
          "indexed": false,
          "name": "_contract",
          "type": "address"
        },
        {
          "indexed": false,
          "name": "_player",
          "type": "address"
        },
        {
          "indexed": false,
          "name": "_randomOrgQueryId",
          "type": "bytes32"
        }
      ],
      "name": "logNumberGeneratorQuery",
      "type": "event",
      "signature": "0x460c6f71b1f597b6603949694ea141f0e03fd94ea5fd49bb49126618aae0b39c"
    },
    {
      "anonymous": false,
      "inputs": [
        {
          "indexed": false,
          "name": "_contract",
          "type": "address"
        },
        {
          "indexed": false,
          "name": "_randomOrgQueryId",
          "type": "bytes32"
        }
      ],
      "name": "logAwaitingRandomOrgCallback",
      "type": "event",
      "signature": "0xd0003259c4aba2ef8ef74b1f9fb140c991a8fe2234a9b76c7fb773abde650243"
    },
    {
      "anonymous": false,
      "inputs": [
        {
          "indexed": false,
          "name": "_contract",
          "type": "address"
        },
        {
          "indexed": false,
          "name": "_oraclizeQueryId",
          "type": "bytes32"
        }
      ],
      "name": "logRandomOrgCallback",
      "type": "event",
      "signature": "0x58ff534695d3cb1f104c2f574021d6bb4e0f78af7a4505d273650c56855a9992"
    },
    {
      "anonymous": false,
      "inputs": [
        {
          "indexed": false,
          "name": "_contract",
          "type": "address"
        },
        {
          "indexed": false,
          "name": "_player",
          "type": "address"
        },
        {
          "indexed": false,
          "name": "_oraclizeQueryId",
          "type": "bytes32"
        },
        {
          "indexed": false,
          "name": "_oraclizeResponse",
          "type": "string"
        }
      ],
      "name": "logNumberGeneratorResponse",
      "type": "event",
      "signature": "0x3d70bfeeb0c3d0a243c6f9c047908643f8803fcadcb771a0536c719c0ac3d048"
    },
    {
      "anonymous": false,
      "inputs": [
        {
          "indexed": false,
          "name": "_contract",
          "type": "address"
        },
        {
          "indexed": false,
          "name": "_oraclizeQueryId",
          "type": "bytes32"
        },
        {
          "indexed": false,
          "name": "_risk",
          "type": "uint256"
        },
        {
          "indexed": false,
          "name": "_rolledDiceNumber",
          "type": "uint256"
        }
      ],
      "name": "logRolledDiceNumber",
      "type": "event",
      "signature": "0x07d71ce827b2c0ead9f18b5f031f0385143e283c9491b21b96713a278acfacc0"
    },
    {
      "anonymous": false,
      "inputs": [
        {
          "indexed": false,
          "name": "_contract",
          "type": "address"
        },
        {
          "indexed": false,
          "name": "_rolledDiceNumber",
          "type": "uint256"
        },
        {
          "indexed": false,
          "name": "_risk",
          "type": "uint256"
        }
      ],
      "name": "logDidNotWin",
      "type": "event",
      "signature": "0x0afb7bb539ad95b3ec1b7d861f6f45e019300d2414b672020a341a07b1e6be0b"
    },
    {
      "anonymous": false,
      "inputs": [
        {
          "indexed": false,
          "name": "_contract",
          "type": "address"
        },
        {
          "indexed": false,
          "name": "_winner",
          "type": "address"
        },
        {
          "indexed": false,
          "name": "_rolledDiceNumber",
          "type": "uint256"
        },
        {
          "indexed": false,
          "name": "_winAmount",
          "type": "uint256"
        }
      ],
      "name": "logPlayerWins",
      "type": "event",
      "signature": "0x759bcb5dedbd5557896ac272c39157e05ec2925664ff7ca23deadfd2223ef6c4"
    },
    {
      "anonymous": false,
      "inputs": [
        {
          "indexed": false,
          "name": "_contract",
          "type": "address"
        },
        {
          "indexed": false,
          "name": "_winner",
          "type": "address"
        },
        {
          "indexed": false,
          "name": "_rolledDiceNumber",
          "type": "uint256"
        },
        {
          "indexed": false,
          "name": "_winAmount",
          "type": "uint256"
        }
      ],
      "name": "logPlayerCashout",
      "type": "event",
      "signature": "0x128063100b64d7634fafc94ab8b7d165ed6f57f9880bca0a211af5fdcf4f362a"
    },
    {
      "anonymous": false,
      "inputs": [
        {
          "indexed": false,
          "name": "_contract",
          "type": "address"
        }
      ],
      "name": "logGameFinalized",
      "type": "event",
      "signature": "0x13a03af93341a749555026eb086c5f2ca87523fad25ac13181fbeee3088dcfe4"
    },
    {
      "anonymous": false,
      "inputs": [
        {
          "indexed": false,
          "name": "description",
          "type": "string"
        }
      ],
      "name": "logNewOraclizeQuery",
      "type": "event",
      "signature": "0xd0f9dea447b4e92bc04cc421beba62dbef9e0f6d77e1d798c15ff591941edd70"
    },
    {
      "constant": false,
      "inputs": [
        {
          "name": "risk",
          "type": "uint256"
        }
      ],
      "name": "rollDice",
      "outputs": [
        {
          "name": "success",
          "type": "bool"
        }
      ],
      "payable": true,
      "stateMutability": "payable",
      "type": "function",
      "signature": "0xacfff377"
    },
    {
      "constant": false,
      "inputs": [
        {
          "name": "myid",
          "type": "bytes32"
        },
        {
          "name": "result",
          "type": "string"
        }
      ],
      "name": "__callback",
      "outputs": [],
      "payable": false,
      "stateMutability": "nonpayable",
      "type": "function",
      "signature": "0x27dc297e"
    },
    {
      "constant": false,
      "inputs": [
        {
          "name": "_myid",
          "type": "bytes32"
        },
        {
          "name": "_result",
          "type": "string"
        },
        {
          "name": "_proof",
          "type": "bytes"
        }
      ],
      "name": "__callback",
      "outputs": [],
      "payable": false,
      "stateMutability": "nonpayable",
      "type": "function",
      "signature": "0x38bbfa50"
    },
    {
      "constant": true,
      "inputs": [
        {
          "name": "oraclizeQueryId",
          "type": "bytes32"
        }
      ],
      "name": "gameStatus",
      "outputs": [
        {
          "name": "",
          "type": "address"
        },
        {
          "name": "",
          "type": "uint256"
        },
        {
          "name": "",
          "type": "uint256"
        },
        {
          "name": "",
          "type": "uint256"
        },
        {
          "name": "",
          "type": "uint256"
        }
      ],
      "payable": false,
      "stateMutability": "view",
      "type": "function",
      "signature": "0xf0942d35"
    },
    {
      "constant": true,
      "inputs": [],
      "name": "getContractBalance",
      "outputs": [
        {
          "name": "",
          "type": "uint256"
        }
      ],
      "payable": false,
      "stateMutability": "view",
      "type": "function",
      "signature": "0x6f9fb98a"
    }
  ],
  "bytecode": "0x608060405234801561001057600080fd5b5033600560006101000a81548173ffffffffffffffffffffffffffffffffffffffff021916908373ffffffffffffffffffffffffffffffffffffffff160217905550736f485c8bf6fc43ea212e93bbf8ce046c7f1cb475600160006101000a81548173ffffffffffffffffffffffffffffffffffffffff021916908373ffffffffffffffffffffffffffffffffffffffff160217905550655af3107a40006006819055506129e0806100c36000396000f3fe608060405260043610610099576000357c0100000000000000000000000000000000000000000000000000000000900463ffffffff16806327dc297e1461009e57806338bbfa5014610170578063426d5ef1146102d95780635ffdc8da146103775780636f9fb98a146104075780638da5cb5b146104325780638f32d59b14610489578063acfff377146104b8578063f0942d35146104fe575b600080fd5b3480156100aa57600080fd5b5061016e600480360360408110156100c157600080fd5b8101908080359060200190929190803590602001906401000000008111156100e857600080fd5b8201836020820111156100fa57600080fd5b8035906020019184600183028401116401000000008311171561011c57600080fd5b91908080601f016020809104026020016040519081016040528093929190818152602001838380828437600081840152601f19601f820116905080830192505050505050509192919290505050610595565b005b34801561017c57600080fd5b506102d76004803603606081101561019357600080fd5b8101908080359060200190929190803590602001906401000000008111156101ba57600080fd5b8201836020820111156101cc57600080fd5b803590602001918460018302840111640100000000831117156101ee57600080fd5b91908080601f016020809104026020016040519081016040528093929190818152602001838380828437600081840152601f19601f8201169050808301925050505050505091929192908035906020019064010000000081111561025157600080fd5b82018360208201111561026357600080fd5b8035906020019184600183028401116401000000008311171561028557600080fd5b91908080601f016020809104026020016040519081016040528093929190818152602001838380828437600081840152601f19601f820116905080830192505050505050509192919290505050610be6565b005b3480156102e557600080fd5b50610312600480360360208110156102fc57600080fd5b8101908080359060200190929190505050610beb565b604051808773ffffffffffffffffffffffffffffffffffffffff1673ffffffffffffffffffffffffffffffffffffffff168152602001868152602001858152602001848152602001838152602001828152602001965050505050505060405180910390f35b34801561038357600080fd5b5061038c610c47565b6040518080602001828103825283818151815260200191508051906020019080838360005b838110156103cc5780820151818401526020810190506103b1565b50505050905090810190601f1680156103f95780820380516001836020036101000a031916815260200191505b509250505060405180910390f35b34801561041357600080fd5b5061041c610ce5565b6040518082815260200191505060405180910390f35b34801561043e57600080fd5b50610447610d04565b604051808273ffffffffffffffffffffffffffffffffffffffff1673ffffffffffffffffffffffffffffffffffffffff16815260200191505060405180910390f35b34801561049557600080fd5b5061049e610d2a565b604051808215151515815260200191505060405180910390f35b6104e4600480360360208110156104ce57600080fd5b8101908080359060200190929190505050610d82565b604051808215151515815260200191505060405180910390f35b34801561050a57600080fd5b506105376004803603602081101561052157600080fd5b81019080803590602001909291905050506113b6565b604051808673ffffffffffffffffffffffffffffffffffffffff1673ffffffffffffffffffffffffffffffffffffffff1681526020018581526020018481526020018381526020018281526020019550505050505060405180910390f35b600080905060007f58ff534695d3cb1f104c2f574021d6bb4e0f78af7a4505d273650c56855a99923085604051808373ffffffffffffffffffffffffffffffffffffffff1673ffffffffffffffffffffffffffffffffffffffff1681526020018281526020019250505060405180910390a161060f611481565b73ffffffffffffffffffffffffffffffffffffffff163373ffffffffffffffffffffffffffffffffffffffff1614151561064857600080fd5b60006008600086815260200190815260200160002060000160009054906101000a900473ffffffffffffffffffffffffffffffffffffffff1690507f3d70bfeeb0c3d0a243c6f9c047908643f8803fcadcb771a0536c719c0ac3d04830338787604051808573ffffffffffffffffffffffffffffffffffffffff1673ffffffffffffffffffffffffffffffffffffffff1681526020018473ffffffffffffffffffffffffffffffffffffffff1673ffffffffffffffffffffffffffffffffffffffff16815260200183815260200180602001828103825283818151815260200191508051906020019080838360005b83811015610752578082015181840152602081019050610737565b50505050905090810190601f16801561077f5780820380516001836020036101000a031916815260200191505b509550505050505060405180910390a1600061079a856117f4565b90508060086000888152602001908152602001600020600401819055506000600860008881526020019081526020016000206002015490506000600860008981526020019081526020016000206003015490507f07d71ce827b2c0ead9f18b5f031f0385143e283c9491b21b96713a278acfacc030898486604051808573ffffffffffffffffffffffffffffffffffffffff1673ffffffffffffffffffffffffffffffffffffffff16815260200184815260200183815260200182815260200194505050505060405180910390a18183111561087557600195505b8515610af857601e8211801561088b5750602882105b156108a3576064608e820281151561089f57fe5b0494505b6028821180156108b35750603282105b156108cb57606460c382028115156108c757fe5b0494505b6032821180156108db5750603c82105b156108f457606461012582028115156108f057fe5b0494505b603c82111561091157606461024d820281151561090d57fe5b0494505b7f759bcb5dedbd5557896ac272c39157e05ec2925664ff7ca23deadfd2223ef6c430858588604051808573ffffffffffffffffffffffffffffffffffffffff1673ffffffffffffffffffffffffffffffffffffffff1681526020018473ffffffffffffffffffffffffffffffffffffffff1673ffffffffffffffffffffffffffffffffffffffff16815260200183815260200182815260200194505050505060405180910390a16000851115610af757600060046064878115156109d157fe5b040290506000660e35fa931a00009050818703965080870396503373ffffffffffffffffffffffffffffffffffffffff166108fc889081150290604051600060405180830381858888f19350505050158015610a31573d6000803e3d6000fd5b5086600860008c8152602001908152602001600020600501819055507f128063100b64d7634fafc94ab8b7d165ed6f57f9880bca0a211af5fdcf4f362a3087878a604051808573ffffffffffffffffffffffffffffffffffffffff1673ffffffffffffffffffffffffffffffffffffffff1681526020018473ffffffffffffffffffffffffffffffffffffffff1673ffffffffffffffffffffffffffffffffffffffff16815260200183815260200182815260200194505050505060405180910390a150505b5b600015158615151415610bdc577f0afb7bb539ad95b3ec1b7d861f6f45e019300d2414b672020a341a07b1e6be0b308484604051808473ffffffffffffffffffffffffffffffffffffffff1673ffffffffffffffffffffffffffffffffffffffff168152602001838152602001828152602001935050505060405180910390a17f13a03af93341a749555026eb086c5f2ca87523fad25ac13181fbeee3088dcfe430604051808273ffffffffffffffffffffffffffffffffffffffff1673ffffffffffffffffffffffffffffffffffffffff16815260200191505060405180910390a15b5050505050505050565b505050565b60086020528060005260406000206000915090508060000160009054906101000a900473ffffffffffffffffffffffffffffffffffffffff16908060010154908060020154908060030154908060040154908060050154905086565b60078054600181600116156101000203166002900480601f016020809104026020016040519081016040528092919081815260200182805460018160011615610100020316600290048015610cdd5780601f10610cb257610100808354040283529160200191610cdd565b820191906000526020600020905b815481529060010190602001808311610cc057829003601f168201915b505050505081565b60003073ffffffffffffffffffffffffffffffffffffffff1631905090565b600560009054906101000a900473ffffffffffffffffffffffffffffffffffffffff1681565b6000600560009054906101000a900473ffffffffffffffffffffffffffffffffffffffff1673ffffffffffffffffffffffffffffffffffffffff163373ffffffffffffffffffffffffffffffffffffffff1614905090565b600080600033905060003490506006548110151515610da057600080fd5b7f0493f0ee102db9238dcfc674e3590d07343d625075476694341009d96d90553930838784604051808573ffffffffffffffffffffffffffffffffffffffff1673ffffffffffffffffffffffffffffffffffffffff1681526020018473ffffffffffffffffffffffffffffffffffffffff1673ffffffffffffffffffffffffffffffffffffffff16815260200183815260200182815260200194505050505060405180910390a17f5c624037da372bb459131a7137f1657ae380b2419ed6071d29d957c194ed200c3083604051808373ffffffffffffffffffffffffffffffffffffffff1673ffffffffffffffffffffffffffffffffffffffff1681526020018273ffffffffffffffffffffffffffffffffffffffff1673ffffffffffffffffffffffffffffffffffffffff16815260200180602001828103825260398152602001807f517565727920746f2072616e646f6d2e6f7267207761732073656e742c20737481526020017f616e64696e6720627920666f722074686520616e737765722e00000000000000815250604001935050505060405180910390a160148511156112f7573073ffffffffffffffffffffffffffffffffffffffff1631610f9c6040805190810160405280600381526020017f55524c0000000000000000000000000000000000000000000000000000000000815250611808565b111561105b577fd0f9dea447b4e92bc04cc421beba62dbef9e0f6d77e1d798c15ff591941edd7060405180806020018281038252604b8152602001807f4f7261636c697a6520717565727920776173204e4f542073656e742c20706c6581526020017f6173652061646420736f6d652045544820746f20636f76657220666f7220746881526020017f652071756572792066656500000000000000000000000000000000000000000081525060600191505060405180910390a16111ad565b7fd0f9dea447b4e92bc04cc421beba62dbef9e0f6d77e1d798c15ff591941edd706040518080602001828103825260358152602001807f4f7261636c697a65207175657279207761732073656e742c207374616e64696e81526020017f6720627920666f722074686520616e737765722e2e000000000000000000000081525060400191505060405180910390a16111aa6040805190810160405280600381526020017f55524c0000000000000000000000000000000000000000000000000000000000815250608060405190810160405280605781526020017f68747470733a2f2f7777772e72616e646f6d2e6f72672f696e7465676572732f81526020017f3f6e756d3d31266d696e3d31266d61783d31303026636f6c3d3126626173653d81526020017f313026666f726d61743d706c61696e26726e643d6e6577000000000000000000815250611bef565b92505b826008600085815260200190815260200160002060010181905550816008600085815260200190815260200160002060000160006101000a81548173ffffffffffffffffffffffffffffffffffffffff021916908373ffffffffffffffffffffffffffffffffffffffff1602179055508460086000858152602001908152602001600020600201819055508060086000858152602001908152602001600020600301819055507f460c6f71b1f597b6603949694ea141f0e03fd94ea5fd49bb49126618aae0b39c308385604051808473ffffffffffffffffffffffffffffffffffffffff1673ffffffffffffffffffffffffffffffffffffffff1681526020018373ffffffffffffffffffffffffffffffffffffffff1673ffffffffffffffffffffffffffffffffffffffff168152602001828152602001935050505060405180910390a161133f565b3373ffffffffffffffffffffffffffffffffffffffff166108fc349081150290604051600060405180830381858888f1935050505015801561133d573d6000803e3d6000fd5b505b7fd0003259c4aba2ef8ef74b1f9fb140c991a8fe2234a9b76c7fb773abde6502433084604051808373ffffffffffffffffffffffffffffffffffffffff1673ffffffffffffffffffffffffffffffffffffffff1681526020018281526020019250505060405180910390a160019350505050919050565b6000806000806000806008600088815260200190815260200160002060000160009054906101000a900473ffffffffffffffffffffffffffffffffffffffff1690506000600860008981526020019081526020016000206002015490506000600860008a81526020019081526020016000206004015490506000600860008b81526020019081526020016000206003015490506000600860008c8152602001908152602001600020600501549050848484848499509950995099509950505050505091939590929450565b60008073ffffffffffffffffffffffffffffffffffffffff16600160009054906101000a900473ffffffffffffffffffffffffffffffffffffffff1673ffffffffffffffffffffffffffffffffffffffff16148061150957506000611507600160009054906101000a900473ffffffffffffffffffffffffffffffffffffffff166121a8565b145b1561151a5761151860006121b3565b505b600160009054906101000a900473ffffffffffffffffffffffffffffffffffffffff1673ffffffffffffffffffffffffffffffffffffffff166338cc48316040518163ffffffff167c0100000000000000000000000000000000000000000000000000000000028152600401602060405180830381600087803b1580156115a057600080fd5b505af11580156115b4573d6000803e3d6000fd5b505050506040513d60208110156115ca57600080fd5b810190808051906020019092919050505073ffffffffffffffffffffffffffffffffffffffff166000809054906101000a900473ffffffffffffffffffffffffffffffffffffffff1673ffffffffffffffffffffffffffffffffffffffff1614151561173157600160009054906101000a900473ffffffffffffffffffffffffffffffffffffffff1673ffffffffffffffffffffffffffffffffffffffff166338cc48316040518163ffffffff167c0100000000000000000000000000000000000000000000000000000000028152600401602060405180830381600087803b1580156116b657600080fd5b505af11580156116ca573d6000803e3d6000fd5b505050506040513d60208110156116e057600080fd5b81019080805190602001909291905050506000806101000a81548173ffffffffffffffffffffffffffffffffffffffff021916908373ffffffffffffffffffffffffffffffffffffffff1602179055505b6000809054906101000a900473ffffffffffffffffffffffffffffffffffffffff1673ffffffffffffffffffffffffffffffffffffffff1663c281d19e6040518163ffffffff167c010000000000000000000000000000000000000000000000000000000002815260040160206040518083038186803b1580156117b457600080fd5b505afa1580156117c8573d6000803e3d6000fd5b505050506040513d60208110156117de57600080fd5b8101908080519060200190929190505050905090565b60006118018260006121c4565b9050919050565b60008073ffffffffffffffffffffffffffffffffffffffff16600160009054906101000a900473ffffffffffffffffffffffffffffffffffffffff1673ffffffffffffffffffffffffffffffffffffffff1614806118905750600061188e600160009054906101000a900473ffffffffffffffffffffffffffffffffffffffff166121a8565b145b156118a15761189f60006121b3565b505b600160009054906101000a900473ffffffffffffffffffffffffffffffffffffffff1673ffffffffffffffffffffffffffffffffffffffff166338cc48316040518163ffffffff167c0100000000000000000000000000000000000000000000000000000000028152600401602060405180830381600087803b15801561192757600080fd5b505af115801561193b573d6000803e3d6000fd5b505050506040513d602081101561195157600080fd5b810190808051906020019092919050505073ffffffffffffffffffffffffffffffffffffffff166000809054906101000a900473ffffffffffffffffffffffffffffffffffffffff1673ffffffffffffffffffffffffffffffffffffffff16141515611ab857600160009054906101000a900473ffffffffffffffffffffffffffffffffffffffff1673ffffffffffffffffffffffffffffffffffffffff166338cc48316040518163ffffffff167c0100000000000000000000000000000000000000000000000000000000028152600401602060405180830381600087803b158015611a3d57600080fd5b505af1158015611a51573d6000803e3d6000fd5b505050506040513d6020811015611a6757600080fd5b81019080805190602001909291905050506000806101000a81548173ffffffffffffffffffffffffffffffffffffffff021916908373ffffffffffffffffffffffffffffffffffffffff1602179055505b6000809054906101000a900473ffffffffffffffffffffffffffffffffffffffff1673ffffffffffffffffffffffffffffffffffffffff1663524f3889836040518263ffffffff167c01000000000000000000000000000000000000000000000000000000000281526004018080602001828103825283818151815260200191508051906020019080838360005b83811015611b61578082015181840152602081019050611b46565b50505050905090810190601f168015611b8e5780820380516001836020036101000a031916815260200191505b5092505050602060405180830381600087803b158015611bad57600080fd5b505af1158015611bc1573d6000803e3d6000fd5b505050506040513d6020811015611bd757600080fd5b81019080805190602001909291905050509050919050565b60008073ffffffffffffffffffffffffffffffffffffffff16600160009054906101000a900473ffffffffffffffffffffffffffffffffffffffff1673ffffffffffffffffffffffffffffffffffffffff161480611c7757506000611c75600160009054906101000a900473ffffffffffffffffffffffffffffffffffffffff166121a8565b145b15611c8857611c8660006121b3565b505b600160009054906101000a900473ffffffffffffffffffffffffffffffffffffffff1673ffffffffffffffffffffffffffffffffffffffff166338cc48316040518163ffffffff167c0100000000000000000000000000000000000000000000000000000000028152600401602060405180830381600087803b158015611d0e57600080fd5b505af1158015611d22573d6000803e3d6000fd5b505050506040513d6020811015611d3857600080fd5b810190808051906020019092919050505073ffffffffffffffffffffffffffffffffffffffff166000809054906101000a900473ffffffffffffffffffffffffffffffffffffffff1673ffffffffffffffffffffffffffffffffffffffff16141515611e9f57600160009054906101000a900473ffffffffffffffffffffffffffffffffffffffff1673ffffffffffffffffffffffffffffffffffffffff166338cc48316040518163ffffffff167c0100000000000000000000000000000000000000000000000000000000028152600401602060405180830381600087803b158015611e2457600080fd5b505af1158015611e38573d6000803e3d6000fd5b505050506040513d6020811015611e4e57600080fd5b81019080805190602001909291905050506000806101000a81548173ffffffffffffffffffffffffffffffffffffffff021916908373ffffffffffffffffffffffffffffffffffffffff1602179055505b60008060009054906101000a900473ffffffffffffffffffffffffffffffffffffffff1673ffffffffffffffffffffffffffffffffffffffff1663524f3889856040518263ffffffff167c01000000000000000000000000000000000000000000000000000000000281526004018080602001828103825283818151815260200191508051906020019080838360005b83811015611f4a578082015181840152602081019050611f2f565b50505050905090810190601f168015611f775780820380516001836020036101000a031916815260200191505b5092505050602060405180830381600087803b158015611f9657600080fd5b505af1158015611faa573d6000803e3d6000fd5b505050506040513d6020811015611fc057600080fd5b8101908080519060200190929190505050905062030d403a02670de0b6b3a764000001811115611ff75760006001029150506121a2565b6000809054906101000a900473ffffffffffffffffffffffffffffffffffffffff1673ffffffffffffffffffffffffffffffffffffffff1663adf59f9982600087876040518563ffffffff167c0100000000000000000000000000000000000000000000000000000000028152600401808481526020018060200180602001838103835285818151815260200191508051906020019080838360005b838110156120ae578082015181840152602081019050612093565b50505050905090810190601f1680156120db5780820380516001836020036101000a031916815260200191505b50838103825284818151815260200191508051906020019080838360005b838110156121145780820151818401526020810190506120f9565b50505050905090810190601f1680156121415780820380516001836020036101000a031916815260200191505b50955050505050506020604051808303818588803b15801561216257600080fd5b505af1158015612176573d6000803e3d6000fd5b50505050506040513d602081101561218d57600080fd5b81019080805190602001909291905050509150505b92915050565b6000813b9050919050565b60006121bd61245f565b9050919050565b600060608390506000809050600080905060008090505b835181101561244057603084828151811015156121f457fe5b9060200101517f010000000000000000000000000000000000000000000000000000000000000090047f0100000000000000000000000000000000000000000000000000000000000000027f0100000000000000000000000000000000000000000000000000000000000000900460ff16101580156122f257506039848281518110151561227e57fe5b9060200101517f010000000000000000000000000000000000000000000000000000000000000090047f0100000000000000000000000000000000000000000000000000000000000000027f0100000000000000000000000000000000000000000000000000000000000000900460ff1611155b156123a657811561231557600086141561230b57612440565b8580600190039650505b600a830292506030848281518110151561232b57fe5b9060200101517f010000000000000000000000000000000000000000000000000000000000000090047f0100000000000000000000000000000000000000000000000000000000000000027f0100000000000000000000000000000000000000000000000000000000000000900460ff160383019250612433565b602e84828151811015156123b657fe5b9060200101517f010000000000000000000000000000000000000000000000000000000000000090047f0100000000000000000000000000000000000000000000000000000000000000027f0100000000000000000000000000000000000000000000000000000000000000900460ff16141561243257600191505b5b80806001019150506121db565b5060008511156124535784600a0a820291505b81935050505092915050565b60008061247f731d3b2638a7cc9f2cb3d298a3da7a90b67e5506ed6121a8565b111561252157731d3b2638a7cc9f2cb3d298a3da7a90b67e5506ed600160006101000a81548173ffffffffffffffffffffffffffffffffffffffff021916908373ffffffffffffffffffffffffffffffffffffffff1602179055506125186040805190810160405280600b81526020017f6574685f6d61696e6e65740000000000000000000000000000000000000000008152506128f5565b600190506128f2565b600061254073c03a2615d5efaf5f49f60b7bb6583eaec212fdf16121a8565b11156125e25773c03a2615d5efaf5f49f60b7bb6583eaec212fdf1600160006101000a81548173ffffffffffffffffffffffffffffffffffffffff021916908373ffffffffffffffffffffffffffffffffffffffff1602179055506125d96040805190810160405280600c81526020017f6574685f726f707374656e3300000000000000000000000000000000000000008152506128f5565b600190506128f2565b600061260173b7a07bcf2ba2f2703b24c0691b5278999c59ac7e6121a8565b11156126a35773b7a07bcf2ba2f2703b24c0691b5278999c59ac7e600160006101000a81548173ffffffffffffffffffffffffffffffffffffffff021916908373ffffffffffffffffffffffffffffffffffffffff16021790555061269a6040805190810160405280600981526020017f6574685f6b6f76616e00000000000000000000000000000000000000000000008152506128f5565b600190506128f2565b60006126c273146500cfd35b22e4a392fe0adc06de1a1368ed486121a8565b11156127645773146500cfd35b22e4a392fe0adc06de1a1368ed48600160006101000a81548173ffffffffffffffffffffffffffffffffffffffff021916908373ffffffffffffffffffffffffffffffffffffffff16021790555061275b6040805190810160405280600b81526020017f6574685f72696e6b6562790000000000000000000000000000000000000000008152506128f5565b600190506128f2565b6000612783736f485c8bf6fc43ea212e93bbf8ce046c7f1cb4756121a8565b11156127e757736f485c8bf6fc43ea212e93bbf8ce046c7f1cb475600160006101000a81548173ffffffffffffffffffffffffffffffffffffffff021916908373ffffffffffffffffffffffffffffffffffffffff160217905550600190506128f2565b60006128067320e12a1f859b3feae5fb2a0a32c18f5a65555bbf6121a8565b111561286a577320e12a1f859b3feae5fb2a0a32c18f5a65555bbf600160006101000a81548173ffffffffffffffffffffffffffffffffffffffff021916908373ffffffffffffffffffffffffffffffffffffffff160217905550600190506128f2565b60006128897351efaf4c8b3c9afbd5ab9f4bbc82784ab6ef8faa6121a8565b11156128ed577351efaf4c8b3c9afbd5ab9f4bbc82784ab6ef8faa600160006101000a81548173ffffffffffffffffffffffffffffffffffffffff021916908373ffffffffffffffffffffffffffffffffffffffff160217905550600190506128f2565b600090505b90565b806002908051906020019061290b92919061290f565b5050565b828054600181600116156101000203166002900490600052602060002090601f016020900481019282601f1061295057805160ff191683800117855561297e565b8280016001018555821561297e579182015b8281111561297d578251825591602001919060010190612962565b5b50905061298b919061298f565b5090565b6129b191905b808211156129ad576000816000905550600101612995565b5090565b9056fea165627a7a7230582057b0ee414fcae93ff550d7aaf31106cdb174d1b59eda792da7fb525b7a5dece50029",
  "source": "pragma solidity ^0.5.0;\n\nimport \"./Ownable.sol\";\nimport \"./oraclizeAPI.sol\";\nimport \"./SafeMath.sol\";\n\n\n/** @title Dice - Dice game\n  * @author Rodrigo Gmez Gentil, Antonio Cruz Surez\n */\n\ncontract Dice is usingOraclize, Ownable {\n\n    uint minimumBet;\n    string public RANDOMNUMBER;\n\n\n    // The oraclize callback structure: we use several oraclize calls.\n    // All oraclize calls will result in a common callback to __callback(...).\n    // To keep track of the different queries we the struct callback struct in place.\n\n    struct oraclizeCallback {\n        address player;\n        bytes32 queryId;\n        uint    risk;\n        uint    betAmount;\n        uint    rolledDiceNumber;\n        uint    winAmount;\n    }\n\n     mapping (bytes32 => oraclizeCallback) public oraclizeCallbacks;\n\n    // Events\n    event logPlayerBetAccepted(address _contract, address _player, uint _risk, uint _bet);\n    event logRollDice(address _contract, address _player, string _description);\n    event logNumberGeneratorQuery(address _contract, address _player, bytes32 _randomOrgQueryId);\n    event logAwaitingRandomOrgCallback(address _contract, bytes32 _randomOrgQueryId);\n    event logRandomOrgCallback(address _contract, bytes32 _oraclizeQueryId);\n    event logNumberGeneratorResponse(address _contract, address _player, bytes32 _oraclizeQueryId, string _oraclizeResponse);\n    event logRolledDiceNumber(address _contract, bytes32 _oraclizeQueryId, uint _risk, uint _rolledDiceNumber);\n    event logDidNotWin(address _contract, uint _rolledDiceNumber, uint _risk);\n    event logPlayerWins(address _contract, address _winner, uint _rolledDiceNumber, uint _winAmount);\n    event logPlayerCashout(address _contract, address _winner, uint _rolledDiceNumber, uint _winAmount);\n    event logGameFinalized(address _contract);\n    event logNewOraclizeQuery(string description);\n\n    constructor() \n        public\n    {\n        // Replace the next line with your version:\n        OAR = OraclizeAddrResolverI(0x6f485C8BF6fc43eA212E93BBF8ce046C7f1cb475);\n        minimumBet = 0.0001 ether;\n    }\n\n\n    function rollDice(uint risk) \n        public \n        payable\n        returns (bool success)\n    {\n        \n        bytes32 oraclizeQueryId;\n        \n        address player = msg.sender;                \n        uint betAmount = msg.value;\n        \n        require(betAmount >= minimumBet);\n\n        emit logPlayerBetAccepted(address(this), player, risk, betAmount);\n        emit logRollDice(address(this), player, \"Query to random.org was sent, standing by for the answer.\");\n\n\n        if(risk > 20 ) {\n\n            // Making oraclized query to random.org.\n            if (oraclize_getPrice(\"URL\") > address(this).balance) {\n              emit logNewOraclizeQuery(\"Oraclize query was NOT sent, please add some ETH to cover for the query fee\");\n            } else{\n              emit logNewOraclizeQuery(\"Oraclize query was sent, standing by for the answer..\");\n              oraclizeQueryId = oraclize_query(\"URL\", \"https://www.random.org/integers/?num=1&min=1&max=100&col=1&base=10&format=plain&rnd=new\");\n            }\n\n\n            // Saving the struct\n            \n            oraclizeCallbacks[oraclizeQueryId].queryId = oraclizeQueryId;\n            oraclizeCallbacks[oraclizeQueryId].player = player;\n            oraclizeCallbacks[oraclizeQueryId].risk = risk;\n            oraclizeCallbacks[oraclizeQueryId].betAmount = betAmount;\n\n            emit logNumberGeneratorQuery(address(this), player, oraclizeQueryId);\n \n \n        } else {\n            \n            // revert the money to the player  if the risk is < 20\n            msg.sender.transfer(msg.value);\n\n        }\n      \n        emit logAwaitingRandomOrgCallback(address(this), oraclizeQueryId);\n        return true;\n    }\n\n\n   /**\n    * @notice Callback function to emit the events with the information we want.\n    * @dev Get the querys using the parameter myid\n    * @param myid The id of the query\n    * @param result The result of the query\n    */\n\n    function __callback(bytes32 myid, string memory result) \n        public\n    {\n        \n\n        bool playerWins = false;       \n        uint winAmount;\n    \n        emit logRandomOrgCallback(address(this), myid);\n        require (msg.sender == oraclize_cbAddress());\n        \n        address player = oraclizeCallbacks[myid].player;\n\n\n        emit logNumberGeneratorResponse(address(this), msg.sender, myid, result);\n        \n        uint rolledDiceNumber = parseInt(result); \n        oraclizeCallbacks[myid].rolledDiceNumber = rolledDiceNumber;   \n        uint risk = oraclizeCallbacks[myid].risk;\n        uint betAmount = oraclizeCallbacks[myid].betAmount;     \n        emit logRolledDiceNumber(address(this), myid, risk, rolledDiceNumber);\n\n\n        if(rolledDiceNumber > risk) {\n            playerWins = true;\n        }\n    \n        \n        if(playerWins) {\n            \n            // Calculate player profit\n\n    //        if(risk > 20 && risk < 30) {\n    //                winAmount = betAmount.mul(107);\n    //                winAmount = winAmount.div(100);\n    //        }\n            if(risk > 30 && risk < 40) {\n                    winAmount = (betAmount * 142) / 100;\n            }\n            if(risk > 40 && risk < 50) {\n                    winAmount = (betAmount * 195) / 100;\n            }\n            if(risk > 50 && risk < 60) {\n                    winAmount = (betAmount * 293) / 100;\n            }\n            if(risk > 60 ) {\n                    winAmount = (betAmount * 589) / 100;\n            }\n\n            emit logPlayerWins(address(this), player, rolledDiceNumber, winAmount);\n\n            if(winAmount > 0) {\n\n                // Substract the casino edge 4% and pay the winner..\n                \n                uint casino_edge = (winAmount / 100) * 4;\n                uint oraclize_fee = 4000000000000000; // Oraclize service charges us a fee of 0.004 Ether for querying random.org on the blockchain\n                \n                winAmount = winAmount - casino_edge;\n                winAmount = winAmount - oraclize_fee;\n\n                (msg.sender).transfer(winAmount);\n\n                oraclizeCallbacks[myid].winAmount = winAmount;\n\n                emit logPlayerCashout(address(this), player, rolledDiceNumber, winAmount);\n            \n            }\n            \n        }\n\n        if(playerWins==false) {\n\n            emit logDidNotWin(address(this), rolledDiceNumber, risk);\n            emit logGameFinalized(address(this));\n            //address(this).balance = (address(this).balance).sub(msg.value);\n        }\n\n    }\n\n    function gameStatus(bytes32 oraclizeQueryId)\n        public\n        view\n        returns (address, uint, uint, uint, uint)\n    {\n\n        address player = oraclizeCallbacks[oraclizeQueryId].player;\n        uint risk = oraclizeCallbacks[oraclizeQueryId].risk;\n        uint rolledDiceNumber = oraclizeCallbacks[oraclizeQueryId].rolledDiceNumber;\n        uint betAmount = oraclizeCallbacks[oraclizeQueryId].betAmount;\n        uint winAmount = oraclizeCallbacks[oraclizeQueryId].winAmount;\n\n        return (player, risk, rolledDiceNumber, betAmount, winAmount);\n    }\n\n\n    function getContractBalance()\n        public\n        view\n        returns (uint)\n    {\n        return (address(this).balance);\n    }\n\n}",
  "sourcePath": "/home/antonio/src/TFM/BLOCKCHAINTFM/RPS_Dapp/contracts/Dice.sol",
  "compiler": {
    "name": "solc",
    "version": "0.5.0+commit.1d4f565a.Emscripten.clang"
  },
  "schemaVersion": "3.0.2",
  "updatedAt": "2019-02-19T22:06:49.522Z",
  "devdoc": {
    "author": "Rodrigo Gmez Gentil, Antonio Cruz Surez",
    "methods": {
      "__callback(bytes32,string)": {
        "details": "Get the querys using the parameter myid",
        "params": {
          "myid": "The id of the query",
          "result": "The result of the query"
        }
      }
    },
    "title": "Dice - Dice game"
  },
  "userdoc": {
    "methods": {
      "__callback(bytes32,string)": {
        "notice": "Callback function to emit the events with the information we want."
      }
    }
  }
}