{
  "contractName": "Dice",
  "abi": [
    {
      "constant": true,
      "inputs": [],
      "name": "maximumRisk",
      "outputs": [
        {
          "name": "",
          "type": "uint256"
        }
      ],
      "payable": false,
      "stateMutability": "view",
      "type": "function",
      "signature": "0x101a4406"
    },
    {
      "constant": true,
      "inputs": [],
      "name": "minimumRisk",
      "outputs": [
        {
          "name": "",
          "type": "uint256"
        }
      ],
      "payable": false,
      "stateMutability": "view",
      "type": "function",
      "signature": "0x1b9300e9"
    },
    {
      "constant": true,
      "inputs": [],
      "name": "getGameStatus",
      "outputs": [
        {
          "name": "",
          "type": "bool"
        }
      ],
      "payable": false,
      "stateMutability": "view",
      "type": "function",
      "signature": "0x382396ee"
    },
    {
      "constant": true,
      "inputs": [
        {
          "name": "",
          "type": "bytes32"
        }
      ],
      "name": "oraclizeCallbacks",
      "outputs": [
        {
          "name": "player",
          "type": "address"
        },
        {
          "name": "queryId",
          "type": "bytes32"
        },
        {
          "name": "risk",
          "type": "uint256"
        },
        {
          "name": "betAmount",
          "type": "uint256"
        },
        {
          "name": "rolledDiceNumber",
          "type": "uint256"
        },
        {
          "name": "profit",
          "type": "uint256"
        }
      ],
      "payable": false,
      "stateMutability": "view",
      "type": "function",
      "signature": "0x426d5ef1"
    },
    {
      "constant": true,
      "inputs": [],
      "name": "emergencyStop",
      "outputs": [
        {
          "name": "",
          "type": "bool"
        }
      ],
      "payable": false,
      "stateMutability": "view",
      "type": "function",
      "signature": "0x63a599a4"
    },
    {
      "constant": true,
      "inputs": [],
      "name": "jackpot",
      "outputs": [
        {
          "name": "",
          "type": "uint256"
        }
      ],
      "payable": false,
      "stateMutability": "view",
      "type": "function",
      "signature": "0x6b31ee01"
    },
    {
      "constant": true,
      "inputs": [],
      "name": "gameStatus",
      "outputs": [
        {
          "name": "",
          "type": "bool"
        }
      ],
      "payable": false,
      "stateMutability": "view",
      "type": "function",
      "signature": "0x722fed7e"
    },
    {
      "constant": true,
      "inputs": [],
      "name": "owner",
      "outputs": [
        {
          "name": "",
          "type": "address"
        }
      ],
      "payable": false,
      "stateMutability": "view",
      "type": "function",
      "signature": "0x8da5cb5b"
    },
    {
      "constant": true,
      "inputs": [],
      "name": "isOwner",
      "outputs": [
        {
          "name": "",
          "type": "bool"
        }
      ],
      "payable": false,
      "stateMutability": "view",
      "type": "function",
      "signature": "0x8f32d59b"
    },
    {
      "constant": true,
      "inputs": [],
      "name": "minimumBet",
      "outputs": [
        {
          "name": "",
          "type": "uint256"
        }
      ],
      "payable": false,
      "stateMutability": "view",
      "type": "function",
      "signature": "0xc38a8afd"
    },
    {
      "constant": false,
      "inputs": [
        {
          "name": "_status",
          "type": "bool"
        }
      ],
      "name": "setGameStatus",
      "outputs": [],
      "payable": false,
      "stateMutability": "nonpayable",
      "type": "function",
      "signature": "0xcbe2e97e"
    },
    {
      "inputs": [],
      "payable": false,
      "stateMutability": "nonpayable",
      "type": "constructor",
      "signature": "constructor"
    },
    {
      "payable": true,
      "stateMutability": "payable",
      "type": "fallback"
    },
    {
      "anonymous": false,
      "inputs": [
        {
          "indexed": false,
          "name": "_contract",
          "type": "address"
        },
        {
          "indexed": false,
          "name": "_player",
          "type": "address"
        },
        {
          "indexed": false,
          "name": "_risk",
          "type": "uint256"
        },
        {
          "indexed": false,
          "name": "_bet",
          "type": "uint256"
        }
      ],
      "name": "logPlayerBetAccepted",
      "type": "event",
      "signature": "0x0493f0ee102db9238dcfc674e3590d07343d625075476694341009d96d905539"
    },
    {
      "anonymous": false,
      "inputs": [
        {
          "indexed": false,
          "name": "_contract",
          "type": "address"
        },
        {
          "indexed": false,
          "name": "_player",
          "type": "address"
        },
        {
          "indexed": false,
          "name": "_description",
          "type": "string"
        }
      ],
      "name": "logRollDice",
      "type": "event",
      "signature": "0x5c624037da372bb459131a7137f1657ae380b2419ed6071d29d957c194ed200c"
    },
    {
      "anonymous": false,
      "inputs": [
        {
          "indexed": false,
          "name": "_contract",
          "type": "address"
        },
        {
          "indexed": false,
          "name": "_oraclizeQueryId",
          "type": "bytes32"
        },
        {
          "indexed": false,
          "name": "_risk",
          "type": "uint256"
        },
        {
          "indexed": false,
          "name": "_rolledDiceNumber",
          "type": "uint256"
        }
      ],
      "name": "logRolledDiceNumber",
      "type": "event",
      "signature": "0x07d71ce827b2c0ead9f18b5f031f0385143e283c9491b21b96713a278acfacc0"
    },
    {
      "anonymous": false,
      "inputs": [
        {
          "indexed": false,
          "name": "description",
          "type": "string"
        },
        {
          "indexed": false,
          "name": "_contract",
          "type": "address"
        },
        {
          "indexed": false,
          "name": "_player",
          "type": "address"
        },
        {
          "indexed": false,
          "name": "_rolledDiceNumber",
          "type": "uint256"
        },
        {
          "indexed": false,
          "name": "_betAmount",
          "type": "uint256"
        }
      ],
      "name": "logPlayerLose",
      "type": "event",
      "signature": "0x18008b5f6086bd3b79827452d1500916d620037ff83bf69d6d7e739040733d0f"
    },
    {
      "anonymous": false,
      "inputs": [
        {
          "indexed": false,
          "name": "description",
          "type": "string"
        },
        {
          "indexed": false,
          "name": "_contract",
          "type": "address"
        },
        {
          "indexed": false,
          "name": "_winner",
          "type": "address"
        },
        {
          "indexed": false,
          "name": "_rolledDiceNumber",
          "type": "uint256"
        },
        {
          "indexed": false,
          "name": "_profit",
          "type": "uint256"
        },
        {
          "indexed": false,
          "name": "_riskPer",
          "type": "uint256"
        },
        {
          "indexed": false,
          "name": "_grossP",
          "type": "uint256"
        }
      ],
      "name": "logPlayerWins",
      "type": "event",
      "signature": "0x92584463fa8a69814556a6b6efa06f5cbaf7804cebb6b71ddf7417f01ad569b7"
    },
    {
      "anonymous": false,
      "inputs": [
        {
          "indexed": false,
          "name": "_status",
          "type": "bool"
        }
      ],
      "name": "logGameStatus",
      "type": "event",
      "signature": "0x114356cc8b1254eb1c0a759cbf197793e81521b60f10fa8080e236421bd0c25e"
    },
    {
      "anonymous": false,
      "inputs": [
        {
          "indexed": false,
          "name": "description",
          "type": "string"
        }
      ],
      "name": "logNewOraclizeQuery",
      "type": "event",
      "signature": "0xd0f9dea447b4e92bc04cc421beba62dbef9e0f6d77e1d798c15ff591941edd70"
    },
    {
      "anonymous": false,
      "inputs": [
        {
          "indexed": false,
          "name": "_contractBalance",
          "type": "uint256"
        }
      ],
      "name": "logContractBalance",
      "type": "event",
      "signature": "0xd4a125efef1c3fca9f2d63ea257a143623b80df1843e34bf3bb8c3021739faf8"
    },
    {
      "anonymous": false,
      "inputs": [
        {
          "indexed": false,
          "name": "description",
          "type": "string"
        },
        {
          "indexed": false,
          "name": "_ownerAddress",
          "type": "address"
        },
        {
          "indexed": false,
          "name": "_ownerBalance",
          "type": "uint256"
        }
      ],
      "name": "logJackpotBalance",
      "type": "event",
      "signature": "0xd8846f41f4f0707db7a462eb57d3e2708cb1e9cb641b44000ca2edcd8cad1b8e"
    },
    {
      "anonymous": false,
      "inputs": [
        {
          "indexed": false,
          "name": "description",
          "type": "string"
        },
        {
          "indexed": false,
          "name": "_playerAddress",
          "type": "address"
        },
        {
          "indexed": false,
          "name": "_winAmount",
          "type": "uint256"
        }
      ],
      "name": "logPayWinner",
      "type": "event",
      "signature": "0x1d1f8e36149fc07505f5876cceb2ca561904e9e3a940effa716d74765df24c2e"
    },
    {
      "constant": false,
      "inputs": [
        {
          "name": "risk",
          "type": "uint256"
        }
      ],
      "name": "rollDice",
      "outputs": [
        {
          "name": "success",
          "type": "bool"
        }
      ],
      "payable": true,
      "stateMutability": "payable",
      "type": "function",
      "signature": "0xacfff377"
    },
    {
      "constant": false,
      "inputs": [
        {
          "name": "myid",
          "type": "bytes32"
        },
        {
          "name": "result",
          "type": "string"
        }
      ],
      "name": "__callback",
      "outputs": [],
      "payable": false,
      "stateMutability": "nonpayable",
      "type": "function",
      "signature": "0x27dc297e"
    },
    {
      "constant": false,
      "inputs": [
        {
          "name": "_myid",
          "type": "bytes32"
        },
        {
          "name": "_result",
          "type": "string"
        },
        {
          "name": "_proof",
          "type": "bytes"
        }
      ],
      "name": "__callback",
      "outputs": [],
      "payable": false,
      "stateMutability": "nonpayable",
      "type": "function",
      "signature": "0x38bbfa50"
    },
    {
      "constant": true,
      "inputs": [],
      "name": "getContractBalance",
      "outputs": [
        {
          "name": "",
          "type": "uint256"
        }
      ],
      "payable": false,
      "stateMutability": "view",
      "type": "function",
      "signature": "0x6f9fb98a"
    },
    {
      "constant": false,
      "inputs": [],
      "name": "enableEmergency",
      "outputs": [],
      "payable": false,
      "stateMutability": "nonpayable",
      "type": "function",
      "signature": "0xe42c4e63"
    }
  ],
  "bytecode": "0x6080604052655af3107a4000600655601e600755605f60085560006009553480156200002a57600080fd5b5033600560006101000a81548173ffffffffffffffffffffffffffffffffffffffff021916908373ffffffffffffffffffffffffffffffffffffffff160217905550736f485c8bf6fc43ea212e93bbf8ce046c7f1cb475600160006101000a81548173ffffffffffffffffffffffffffffffffffffffff021916908373ffffffffffffffffffffffffffffffffffffffff160217905550620000dc600162000135640100000000026401000000009004565b7f114356cc8b1254eb1c0a759cbf197793e81521b60f10fa8080e236421bd0c25e6200011662000152640100000000026401000000009004565b604051808215151515815260200191505060405180910390a162000169565b80600560146101000a81548160ff02191690831515021790555050565b6000600560149054906101000a900460ff16905090565b61254780620001796000396000f3fe6080604052600436106100e6576000357c0100000000000000000000000000000000000000000000000000000000900463ffffffff168063101a4406146100e85780631b9300e91461011357806327dc297e1461013e578063382396ee1461021057806338bbfa501461023f578063426d5ef1146103a857806363a599a4146104465780636b31ee01146104755780636f9fb98a146104a0578063722fed7e146104cb5780638da5cb5b146104fa5780638f32d59b14610551578063acfff37714610580578063c38a8afd146105c6578063cbe2e97e146105f1578063e42c4e631461062e575b005b3480156100f457600080fd5b506100fd610645565b6040518082815260200191505060405180910390f35b34801561011f57600080fd5b5061012861064b565b6040518082815260200191505060405180910390f35b34801561014a57600080fd5b5061020e6004803603604081101561016157600080fd5b81019080803590602001909291908035906020019064010000000081111561018857600080fd5b82018360208201111561019a57600080fd5b803590602001918460018302840111640100000000831117156101bc57600080fd5b91908080601f016020809104026020016040519081016040528093929190818152602001838380828437600081840152601f19601f820116905080830192505050505050509192919290505050610651565b005b34801561021c57600080fd5b50610225610c84565b604051808215151515815260200191505060405180910390f35b34801561024b57600080fd5b506103a66004803603606081101561026257600080fd5b81019080803590602001909291908035906020019064010000000081111561028957600080fd5b82018360208201111561029b57600080fd5b803590602001918460018302840111640100000000831117156102bd57600080fd5b91908080601f016020809104026020016040519081016040528093929190818152602001838380828437600081840152601f19601f8201169050808301925050505050505091929192908035906020019064010000000081111561032057600080fd5b82018360208201111561033257600080fd5b8035906020019184600183028401116401000000008311171561035457600080fd5b91908080601f016020809104026020016040519081016040528093929190818152602001838380828437600081840152601f19601f820116905080830192505050505050509192919290505050610c9b565b005b3480156103b457600080fd5b506103e1600480360360208110156103cb57600080fd5b8101908080359060200190929190505050610ca0565b604051808773ffffffffffffffffffffffffffffffffffffffff1673ffffffffffffffffffffffffffffffffffffffff168152602001868152602001858152602001848152602001838152602001828152602001965050505050505060405180910390f35b34801561045257600080fd5b5061045b610cfc565b604051808215151515815260200191505060405180910390f35b34801561048157600080fd5b5061048a610d0f565b6040518082815260200191505060405180910390f35b3480156104ac57600080fd5b506104b5610d15565b6040518082815260200191505060405180910390f35b3480156104d757600080fd5b506104e0610d34565b604051808215151515815260200191505060405180910390f35b34801561050657600080fd5b5061050f610d47565b604051808273ffffffffffffffffffffffffffffffffffffffff1673ffffffffffffffffffffffffffffffffffffffff16815260200191505060405180910390f35b34801561055d57600080fd5b50610566610d6d565b604051808215151515815260200191505060405180910390f35b6105ac6004803603602081101561059657600080fd5b8101908080359060200190929190505050610dc5565b604051808215151515815260200191505060405180910390f35b3480156105d257600080fd5b506105db61116c565b6040518082815260200191505060405180910390f35b3480156105fd57600080fd5b5061062c6004803603602081101561061457600080fd5b81019080803515159060200190929190505050611172565b005b34801561063a57600080fd5b5061064361118f565b005b60085481565b60075481565b6000809050600080600080670de0b6b3a7640000905060006611c37937e0800090506000660e35fa931a000090506106876111ce565b73ffffffffffffffffffffffffffffffffffffffff163373ffffffffffffffffffffffffffffffffffffffff161415156106c057600080fd5b6000600a60008b815260200190815260200160002060000160009054906101000a900473ffffffffffffffffffffffffffffffffffffffff16905060006107068a611541565b905080600a60008d8152602001908152602001600020600401819055506000600a60008d81526020019081526020016000206002015490506000600a60008e81526020019081526020016000206003015490507f07d71ce827b2c0ead9f18b5f031f0385143e283c9491b21b96713a278acfacc0308e8486604051808573ffffffffffffffffffffffffffffffffffffffff1673ffffffffffffffffffffffffffffffffffffffff16815260200184815260200183815260200182815260200194505050505060405180910390a1818311156107e15760019a505b8a15610b87576107fa828861155590919063ffffffff16565b975061081060648961159390919063ffffffff16565b9750610825888261155590919063ffffffff16565b995061083a878b61159390919063ffffffff16565b995061084f868b6115bd90919063ffffffff16565b9850610864858a6115bd90919063ffffffff16565b985088600a60008f8152602001908152602001600020600501819055507f92584463fa8a69814556a6b6efa06f5cbaf7804cebb6b71ddf7417f01ad569b73085858c8c8f60405180806020018873ffffffffffffffffffffffffffffffffffffffff1673ffffffffffffffffffffffffffffffffffffffff1681526020018773ffffffffffffffffffffffffffffffffffffffff1673ffffffffffffffffffffffffffffffffffffffff1681526020018681526020018581526020018481526020018381526020018281038252600d8152602001807f506c617965722077696e733a200000000000000000000000000000000000000081525060200197505050505050505060405180910390a16109e586600b6000600560009054906101000a900473ffffffffffffffffffffffffffffffffffffffff1673ffffffffffffffffffffffffffffffffffffffff1673ffffffffffffffffffffffffffffffffffffffff168152602001908152602001600020546115df90919063ffffffff16565b600b6000600560009054906101000a900473ffffffffffffffffffffffffffffffffffffffff1673ffffffffffffffffffffffffffffffffffffffff1673ffffffffffffffffffffffffffffffffffffffff168152602001908152602001600020819055507fd8846f41f4f0707db7a462eb57d3e2708cb1e9cb641b44000ca2edcd8cad1b8e600560009054906101000a900473ffffffffffffffffffffffffffffffffffffffff16600b6000600560009054906101000a900473ffffffffffffffffffffffffffffffffffffffff1673ffffffffffffffffffffffffffffffffffffffff1673ffffffffffffffffffffffffffffffffffffffff1681526020019081526020016000205460405180806020018473ffffffffffffffffffffffffffffffffffffffff1673ffffffffffffffffffffffffffffffffffffffff1681526020018381526020018281038252600f8152602001807f42616c616e6365206f776e65723a200000000000000000000000000000000000815250602001935050505060405180910390a16000891115610b8657610b8584828b611600565b5b5b600015158b15151415610c75577f18008b5f6086bd3b79827452d1500916d620037ff83bf69d6d7e739040733d0f3085858460405180806020018673ffffffffffffffffffffffffffffffffffffffff1673ffffffffffffffffffffffffffffffffffffffff1681526020018573ffffffffffffffffffffffffffffffffffffffff1673ffffffffffffffffffffffffffffffffffffffff1681526020018481526020018381526020018281038252600d8152602001807f506c61796572206c6f73653a20000000000000000000000000000000000000008152506020019550505050505060405180910390a15b50505050505050505050505050565b6000600560149054906101000a900460ff16905090565b505050565b600a6020528060005260406000206000915090508060000160009054906101000a900473ffffffffffffffffffffffffffffffffffffffff16908060010154908060020154908060030154908060040154908060050154905086565b600560159054906101000a900460ff1681565b60095481565b60003073ffffffffffffffffffffffffffffffffffffffff1631905090565b600560149054906101000a900460ff1681565b600560009054906101000a900473ffffffffffffffffffffffffffffffffffffffff1681565b6000600560009054906101000a900473ffffffffffffffffffffffffffffffffffffffff1673ffffffffffffffffffffffffffffffffffffffff163373ffffffffffffffffffffffffffffffffffffffff1614905090565b6000600560159054906101000a900460ff1615156111675760011515610de9610c84565b1515141515610df757600080fd5b6000803390506000349050610e0e8160065461172e565b1515610e1957600080fd5b610e288560075460085461173c565b1515610e3357600080fd5b7f0493f0ee102db9238dcfc674e3590d07343d625075476694341009d96d90553930838784604051808573ffffffffffffffffffffffffffffffffffffffff1673ffffffffffffffffffffffffffffffffffffffff1681526020018473ffffffffffffffffffffffffffffffffffffffff1673ffffffffffffffffffffffffffffffffffffffff16815260200183815260200182815260200194505050505060405180910390a17f5c624037da372bb459131a7137f1657ae380b2419ed6071d29d957c194ed200c3083604051808373ffffffffffffffffffffffffffffffffffffffff1673ffffffffffffffffffffffffffffffffffffffff1681526020018273ffffffffffffffffffffffffffffffffffffffff1673ffffffffffffffffffffffffffffffffffffffff16815260200180602001828103825260428152602001807f4f7261636c697a6520717565727920746f2072616e646f6d2e6f72672077617381526020017f2073656e742c207374616e64696e6720627920666f722074686520616e73776581526020017f722e000000000000000000000000000000000000000000000000000000000000815250606001935050505060405180910390a16110b76040805190810160405280600381526020017f55524c0000000000000000000000000000000000000000000000000000000000815250608060405190810160405280605781526020017f68747470733a2f2f7777772e72616e646f6d2e6f72672f696e7465676572732f81526020017f3f6e756d3d31266d696e3d31266d61783d31303026636f6c3d3126626173653d81526020017f313026666f726d61743d706c61696e26726e643d6e6577000000000000000000815250611756565b925082600a60008581526020019081526020016000206001018190555081600a600085815260200190815260200160002060000160006101000a81548173ffffffffffffffffffffffffffffffffffffffff021916908373ffffffffffffffffffffffffffffffffffffffff16021790555084600a60008581526020019081526020016000206002018190555080600a600085815260200190815260200160002060030181905550600193505050505b919050565b60065481565b80600560146101000a81548160ff02191690831515021790555050565b611197610d6d565b15156111a257600080fd5b600560159054906101000a900460ff1615600560156101000a81548160ff021916908315150217905550565b60008073ffffffffffffffffffffffffffffffffffffffff16600160009054906101000a900473ffffffffffffffffffffffffffffffffffffffff1673ffffffffffffffffffffffffffffffffffffffff16148061125657506000611254600160009054906101000a900473ffffffffffffffffffffffffffffffffffffffff16611d0f565b145b15611267576112656000611d1a565b505b600160009054906101000a900473ffffffffffffffffffffffffffffffffffffffff1673ffffffffffffffffffffffffffffffffffffffff166338cc48316040518163ffffffff167c0100000000000000000000000000000000000000000000000000000000028152600401602060405180830381600087803b1580156112ed57600080fd5b505af1158015611301573d6000803e3d6000fd5b505050506040513d602081101561131757600080fd5b810190808051906020019092919050505073ffffffffffffffffffffffffffffffffffffffff166000809054906101000a900473ffffffffffffffffffffffffffffffffffffffff1673ffffffffffffffffffffffffffffffffffffffff1614151561147e57600160009054906101000a900473ffffffffffffffffffffffffffffffffffffffff1673ffffffffffffffffffffffffffffffffffffffff166338cc48316040518163ffffffff167c0100000000000000000000000000000000000000000000000000000000028152600401602060405180830381600087803b15801561140357600080fd5b505af1158015611417573d6000803e3d6000fd5b505050506040513d602081101561142d57600080fd5b81019080805190602001909291905050506000806101000a81548173ffffffffffffffffffffffffffffffffffffffff021916908373ffffffffffffffffffffffffffffffffffffffff1602179055505b6000809054906101000a900473ffffffffffffffffffffffffffffffffffffffff1673ffffffffffffffffffffffffffffffffffffffff1663c281d19e6040518163ffffffff167c010000000000000000000000000000000000000000000000000000000002815260040160206040518083038186803b15801561150157600080fd5b505afa158015611515573d6000803e3d6000fd5b505050506040513d602081101561152b57600080fd5b8101908080519060200190929190505050905090565b600061154e826000611d2b565b9050919050565b600080831415611568576000905061158d565b6000828402905082848281151561157b57fe5b0414151561158857600080fd5b809150505b92915050565b600080821115156115a357600080fd5b600082848115156115b057fe5b0490508091505092915050565b60008282111515156115ce57600080fd5b600082840390508091505092915050565b60008082840190508381101515156115f657600080fd5b8091505092915050565b600061161582846115df90919063ffffffff16565b9050803073ffffffffffffffffffffffffffffffffffffffff16311015151561163d57600080fd5b7f1d1f8e36149fc07505f5876cceb2ca561904e9e3a940effa716d74765df24c2e848260405180806020018473ffffffffffffffffffffffffffffffffffffffff1673ffffffffffffffffffffffffffffffffffffffff1681526020018381526020018281038252600c8152602001807f5061792077696e6e65723a200000000000000000000000000000000000000000815250602001935050505060405180910390a18373ffffffffffffffffffffffffffffffffffffffff166108fc829081150290604051600060405180830381858888f19350505050158015611727573d6000803e3d6000fd5b5050505050565b600081831015905092915050565b6000828411801561174d5750818411155b90509392505050565b60008073ffffffffffffffffffffffffffffffffffffffff16600160009054906101000a900473ffffffffffffffffffffffffffffffffffffffff1673ffffffffffffffffffffffffffffffffffffffff1614806117de575060006117dc600160009054906101000a900473ffffffffffffffffffffffffffffffffffffffff16611d0f565b145b156117ef576117ed6000611d1a565b505b600160009054906101000a900473ffffffffffffffffffffffffffffffffffffffff1673ffffffffffffffffffffffffffffffffffffffff166338cc48316040518163ffffffff167c0100000000000000000000000000000000000000000000000000000000028152600401602060405180830381600087803b15801561187557600080fd5b505af1158015611889573d6000803e3d6000fd5b505050506040513d602081101561189f57600080fd5b810190808051906020019092919050505073ffffffffffffffffffffffffffffffffffffffff166000809054906101000a900473ffffffffffffffffffffffffffffffffffffffff1673ffffffffffffffffffffffffffffffffffffffff16141515611a0657600160009054906101000a900473ffffffffffffffffffffffffffffffffffffffff1673ffffffffffffffffffffffffffffffffffffffff166338cc48316040518163ffffffff167c0100000000000000000000000000000000000000000000000000000000028152600401602060405180830381600087803b15801561198b57600080fd5b505af115801561199f573d6000803e3d6000fd5b505050506040513d60208110156119b557600080fd5b81019080805190602001909291905050506000806101000a81548173ffffffffffffffffffffffffffffffffffffffff021916908373ffffffffffffffffffffffffffffffffffffffff1602179055505b60008060009054906101000a900473ffffffffffffffffffffffffffffffffffffffff1673ffffffffffffffffffffffffffffffffffffffff1663524f3889856040518263ffffffff167c01000000000000000000000000000000000000000000000000000000000281526004018080602001828103825283818151815260200191508051906020019080838360005b83811015611ab1578082015181840152602081019050611a96565b50505050905090810190601f168015611ade5780820380516001836020036101000a031916815260200191505b5092505050602060405180830381600087803b158015611afd57600080fd5b505af1158015611b11573d6000803e3d6000fd5b505050506040513d6020811015611b2757600080fd5b8101908080519060200190929190505050905062030d403a02670de0b6b3a764000001811115611b5e576000600102915050611d09565b6000809054906101000a900473ffffffffffffffffffffffffffffffffffffffff1673ffffffffffffffffffffffffffffffffffffffff1663adf59f9982600087876040518563ffffffff167c0100000000000000000000000000000000000000000000000000000000028152600401808481526020018060200180602001838103835285818151815260200191508051906020019080838360005b83811015611c15578082015181840152602081019050611bfa565b50505050905090810190601f168015611c425780820380516001836020036101000a031916815260200191505b50838103825284818151815260200191508051906020019080838360005b83811015611c7b578082015181840152602081019050611c60565b50505050905090810190601f168015611ca85780820380516001836020036101000a031916815260200191505b50955050505050506020604051808303818588803b158015611cc957600080fd5b505af1158015611cdd573d6000803e3d6000fd5b50505050506040513d6020811015611cf457600080fd5b81019080805190602001909291905050509150505b92915050565b6000813b9050919050565b6000611d24611fc6565b9050919050565b600060608390506000809050600080905060008090505b8351811015611fa75760308482815181101515611d5b57fe5b9060200101517f010000000000000000000000000000000000000000000000000000000000000090047f0100000000000000000000000000000000000000000000000000000000000000027f0100000000000000000000000000000000000000000000000000000000000000900460ff1610158015611e59575060398482815181101515611de557fe5b9060200101517f010000000000000000000000000000000000000000000000000000000000000090047f0100000000000000000000000000000000000000000000000000000000000000027f0100000000000000000000000000000000000000000000000000000000000000900460ff1611155b15611f0d578115611e7c576000861415611e7257611fa7565b8580600190039650505b600a8302925060308482815181101515611e9257fe5b9060200101517f010000000000000000000000000000000000000000000000000000000000000090047f0100000000000000000000000000000000000000000000000000000000000000027f0100000000000000000000000000000000000000000000000000000000000000900460ff160383019250611f9a565b602e8482815181101515611f1d57fe5b9060200101517f010000000000000000000000000000000000000000000000000000000000000090047f0100000000000000000000000000000000000000000000000000000000000000027f0100000000000000000000000000000000000000000000000000000000000000900460ff161415611f9957600191505b5b8080600101915050611d42565b506000851115611fba5784600a0a820291505b81935050505092915050565b600080611fe6731d3b2638a7cc9f2cb3d298a3da7a90b67e5506ed611d0f565b111561208857731d3b2638a7cc9f2cb3d298a3da7a90b67e5506ed600160006101000a81548173ffffffffffffffffffffffffffffffffffffffff021916908373ffffffffffffffffffffffffffffffffffffffff16021790555061207f6040805190810160405280600b81526020017f6574685f6d61696e6e657400000000000000000000000000000000000000000081525061245c565b60019050612459565b60006120a773c03a2615d5efaf5f49f60b7bb6583eaec212fdf1611d0f565b11156121495773c03a2615d5efaf5f49f60b7bb6583eaec212fdf1600160006101000a81548173ffffffffffffffffffffffffffffffffffffffff021916908373ffffffffffffffffffffffffffffffffffffffff1602179055506121406040805190810160405280600c81526020017f6574685f726f707374656e33000000000000000000000000000000000000000081525061245c565b60019050612459565b600061216873b7a07bcf2ba2f2703b24c0691b5278999c59ac7e611d0f565b111561220a5773b7a07bcf2ba2f2703b24c0691b5278999c59ac7e600160006101000a81548173ffffffffffffffffffffffffffffffffffffffff021916908373ffffffffffffffffffffffffffffffffffffffff1602179055506122016040805190810160405280600981526020017f6574685f6b6f76616e000000000000000000000000000000000000000000000081525061245c565b60019050612459565b600061222973146500cfd35b22e4a392fe0adc06de1a1368ed48611d0f565b11156122cb5773146500cfd35b22e4a392fe0adc06de1a1368ed48600160006101000a81548173ffffffffffffffffffffffffffffffffffffffff021916908373ffffffffffffffffffffffffffffffffffffffff1602179055506122c26040805190810160405280600b81526020017f6574685f72696e6b65627900000000000000000000000000000000000000000081525061245c565b60019050612459565b60006122ea736f485c8bf6fc43ea212e93bbf8ce046c7f1cb475611d0f565b111561234e57736f485c8bf6fc43ea212e93bbf8ce046c7f1cb475600160006101000a81548173ffffffffffffffffffffffffffffffffffffffff021916908373ffffffffffffffffffffffffffffffffffffffff16021790555060019050612459565b600061236d7320e12a1f859b3feae5fb2a0a32c18f5a65555bbf611d0f565b11156123d1577320e12a1f859b3feae5fb2a0a32c18f5a65555bbf600160006101000a81548173ffffffffffffffffffffffffffffffffffffffff021916908373ffffffffffffffffffffffffffffffffffffffff16021790555060019050612459565b60006123f07351efaf4c8b3c9afbd5ab9f4bbc82784ab6ef8faa611d0f565b1115612454577351efaf4c8b3c9afbd5ab9f4bbc82784ab6ef8faa600160006101000a81548173ffffffffffffffffffffffffffffffffffffffff021916908373ffffffffffffffffffffffffffffffffffffffff16021790555060019050612459565b600090505b90565b8060029080519060200190612472929190612476565b5050565b828054600181600116156101000203166002900490600052602060002090601f016020900481019282601f106124b757805160ff19168380011785556124e5565b828001600101855582156124e5579182015b828111156124e45782518255916020019190600101906124c9565b5b5090506124f291906124f6565b5090565b61251891905b808211156125145760008160009055506001016124fc565b5090565b9056fea165627a7a72305820505bd3d74db732e9ae2535a92a83d2f27db1addacf5b0301d362b64b391241370029",
  "source": "pragma solidity ^0.5.0;\n\nimport \"./Ownable.sol\";\nimport \"./oraclizeAPI.sol\";\nimport \"./SafeMath.sol\";\nimport \"./DiceLib.sol\";\nimport \"./StartStopGame.sol\";\n\n\n/** @title Dice - Dice game\n  * @author Rodrigo Gmez Gentil, Antonio Cruz Surez\n */\n\ncontract Dice is usingOraclize, Ownable, StartStopGame {\n\n    using SafeMath for uint;\n\n    bool public emergencyStop;\n    \n    modifier noEmergency \n    { \n        if (!emergencyStop) \n        _;\n    }\n    \n    modifier inEmergency \n    {\n        if (emergencyStop) \n        _;\n    }\n\n    uint public minimumBet = 0.0001 ether;\n    uint public minimumRisk = 30;\n    uint public maximumRisk = 95;    \n    uint public jackpot = 0;\n    \n    // All oraclize calls will result in a common callback to __callback(...).\n    struct oraclizeCallback {\n        address payable player;\n        bytes32 queryId;\n        uint    risk;\n        uint    betAmount;\n        uint    rolledDiceNumber;\n        uint    profit;\n    }\n\n     mapping (bytes32 => oraclizeCallback) public oraclizeCallbacks;\n     mapping (address => uint) private balances;\n\n    // Events\n    event logPlayerBetAccepted(address _contract, address _player, uint _risk, uint _bet);\n    event logRollDice(address _contract, address _player, string _description);\n    event logRolledDiceNumber(address _contract, bytes32 _oraclizeQueryId, uint _risk, uint _rolledDiceNumber);\n    event logPlayerLose(string description, address _contract, address _player, uint _rolledDiceNumber, uint _betAmount);\n    event logPlayerWins(string description, address _contract, address _winner, uint _rolledDiceNumber, uint _profit, uint _riskPer, uint _grossP);\n    event logGameStatus(bool _status);\n    event logNewOraclizeQuery(string description);\n    event logContractBalance(uint _contractBalance);\n    event logJackpotBalance(string description, address _ownerAddress, uint _ownerBalance);\n    event logPayWinner(string description, address _playerAddress, uint _winAmount);\n\n\n    constructor() \n    public\n    {\n        // Replace the next line with your version:\n        OAR = OraclizeAddrResolverI(0x6f485C8BF6fc43eA212E93BBF8ce046C7f1cb475);\n        setGameStatus(true);\n        emit logGameStatus(getGameStatus());\n\n    }\n\n    function rollDice(uint risk) \n        public \n        noEmergency\n        gameIsOn\n        payable\n        returns (bool success)\n    {\n        \n        bytes32 oraclizeQueryId;        \n        address payable player = msg.sender;                \n\n        uint betAmount = msg.value;        \n        require(DiceLib.isValidBet(betAmount, minimumBet));\n        require(DiceLib.isValidRisk(risk, minimumRisk, maximumRisk));\n        emit logPlayerBetAccepted(address(this), player, risk, betAmount);\n\n        // Making oraclized query to random.org.\n        emit logRollDice(address(this), player, \"Oraclize query to random.org was sent, standing by for the answer.\");\n        oraclizeQueryId = oraclize_query(\"URL\", \"https://www.random.org/integers/?num=1&min=1&max=100&col=1&base=10&format=plain&rnd=new\");\n\n        // Saving the struct        \n        oraclizeCallbacks[oraclizeQueryId].queryId = oraclizeQueryId;\n        oraclizeCallbacks[oraclizeQueryId].player = player;\n        oraclizeCallbacks[oraclizeQueryId].risk = risk;\n        oraclizeCallbacks[oraclizeQueryId].betAmount = betAmount;\n\n        return true;\n    }\n\n\n   /**\n    * @notice Callback function to emit the events with the information we want.\n    * @dev Get the querys using the parameter myid\n    * @param myid The id of the query\n    * @param result The result of the query\n    */\n\n    function __callback(bytes32 myid, string memory result) \n    public\n    {\n        \n\n        bool playerWins = false;       \n        uint grossProfit;\n        uint netProfit;\n        uint riskPercentage;\n        uint feeUnits = 1000000000000000000;\n        uint feeJackpot =  5000000000000000;  // Fund to jackpot 0.005 ether as a fee\n        uint feeOraclize = 4000000000000000; // Oraclize service charges 0.004 Ether as a fee for querying random.org\n\n        require (msg.sender == oraclize_cbAddress());\n        \n        address payable player = oraclizeCallbacks[myid].player;       \n        uint rolledDiceNumber = parseInt(result); \n        oraclizeCallbacks[myid].rolledDiceNumber = rolledDiceNumber;   \n        uint risk = oraclizeCallbacks[myid].risk;\n        uint betAmount = oraclizeCallbacks[myid].betAmount;     \n        emit logRolledDiceNumber(address(this), myid, risk, rolledDiceNumber);\n\n\n         // If the number of the rolled dice is higher than the assumed risk then the player wins\n         if(rolledDiceNumber > risk) {\n             playerWins = true;\n        }\n           \n        if(playerWins) {\n            \n            // Calculate player profit            \n            riskPercentage = feeUnits.mul(risk); \n            riskPercentage = riskPercentage.div(100);\n            grossProfit = betAmount.mul(riskPercentage);\n            grossProfit = grossProfit.div(feeUnits);               \n            netProfit = grossProfit.sub(feeJackpot);\n            netProfit = netProfit.sub(feeOraclize);\n\n            oraclizeCallbacks[myid].profit = netProfit;  \n            emit logPlayerWins(\"Player wins: \", address(this), player, rolledDiceNumber, netProfit, riskPercentage, grossProfit );\n\n            // Increase jackpot\n            balances[owner] = balances[owner].add(feeJackpot);\n            emit logJackpotBalance(\"Balance owner: \", owner, balances[owner]);            \n\n             if(netProfit > 0) {             \n                 payWinner(player, betAmount, netProfit);          \n             }\n            \n         }\n\n         if(playerWins==false) {\n             emit logPlayerLose(\"Player lose: \",address(this), player, rolledDiceNumber, betAmount);\n        }\n\n    }\n\n  \n    function getContractBalance()\n        public\n        view\n        returns (uint)\n    {\n        return (address(this).balance);\n    }\n\n \n    /** \n     * @notice Fallback function - Called if other functions don't match call or sent ether without data\n     * Typically, called when invalid data is sent\n     * Added so ether sent to this contract is reverted if the contract fails. Otherwise, the sender's money is transferred to contract\n     */\n    function () external payable{ \n//        revert();        \n    }\n\n    function payWinner(address payable _player, uint _betAmount, uint _netProfit) \n    private \n    {\n        uint winAmount = _betAmount.add(_netProfit);\n        require( address(this).balance >= winAmount );\n        emit logPayWinner(\"Pay winner: \", _player, winAmount);            \n        _player.transfer(winAmount);\n    }\n\n   /**\n    * @notice Enable the emergency stop.\n    * @dev Owner of the smart contract activate the emergency stop.\n    */\n    function enableEmergency() \n        public \n        onlyOwner\n    {\n        emergencyStop = !emergencyStop;        \n    }\n\n}",
  "sourcePath": "/home/antonio/src/TFM/BLOCKCHAINTFM/RPS_Dapp/contracts/Dice.sol",
  "compiler": {
    "name": "solc",
    "version": "0.5.0+commit.1d4f565a.Emscripten.clang"
  },
  "schemaVersion": "3.0.2",
  "updatedAt": "2019-02-28T18:02:13.900Z",
  "devdoc": {
    "author": "Rodrigo Gmez Gentil, Antonio Cruz Surez",
    "methods": {
      "__callback(bytes32,string)": {
        "details": "Get the querys using the parameter myid",
        "params": {
          "myid": "The id of the query",
          "result": "The result of the query"
        }
      },
      "enableEmergency()": {
        "details": "Owner of the smart contract activate the emergency stop."
      }
    },
    "title": "Dice - Dice game"
  },
  "userdoc": {
    "methods": {
      "__callback(bytes32,string)": {
        "notice": "Callback function to emit the events with the information we want."
      },
      "enableEmergency()": {
        "notice": "Enable the emergency stop."
      }
    }
  }
}