{
  "contractName": "Dice",
  "abi": [
    {
      "constant": true,
      "inputs": [],
      "name": "maximumRisk",
      "outputs": [
        {
          "name": "",
          "type": "uint256"
        }
      ],
      "payable": false,
      "stateMutability": "view",
      "type": "function",
      "signature": "0x101a4406"
    },
    {
      "constant": true,
      "inputs": [],
      "name": "minimumRisk",
      "outputs": [
        {
          "name": "",
          "type": "uint256"
        }
      ],
      "payable": false,
      "stateMutability": "view",
      "type": "function",
      "signature": "0x1b9300e9"
    },
    {
      "constant": true,
      "inputs": [],
      "name": "getGameStatus",
      "outputs": [
        {
          "name": "",
          "type": "bool"
        }
      ],
      "payable": false,
      "stateMutability": "view",
      "type": "function",
      "signature": "0x382396ee"
    },
    {
      "constant": true,
      "inputs": [
        {
          "name": "",
          "type": "bytes32"
        }
      ],
      "name": "oraclizeCallbacks",
      "outputs": [
        {
          "name": "player",
          "type": "address"
        },
        {
          "name": "queryId",
          "type": "bytes32"
        },
        {
          "name": "risk",
          "type": "uint256"
        },
        {
          "name": "betAmount",
          "type": "uint256"
        },
        {
          "name": "rolledDiceNumber",
          "type": "uint256"
        },
        {
          "name": "profit",
          "type": "uint256"
        }
      ],
      "payable": false,
      "stateMutability": "view",
      "type": "function",
      "signature": "0x426d5ef1"
    },
    {
      "constant": true,
      "inputs": [],
      "name": "emergencyStop",
      "outputs": [
        {
          "name": "",
          "type": "bool"
        }
      ],
      "payable": false,
      "stateMutability": "view",
      "type": "function",
      "signature": "0x63a599a4"
    },
    {
      "constant": true,
      "inputs": [],
      "name": "jackpot",
      "outputs": [
        {
          "name": "",
          "type": "uint256"
        }
      ],
      "payable": false,
      "stateMutability": "view",
      "type": "function",
      "signature": "0x6b31ee01"
    },
    {
      "constant": true,
      "inputs": [],
      "name": "gameStatus",
      "outputs": [
        {
          "name": "",
          "type": "bool"
        }
      ],
      "payable": false,
      "stateMutability": "view",
      "type": "function",
      "signature": "0x722fed7e"
    },
    {
      "constant": true,
      "inputs": [],
      "name": "owner",
      "outputs": [
        {
          "name": "",
          "type": "address"
        }
      ],
      "payable": false,
      "stateMutability": "view",
      "type": "function",
      "signature": "0x8da5cb5b"
    },
    {
      "constant": true,
      "inputs": [],
      "name": "isOwner",
      "outputs": [
        {
          "name": "",
          "type": "bool"
        }
      ],
      "payable": false,
      "stateMutability": "view",
      "type": "function",
      "signature": "0x8f32d59b"
    },
    {
      "constant": true,
      "inputs": [],
      "name": "minimumBet",
      "outputs": [
        {
          "name": "",
          "type": "uint256"
        }
      ],
      "payable": false,
      "stateMutability": "view",
      "type": "function",
      "signature": "0xc38a8afd"
    },
    {
      "constant": true,
      "inputs": [],
      "name": "feeJackpot",
      "outputs": [
        {
          "name": "",
          "type": "uint256"
        }
      ],
      "payable": false,
      "stateMutability": "view",
      "type": "function",
      "signature": "0xc4e7b6a4"
    },
    {
      "constant": false,
      "inputs": [
        {
          "name": "_status",
          "type": "bool"
        }
      ],
      "name": "setGameStatus",
      "outputs": [],
      "payable": false,
      "stateMutability": "nonpayable",
      "type": "function",
      "signature": "0xcbe2e97e"
    },
    {
      "inputs": [],
      "payable": false,
      "stateMutability": "nonpayable",
      "type": "constructor",
      "signature": "constructor"
    },
    {
      "payable": true,
      "stateMutability": "payable",
      "type": "fallback"
    },
    {
      "anonymous": false,
      "inputs": [
        {
          "indexed": false,
          "name": "_contract",
          "type": "address"
        },
        {
          "indexed": false,
          "name": "_player",
          "type": "address"
        },
        {
          "indexed": false,
          "name": "_risk",
          "type": "uint256"
        },
        {
          "indexed": false,
          "name": "_bet",
          "type": "uint256"
        }
      ],
      "name": "logPlayerBetAccepted",
      "type": "event",
      "signature": "0x0493f0ee102db9238dcfc674e3590d07343d625075476694341009d96d905539"
    },
    {
      "anonymous": false,
      "inputs": [
        {
          "indexed": false,
          "name": "_contract",
          "type": "address"
        },
        {
          "indexed": false,
          "name": "_player",
          "type": "address"
        },
        {
          "indexed": false,
          "name": "_description",
          "type": "string"
        }
      ],
      "name": "logRollDice",
      "type": "event",
      "signature": "0x5c624037da372bb459131a7137f1657ae380b2419ed6071d29d957c194ed200c"
    },
    {
      "anonymous": false,
      "inputs": [
        {
          "indexed": false,
          "name": "_contract",
          "type": "address"
        },
        {
          "indexed": false,
          "name": "_oraclizeQueryId",
          "type": "bytes32"
        },
        {
          "indexed": false,
          "name": "_risk",
          "type": "uint256"
        },
        {
          "indexed": false,
          "name": "_rolledDiceNumber",
          "type": "uint256"
        }
      ],
      "name": "logRolledDiceNumber",
      "type": "event",
      "signature": "0x07d71ce827b2c0ead9f18b5f031f0385143e283c9491b21b96713a278acfacc0"
    },
    {
      "anonymous": false,
      "inputs": [
        {
          "indexed": false,
          "name": "description",
          "type": "string"
        },
        {
          "indexed": false,
          "name": "_contract",
          "type": "address"
        },
        {
          "indexed": false,
          "name": "_player",
          "type": "address"
        },
        {
          "indexed": false,
          "name": "_rolledDiceNumber",
          "type": "uint256"
        },
        {
          "indexed": false,
          "name": "_betAmount",
          "type": "uint256"
        }
      ],
      "name": "logPlayerLose",
      "type": "event",
      "signature": "0x18008b5f6086bd3b79827452d1500916d620037ff83bf69d6d7e739040733d0f"
    },
    {
      "anonymous": false,
      "inputs": [
        {
          "indexed": false,
          "name": "description",
          "type": "string"
        },
        {
          "indexed": false,
          "name": "_contract",
          "type": "address"
        },
        {
          "indexed": false,
          "name": "_winner",
          "type": "address"
        },
        {
          "indexed": false,
          "name": "_rolledDiceNumber",
          "type": "uint256"
        },
        {
          "indexed": false,
          "name": "_profit",
          "type": "uint256"
        }
      ],
      "name": "logPlayerWins",
      "type": "event",
      "signature": "0xc4cfaea7e643952941f9703b6024c682372fc04075a3bf87687287b71f074469"
    },
    {
      "anonymous": false,
      "inputs": [
        {
          "indexed": false,
          "name": "_status",
          "type": "bool"
        }
      ],
      "name": "logGameStatus",
      "type": "event",
      "signature": "0x114356cc8b1254eb1c0a759cbf197793e81521b60f10fa8080e236421bd0c25e"
    },
    {
      "anonymous": false,
      "inputs": [
        {
          "indexed": false,
          "name": "description",
          "type": "string"
        }
      ],
      "name": "logNewOraclizeQuery",
      "type": "event",
      "signature": "0xd0f9dea447b4e92bc04cc421beba62dbef9e0f6d77e1d798c15ff591941edd70"
    },
    {
      "anonymous": false,
      "inputs": [
        {
          "indexed": false,
          "name": "_contractBalance",
          "type": "uint256"
        }
      ],
      "name": "logContractBalance",
      "type": "event",
      "signature": "0xd4a125efef1c3fca9f2d63ea257a143623b80df1843e34bf3bb8c3021739faf8"
    },
    {
      "anonymous": false,
      "inputs": [
        {
          "indexed": false,
          "name": "description",
          "type": "string"
        },
        {
          "indexed": false,
          "name": "_ownerAddress",
          "type": "address"
        },
        {
          "indexed": false,
          "name": "_ownerBalance",
          "type": "uint256"
        }
      ],
      "name": "logJackpotBalance",
      "type": "event",
      "signature": "0xd8846f41f4f0707db7a462eb57d3e2708cb1e9cb641b44000ca2edcd8cad1b8e"
    },
    {
      "anonymous": false,
      "inputs": [
        {
          "indexed": false,
          "name": "description",
          "type": "string"
        },
        {
          "indexed": false,
          "name": "_playerAddress",
          "type": "address"
        },
        {
          "indexed": false,
          "name": "_winAmount",
          "type": "uint256"
        }
      ],
      "name": "logPayWinner",
      "type": "event",
      "signature": "0x1d1f8e36149fc07505f5876cceb2ca561904e9e3a940effa716d74765df24c2e"
    },
    {
      "anonymous": false,
      "inputs": [
        {
          "indexed": false,
          "name": "description",
          "type": "string"
        },
        {
          "indexed": false,
          "name": "_maxAllowedBet",
          "type": "uint256"
        }
      ],
      "name": "logMaxAllowedBet",
      "type": "event",
      "signature": "0xadeaade94d61b1de6450a378938d3b7226431f1129423ef8b283f5991164fbc7"
    },
    {
      "constant": false,
      "inputs": [
        {
          "name": "risk",
          "type": "uint256"
        }
      ],
      "name": "rollDice",
      "outputs": [
        {
          "name": "success",
          "type": "bool"
        }
      ],
      "payable": true,
      "stateMutability": "payable",
      "type": "function",
      "signature": "0xacfff377"
    },
    {
      "constant": false,
      "inputs": [
        {
          "name": "_myid",
          "type": "bytes32"
        },
        {
          "name": "_result",
          "type": "string"
        }
      ],
      "name": "__callback",
      "outputs": [],
      "payable": false,
      "stateMutability": "nonpayable",
      "type": "function",
      "signature": "0x27dc297e"
    },
    {
      "constant": false,
      "inputs": [
        {
          "name": "myid",
          "type": "bytes32"
        },
        {
          "name": "result",
          "type": "string"
        },
        {
          "name": "proof",
          "type": "bytes"
        }
      ],
      "name": "__callback",
      "outputs": [],
      "payable": false,
      "stateMutability": "nonpayable",
      "type": "function",
      "signature": "0x38bbfa50"
    },
    {
      "constant": true,
      "inputs": [],
      "name": "getContractBalance",
      "outputs": [
        {
          "name": "",
          "type": "uint256"
        }
      ],
      "payable": false,
      "stateMutability": "view",
      "type": "function",
      "signature": "0x6f9fb98a"
    },
    {
      "constant": false,
      "inputs": [],
      "name": "sendMoney",
      "outputs": [],
      "payable": true,
      "stateMutability": "payable",
      "type": "function",
      "signature": "0xcbedbf5a"
    },
    {
      "constant": false,
      "inputs": [],
      "name": "enableEmergency",
      "outputs": [],
      "payable": false,
      "stateMutability": "nonpayable",
      "type": "function",
      "signature": "0xe42c4e63"
    }
  ],
  "bytecode": "0x6080604052655af3107a4000600655601e600755605f6008556611c37937e080006009556000600a553480156200003557600080fd5b5033600560006101000a81548173ffffffffffffffffffffffffffffffffffffffff021916908373ffffffffffffffffffffffffffffffffffffffff160217905550736f485c8bf6fc43ea212e93bbf8ce046c7f1cb475600160006101000a81548173ffffffffffffffffffffffffffffffffffffffff021916908373ffffffffffffffffffffffffffffffffffffffff1602179055506200012e60017f01000000000000000000000000000000000000000000000000000000000000000260107f01000000000000000000000000000000000000000000000000000000000000000217620001a2640100000000026401000000009004565b6200014960016200056d640100000000026401000000009004565b7f114356cc8b1254eb1c0a759cbf197793e81521b60f10fa8080e236421bd0c25e620001836200058a640100000000026401000000009004565b604051808215151515815260200191505060405180910390a162000bf8565b600073ffffffffffffffffffffffffffffffffffffffff16600160009054906101000a900473ffffffffffffffffffffffffffffffffffffffff1673ffffffffffffffffffffffffffffffffffffffff1614806200023b5750600062000239600160009054906101000a900473ffffffffffffffffffffffffffffffffffffffff16620005a1640100000000026401000000009004565b145b156200025e576200025c6000620005ac640100000000026401000000009004565b505b600160009054906101000a900473ffffffffffffffffffffffffffffffffffffffff1673ffffffffffffffffffffffffffffffffffffffff166338cc48316040518163ffffffff167c0100000000000000000000000000000000000000000000000000000000028152600401602060405180830381600087803b158015620002e557600080fd5b505af1158015620002fa573d6000803e3d6000fd5b505050506040513d60208110156200031157600080fd5b810190808051906020019092919050505073ffffffffffffffffffffffffffffffffffffffff166000809054906101000a900473ffffffffffffffffffffffffffffffffffffffff1673ffffffffffffffffffffffffffffffffffffffff161415156200047c57600160009054906101000a900473ffffffffffffffffffffffffffffffffffffffff1673ffffffffffffffffffffffffffffffffffffffff166338cc48316040518163ffffffff167c0100000000000000000000000000000000000000000000000000000000028152600401602060405180830381600087803b158015620003ff57600080fd5b505af115801562000414573d6000803e3d6000fd5b505050506040513d60208110156200042b57600080fd5b81019080805190602001909291905050506000806101000a81548173ffffffffffffffffffffffffffffffffffffffff021916908373ffffffffffffffffffffffffffffffffffffffff1602179055505b6000809054906101000a900473ffffffffffffffffffffffffffffffffffffffff1673ffffffffffffffffffffffffffffffffffffffff1663688dcfd7826040518263ffffffff167c010000000000000000000000000000000000000000000000000000000002815260040180827effffffffffffffffffffffffffffffffffffffffffffffffffffffffffffff19167effffffffffffffffffffffffffffffffffffffffffffffffffffffffffffff19168152602001915050600060405180830381600087803b1580156200055157600080fd5b505af115801562000566573d6000803e3d6000fd5b5050505050565b80600560146101000a81548160ff02191690831515021790555050565b6000600560149054906101000a900460ff16905090565b6000813b9050919050565b6000620005c7620005ce640100000000026401000000009004565b9050919050565b600080620005ff731d3b2638a7cc9f2cb3d298a3da7a90b67e5506ed620005a1640100000000026401000000009004565b1115620006b457731d3b2638a7cc9f2cb3d298a3da7a90b67e5506ed600160006101000a81548173ffffffffffffffffffffffffffffffffffffffff021916908373ffffffffffffffffffffffffffffffffffffffff160217905550620006aa6040805190810160405280600b81526020017f6574685f6d61696e6e657400000000000000000000000000000000000000000081525062000b2d640100000000026401000000009004565b6001905062000b2a565b6000620006e473c03a2615d5efaf5f49f60b7bb6583eaec212fdf1620005a1640100000000026401000000009004565b1115620007995773c03a2615d5efaf5f49f60b7bb6583eaec212fdf1600160006101000a81548173ffffffffffffffffffffffffffffffffffffffff021916908373ffffffffffffffffffffffffffffffffffffffff1602179055506200078f6040805190810160405280600c81526020017f6574685f726f707374656e33000000000000000000000000000000000000000081525062000b2d640100000000026401000000009004565b6001905062000b2a565b6000620007c973b7a07bcf2ba2f2703b24c0691b5278999c59ac7e620005a1640100000000026401000000009004565b11156200087e5773b7a07bcf2ba2f2703b24c0691b5278999c59ac7e600160006101000a81548173ffffffffffffffffffffffffffffffffffffffff021916908373ffffffffffffffffffffffffffffffffffffffff160217905550620008746040805190810160405280600981526020017f6574685f6b6f76616e000000000000000000000000000000000000000000000081525062000b2d640100000000026401000000009004565b6001905062000b2a565b6000620008ae73146500cfd35b22e4a392fe0adc06de1a1368ed48620005a1640100000000026401000000009004565b1115620009635773146500cfd35b22e4a392fe0adc06de1a1368ed48600160006101000a81548173ffffffffffffffffffffffffffffffffffffffff021916908373ffffffffffffffffffffffffffffffffffffffff160217905550620009596040805190810160405280600b81526020017f6574685f72696e6b65627900000000000000000000000000000000000000000081525062000b2d640100000000026401000000009004565b6001905062000b2a565b600062000993736f485c8bf6fc43ea212e93bbf8ce046c7f1cb475620005a1640100000000026401000000009004565b1115620009f957736f485c8bf6fc43ea212e93bbf8ce046c7f1cb475600160006101000a81548173ffffffffffffffffffffffffffffffffffffffff021916908373ffffffffffffffffffffffffffffffffffffffff1602179055506001905062000b2a565b600062000a297320e12a1f859b3feae5fb2a0a32c18f5a65555bbf620005a1640100000000026401000000009004565b111562000a8f577320e12a1f859b3feae5fb2a0a32c18f5a65555bbf600160006101000a81548173ffffffffffffffffffffffffffffffffffffffff021916908373ffffffffffffffffffffffffffffffffffffffff1602179055506001905062000b2a565b600062000abf7351efaf4c8b3c9afbd5ab9f4bbc82784ab6ef8faa620005a1640100000000026401000000009004565b111562000b25577351efaf4c8b3c9afbd5ab9f4bbc82784ab6ef8faa600160006101000a81548173ffffffffffffffffffffffffffffffffffffffff021916908373ffffffffffffffffffffffffffffffffffffffff1602179055506001905062000b2a565b600090505b90565b806002908051906020019062000b4592919062000b49565b5050565b828054600181600116156101000203166002900490600052602060002090601f016020900481019282601f1062000b8c57805160ff191683800117855562000bbd565b8280016001018555821562000bbd579182015b8281111562000bbc57825182559160200191906001019062000b9f565b5b50905062000bcc919062000bd0565b5090565b62000bf591905b8082111562000bf157600081600090555060010162000bd7565b5090565b90565b6127268062000c086000396000f3fe6080604052600436106100fc576000357c0100000000000000000000000000000000000000000000000000000000900463ffffffff168063101a4406146100fe5780631b9300e91461012957806327dc297e14610154578063382396ee1461022657806338bbfa5014610255578063426d5ef1146103be57806363a599a41461045c5780636b31ee011461048b5780636f9fb98a146104b6578063722fed7e146104e15780638da5cb5b146105105780638f32d59b14610567578063acfff37714610596578063c38a8afd146105dc578063c4e7b6a414610607578063cbe2e97e14610632578063cbedbf5a1461066f578063e42c4e6314610679575b005b34801561010a57600080fd5b50610113610690565b6040518082815260200191505060405180910390f35b34801561013557600080fd5b5061013e610696565b6040518082815260200191505060405180910390f35b34801561016057600080fd5b506102246004803603604081101561017757600080fd5b81019080803590602001909291908035906020019064010000000081111561019e57600080fd5b8201836020820111156101b057600080fd5b803590602001918460018302840111640100000000831117156101d257600080fd5b91908080601f016020809104026020016040519081016040528093929190818152602001838380828437600081840152601f19601f82011690508083019250505050505050919291929050505061069c565b005b34801561023257600080fd5b5061023b6106df565b604051808215151515815260200191505060405180910390f35b34801561026157600080fd5b506103bc6004803603606081101561027857600080fd5b81019080803590602001909291908035906020019064010000000081111561029f57600080fd5b8201836020820111156102b157600080fd5b803590602001918460018302840111640100000000831117156102d357600080fd5b91908080601f016020809104026020016040519081016040528093929190818152602001838380828437600081840152601f19601f8201169050808301925050505050505091929192908035906020019064010000000081111561033657600080fd5b82018360208201111561034857600080fd5b8035906020019184600183028401116401000000008311171561036a57600080fd5b91908080601f016020809104026020016040519081016040528093929190818152602001838380828437600081840152601f19601f8201169050808301925050505050505091929192905050506106f6565b005b3480156103ca57600080fd5b506103f7600480360360208110156103e157600080fd5b8101908080359060200190929190505050610c7d565b604051808773ffffffffffffffffffffffffffffffffffffffff1673ffffffffffffffffffffffffffffffffffffffff168152602001868152602001858152602001848152602001838152602001828152602001965050505050505060405180910390f35b34801561046857600080fd5b50610471610cd9565b604051808215151515815260200191505060405180910390f35b34801561049757600080fd5b506104a0610cec565b6040518082815260200191505060405180910390f35b3480156104c257600080fd5b506104cb610cf2565b6040518082815260200191505060405180910390f35b3480156104ed57600080fd5b506104f6610d11565b604051808215151515815260200191505060405180910390f35b34801561051c57600080fd5b50610525610d24565b604051808273ffffffffffffffffffffffffffffffffffffffff1673ffffffffffffffffffffffffffffffffffffffff16815260200191505060405180910390f35b34801561057357600080fd5b5061057c610d4a565b604051808215151515815260200191505060405180910390f35b6105c2600480360360208110156105ac57600080fd5b8101908080359060200190929190505050610da2565b604051808215151515815260200191505060405180910390f35b3480156105e857600080fd5b506105f16111a9565b6040518082815260200191505060405180910390f35b34801561061357600080fd5b5061061c6111af565b6040518082815260200191505060405180910390f35b34801561063e57600080fd5b5061066d6004803603602081101561065557600080fd5b810190808035151590602001909291905050506111b5565b005b6106776111d2565b005b34801561068557600080fd5b5061068e6111d4565b005b60085481565b60075481565b6106db828260006040519080825280601f01601f1916602001820160405280156106d55781602001600182028038833980820191505090505b506106f6565b5050565b6000600560149054906101000a900460ff16905090565b6000809050610703611213565b73ffffffffffffffffffffffffffffffffffffffff163373ffffffffffffffffffffffffffffffffffffffff1614151561073c57600080fd5b6000600b600086815260200190815260200160002060000160009054906101000a900473ffffffffffffffffffffffffffffffffffffffff169050600061078285611586565b905080600b6000888152602001908152602001600020600401819055506000600b60008881526020019081526020016000206002015490506000600b60008981526020019081526020016000206003015490507f07d71ce827b2c0ead9f18b5f031f0385143e283c9491b21b96713a278acfacc030898486604051808573ffffffffffffffffffffffffffffffffffffffff1673ffffffffffffffffffffffffffffffffffffffff16815260200184815260200183815260200182815260200194505050505060405180910390a18183111561085d57600194505b8415610b8557600061086f828461159a565b905080600b60008b8152602001908152602001600020600501819055507fc4cfaea7e643952941f9703b6024c682372fc04075a3bf87687287b71f0744693086868460405180806020018673ffffffffffffffffffffffffffffffffffffffff1673ffffffffffffffffffffffffffffffffffffffff1681526020018573ffffffffffffffffffffffffffffffffffffffff1673ffffffffffffffffffffffffffffffffffffffff1681526020018481526020018381526020018281038252600d8152602001807f506c617965722077696e733a20000000000000000000000000000000000000008152506020019550505050505060405180910390a16109e2600954600c6000600560009054906101000a900473ffffffffffffffffffffffffffffffffffffffff1673ffffffffffffffffffffffffffffffffffffffff1673ffffffffffffffffffffffffffffffffffffffff1681526020019081526020016000205461164890919063ffffffff16565b600c6000600560009054906101000a900473ffffffffffffffffffffffffffffffffffffffff1673ffffffffffffffffffffffffffffffffffffffff1673ffffffffffffffffffffffffffffffffffffffff168152602001908152602001600020819055507fd8846f41f4f0707db7a462eb57d3e2708cb1e9cb641b44000ca2edcd8cad1b8e600560009054906101000a900473ffffffffffffffffffffffffffffffffffffffff16600c6000600560009054906101000a900473ffffffffffffffffffffffffffffffffffffffff1673ffffffffffffffffffffffffffffffffffffffff1673ffffffffffffffffffffffffffffffffffffffff1681526020019081526020016000205460405180806020018473ffffffffffffffffffffffffffffffffffffffff1673ffffffffffffffffffffffffffffffffffffffff1681526020018381526020018281038252600f8152602001807f42616c616e6365206f776e65723a200000000000000000000000000000000000815250602001935050505060405180910390a16000811115610b8357610b82858383611669565b5b505b600015158515151415610c73577f18008b5f6086bd3b79827452d1500916d620037ff83bf69d6d7e739040733d0f3085858460405180806020018673ffffffffffffffffffffffffffffffffffffffff1673ffffffffffffffffffffffffffffffffffffffff1681526020018573ffffffffffffffffffffffffffffffffffffffff1673ffffffffffffffffffffffffffffffffffffffff1681526020018481526020018381526020018281038252600d8152602001807f506c61796572206c6f73653a20000000000000000000000000000000000000008152506020019550505050505060405180910390a15b5050505050505050565b600b6020528060005260406000206000915090508060000160009054906101000a900473ffffffffffffffffffffffffffffffffffffffff16908060010154908060020154908060030154908060040154908060050154905086565b600560159054906101000a900460ff1681565b600a5481565b60003073ffffffffffffffffffffffffffffffffffffffff1631905090565b600560149054906101000a900460ff1681565b600560009054906101000a900473ffffffffffffffffffffffffffffffffffffffff1681565b6000600560009054906101000a900473ffffffffffffffffffffffffffffffffffffffff1673ffffffffffffffffffffffffffffffffffffffff163373ffffffffffffffffffffffffffffffffffffffff1614905090565b6000600560159054906101000a900460ff1615156111a45760011515610dc66106df565b1515141515610dd457600080fd5b60008033905060003490506000806000610dec610cf2565b9050610df8848961159a565b9150610e0d828261179790919063ffffffff16565b9250610e236002846117b990919063ffffffff16565b92507fadeaade94d61b1de6450a378938d3b7226431f1129423ef8b283f5991164fbc7836040518080602001838152602001828103825260168152602001807f4d6178696d756d206265742061636365707465643a20000000000000000000008152506020019250505060405180910390a18084101515610ea357600080fd5b610eb084600654856117e3565b1515610ebb57600080fd5b610eca886007546008546117fd565b1515610ed557600080fd5b7f0493f0ee102db9238dcfc674e3590d07343d625075476694341009d96d90553930868a87604051808573ffffffffffffffffffffffffffffffffffffffff1673ffffffffffffffffffffffffffffffffffffffff1681526020018473ffffffffffffffffffffffffffffffffffffffff1673ffffffffffffffffffffffffffffffffffffffff16815260200183815260200182815260200194505050505060405180910390a17f5c624037da372bb459131a7137f1657ae380b2419ed6071d29d957c194ed200c3086604051808373ffffffffffffffffffffffffffffffffffffffff1673ffffffffffffffffffffffffffffffffffffffff1681526020018273ffffffffffffffffffffffffffffffffffffffff1673ffffffffffffffffffffffffffffffffffffffff16815260200180602001828103825260428152602001807f4f7261636c697a6520717565727920746f2072616e646f6d2e6f72672077617381526020017f2073656e742c207374616e64696e6720627920666f722074686520616e73776581526020017f722e000000000000000000000000000000000000000000000000000000000000815250606001935050505060405180910390a16110f16040805190810160405280600381526020017f55524c00000000000000000000000000000000000000000000000000000000008152506101006040519081016040528060e0815260200161261b60e09139611817565b955085600b60008881526020019081526020016000206001018190555084600b600088815260200190815260200160002060000160006101000a81548173ffffffffffffffffffffffffffffffffffffffff021916908373ffffffffffffffffffffffffffffffffffffffff16021790555087600b60008881526020019081526020016000206002018190555083600b600088815260200190815260200160002060030181905550600196505050505050505b919050565b60065481565b60095481565b80600560146101000a81548160ff02191690831515021790555050565b565b6111dc610d4a565b15156111e757600080fd5b600560159054906101000a900460ff1615600560156101000a81548160ff021916908315150217905550565b60008073ffffffffffffffffffffffffffffffffffffffff16600160009054906101000a900473ffffffffffffffffffffffffffffffffffffffff1673ffffffffffffffffffffffffffffffffffffffff16148061129b57506000611299600160009054906101000a900473ffffffffffffffffffffffffffffffffffffffff16611dd0565b145b156112ac576112aa6000611ddb565b505b600160009054906101000a900473ffffffffffffffffffffffffffffffffffffffff1673ffffffffffffffffffffffffffffffffffffffff166338cc48316040518163ffffffff167c0100000000000000000000000000000000000000000000000000000000028152600401602060405180830381600087803b15801561133257600080fd5b505af1158015611346573d6000803e3d6000fd5b505050506040513d602081101561135c57600080fd5b810190808051906020019092919050505073ffffffffffffffffffffffffffffffffffffffff166000809054906101000a900473ffffffffffffffffffffffffffffffffffffffff1673ffffffffffffffffffffffffffffffffffffffff161415156114c357600160009054906101000a900473ffffffffffffffffffffffffffffffffffffffff1673ffffffffffffffffffffffffffffffffffffffff166338cc48316040518163ffffffff167c0100000000000000000000000000000000000000000000000000000000028152600401602060405180830381600087803b15801561144857600080fd5b505af115801561145c573d6000803e3d6000fd5b505050506040513d602081101561147257600080fd5b81019080805190602001909291905050506000806101000a81548173ffffffffffffffffffffffffffffffffffffffff021916908373ffffffffffffffffffffffffffffffffffffffff1602179055505b6000809054906101000a900473ffffffffffffffffffffffffffffffffffffffff1673ffffffffffffffffffffffffffffffffffffffff1663c281d19e6040518163ffffffff167c010000000000000000000000000000000000000000000000000000000002815260040160206040518083038186803b15801561154657600080fd5b505afa15801561155a573d6000803e3d6000fd5b505050506040513d602081101561157057600080fd5b8101908080519060200190929190505050905090565b6000611593826000611dec565b9050919050565b6000806000806000670de0b6b3a764000090506000660e35fa931a000090506115cc878361208790919063ffffffff16565b92506115e26064846117b990919063ffffffff16565b92506115f7838961208790919063ffffffff16565b945061160c82866117b990919063ffffffff16565b94506116236009548661179790919063ffffffff16565b9350611638818561179790919063ffffffff16565b9350839550505050505092915050565b600080828401905083811015151561165f57600080fd5b8091505092915050565b600061167e828461164890919063ffffffff16565b9050803073ffffffffffffffffffffffffffffffffffffffff1631101515156116a657600080fd5b7f1d1f8e36149fc07505f5876cceb2ca561904e9e3a940effa716d74765df24c2e848260405180806020018473ffffffffffffffffffffffffffffffffffffffff1673ffffffffffffffffffffffffffffffffffffffff1681526020018381526020018281038252600c8152602001807f5061792077696e6e65723a200000000000000000000000000000000000000000815250602001935050505060405180910390a18373ffffffffffffffffffffffffffffffffffffffff166108fc829081150290604051600060405180830381858888f19350505050158015611790573d6000803e3d6000fd5b5050505050565b60008282111515156117a857600080fd5b600082840390508091505092915050565b600080821115156117c957600080fd5b600082848115156117d657fe5b0490508091505092915050565b60008284101580156117f457508184105b90509392505050565b6000828411801561180e5750818411155b90509392505050565b60008073ffffffffffffffffffffffffffffffffffffffff16600160009054906101000a900473ffffffffffffffffffffffffffffffffffffffff1673ffffffffffffffffffffffffffffffffffffffff16148061189f5750600061189d600160009054906101000a900473ffffffffffffffffffffffffffffffffffffffff16611dd0565b145b156118b0576118ae6000611ddb565b505b600160009054906101000a900473ffffffffffffffffffffffffffffffffffffffff1673ffffffffffffffffffffffffffffffffffffffff166338cc48316040518163ffffffff167c0100000000000000000000000000000000000000000000000000000000028152600401602060405180830381600087803b15801561193657600080fd5b505af115801561194a573d6000803e3d6000fd5b505050506040513d602081101561196057600080fd5b810190808051906020019092919050505073ffffffffffffffffffffffffffffffffffffffff166000809054906101000a900473ffffffffffffffffffffffffffffffffffffffff1673ffffffffffffffffffffffffffffffffffffffff16141515611ac757600160009054906101000a900473ffffffffffffffffffffffffffffffffffffffff1673ffffffffffffffffffffffffffffffffffffffff166338cc48316040518163ffffffff167c0100000000000000000000000000000000000000000000000000000000028152600401602060405180830381600087803b158015611a4c57600080fd5b505af1158015611a60573d6000803e3d6000fd5b505050506040513d6020811015611a7657600080fd5b81019080805190602001909291905050506000806101000a81548173ffffffffffffffffffffffffffffffffffffffff021916908373ffffffffffffffffffffffffffffffffffffffff1602179055505b60008060009054906101000a900473ffffffffffffffffffffffffffffffffffffffff1673ffffffffffffffffffffffffffffffffffffffff1663524f3889856040518263ffffffff167c01000000000000000000000000000000000000000000000000000000000281526004018080602001828103825283818151815260200191508051906020019080838360005b83811015611b72578082015181840152602081019050611b57565b50505050905090810190601f168015611b9f5780820380516001836020036101000a031916815260200191505b5092505050602060405180830381600087803b158015611bbe57600080fd5b505af1158015611bd2573d6000803e3d6000fd5b505050506040513d6020811015611be857600080fd5b8101908080519060200190929190505050905062030d403a02670de0b6b3a764000001811115611c1f576000600102915050611dca565b6000809054906101000a900473ffffffffffffffffffffffffffffffffffffffff1673ffffffffffffffffffffffffffffffffffffffff1663adf59f9982600087876040518563ffffffff167c0100000000000000000000000000000000000000000000000000000000028152600401808481526020018060200180602001838103835285818151815260200191508051906020019080838360005b83811015611cd6578082015181840152602081019050611cbb565b50505050905090810190601f168015611d035780820380516001836020036101000a031916815260200191505b50838103825284818151815260200191508051906020019080838360005b83811015611d3c578082015181840152602081019050611d21565b50505050905090810190601f168015611d695780820380516001836020036101000a031916815260200191505b50955050505050506020604051808303818588803b158015611d8a57600080fd5b505af1158015611d9e573d6000803e3d6000fd5b50505050506040513d6020811015611db557600080fd5b81019080805190602001909291905050509150505b92915050565b6000813b9050919050565b6000611de56120c5565b9050919050565b600060608390506000809050600080905060008090505b83518110156120685760308482815181101515611e1c57fe5b9060200101517f010000000000000000000000000000000000000000000000000000000000000090047f0100000000000000000000000000000000000000000000000000000000000000027f0100000000000000000000000000000000000000000000000000000000000000900460ff1610158015611f1a575060398482815181101515611ea657fe5b9060200101517f010000000000000000000000000000000000000000000000000000000000000090047f0100000000000000000000000000000000000000000000000000000000000000027f0100000000000000000000000000000000000000000000000000000000000000900460ff1611155b15611fce578115611f3d576000861415611f3357612068565b8580600190039650505b600a8302925060308482815181101515611f5357fe5b9060200101517f010000000000000000000000000000000000000000000000000000000000000090047f0100000000000000000000000000000000000000000000000000000000000000027f0100000000000000000000000000000000000000000000000000000000000000900460ff16038301925061205b565b602e8482815181101515611fde57fe5b9060200101517f010000000000000000000000000000000000000000000000000000000000000090047f0100000000000000000000000000000000000000000000000000000000000000027f0100000000000000000000000000000000000000000000000000000000000000900460ff16141561205a57600191505b5b8080600101915050611e03565b50600085111561207b5784600a0a820291505b81935050505092915050565b60008083141561209a57600090506120bf565b600082840290508284828115156120ad57fe5b041415156120ba57600080fd5b809150505b92915050565b6000806120e5731d3b2638a7cc9f2cb3d298a3da7a90b67e5506ed611dd0565b111561218757731d3b2638a7cc9f2cb3d298a3da7a90b67e5506ed600160006101000a81548173ffffffffffffffffffffffffffffffffffffffff021916908373ffffffffffffffffffffffffffffffffffffffff16021790555061217e6040805190810160405280600b81526020017f6574685f6d61696e6e657400000000000000000000000000000000000000000081525061255b565b60019050612558565b60006121a673c03a2615d5efaf5f49f60b7bb6583eaec212fdf1611dd0565b11156122485773c03a2615d5efaf5f49f60b7bb6583eaec212fdf1600160006101000a81548173ffffffffffffffffffffffffffffffffffffffff021916908373ffffffffffffffffffffffffffffffffffffffff16021790555061223f6040805190810160405280600c81526020017f6574685f726f707374656e33000000000000000000000000000000000000000081525061255b565b60019050612558565b600061226773b7a07bcf2ba2f2703b24c0691b5278999c59ac7e611dd0565b11156123095773b7a07bcf2ba2f2703b24c0691b5278999c59ac7e600160006101000a81548173ffffffffffffffffffffffffffffffffffffffff021916908373ffffffffffffffffffffffffffffffffffffffff1602179055506123006040805190810160405280600981526020017f6574685f6b6f76616e000000000000000000000000000000000000000000000081525061255b565b60019050612558565b600061232873146500cfd35b22e4a392fe0adc06de1a1368ed48611dd0565b11156123ca5773146500cfd35b22e4a392fe0adc06de1a1368ed48600160006101000a81548173ffffffffffffffffffffffffffffffffffffffff021916908373ffffffffffffffffffffffffffffffffffffffff1602179055506123c16040805190810160405280600b81526020017f6574685f72696e6b65627900000000000000000000000000000000000000000081525061255b565b60019050612558565b60006123e9736f485c8bf6fc43ea212e93bbf8ce046c7f1cb475611dd0565b111561244d57736f485c8bf6fc43ea212e93bbf8ce046c7f1cb475600160006101000a81548173ffffffffffffffffffffffffffffffffffffffff021916908373ffffffffffffffffffffffffffffffffffffffff16021790555060019050612558565b600061246c7320e12a1f859b3feae5fb2a0a32c18f5a65555bbf611dd0565b11156124d0577320e12a1f859b3feae5fb2a0a32c18f5a65555bbf600160006101000a81548173ffffffffffffffffffffffffffffffffffffffff021916908373ffffffffffffffffffffffffffffffffffffffff16021790555060019050612558565b60006124ef7351efaf4c8b3c9afbd5ab9f4bbc82784ab6ef8faa611dd0565b1115612553577351efaf4c8b3c9afbd5ab9f4bbc82784ab6ef8faa600160006101000a81548173ffffffffffffffffffffffffffffffffffffffff021916908373ffffffffffffffffffffffffffffffffffffffff16021790555060019050612558565b600090505b90565b8060029080519060200190612571929190612575565b5050565b828054600181600116156101000203166002900490600052602060002090601f016020900481019282601f106125b657805160ff19168380011785556125e4565b828001600101855582156125e4579182015b828111156125e35782518255916020019190600101906125c8565b5b5090506125f191906125f5565b5090565b61261791905b808211156126135760008160009055506001016125fb565b5090565b9056fe424137765079556c746379377a3276637645412f425243736a54314869634f6b6679475265433770636d2b612b6c3065547a762b67733769677a4246354c4e475a47384c754f43664b4b51593368665252575a345665734d77577537497246727648536556492f546f4c4978673632483975756a507677634871707243424d32766d74415455576d4f4578666e6265384c627977656476682f52386d48664538334b4d69744e7a355743372f62495a526374537566627447462b754c616f45694c4a656a6a71543543556c38584b51322b4b473259436a4a696e6531536f6430a165627a7a723058200c0c45436b6b58056d54251fa26a9c75701142ad82a394d10ec2cad41f5470fd0029",
  "source": "pragma solidity ^0.5.0;\n\nimport \"./Ownable.sol\";\nimport \"./oraclizeAPI.sol\";\nimport \"./SafeMath.sol\";\nimport \"./DiceLib.sol\";\nimport \"./StartStopGame.sol\";\n\n\n/** @title Dice - Dice game\n  * @author Rodrigo Gmez Gentil, Antonio Cruz Surez\n */\n\ncontract Dice is usingOraclize, Ownable, StartStopGame {\n\n    using SafeMath for uint;\n\n    bool public emergencyStop;\n    \n    modifier noEmergency \n    { \n        if (!emergencyStop) \n        _;\n    }\n    \n    modifier inEmergency \n    {\n        if (emergencyStop) \n        _;\n    }\n\n    uint public minimumBet = 0.0001 ether;\n    uint public minimumRisk = 30;\n    uint public maximumRisk = 95;\n    uint public feeJackpot =  5000000000000000;  // Fund to jackpot 0.005 ether as a fee\n    \n    uint public jackpot = 0;\n    \n    // All oraclize calls will result in a common callback to __callback(...).\n    struct oraclizeCallback {\n        address payable player;\n        bytes32 queryId;\n        uint    risk;\n        uint    betAmount;\n        uint    rolledDiceNumber;\n        uint    profit;\n    }\n\n     mapping (bytes32 => oraclizeCallback) public oraclizeCallbacks;\n     mapping (address => uint) private balances;\n\n    // Events\n    event logPlayerBetAccepted(address _contract, address _player, uint _risk, uint _bet);\n    event logRollDice(address _contract, address _player, string _description);\n    event logRolledDiceNumber(address _contract, bytes32 _oraclizeQueryId, uint _risk, uint _rolledDiceNumber);\n    event logPlayerLose(string description, address _contract, address _player, uint _rolledDiceNumber, uint _betAmount);\n    event logPlayerWins(string description, address _contract, address _winner, uint _rolledDiceNumber, uint _profit);\n    event logGameStatus(bool _status);\n    event logNewOraclizeQuery(string description);\n    event logContractBalance(uint _contractBalance);\n    event logJackpotBalance(string description, address _ownerAddress, uint _ownerBalance);\n    event logPayWinner(string description, address _playerAddress, uint _winAmount);\n    event logMaxAllowedBet(string description, uint _maxAllowedBet);\n\n\n    constructor() \n    public\n    {\n        // Replace the next line with your version:\n        OAR = OraclizeAddrResolverI(0x6f485C8BF6fc43eA212E93BBF8ce046C7f1cb475);\n        // set Oraclize proof type\n        oraclize_setProof(proofType_TLSNotary | proofStorage_IPFS);\n        setGameStatus(true);\n        emit logGameStatus(getGameStatus());\n\n    }\n\n    function rollDice(uint risk) \n        public \n        noEmergency\n        gameIsOn\n        payable\n        returns (bool success)\n    {\n        \n        bytes32 oraclizeQueryId;        \n        address payable player = msg.sender;                \n\n        uint betAmount = msg.value; \n        uint maximumBet;\n        uint netPossibleProfit;\n        uint contractBalance = getContractBalance();\n\n\n        netPossibleProfit = calculateProfit(betAmount, risk);\n        maximumBet = contractBalance.sub(netPossibleProfit);\n        maximumBet = maximumBet.div(2); \n        emit logMaxAllowedBet(\"Maximum bet accepted: \", maximumBet);\n\n        require(betAmount < contractBalance);       \n        require(DiceLib.isValidBet(betAmount, minimumBet, maximumBet));\n        require(DiceLib.isValidRisk(risk, minimumRisk, maximumRisk));\n        emit logPlayerBetAccepted(address(this), player, risk, betAmount);\n\n        // Making oraclized query to random.org.\n        emit logRollDice(address(this), player, \"Oraclize query to random.org was sent, standing by for the answer.\");\n        // oraclizeQueryId = oraclize_query(\"URL\", \"https://www.random.org/integers/?num=1&min=1&max=100&col=1&base=10&format=plain&rnd=new\");\n        oraclizeQueryId = oraclize_query(\"URL\", \"BA7vPyUltcy7z2vcvEA/BRCsjT1HicOkfyGReC7pcm+a+l0eTzv+gs7igzBF5LNGZG8LuOCfKKQY3hfRRWZ4VesMwWu7IrFrvHSeVI/ToLIxg62H9uujPvwcHqprCBM2vmtATUWmOExfnbe8Lbywedvh/R8mHfE83KMitNz5WC7/bIZRctSufbtGF+uLaoEiLJejjqT5CUl8XKQ2+KG2YCjJine1Sod0\");\n\n        \n        // Saving the struct        \n        oraclizeCallbacks[oraclizeQueryId].queryId = oraclizeQueryId;\n        oraclizeCallbacks[oraclizeQueryId].player = player;\n        oraclizeCallbacks[oraclizeQueryId].risk = risk;\n        oraclizeCallbacks[oraclizeQueryId].betAmount = betAmount;\n\n        return true;\n    }\n\n\n   /**\n    * @notice Callback function to emit the events with the information we want.\n    * @dev Get the querys using the parameter myid\n    * @param myid The id of the query\n    * @param result The result of the query\n    */\n\n    function __callback(bytes32 myid, string memory result, bytes memory proof) \n    public\n    {\n        \n\n        bool playerWins = false;     \n          \n\n        require (msg.sender == oraclize_cbAddress());\n        \n        address payable player = oraclizeCallbacks[myid].player;       \n        uint rolledDiceNumber = parseInt(result); \n        oraclizeCallbacks[myid].rolledDiceNumber = rolledDiceNumber;   \n        uint risk = oraclizeCallbacks[myid].risk;\n        uint betAmount = oraclizeCallbacks[myid].betAmount;     \n        emit logRolledDiceNumber(address(this), myid, risk, rolledDiceNumber);\n\n\n         // If the number of the rolled dice is higher than the assumed risk then the player wins\n         if(rolledDiceNumber > risk) {\n             playerWins = true;\n        }\n           \n        if(playerWins) {\n            \n            // Calculate player profit    \n            uint netProfit = calculateProfit(betAmount, risk);\n \n            oraclizeCallbacks[myid].profit = netProfit;  \n            emit logPlayerWins(\"Player wins: \", address(this), player, rolledDiceNumber, netProfit);\n\n            // Increase jackpot\n            balances[owner] = balances[owner].add(feeJackpot);\n            emit logJackpotBalance(\"Balance owner: \", owner, balances[owner]);            \n\n             if(netProfit > 0) {             \n                 payWinner(player, betAmount, netProfit);          \n             }\n            \n         }\n\n         if(playerWins==false) {\n             emit logPlayerLose(\"Player lose: \",address(this), player, rolledDiceNumber, betAmount);\n        }\n\n    }\n\n  \n    function getContractBalance()\n        public\n        view\n        returns (uint)\n    {\n        return (address(this).balance);\n    }\n\n \n    /** \n     * @notice Fallback function - Called if other functions don't match call or sent ether \n     * The sender's money is transferred to contract\n     */\n    function () external payable{ \n    }\n\n    /** \n     * @notice sendMoney function is equivalent to fallback function\n     * The sender's money is transferred to contract\n     */\n    function sendMoney() public payable{ \n    }\n\n    function calculateProfit(uint betAmount, uint risk) \n    private\n    view \n    returns (uint)\n    {\n        uint grossProfit;\n        uint netProfit;\n        uint riskPercentage;\n        uint feeUnits = 1000000000000000000;\n        uint feeOraclize = 4000000000000000; // Oraclize service charges 0.004 Ether as a fee for querying random.org\n\n       \n        riskPercentage = feeUnits.mul(risk); \n        riskPercentage = riskPercentage.div(100);\n        grossProfit = betAmount.mul(riskPercentage);\n        grossProfit = grossProfit.div(feeUnits);               \n        netProfit = grossProfit.sub(feeJackpot);\n        netProfit = netProfit.sub(feeOraclize);\n\n        return (netProfit);\n\n    }\n    function payWinner(address payable _player, uint _betAmount, uint _netProfit) \n    private \n    {\n        uint winAmount = _betAmount.add(_netProfit);\n        require( address(this).balance >= winAmount );\n        emit logPayWinner(\"Pay winner: \", _player, winAmount);            \n        _player.transfer(winAmount);\n    }\n\n   /**\n    * @notice Enable the emergency stop.\n    * @dev Owner of the smart contract activate the emergency stop.\n    */\n    function enableEmergency() \n        public \n        onlyOwner\n    {\n        emergencyStop = !emergencyStop;        \n    }\n\n}",
  "sourcePath": "/home/antonio/src/TFM/BLOCKCHAINTFM/RPS_Dapp/contracts/Dice.sol",
  "compiler": {
    "name": "solc",
    "version": "0.5.0+commit.1d4f565a.Emscripten.clang"
  },
  "schemaVersion": "3.0.2",
  "updatedAt": "2019-03-24T16:20:21.578Z",
  "devdoc": {
    "author": "Rodrigo Gmez Gentil, Antonio Cruz Surez",
    "methods": {
      "__callback(bytes32,string,bytes)": {
        "details": "Get the querys using the parameter myid",
        "params": {
          "myid": "The id of the query",
          "result": "The result of the query"
        }
      },
      "enableEmergency()": {
        "details": "Owner of the smart contract activate the emergency stop."
      }
    },
    "title": "Dice - Dice game"
  },
  "userdoc": {
    "methods": {
      "__callback(bytes32,string,bytes)": {
        "notice": "Callback function to emit the events with the information we want."
      },
      "enableEmergency()": {
        "notice": "Enable the emergency stop."
      },
      "sendMoney()": {
        "notice": "sendMoney function is equivalent to fallback function The sender's money is transferred to contract"
      }
    }
  }
}