{
  "contractName": "Dice",
  "abi": [
    {
      "constant": true,
      "inputs": [],
      "name": "minimumRisk",
      "outputs": [
        {
          "name": "",
          "type": "uint256"
        }
      ],
      "payable": false,
      "stateMutability": "view",
      "type": "function",
      "signature": "0x1b9300e9"
    },
    {
      "constant": true,
      "inputs": [],
      "name": "getGameStatus",
      "outputs": [
        {
          "name": "",
          "type": "bool"
        }
      ],
      "payable": false,
      "stateMutability": "view",
      "type": "function",
      "signature": "0x382396ee"
    },
    {
      "constant": true,
      "inputs": [
        {
          "name": "",
          "type": "bytes32"
        }
      ],
      "name": "oraclizeCallbacks",
      "outputs": [
        {
          "name": "player",
          "type": "address"
        },
        {
          "name": "queryId",
          "type": "bytes32"
        },
        {
          "name": "risk",
          "type": "uint256"
        },
        {
          "name": "betAmount",
          "type": "uint256"
        },
        {
          "name": "rolledDiceNumber",
          "type": "uint256"
        },
        {
          "name": "profit",
          "type": "uint256"
        }
      ],
      "payable": false,
      "stateMutability": "view",
      "type": "function",
      "signature": "0x426d5ef1"
    },
    {
      "constant": true,
      "inputs": [],
      "name": "emergencyStop",
      "outputs": [
        {
          "name": "",
          "type": "bool"
        }
      ],
      "payable": false,
      "stateMutability": "view",
      "type": "function",
      "signature": "0x63a599a4"
    },
    {
      "constant": true,
      "inputs": [],
      "name": "jackpot",
      "outputs": [
        {
          "name": "",
          "type": "uint256"
        }
      ],
      "payable": false,
      "stateMutability": "view",
      "type": "function",
      "signature": "0x6b31ee01"
    },
    {
      "constant": true,
      "inputs": [],
      "name": "gameStatus",
      "outputs": [
        {
          "name": "",
          "type": "bool"
        }
      ],
      "payable": false,
      "stateMutability": "view",
      "type": "function",
      "signature": "0x722fed7e"
    },
    {
      "constant": true,
      "inputs": [],
      "name": "owner",
      "outputs": [
        {
          "name": "",
          "type": "address"
        }
      ],
      "payable": false,
      "stateMutability": "view",
      "type": "function",
      "signature": "0x8da5cb5b"
    },
    {
      "constant": true,
      "inputs": [],
      "name": "isOwner",
      "outputs": [
        {
          "name": "",
          "type": "bool"
        }
      ],
      "payable": false,
      "stateMutability": "view",
      "type": "function",
      "signature": "0x8f32d59b"
    },
    {
      "constant": true,
      "inputs": [],
      "name": "minimumBet",
      "outputs": [
        {
          "name": "",
          "type": "uint256"
        }
      ],
      "payable": false,
      "stateMutability": "view",
      "type": "function",
      "signature": "0xc38a8afd"
    },
    {
      "constant": false,
      "inputs": [
        {
          "name": "_status",
          "type": "bool"
        }
      ],
      "name": "setGameStatus",
      "outputs": [],
      "payable": false,
      "stateMutability": "nonpayable",
      "type": "function",
      "signature": "0xcbe2e97e"
    },
    {
      "inputs": [],
      "payable": false,
      "stateMutability": "nonpayable",
      "type": "constructor",
      "signature": "constructor"
    },
    {
      "payable": true,
      "stateMutability": "payable",
      "type": "fallback"
    },
    {
      "anonymous": false,
      "inputs": [
        {
          "indexed": false,
          "name": "_contract",
          "type": "address"
        },
        {
          "indexed": false,
          "name": "_player",
          "type": "address"
        },
        {
          "indexed": false,
          "name": "_risk",
          "type": "uint256"
        },
        {
          "indexed": false,
          "name": "_bet",
          "type": "uint256"
        }
      ],
      "name": "logPlayerBetAccepted",
      "type": "event",
      "signature": "0x0493f0ee102db9238dcfc674e3590d07343d625075476694341009d96d905539"
    },
    {
      "anonymous": false,
      "inputs": [
        {
          "indexed": false,
          "name": "_contract",
          "type": "address"
        },
        {
          "indexed": false,
          "name": "_player",
          "type": "address"
        },
        {
          "indexed": false,
          "name": "_description",
          "type": "string"
        }
      ],
      "name": "logRollDice",
      "type": "event",
      "signature": "0x5c624037da372bb459131a7137f1657ae380b2419ed6071d29d957c194ed200c"
    },
    {
      "anonymous": false,
      "inputs": [
        {
          "indexed": false,
          "name": "_contract",
          "type": "address"
        },
        {
          "indexed": false,
          "name": "_oraclizeQueryId",
          "type": "bytes32"
        },
        {
          "indexed": false,
          "name": "_risk",
          "type": "uint256"
        },
        {
          "indexed": false,
          "name": "_rolledDiceNumber",
          "type": "uint256"
        }
      ],
      "name": "logRolledDiceNumber",
      "type": "event",
      "signature": "0x07d71ce827b2c0ead9f18b5f031f0385143e283c9491b21b96713a278acfacc0"
    },
    {
      "anonymous": false,
      "inputs": [
        {
          "indexed": false,
          "name": "description",
          "type": "string"
        },
        {
          "indexed": false,
          "name": "_contract",
          "type": "address"
        },
        {
          "indexed": false,
          "name": "_player",
          "type": "address"
        },
        {
          "indexed": false,
          "name": "_rolledDiceNumber",
          "type": "uint256"
        },
        {
          "indexed": false,
          "name": "_betAmount",
          "type": "uint256"
        }
      ],
      "name": "logPlayerLose",
      "type": "event",
      "signature": "0x18008b5f6086bd3b79827452d1500916d620037ff83bf69d6d7e739040733d0f"
    },
    {
      "anonymous": false,
      "inputs": [
        {
          "indexed": false,
          "name": "description",
          "type": "string"
        },
        {
          "indexed": false,
          "name": "_contract",
          "type": "address"
        },
        {
          "indexed": false,
          "name": "_winner",
          "type": "address"
        },
        {
          "indexed": false,
          "name": "_rolledDiceNumber",
          "type": "uint256"
        },
        {
          "indexed": false,
          "name": "_profit",
          "type": "uint256"
        },
        {
          "indexed": false,
          "name": "_riskPer",
          "type": "uint256"
        },
        {
          "indexed": false,
          "name": "_grossP",
          "type": "uint256"
        }
      ],
      "name": "logPlayerWins",
      "type": "event",
      "signature": "0x92584463fa8a69814556a6b6efa06f5cbaf7804cebb6b71ddf7417f01ad569b7"
    },
    {
      "anonymous": false,
      "inputs": [
        {
          "indexed": false,
          "name": "_status",
          "type": "bool"
        }
      ],
      "name": "logGameStatus",
      "type": "event",
      "signature": "0x114356cc8b1254eb1c0a759cbf197793e81521b60f10fa8080e236421bd0c25e"
    },
    {
      "anonymous": false,
      "inputs": [
        {
          "indexed": false,
          "name": "description",
          "type": "string"
        }
      ],
      "name": "logNewOraclizeQuery",
      "type": "event",
      "signature": "0xd0f9dea447b4e92bc04cc421beba62dbef9e0f6d77e1d798c15ff591941edd70"
    },
    {
      "anonymous": false,
      "inputs": [
        {
          "indexed": false,
          "name": "_contractBalance",
          "type": "uint256"
        }
      ],
      "name": "logContractBalance",
      "type": "event",
      "signature": "0xd4a125efef1c3fca9f2d63ea257a143623b80df1843e34bf3bb8c3021739faf8"
    },
    {
      "anonymous": false,
      "inputs": [
        {
          "indexed": false,
          "name": "description",
          "type": "string"
        },
        {
          "indexed": false,
          "name": "_ownerAddress",
          "type": "address"
        },
        {
          "indexed": false,
          "name": "_ownerBalance",
          "type": "uint256"
        }
      ],
      "name": "logJackpotBalance",
      "type": "event",
      "signature": "0xd8846f41f4f0707db7a462eb57d3e2708cb1e9cb641b44000ca2edcd8cad1b8e"
    },
    {
      "anonymous": false,
      "inputs": [
        {
          "indexed": false,
          "name": "description",
          "type": "string"
        },
        {
          "indexed": false,
          "name": "_playerAddress",
          "type": "address"
        },
        {
          "indexed": false,
          "name": "_winAmount",
          "type": "uint256"
        }
      ],
      "name": "logPayWinner",
      "type": "event",
      "signature": "0x1d1f8e36149fc07505f5876cceb2ca561904e9e3a940effa716d74765df24c2e"
    },
    {
      "constant": false,
      "inputs": [
        {
          "name": "risk",
          "type": "uint256"
        }
      ],
      "name": "rollDice",
      "outputs": [
        {
          "name": "success",
          "type": "bool"
        }
      ],
      "payable": true,
      "stateMutability": "payable",
      "type": "function",
      "signature": "0xacfff377"
    },
    {
      "constant": false,
      "inputs": [
        {
          "name": "myid",
          "type": "bytes32"
        },
        {
          "name": "result",
          "type": "string"
        }
      ],
      "name": "__callback",
      "outputs": [],
      "payable": false,
      "stateMutability": "nonpayable",
      "type": "function",
      "signature": "0x27dc297e"
    },
    {
      "constant": false,
      "inputs": [
        {
          "name": "_myid",
          "type": "bytes32"
        },
        {
          "name": "_result",
          "type": "string"
        },
        {
          "name": "_proof",
          "type": "bytes"
        }
      ],
      "name": "__callback",
      "outputs": [],
      "payable": false,
      "stateMutability": "nonpayable",
      "type": "function",
      "signature": "0x38bbfa50"
    },
    {
      "constant": true,
      "inputs": [],
      "name": "getContractBalance",
      "outputs": [
        {
          "name": "",
          "type": "uint256"
        }
      ],
      "payable": false,
      "stateMutability": "view",
      "type": "function",
      "signature": "0x6f9fb98a"
    }
  ],
  "bytecode": "0x6080604052655af3107a4000600655601e60075560006008553480156200002557600080fd5b5033600560006101000a81548173ffffffffffffffffffffffffffffffffffffffff021916908373ffffffffffffffffffffffffffffffffffffffff160217905550736f485c8bf6fc43ea212e93bbf8ce046c7f1cb475600160006101000a81548173ffffffffffffffffffffffffffffffffffffffff021916908373ffffffffffffffffffffffffffffffffffffffff160217905550620000d7600162000130640100000000026401000000009004565b7f114356cc8b1254eb1c0a759cbf197793e81521b60f10fa8080e236421bd0c25e620001116200014d640100000000026401000000009004565b604051808215151515815260200191505060405180910390a162000164565b80600560146101000a81548160ff02191690831515021790555050565b6000600560149054906101000a900460ff16905090565b61249e80620001746000396000f3fe6080604052600436106100d0576000357c0100000000000000000000000000000000000000000000000000000000900463ffffffff1680631b9300e9146100d557806327dc297e14610100578063382396ee146101d257806338bbfa5014610201578063426d5ef11461036a57806363a599a4146104085780636b31ee01146104375780636f9fb98a14610462578063722fed7e1461048d5780638da5cb5b146104bc5780638f32d59b14610513578063acfff37714610542578063c38a8afd14610588578063cbe2e97e146105b3575b600080fd5b3480156100e157600080fd5b506100ea6105f0565b6040518082815260200191505060405180910390f35b34801561010c57600080fd5b506101d06004803603604081101561012357600080fd5b81019080803590602001909291908035906020019064010000000081111561014a57600080fd5b82018360208201111561015c57600080fd5b8035906020019184600183028401116401000000008311171561017e57600080fd5b91908080601f016020809104026020016040519081016040528093929190818152602001838380828437600081840152601f19601f8201169050808301925050505050505091929192905050506105f6565b005b3480156101de57600080fd5b506101e7610c29565b604051808215151515815260200191505060405180910390f35b34801561020d57600080fd5b506103686004803603606081101561022457600080fd5b81019080803590602001909291908035906020019064010000000081111561024b57600080fd5b82018360208201111561025d57600080fd5b8035906020019184600183028401116401000000008311171561027f57600080fd5b91908080601f016020809104026020016040519081016040528093929190818152602001838380828437600081840152601f19601f820116905080830192505050505050509192919290803590602001906401000000008111156102e257600080fd5b8201836020820111156102f457600080fd5b8035906020019184600183028401116401000000008311171561031657600080fd5b91908080601f016020809104026020016040519081016040528093929190818152602001838380828437600081840152601f19601f820116905080830192505050505050509192919290505050610c40565b005b34801561037657600080fd5b506103a36004803603602081101561038d57600080fd5b8101908080359060200190929190505050610c45565b604051808773ffffffffffffffffffffffffffffffffffffffff1673ffffffffffffffffffffffffffffffffffffffff168152602001868152602001858152602001848152602001838152602001828152602001965050505050505060405180910390f35b34801561041457600080fd5b5061041d610ca1565b604051808215151515815260200191505060405180910390f35b34801561044357600080fd5b5061044c610cb4565b6040518082815260200191505060405180910390f35b34801561046e57600080fd5b50610477610cba565b6040518082815260200191505060405180910390f35b34801561049957600080fd5b506104a2610cd9565b604051808215151515815260200191505060405180910390f35b3480156104c857600080fd5b506104d1610cec565b604051808273ffffffffffffffffffffffffffffffffffffffff1673ffffffffffffffffffffffffffffffffffffffff16815260200191505060405180910390f35b34801561051f57600080fd5b50610528610d12565b604051808215151515815260200191505060405180910390f35b61056e6004803603602081101561055857600080fd5b8101908080359060200190929190505050610d6a565b604051808215151515815260200191505060405180910390f35b34801561059457600080fd5b5061059d61110e565b6040518082815260200191505060405180910390f35b3480156105bf57600080fd5b506105ee600480360360208110156105d657600080fd5b81019080803515159060200190929190505050611114565b005b60075481565b6000809050600080600080670de0b6b3a7640000905060006611c37937e0800090506000660e35fa931a0000905061062c611131565b73ffffffffffffffffffffffffffffffffffffffff163373ffffffffffffffffffffffffffffffffffffffff1614151561066557600080fd5b6000600960008b815260200190815260200160002060000160009054906101000a900473ffffffffffffffffffffffffffffffffffffffff16905060006106ab8a6114a4565b905080600960008d8152602001908152602001600020600401819055506000600960008d81526020019081526020016000206002015490506000600960008e81526020019081526020016000206003015490507f07d71ce827b2c0ead9f18b5f031f0385143e283c9491b21b96713a278acfacc0308e8486604051808573ffffffffffffffffffffffffffffffffffffffff1673ffffffffffffffffffffffffffffffffffffffff16815260200184815260200183815260200182815260200194505050505060405180910390a1818311156107865760019a505b8a15610b2c5761079f82886114b890919063ffffffff16565b97506107b56064896114f690919063ffffffff16565b97506107ca88826114b890919063ffffffff16565b99506107df878b6114f690919063ffffffff16565b99506107f4868b61152090919063ffffffff16565b9850610809858a61152090919063ffffffff16565b985088600960008f8152602001908152602001600020600501819055507f92584463fa8a69814556a6b6efa06f5cbaf7804cebb6b71ddf7417f01ad569b73085858c8c8f60405180806020018873ffffffffffffffffffffffffffffffffffffffff1673ffffffffffffffffffffffffffffffffffffffff1681526020018773ffffffffffffffffffffffffffffffffffffffff1673ffffffffffffffffffffffffffffffffffffffff1681526020018681526020018581526020018481526020018381526020018281038252600d8152602001807f506c617965722077696e733a200000000000000000000000000000000000000081525060200197505050505050505060405180910390a161098a86600a6000600560009054906101000a900473ffffffffffffffffffffffffffffffffffffffff1673ffffffffffffffffffffffffffffffffffffffff1673ffffffffffffffffffffffffffffffffffffffff1681526020019081526020016000205461154290919063ffffffff16565b600a6000600560009054906101000a900473ffffffffffffffffffffffffffffffffffffffff1673ffffffffffffffffffffffffffffffffffffffff1673ffffffffffffffffffffffffffffffffffffffff168152602001908152602001600020819055507fd8846f41f4f0707db7a462eb57d3e2708cb1e9cb641b44000ca2edcd8cad1b8e600560009054906101000a900473ffffffffffffffffffffffffffffffffffffffff16600a6000600560009054906101000a900473ffffffffffffffffffffffffffffffffffffffff1673ffffffffffffffffffffffffffffffffffffffff1673ffffffffffffffffffffffffffffffffffffffff1681526020019081526020016000205460405180806020018473ffffffffffffffffffffffffffffffffffffffff1673ffffffffffffffffffffffffffffffffffffffff1681526020018381526020018281038252600f8152602001807f42616c616e6365206f776e65723a200000000000000000000000000000000000815250602001935050505060405180910390a16000891115610b2b57610b2a84828b611563565b5b5b600015158b15151415610c1a577f18008b5f6086bd3b79827452d1500916d620037ff83bf69d6d7e739040733d0f3085858460405180806020018673ffffffffffffffffffffffffffffffffffffffff1673ffffffffffffffffffffffffffffffffffffffff1681526020018573ffffffffffffffffffffffffffffffffffffffff1673ffffffffffffffffffffffffffffffffffffffff1681526020018481526020018381526020018281038252600d8152602001807f506c61796572206c6f73653a20000000000000000000000000000000000000008152506020019550505050505060405180910390a15b50505050505050505050505050565b6000600560149054906101000a900460ff16905090565b505050565b60096020528060005260406000206000915090508060000160009054906101000a900473ffffffffffffffffffffffffffffffffffffffff16908060010154908060020154908060030154908060040154908060050154905086565b600560159054906101000a900460ff1681565b60085481565b60003073ffffffffffffffffffffffffffffffffffffffff1631905090565b600560149054906101000a900460ff1681565b600560009054906101000a900473ffffffffffffffffffffffffffffffffffffffff1681565b6000600560009054906101000a900473ffffffffffffffffffffffffffffffffffffffff1673ffffffffffffffffffffffffffffffffffffffff163373ffffffffffffffffffffffffffffffffffffffff1614905090565b6000600560159054906101000a900460ff1615156111095760011515610d8e610c29565b1515141515610d9c57600080fd5b6000803390506000349050610db381600654611691565b1515610dbe57600080fd5b610dca8560075461169f565b1515610dd557600080fd5b7f0493f0ee102db9238dcfc674e3590d07343d625075476694341009d96d90553930838784604051808573ffffffffffffffffffffffffffffffffffffffff1673ffffffffffffffffffffffffffffffffffffffff1681526020018473ffffffffffffffffffffffffffffffffffffffff1673ffffffffffffffffffffffffffffffffffffffff16815260200183815260200182815260200194505050505060405180910390a17f5c624037da372bb459131a7137f1657ae380b2419ed6071d29d957c194ed200c3083604051808373ffffffffffffffffffffffffffffffffffffffff1673ffffffffffffffffffffffffffffffffffffffff1681526020018273ffffffffffffffffffffffffffffffffffffffff1673ffffffffffffffffffffffffffffffffffffffff16815260200180602001828103825260428152602001807f4f7261636c697a6520717565727920746f2072616e646f6d2e6f72672077617381526020017f2073656e742c207374616e64696e6720627920666f722074686520616e73776581526020017f722e000000000000000000000000000000000000000000000000000000000000815250606001935050505060405180910390a16110596040805190810160405280600381526020017f55524c0000000000000000000000000000000000000000000000000000000000815250608060405190810160405280605781526020017f68747470733a2f2f7777772e72616e646f6d2e6f72672f696e7465676572732f81526020017f3f6e756d3d31266d696e3d31266d61783d31303026636f6c3d3126626173653d81526020017f313026666f726d61743d706c61696e26726e643d6e65770000000000000000008152506116ad565b9250826009600085815260200190815260200160002060010181905550816009600085815260200190815260200160002060000160006101000a81548173ffffffffffffffffffffffffffffffffffffffff021916908373ffffffffffffffffffffffffffffffffffffffff160217905550846009600085815260200190815260200160002060020181905550806009600085815260200190815260200160002060030181905550600193505050505b919050565b60065481565b80600560146101000a81548160ff02191690831515021790555050565b60008073ffffffffffffffffffffffffffffffffffffffff16600160009054906101000a900473ffffffffffffffffffffffffffffffffffffffff1673ffffffffffffffffffffffffffffffffffffffff1614806111b9575060006111b7600160009054906101000a900473ffffffffffffffffffffffffffffffffffffffff16611c66565b145b156111ca576111c86000611c71565b505b600160009054906101000a900473ffffffffffffffffffffffffffffffffffffffff1673ffffffffffffffffffffffffffffffffffffffff166338cc48316040518163ffffffff167c0100000000000000000000000000000000000000000000000000000000028152600401602060405180830381600087803b15801561125057600080fd5b505af1158015611264573d6000803e3d6000fd5b505050506040513d602081101561127a57600080fd5b810190808051906020019092919050505073ffffffffffffffffffffffffffffffffffffffff166000809054906101000a900473ffffffffffffffffffffffffffffffffffffffff1673ffffffffffffffffffffffffffffffffffffffff161415156113e157600160009054906101000a900473ffffffffffffffffffffffffffffffffffffffff1673ffffffffffffffffffffffffffffffffffffffff166338cc48316040518163ffffffff167c0100000000000000000000000000000000000000000000000000000000028152600401602060405180830381600087803b15801561136657600080fd5b505af115801561137a573d6000803e3d6000fd5b505050506040513d602081101561139057600080fd5b81019080805190602001909291905050506000806101000a81548173ffffffffffffffffffffffffffffffffffffffff021916908373ffffffffffffffffffffffffffffffffffffffff1602179055505b6000809054906101000a900473ffffffffffffffffffffffffffffffffffffffff1673ffffffffffffffffffffffffffffffffffffffff1663c281d19e6040518163ffffffff167c010000000000000000000000000000000000000000000000000000000002815260040160206040518083038186803b15801561146457600080fd5b505afa158015611478573d6000803e3d6000fd5b505050506040513d602081101561148e57600080fd5b8101908080519060200190929190505050905090565b60006114b1826000611c82565b9050919050565b6000808314156114cb57600090506114f0565b600082840290508284828115156114de57fe5b041415156114eb57600080fd5b809150505b92915050565b6000808211151561150657600080fd5b6000828481151561151357fe5b0490508091505092915050565b600082821115151561153157600080fd5b600082840390508091505092915050565b600080828401905083811015151561155957600080fd5b8091505092915050565b6000611578828461154290919063ffffffff16565b9050803073ffffffffffffffffffffffffffffffffffffffff1631101515156115a057600080fd5b7f1d1f8e36149fc07505f5876cceb2ca561904e9e3a940effa716d74765df24c2e848260405180806020018473ffffffffffffffffffffffffffffffffffffffff1673ffffffffffffffffffffffffffffffffffffffff1681526020018381526020018281038252600c8152602001807f5061792077696e6e65723a200000000000000000000000000000000000000000815250602001935050505060405180910390a18373ffffffffffffffffffffffffffffffffffffffff166108fc829081150290604051600060405180830381858888f1935050505015801561168a573d6000803e3d6000fd5b5050505050565b600081831015905092915050565b600081831015905092915050565b60008073ffffffffffffffffffffffffffffffffffffffff16600160009054906101000a900473ffffffffffffffffffffffffffffffffffffffff1673ffffffffffffffffffffffffffffffffffffffff16148061173557506000611733600160009054906101000a900473ffffffffffffffffffffffffffffffffffffffff16611c66565b145b15611746576117446000611c71565b505b600160009054906101000a900473ffffffffffffffffffffffffffffffffffffffff1673ffffffffffffffffffffffffffffffffffffffff166338cc48316040518163ffffffff167c0100000000000000000000000000000000000000000000000000000000028152600401602060405180830381600087803b1580156117cc57600080fd5b505af11580156117e0573d6000803e3d6000fd5b505050506040513d60208110156117f657600080fd5b810190808051906020019092919050505073ffffffffffffffffffffffffffffffffffffffff166000809054906101000a900473ffffffffffffffffffffffffffffffffffffffff1673ffffffffffffffffffffffffffffffffffffffff1614151561195d57600160009054906101000a900473ffffffffffffffffffffffffffffffffffffffff1673ffffffffffffffffffffffffffffffffffffffff166338cc48316040518163ffffffff167c0100000000000000000000000000000000000000000000000000000000028152600401602060405180830381600087803b1580156118e257600080fd5b505af11580156118f6573d6000803e3d6000fd5b505050506040513d602081101561190c57600080fd5b81019080805190602001909291905050506000806101000a81548173ffffffffffffffffffffffffffffffffffffffff021916908373ffffffffffffffffffffffffffffffffffffffff1602179055505b60008060009054906101000a900473ffffffffffffffffffffffffffffffffffffffff1673ffffffffffffffffffffffffffffffffffffffff1663524f3889856040518263ffffffff167c01000000000000000000000000000000000000000000000000000000000281526004018080602001828103825283818151815260200191508051906020019080838360005b83811015611a085780820151818401526020810190506119ed565b50505050905090810190601f168015611a355780820380516001836020036101000a031916815260200191505b5092505050602060405180830381600087803b158015611a5457600080fd5b505af1158015611a68573d6000803e3d6000fd5b505050506040513d6020811015611a7e57600080fd5b8101908080519060200190929190505050905062030d403a02670de0b6b3a764000001811115611ab5576000600102915050611c60565b6000809054906101000a900473ffffffffffffffffffffffffffffffffffffffff1673ffffffffffffffffffffffffffffffffffffffff1663adf59f9982600087876040518563ffffffff167c0100000000000000000000000000000000000000000000000000000000028152600401808481526020018060200180602001838103835285818151815260200191508051906020019080838360005b83811015611b6c578082015181840152602081019050611b51565b50505050905090810190601f168015611b995780820380516001836020036101000a031916815260200191505b50838103825284818151815260200191508051906020019080838360005b83811015611bd2578082015181840152602081019050611bb7565b50505050905090810190601f168015611bff5780820380516001836020036101000a031916815260200191505b50955050505050506020604051808303818588803b158015611c2057600080fd5b505af1158015611c34573d6000803e3d6000fd5b50505050506040513d6020811015611c4b57600080fd5b81019080805190602001909291905050509150505b92915050565b6000813b9050919050565b6000611c7b611f1d565b9050919050565b600060608390506000809050600080905060008090505b8351811015611efe5760308482815181101515611cb257fe5b9060200101517f010000000000000000000000000000000000000000000000000000000000000090047f0100000000000000000000000000000000000000000000000000000000000000027f0100000000000000000000000000000000000000000000000000000000000000900460ff1610158015611db0575060398482815181101515611d3c57fe5b9060200101517f010000000000000000000000000000000000000000000000000000000000000090047f0100000000000000000000000000000000000000000000000000000000000000027f0100000000000000000000000000000000000000000000000000000000000000900460ff1611155b15611e64578115611dd3576000861415611dc957611efe565b8580600190039650505b600a8302925060308482815181101515611de957fe5b9060200101517f010000000000000000000000000000000000000000000000000000000000000090047f0100000000000000000000000000000000000000000000000000000000000000027f0100000000000000000000000000000000000000000000000000000000000000900460ff160383019250611ef1565b602e8482815181101515611e7457fe5b9060200101517f010000000000000000000000000000000000000000000000000000000000000090047f0100000000000000000000000000000000000000000000000000000000000000027f0100000000000000000000000000000000000000000000000000000000000000900460ff161415611ef057600191505b5b8080600101915050611c99565b506000851115611f115784600a0a820291505b81935050505092915050565b600080611f3d731d3b2638a7cc9f2cb3d298a3da7a90b67e5506ed611c66565b1115611fdf57731d3b2638a7cc9f2cb3d298a3da7a90b67e5506ed600160006101000a81548173ffffffffffffffffffffffffffffffffffffffff021916908373ffffffffffffffffffffffffffffffffffffffff160217905550611fd66040805190810160405280600b81526020017f6574685f6d61696e6e65740000000000000000000000000000000000000000008152506123b3565b600190506123b0565b6000611ffe73c03a2615d5efaf5f49f60b7bb6583eaec212fdf1611c66565b11156120a05773c03a2615d5efaf5f49f60b7bb6583eaec212fdf1600160006101000a81548173ffffffffffffffffffffffffffffffffffffffff021916908373ffffffffffffffffffffffffffffffffffffffff1602179055506120976040805190810160405280600c81526020017f6574685f726f707374656e3300000000000000000000000000000000000000008152506123b3565b600190506123b0565b60006120bf73b7a07bcf2ba2f2703b24c0691b5278999c59ac7e611c66565b11156121615773b7a07bcf2ba2f2703b24c0691b5278999c59ac7e600160006101000a81548173ffffffffffffffffffffffffffffffffffffffff021916908373ffffffffffffffffffffffffffffffffffffffff1602179055506121586040805190810160405280600981526020017f6574685f6b6f76616e00000000000000000000000000000000000000000000008152506123b3565b600190506123b0565b600061218073146500cfd35b22e4a392fe0adc06de1a1368ed48611c66565b11156122225773146500cfd35b22e4a392fe0adc06de1a1368ed48600160006101000a81548173ffffffffffffffffffffffffffffffffffffffff021916908373ffffffffffffffffffffffffffffffffffffffff1602179055506122196040805190810160405280600b81526020017f6574685f72696e6b6562790000000000000000000000000000000000000000008152506123b3565b600190506123b0565b6000612241736f485c8bf6fc43ea212e93bbf8ce046c7f1cb475611c66565b11156122a557736f485c8bf6fc43ea212e93bbf8ce046c7f1cb475600160006101000a81548173ffffffffffffffffffffffffffffffffffffffff021916908373ffffffffffffffffffffffffffffffffffffffff160217905550600190506123b0565b60006122c47320e12a1f859b3feae5fb2a0a32c18f5a65555bbf611c66565b1115612328577320e12a1f859b3feae5fb2a0a32c18f5a65555bbf600160006101000a81548173ffffffffffffffffffffffffffffffffffffffff021916908373ffffffffffffffffffffffffffffffffffffffff160217905550600190506123b0565b60006123477351efaf4c8b3c9afbd5ab9f4bbc82784ab6ef8faa611c66565b11156123ab577351efaf4c8b3c9afbd5ab9f4bbc82784ab6ef8faa600160006101000a81548173ffffffffffffffffffffffffffffffffffffffff021916908373ffffffffffffffffffffffffffffffffffffffff160217905550600190506123b0565b600090505b90565b80600290805190602001906123c99291906123cd565b5050565b828054600181600116156101000203166002900490600052602060002090601f016020900481019282601f1061240e57805160ff191683800117855561243c565b8280016001018555821561243c579182015b8281111561243b578251825591602001919060010190612420565b5b509050612449919061244d565b5090565b61246f91905b8082111561246b576000816000905550600101612453565b5090565b9056fea165627a7a72305820c7fed5df7d81ba8619b5f72b0e595ff831642c58319b5be9c5c7cbfa578f124f0029",
  "source": "pragma solidity ^0.5.0;\n\nimport \"./Ownable.sol\";\nimport \"./oraclizeAPI.sol\";\nimport \"./SafeMath.sol\";\nimport \"./DiceLib.sol\";\nimport \"./StartStopGame.sol\";\n\n\n/** @title Dice - Dice game\n  * @author Rodrigo Gmez Gentil, Antonio Cruz Surez\n */\n\ncontract Dice is usingOraclize, Ownable, StartStopGame {\n\n    using SafeMath for uint;\n\n    bool public emergencyStop;\n    \n    modifier noEmergency \n    { \n        if (!emergencyStop) \n        _;\n    }\n    \n    modifier inEmergency \n    {\n        if (emergencyStop) \n        _;\n    }\n\n    uint public minimumBet = 0.0001 ether;\n    uint public minimumRisk = 30;\n    uint public jackpot = 0;\n\n    // All oraclize calls will result in a common callback to __callback(...).\n    struct oraclizeCallback {\n        address payable player;\n        bytes32 queryId;\n        uint    risk;\n        uint    betAmount;\n        uint    rolledDiceNumber;\n        uint    profit;\n    }\n\n     mapping (bytes32 => oraclizeCallback) public oraclizeCallbacks;\n     mapping (address => uint) private balances;\n\n    // Events\n    event logPlayerBetAccepted(address _contract, address _player, uint _risk, uint _bet);\n    event logRollDice(address _contract, address _player, string _description);\n    event logRolledDiceNumber(address _contract, bytes32 _oraclizeQueryId, uint _risk, uint _rolledDiceNumber);\n    event logPlayerLose(string description, address _contract, address _player, uint _rolledDiceNumber, uint _betAmount);\n    event logPlayerWins(string description, address _contract, address _winner, uint _rolledDiceNumber, uint _profit, uint _riskPer, uint _grossP);\n    event logGameStatus(bool _status);\n    event logNewOraclizeQuery(string description);\n    event logContractBalance(uint _contractBalance);\n    event logJackpotBalance(string description, address _ownerAddress, uint _ownerBalance);\n    event logPayWinner(string description, address _playerAddress, uint _winAmount);\n\n\n    constructor() \n    public\n    {\n        // Replace the next line with your version:\n        OAR = OraclizeAddrResolverI(0x6f485C8BF6fc43eA212E93BBF8ce046C7f1cb475);\n        setGameStatus(true);\n        emit logGameStatus(getGameStatus());\n\n    }\n\n    function rollDice(uint risk) \n        public \n        noEmergency\n        gameIsOn\n        payable\n        returns (bool success)\n    {\n        \n        bytes32 oraclizeQueryId;        \n        address payable player = msg.sender;                \n\n        uint betAmount = msg.value;        \n        require(DiceLib.isValidBet(betAmount, minimumBet));\n        require(DiceLib.isValidRisk(risk, minimumRisk));\n        emit logPlayerBetAccepted(address(this), player, risk, betAmount);\n\n        // Making oraclized query to random.org.\n        emit logRollDice(address(this), player, \"Oraclize query to random.org was sent, standing by for the answer.\");\n        oraclizeQueryId = oraclize_query(\"URL\", \"https://www.random.org/integers/?num=1&min=1&max=100&col=1&base=10&format=plain&rnd=new\");\n\n        // Saving the struct        \n        oraclizeCallbacks[oraclizeQueryId].queryId = oraclizeQueryId;\n        oraclizeCallbacks[oraclizeQueryId].player = player;\n        oraclizeCallbacks[oraclizeQueryId].risk = risk;\n        oraclizeCallbacks[oraclizeQueryId].betAmount = betAmount;\n\n        return true;\n    }\n\n\n   /**\n    * @notice Callback function to emit the events with the information we want.\n    * @dev Get the querys using the parameter myid\n    * @param myid The id of the query\n    * @param result The result of the query\n    */\n\n    function __callback(bytes32 myid, string memory result) \n        public\n    {\n        \n\n        bool playerWins = false;       \n        uint grossProfit;\n        uint netProfit;\n        uint riskPercentage;\n        uint feeUnits = 1000000000000000000;\n        uint feeJackpot =  5000000000000000;  // Fund to jackpot 0.005 ether as a fee\n        uint feeOraclize = 4000000000000000; // Oraclize service charges 0.004 Ether as a fee for querying random.org\n\n        require (msg.sender == oraclize_cbAddress());\n        \n        address payable player = oraclizeCallbacks[myid].player;       \n        uint rolledDiceNumber = parseInt(result); \n        oraclizeCallbacks[myid].rolledDiceNumber = rolledDiceNumber;   \n        uint risk = oraclizeCallbacks[myid].risk;\n        uint betAmount = oraclizeCallbacks[myid].betAmount;     \n        emit logRolledDiceNumber(address(this), myid, risk, rolledDiceNumber);\n\n\n         // If the number of the rolled dice is higher than the assumed risk then the player wins\n         if(rolledDiceNumber > risk) {\n             playerWins = true;\n        }\n           \n        if(playerWins) {\n            \n            // Calculate player profit            \n            riskPercentage = feeUnits.mul(risk); \n            riskPercentage = riskPercentage.div(100);\n            grossProfit = betAmount.mul(riskPercentage);\n            grossProfit = grossProfit.div(feeUnits);               \n            netProfit = grossProfit.sub(feeJackpot);\n            netProfit = netProfit.sub(feeOraclize);\n\n            oraclizeCallbacks[myid].profit = netProfit;  \n            emit logPlayerWins(\"Player wins: \", address(this), player, rolledDiceNumber, netProfit, riskPercentage, grossProfit );\n\n            // Increase jackpot\n            balances[owner] = balances[owner].add(feeJackpot);\n            emit logJackpotBalance(\"Balance owner: \", owner, balances[owner]);            \n\n             if(netProfit > 0) {             \n                 payWinner(player, betAmount, netProfit);          \n             }\n            \n         }\n\n         if(playerWins==false) {\n             emit logPlayerLose(\"Player lose: \",address(this), player, rolledDiceNumber, betAmount);\n        }\n\n    }\n\n  \n    function getContractBalance()\n        public\n        view\n        returns (uint)\n    {\n        return (address(this).balance);\n    }\n\n \n    /** \n     * @notice Fallback function - Called if other functions don't match call or sent ether without data\n     * Typically, called when invalid data is sent\n     * Added so ether sent to this contract is reverted if the contract fails. Otherwise, the sender's money is transferred to contract\n     */\n    function () external payable{ \n        revert();        \n    }\n\n    function payWinner(address payable _player, uint _betAmount, uint _netProfit) \n    private \n    {\n        uint winAmount = _betAmount.add(_netProfit);\n        require( address(this).balance >= winAmount );\n        emit logPayWinner(\"Pay winner: \", _player, winAmount);            \n        _player.transfer(winAmount);\n    }\n\n}",
  "sourcePath": "/home/antonio/src/TFM/BLOCKCHAINTFM/RPS_Dapp/contracts/Dice.sol",
  "compiler": {
    "name": "solc",
    "version": "0.5.0+commit.1d4f565a.Emscripten.clang"
  },
  "schemaVersion": "3.0.2",
  "updatedAt": "2019-02-24T16:19:33.829Z",
  "devdoc": {
    "author": "Rodrigo Gmez Gentil, Antonio Cruz Surez",
    "methods": {
      "__callback(bytes32,string)": {
        "details": "Get the querys using the parameter myid",
        "params": {
          "myid": "The id of the query",
          "result": "The result of the query"
        }
      }
    },
    "title": "Dice - Dice game"
  },
  "userdoc": {
    "methods": {
      "__callback(bytes32,string)": {
        "notice": "Callback function to emit the events with the information we want."
      }
    }
  }
}