{
  "contractName": "RPS",
  "abi": [
    {
      "constant": true,
      "inputs": [],
      "name": "minBusinessFeePayment",
      "outputs": [
        {
          "name": "",
          "type": "uint256"
        }
      ],
      "payable": false,
      "stateMutability": "view",
      "type": "function",
      "signature": "0x0c071222"
    },
    {
      "constant": true,
      "inputs": [],
      "name": "roundCount",
      "outputs": [
        {
          "name": "",
          "type": "uint256"
        }
      ],
      "payable": false,
      "stateMutability": "view",
      "type": "function",
      "signature": "0x127f0b3f"
    },
    {
      "constant": true,
      "inputs": [],
      "name": "businessAddress",
      "outputs": [
        {
          "name": "",
          "type": "address"
        }
      ],
      "payable": false,
      "stateMutability": "view",
      "type": "function",
      "signature": "0x1583deb2"
    },
    {
      "constant": true,
      "inputs": [],
      "name": "totalBusinessFee",
      "outputs": [
        {
          "name": "",
          "type": "uint256"
        }
      ],
      "payable": false,
      "stateMutability": "view",
      "type": "function",
      "signature": "0x3580ecd0"
    },
    {
      "constant": true,
      "inputs": [],
      "name": "jackpot",
      "outputs": [
        {
          "name": "",
          "type": "uint256"
        }
      ],
      "payable": false,
      "stateMutability": "view",
      "type": "function",
      "signature": "0x6b31ee01"
    },
    {
      "constant": true,
      "inputs": [],
      "name": "gameRunning",
      "outputs": [
        {
          "name": "",
          "type": "bool"
        }
      ],
      "payable": false,
      "stateMutability": "view",
      "type": "function",
      "signature": "0x6e8c2caf"
    },
    {
      "constant": true,
      "inputs": [],
      "name": "lotteryOn",
      "outputs": [
        {
          "name": "",
          "type": "bool"
        }
      ],
      "payable": false,
      "stateMutability": "view",
      "type": "function",
      "signature": "0x6f1573c3"
    },
    {
      "constant": true,
      "inputs": [],
      "name": "owner",
      "outputs": [
        {
          "name": "",
          "type": "address"
        }
      ],
      "payable": false,
      "stateMutability": "view",
      "type": "function",
      "signature": "0x8da5cb5b"
    },
    {
      "constant": true,
      "inputs": [],
      "name": "isOwner",
      "outputs": [
        {
          "name": "",
          "type": "bool"
        }
      ],
      "payable": false,
      "stateMutability": "view",
      "type": "function",
      "signature": "0x8f32d59b"
    },
    {
      "constant": true,
      "inputs": [],
      "name": "minJackpot",
      "outputs": [
        {
          "name": "",
          "type": "uint256"
        }
      ],
      "payable": false,
      "stateMutability": "view",
      "type": "function",
      "signature": "0x911d0189"
    },
    {
      "constant": true,
      "inputs": [],
      "name": "minimumBet",
      "outputs": [
        {
          "name": "",
          "type": "uint256"
        }
      ],
      "payable": false,
      "stateMutability": "view",
      "type": "function",
      "signature": "0xc38a8afd"
    },
    {
      "constant": true,
      "inputs": [],
      "name": "lotteryRate",
      "outputs": [
        {
          "name": "",
          "type": "uint256"
        }
      ],
      "payable": false,
      "stateMutability": "view",
      "type": "function",
      "signature": "0xf2564737"
    },
    {
      "inputs": [],
      "payable": true,
      "stateMutability": "payable",
      "type": "constructor",
      "signature": "constructor"
    },
    {
      "payable": true,
      "stateMutability": "payable",
      "type": "fallback"
    },
    {
      "anonymous": false,
      "inputs": [
        {
          "indexed": false,
          "name": "roundId",
          "type": "uint256"
        },
        {
          "indexed": false,
          "name": "betAmount",
          "type": "uint256"
        },
        {
          "indexed": true,
          "name": "player1",
          "type": "address"
        },
        {
          "indexed": false,
          "name": "isSolo",
          "type": "bool"
        }
      ],
      "name": "RoundCreated",
      "type": "event",
      "signature": "0xb3b1bde84bcee68ebfec5d442001436ebf6966913748ad5f78f4d21d9f93486f"
    },
    {
      "anonymous": false,
      "inputs": [
        {
          "indexed": false,
          "name": "roundId",
          "type": "uint256"
        },
        {
          "indexed": false,
          "name": "winner",
          "type": "address"
        },
        {
          "indexed": false,
          "name": "betAmount",
          "type": "uint256"
        },
        {
          "indexed": true,
          "name": "player1",
          "type": "address"
        },
        {
          "indexed": false,
          "name": "choice1",
          "type": "uint8"
        },
        {
          "indexed": false,
          "name": "player2",
          "type": "address"
        },
        {
          "indexed": false,
          "name": "choice2",
          "type": "uint8"
        }
      ],
      "name": "RoundResolved",
      "type": "event",
      "signature": "0x7d8b4a984b7fa465226fb3cb2eb9c5110227b5afed1649f904bbdb67bc9a2dd9"
    },
    {
      "anonymous": false,
      "inputs": [
        {
          "indexed": false,
          "name": "paidAddress",
          "type": "address"
        },
        {
          "indexed": false,
          "name": "amount",
          "type": "uint256"
        }
      ],
      "name": "Payment",
      "type": "event",
      "signature": "0xd4f43975feb89f48dd30cabbb32011045be187d1e11c8ea9faa43efc35282519"
    },
    {
      "anonymous": false,
      "inputs": [
        {
          "indexed": false,
          "name": "winner",
          "type": "address"
        },
        {
          "indexed": false,
          "name": "jackpot",
          "type": "uint256"
        }
      ],
      "name": "LotteryWin",
      "type": "event",
      "signature": "0x59eb56f0aaebc4c2e1de6e254bc52af79350363a072c9ef59851f0d0861a9642"
    },
    {
      "anonymous": false,
      "inputs": [
        {
          "indexed": false,
          "name": "businessAddress",
          "type": "address"
        },
        {
          "indexed": false,
          "name": "payment",
          "type": "uint256"
        }
      ],
      "name": "BusinessPayment",
      "type": "event",
      "signature": "0x7fc2eef842cb1dfa1b90b4c29935e29807b384d9334c1c6f2bb2ff9103260d9b"
    },
    {
      "constant": true,
      "inputs": [
        {
          "name": "roundId",
          "type": "uint256"
        }
      ],
      "name": "getRoundInfo",
      "outputs": [
        {
          "name": "player1Address",
          "type": "address"
        },
        {
          "name": "player1Choice",
          "type": "uint8"
        },
        {
          "name": "player2Address",
          "type": "address"
        },
        {
          "name": "player2Choice",
          "type": "uint8"
        },
        {
          "name": "betAmount",
          "type": "uint256"
        },
        {
          "name": "winner",
          "type": "address"
        }
      ],
      "payable": false,
      "stateMutability": "view",
      "type": "function",
      "signature": "0x88c3ffb0"
    },
    {
      "constant": false,
      "inputs": [],
      "name": "fundGame",
      "outputs": [],
      "payable": true,
      "stateMutability": "payable",
      "type": "function",
      "signature": "0xe169bf6c"
    },
    {
      "constant": false,
      "inputs": [],
      "name": "startGame",
      "outputs": [],
      "payable": false,
      "stateMutability": "nonpayable",
      "type": "function",
      "signature": "0xd65ab5f2"
    },
    {
      "constant": false,
      "inputs": [],
      "name": "stopGame",
      "outputs": [],
      "payable": false,
      "stateMutability": "nonpayable",
      "type": "function",
      "signature": "0x83bd72ba"
    },
    {
      "constant": false,
      "inputs": [],
      "name": "stopLottery",
      "outputs": [],
      "payable": false,
      "stateMutability": "nonpayable",
      "type": "function",
      "signature": "0xd5c62498"
    },
    {
      "constant": false,
      "inputs": [],
      "name": "startLottery",
      "outputs": [],
      "payable": false,
      "stateMutability": "nonpayable",
      "type": "function",
      "signature": "0x160344e2"
    },
    {
      "constant": false,
      "inputs": [
        {
          "name": "_isSolo",
          "type": "bool"
        },
        {
          "name": "_choice",
          "type": "uint8"
        }
      ],
      "name": "createRound",
      "outputs": [
        {
          "name": "",
          "type": "uint256"
        }
      ],
      "payable": true,
      "stateMutability": "payable",
      "type": "function",
      "signature": "0xf81310fb"
    },
    {
      "constant": false,
      "inputs": [
        {
          "name": "_roundId",
          "type": "uint256"
        },
        {
          "name": "_choice",
          "type": "uint8"
        }
      ],
      "name": "joinRound",
      "outputs": [],
      "payable": true,
      "stateMutability": "payable",
      "type": "function",
      "signature": "0xa34826cb"
    },
    {
      "constant": false,
      "inputs": [
        {
          "name": "newLotteryRate",
          "type": "uint256"
        }
      ],
      "name": "setLotteryRate",
      "outputs": [],
      "payable": false,
      "stateMutability": "nonpayable",
      "type": "function",
      "signature": "0x06385b21"
    },
    {
      "constant": false,
      "inputs": [
        {
          "name": "newMinBusinessFeePayment",
          "type": "uint256"
        }
      ],
      "name": "setminBusinessFeePayment",
      "outputs": [],
      "payable": false,
      "stateMutability": "nonpayable",
      "type": "function",
      "signature": "0x12a0e070"
    }
  ],
  "bytecode": "0x6080604052670de0b6b3a7640000600255655af3107a40006003556103e86006556006546002026007556000600855662386f26fc1000060095573fb6916095ca1df60bb79ce92ce3ea74c37c5d359600a60006101000a81548173ffffffffffffffffffffffffffffffffffffffff021916908373ffffffffffffffffffffffffffffffffffffffff160217905550336000806101000a81548173ffffffffffffffffffffffffffffffffffffffff021916908373ffffffffffffffffffffffffffffffffffffffff16021790555061232f806100dd6000396000f3fe608060405260043610610128576000357c0100000000000000000000000000000000000000000000000000000000900463ffffffff16806306385b21146101455780630c07122214610180578063127f0b3f146101ab57806312a0e070146101d65780631583deb214610211578063160344e2146102685780633580ecd01461027f5780636b31ee01146102aa5780636e8c2caf146102d55780636f1573c31461030457806383bd72ba1461033357806388c3ffb01461034a5780638da5cb5b1461045c5780638f32d59b146104b3578063911d0189146104e2578063a34826cb1461050d578063c38a8afd14610548578063d5c6249814610573578063d65ab5f21461058a578063e169bf6c146105a1578063f2564737146105ab578063f81310fb146105d6575b61013d3460015461062790919063ffffffff16565b600181905550005b34801561015157600080fd5b5061017e6004803603602081101561016857600080fd5b8101908080359060200190929190505050610648565b005b34801561018c57600080fd5b50610195610665565b6040518082815260200191505060405180910390f35b3480156101b757600080fd5b506101c061066b565b6040518082815260200191505060405180910390f35b3480156101e257600080fd5b5061020f600480360360208110156101f957600080fd5b8101908080359060200190929190505050610671565b005b34801561021d57600080fd5b5061022661068e565b604051808273ffffffffffffffffffffffffffffffffffffffff1673ffffffffffffffffffffffffffffffffffffffff16815260200191505060405180910390f35b34801561027457600080fd5b5061027d6106b4565b005b34801561028b57600080fd5b506102946106e4565b6040518082815260200191505060405180910390f35b3480156102b657600080fd5b506102bf6106ea565b6040518082815260200191505060405180910390f35b3480156102e157600080fd5b506102ea6106f0565b604051808215151515815260200191505060405180910390f35b34801561031057600080fd5b50610319610703565b604051808215151515815260200191505060405180910390f35b34801561033f57600080fd5b50610348610716565b005b34801561035657600080fd5b506103836004803603602081101561036d57600080fd5b8101908080359060200190929190505050610814565b604051808773ffffffffffffffffffffffffffffffffffffffff1673ffffffffffffffffffffffffffffffffffffffff1681526020018660028111156103c557fe5b60ff1681526020018573ffffffffffffffffffffffffffffffffffffffff1673ffffffffffffffffffffffffffffffffffffffff16815260200184600281111561040b57fe5b60ff1681526020018381526020018273ffffffffffffffffffffffffffffffffffffffff1673ffffffffffffffffffffffffffffffffffffffff168152602001965050505050505060405180910390f35b34801561046857600080fd5b50610471610ac5565b604051808273ffffffffffffffffffffffffffffffffffffffff1673ffffffffffffffffffffffffffffffffffffffff16815260200191505060405180910390f35b3480156104bf57600080fd5b506104c8610aea565b604051808215151515815260200191505060405180910390f35b3480156104ee57600080fd5b506104f7610b41565b6040518082815260200191505060405180910390f35b6105466004803603604081101561052357600080fd5b8101908080359060200190929190803560ff169060200190929190505050610b47565b005b34801561055457600080fd5b5061055d610fa8565b6040518082815260200191505060405180910390f35b34801561057f57600080fd5b50610588610fae565b005b34801561059657600080fd5b5061059f610fde565b005b6105a9611234565b005b3480156105b757600080fd5b506105c0611251565b6040518082815260200191505060405180910390f35b610611600480360360408110156105ec57600080fd5b81019080803515159060200190929190803560ff169060200190929190505050611257565b6040518082815260200191505060405180910390f35b600080828401905083811015151561063e57600080fd5b8091505092915050565b610650610aea565b151561065b57600080fd5b8060068190555050565b60095481565b60045481565b610679610aea565b151561068457600080fd5b8060098190555050565b600a60009054906101000a900473ffffffffffffffffffffffffffffffffffffffff1681565b6106bc610aea565b15156106c757600080fd5b6001600560016101000a81548160ff021916908315150217905550565b60085481565b60015481565b600560009054906101000a900460ff1681565b600560019054906101000a900460ff1681565b61071e610aea565b151561072957600080fd5b6001801515600560009054906101000a900460ff1615151415156107db576040517f08c379a000000000000000000000000000000000000000000000000000000000815260040180806020018281038252602c8152602001807f46756e6374696f6e20617661696c61626c65206f6e6c79207768656e2067616d81526020017f652069732072756e6e696e67000000000000000000000000000000000000000081525060400191505060405180910390fd5b6000600560006101000a81548160ff0219169083151502179055506000600560016101000a81548160ff02191690831515021790555050565b60008060008060008061082561223b565b600b6000898152602001908152602001600020610100604051908101604052908160008201606060405190810160405290816000820160009054906101000a900460ff16600281111561087457fe5b600281111561087f57fe5b8152602001600182015481526020016002820160009054906101000a900473ffffffffffffffffffffffffffffffffffffffff1673ffffffffffffffffffffffffffffffffffffffff1673ffffffffffffffffffffffffffffffffffffffff1681525050815260200160038201606060405190810160405290816000820160009054906101000a900460ff16600281111561091657fe5b600281111561092157fe5b8152602001600182015481526020016002820160009054906101000a900473ffffffffffffffffffffffffffffffffffffffff1673ffffffffffffffffffffffffffffffffffffffff1673ffffffffffffffffffffffffffffffffffffffff16815250508152602001600682015481526020016007820160009054906101000a900473ffffffffffffffffffffffffffffffffffffffff1673ffffffffffffffffffffffffffffffffffffffff1673ffffffffffffffffffffffffffffffffffffffff1681526020016007820160149054906101000a900460ff161515151581526020016007820160159054906101000a900460ff161515151581526020016008820160009054906101000a900473ffffffffffffffffffffffffffffffffffffffff1673ffffffffffffffffffffffffffffffffffffffff1673ffffffffffffffffffffffffffffffffffffffff1681526020016009820154815250509050806000015160400151816000015160000151826020015160400151836020015160000151846040015185606001519650965096509650965096505091939550919395565b6000809054906101000a900473ffffffffffffffffffffffffffffffffffffffff1681565b60008060009054906101000a900473ffffffffffffffffffffffffffffffffffffffff1673ffffffffffffffffffffffffffffffffffffffff163373ffffffffffffffffffffffffffffffffffffffff1614905090565b60025481565b6001801515600560009054906101000a900460ff161515141515610bf9576040517f08c379a000000000000000000000000000000000000000000000000000000000815260040180806020018281038252602c8152602001807f46756e6374696f6e20617661696c61626c65206f6e6c79207768656e2067616d81526020017f652069732072756e6e696e67000000000000000000000000000000000000000081525060400191505060405180910390fd5b6000600b60008581526020019081526020016000209050600073ffffffffffffffffffffffffffffffffffffffff168160000160020160009054906101000a900473ffffffffffffffffffffffffffffffffffffffff1673ffffffffffffffffffffffffffffffffffffffff1614151515610cdc576040517f08c379a00000000000000000000000000000000000000000000000000000000081526004018080602001828103825260148152602001807f526f756e6420646f6573206e6f7420657869737400000000000000000000000081525060200191505060405180910390fd5b600073ffffffffffffffffffffffffffffffffffffffff168160030160020160009054906101000a900473ffffffffffffffffffffffffffffffffffffffff1673ffffffffffffffffffffffffffffffffffffffff16148015610d4e57508060070160149054906101000a900460ff16155b1515610dc2576040517f08c379a00000000000000000000000000000000000000000000000000000000081526004018080602001828103825260168152602001807f526f756e6420616c72656164792066696e69736865640000000000000000000081525060200191505060405180910390fd5b80600601543410151515610e64576040517f08c379a00000000000000000000000000000000000000000000000000000000081526004018080602001828103825260218152602001807f53656e64206174206c65617374207468652073616d652062657420616d6f756e81526020017f740000000000000000000000000000000000000000000000000000000000000081525060400191505060405180910390fd5b3373ffffffffffffffffffffffffffffffffffffffff166108fc826006015434039081150290604051600060405180830381858888f19350505050158015610eb0573d6000803e3d6000fd5b50338160030160020160006101000a81548173ffffffffffffffffffffffffffffffffffffffff021916908373ffffffffffffffffffffffffffffffffffffffff160217905550828160030160000160006101000a81548160ff02191690836002811115610f1a57fe5b0217905550610f288461164c565b600560019054906101000a900460ff1615610fa257610f6e8160000160020160009054906101000a900473ffffffffffffffffffffffffffffffffffffffff1685611a03565b50610fa08160030160020160009054906101000a900473ffffffffffffffffffffffffffffffffffffffff1685611a03565b505b50505050565b60035481565b610fb6610aea565b1515610fc157600080fd5b6000600560016101000a81548160ff021916908315150217905550565b610fe6610aea565b1515610ff157600080fd5b6000801515600560009054906101000a900460ff1615151415156110a3576040517f08c379a000000000000000000000000000000000000000000000000000000000815260040180806020018281038252602c8152602001807f46756e6374696f6e20617661696c61626c65206f6e6c79207768656e2067616d81526020017f652069732072756e6e696e67000000000000000000000000000000000000000081525060400191505060405180910390fd5b3073ffffffffffffffffffffffffffffffffffffffff163160015411151515611134576040517f08c379a000000000000000000000000000000000000000000000000000000000815260040180806020018281038252601d8152602001807f4a61636b706f74206c6f776572207468616e2053432062616c616e636500000081525060200191505060405180910390fd5b6002543073ffffffffffffffffffffffffffffffffffffffff163110158015611161575060025460015410155b15156111fb576040517f08c379a000000000000000000000000000000000000000000000000000000000815260040180806020018281038252602b8152602001807f4d696e696d756d204a61636b706f74206973206e656564656420666f7220737481526020017f617274696e672067616d6500000000000000000000000000000000000000000081525060400191505060405180910390fd5b6001600560006101000a81548160ff0219169083151502179055506001600560016101000a81548160ff02191690831515021790555050565b6112493460015461062790919063ffffffff16565b600181905550565b60065481565b60006001801515600560009054906101000a900460ff16151514151561130b576040517f08c379a000000000000000000000000000000000000000000000000000000000815260040180806020018281038252602c8152602001807f46756e6374696f6e20617661696c61626c65206f6e6c79207768656e2067616d81526020017f652069732072756e6e696e67000000000000000000000000000000000000000081525060400191505060405180910390fd5b6003543410151515611385576040517f08c379a00000000000000000000000000000000000000000000000000000000081526004018080602001828103825260158152602001807f4e6f7420656e6f75676820616d6f756e7420626574000000000000000000000081525060200191505060405180910390fd5b600460008154809291906001019190505550600060045490506000600b60008381526020019081526020016000209050338160000160020160006101000a81548173ffffffffffffffffffffffffffffffffffffffff021916908373ffffffffffffffffffffffffffffffffffffffff160217905550848160000160000160006101000a81548160ff0219169083600281111561141e57fe5b0217905550348160060181905550858160070160156101000a81548160ff0219169083151502179055508060000160020160009054906101000a900473ffffffffffffffffffffffffffffffffffffffff1673ffffffffffffffffffffffffffffffffffffffff167fb3b1bde84bcee68ebfec5d442001436ebf6966913748ad5f78f4d21d9f93486f60045483600601548460070160159054906101000a900460ff166040518084815260200183815260200182151515158152602001935050505060405180910390a28060070160159054906101000a900460ff1615611640576001543411151515611579576040517f08c379a000000000000000000000000000000000000000000000000000000000815260040180806020018281038252600c8152602001807f42657420746f6f2068696768000000000000000000000000000000000000000081525060200191505060405180910390fd5b308160030160020160006101000a81548173ffffffffffffffffffffffffffffffffffffffff021916908373ffffffffffffffffffffffffffffffffffffffff1602179055506115c7611b0d565b8160030160000160006101000a81548160ff021916908360028111156115e957fe5b02179055506115f78261164c565b600560019054906101000a900460ff161561163f5761163d8160000160020160009054906101000a900473ffffffffffffffffffffffffffffffffffffffff1683611a03565b505b5b81935050505092915050565b6000600b600083815260200190815260200160002090508060070160149054906101000a900460ff161515156116ea576040517f08c379a00000000000000000000000000000000000000000000000000000000081526004018080602001828103825260148152602001807f526f756e6420616c726561647920636c6f73656400000000000000000000000081525060200191505060405180910390fd5b61182c81600001606060405190810160405290816000820160009054906101000a900460ff16600281111561171b57fe5b600281111561172657fe5b8152602001600182015481526020016002820160009054906101000a900473ffffffffffffffffffffffffffffffffffffffff1673ffffffffffffffffffffffffffffffffffffffff1673ffffffffffffffffffffffffffffffffffffffff168152505082600301606060405190810160405290816000820160009054906101000a900460ff1660028111156117b857fe5b60028111156117c357fe5b8152602001600182015481526020016002820160009054906101000a900473ffffffffffffffffffffffffffffffffffffffff1673ffffffffffffffffffffffffffffffffffffffff1673ffffffffffffffffffffffffffffffffffffffff1681525050611ba7565b8160070160006101000a81548173ffffffffffffffffffffffffffffffffffffffff021916908373ffffffffffffffffffffffffffffffffffffffff16021790555061187782611c36565b8060000160020160009054906101000a900473ffffffffffffffffffffffffffffffffffffffff1673ffffffffffffffffffffffffffffffffffffffff167f7d8b4a984b7fa465226fb3cb2eb9c5110227b5afed1649f904bbdb67bc9a2dd9838360070160009054906101000a900473ffffffffffffffffffffffffffffffffffffffff1684600601548560000160000160009054906101000a900460ff168660030160020160009054906101000a900473ffffffffffffffffffffffffffffffffffffffff168760030160000160009054906101000a900460ff16604051808781526020018673ffffffffffffffffffffffffffffffffffffffff1673ffffffffffffffffffffffffffffffffffffffff1681526020018581526020018460028111156119a157fe5b60ff1681526020018373ffffffffffffffffffffffffffffffffffffffff1673ffffffffffffffffffffffffffffffffffffffff1681526020018260028111156119e757fe5b60ff168152602001965050505050505060405180910390a25050565b600080600654600454856001430340604051602001808481526020018373ffffffffffffffffffffffffffffffffffffffff1673ffffffffffffffffffffffffffffffffffffffff166c0100000000000000000000000002815260140182815260200193505050506040516020818303038152906040528051906020012060019004811515611a8e57fe5b061415611b02576000600b60008481526020019081526020016000209050838160080160006101000a81548173ffffffffffffffffffffffffffffffffffffffff021916908373ffffffffffffffffffffffffffffffffffffffff160217905550611af88461203f565b6001915050611b07565b600090505b92915050565b60006003600454336001430340604051602001808481526020018373ffffffffffffffffffffffffffffffffffffffff1673ffffffffffffffffffffffffffffffffffffffff166c0100000000000000000000000002815260140182815260200193505050506040516020818303038152906040528051906020012060019004811515611b9657fe5b066002811115611ba257fe5b905090565b600081600001516002811115611bb957fe5b6003600185600001516002811115611bcd57fe5b01811515611bd757fe5b061415611bea5781604001519050611c30565b81600001516002811115611bfa57fe5b6003600285600001516002811115611c0e57fe5b01811515611c1857fe5b061415611c2b5782604001519050611c30565b600090505b92915050565b6000600b6000838152602001908152602001600020905060008160070160009054906101000a900473ffffffffffffffffffffffffffffffffffffffff1690508160070160149054906101000a900460ff16151515611cfd576040517f08c379a00000000000000000000000000000000000000000000000000000000081526004018080602001828103825260148152602001807f526f756e6420616c726561647920636c6f73656400000000000000000000000081525060200191505060405180910390fd5b60018260070160146101000a81548160ff0219169083151502179055506000600154905060003073ffffffffffffffffffffffffffffffffffffffff163190506000620f4240611d5c61138887600601546121db90919063ffffffff16565b811515611d6557fe5b0490506000620f4240611d8760075488600601546121db90919063ffffffff16565b811515611d9057fe5b0490508560070160159054906101000a900460ff1615611f0b57600073ffffffffffffffffffffffffffffffffffffffff168573ffffffffffffffffffffffffffffffffffffffff161415611dff57611df48260015461062790919063ffffffff16565b600181905550611f06565b3073ffffffffffffffffffffffffffffffffffffffff168573ffffffffffffffffffffffffffffffffffffffff161415611e5757611e4c866006015460015461062790919063ffffffff16565b600181905550611f05565b611e70866006015460015461221990919063ffffffff16565b6001819055507fd4f43975feb89f48dd30cabbb32011045be187d1e11c8ea9faa43efc3528251985828489600601540303604051808373ffffffffffffffffffffffffffffffffffffffff1673ffffffffffffffffffffffffffffffffffffffff1681526020018281526020019250505060405180910390a1611efe8260015461062790919063ffffffff16565b6001819055505b5b611ff3565b600073ffffffffffffffffffffffffffffffffffffffff168573ffffffffffffffffffffffffffffffffffffffff161415611f6357611f588260020260015461062790919063ffffffff16565b600181905550611ff2565b7fd4f43975feb89f48dd30cabbb32011045be187d1e11c8ea9faa43efc3528251985828489600601540303604051808373ffffffffffffffffffffffffffffffffffffffff1673ffffffffffffffffffffffffffffffffffffffff1681526020018281526020019250505060405180910390a1611feb8260015461062790919063ffffffff16565b6001819055505b5b856006015460020284036001541015801561202e5750856006015460020283033073ffffffffffffffffffffffffffffffffffffffff163110155b151561203657fe5b50505050505050565b3073ffffffffffffffffffffffffffffffffffffffff1631600154111515156120f6576040517f08c379a00000000000000000000000000000000000000000000000000000000081526004018080602001828103825260278152602001807f4a61636b706f7420697320686967686572207468616e20636f6e74726163742081526020017f62616c616e63650000000000000000000000000000000000000000000000000081525060400191505060405180910390fd5b60006001819055507f59eb56f0aaebc4c2e1de6e254bc52af79350363a072c9ef59851f0d0861a964281600154604051808373ffffffffffffffffffffffffffffffffffffffff1673ffffffffffffffffffffffffffffffffffffffff1681526020018281526020019250505060405180910390a17fd4f43975feb89f48dd30cabbb32011045be187d1e11c8ea9faa43efc3528251981600154604051808373ffffffffffffffffffffffffffffffffffffffff1673ffffffffffffffffffffffffffffffffffffffff1681526020018281526020019250505060405180910390a150565b6000808314156121ee5760009050612213565b6000828402905082848281151561220157fe5b0414151561220e57600080fd5b809150505b92915050565b600082821115151561222a57600080fd5b600082840390508091505092915050565b610180604051908101604052806122506122bd565b815260200161225d6122bd565b815260200160008152602001600073ffffffffffffffffffffffffffffffffffffffff168152602001600015158152602001600015158152602001600073ffffffffffffffffffffffffffffffffffffffff168152602001600081525090565b606060405190810160405280600060028111156122d657fe5b815260200160008019168152602001600073ffffffffffffffffffffffffffffffffffffffff168152509056fea165627a7a72305820a079bbea1b7001f0c95ca92fce4fa9ae42a6b11256dd3176af97e3107cbfdb4c0029",
  "source": "pragma solidity 0.5.0;\n\nimport \"./Ownable.sol\";\nimport \"./SafeMath.sol\";\n\n\n/** @title RPS - RockPaperScissor P2P game, playing also for a jackpot.\n  * @author rggentil\n  * @notice This is just a simple game done mostly for learning solidity\n            and web3 development, do not use betting real value since\n            it has some known vulnerabilities.\n  * @dev My first smartcontract, so probably code could be improved.\n */\n\ncontract RPS is Ownable {\n\n    using SafeMath for uint;\n\n    uint public jackpot;\n    uint public minJackpot = 1 ether;\n    uint public minimumBet = 0.0001 ether;\n    uint public roundCount;\n    bool public gameRunning;\n    bool public lotteryOn;\n\n    uint public lotteryRate = 1000;\n\n    // Since we can't use decimals, represent the rate as ppm (part-per-million)\n    // Used constant that saves gas, but it might be a good idea to set it as public\n    // and be able to adjust the fee rate.\n    // Set them as constnts althoug we could make them public vars\n    uint constant jackpotFeeRate = 5000;\n    uint constant feeUnits = 1000000;\n    uint businessFeeRate = 2 * lotteryRate;\n    uint public totalBusinessFee = 0;\n    uint public minBusinessFeePayment = 0.01 ether;\n    address public businessAddress = 0xfB6916095ca1df60bB79Ce92cE3Ea74c37c5d359;  // Ethereum foundation address\n\n    /* Not used yet\n    uint maxJackpot;\n    */\n\n    enum Choice { Rock, Paper, Scissors }\n\n    struct Player {\n        Choice choice;\n        bytes32 playerHash;\n        address playerAddress;\n    }\n\n    struct Round {\n        Player player1;\n        Player player2;\n        uint betAmount;\n        address winner;\n        bool isClosed;\n        bool isSolo;\n        address lotteryWinner;\n        uint currentJackpot;\n    }\n\n    mapping(uint=>Round) rounds;\n\n    // We could add another mapping to check rounds per address:\n    // mapping(address=>uint[])\n\n    event RoundCreated(\n        uint roundId,\n        uint betAmount,\n        address indexed player1,\n        bool isSolo\n    );\n\n    event RoundResolved(\n        uint roundId,\n        address winner,\n        uint betAmount,\n        address indexed player1,\n        Choice choice1,\n        address player2,\n        Choice choice2\n    );\n\n    event Payment(address paidAddress, uint amount);\n    event LotteryWin(address winner, uint jackpot);\n\n    event BusinessPayment(address businessAddress, uint payment);\n\n    /** @dev Modifier for functions available only when game is running\n      * @param _isRunning bool to check is we need the game is running or not\n    */\n    modifier gameIsRunning(bool _isRunning) {\n        require(gameRunning == _isRunning, \"Function available only when game is running\");\n        _;\n    }\n\n    constructor() public payable {\n        // We could handle games through constructor and setting variables like\n        // minimum bet, max jackpot, fees, etc.\n    }\n\n    /** @notice Fallback, just in case of receiving funds, to the jackpot\n    */\n    function () external payable {\n        jackpot = jackpot.add(msg.value);\n    }\n\n    /** @notice Get info from rounds.\n                TODO: This function should be removed in final deployment because\n                it facilitates getting other player's choice before betting.\n      * @dev This function is implemented mainly for debugging purpose.\n             Actually getting info from front-end is managed through events.\n      * @param roundId round id number that identify a round\n      * @return player1Address address of player1\n      * @return player1Choice choice of player1\n      * @return player2Address address of player2\n      * @return player2Choice choice of player2\n      * @return betAmount amount of the bet of this round, in wei.\n      * @return winner address of the winner, it's 0x0 if not finished or draw\n    */\n    function getRoundInfo(\n        uint roundId\n    )\n        external\n        view\n        returns(\n            address player1Address,\n            Choice player1Choice,\n            address player2Address,\n            Choice player2Choice,\n            uint betAmount,\n            address winner\n        )\n    {\n        Round memory myRound = rounds[roundId];\n        return (\n            myRound.player1.playerAddress,\n            myRound.player1.choice,\n            myRound.player2.playerAddress,\n            myRound.player2.choice,\n            myRound.betAmount,\n            myRound.winner\n        );\n    }\n\n    /** @notice Payable, to fund game by adding ethers to contract and to the jackpot\n      * @dev It's just the same as fallback function.\n    */\n    function fundGame() public payable {\n        jackpot = jackpot.add(msg.value);\n    }\n\n    /** @notice When we have everything ready owner can start game so anyone can play. Also it starts lottery.\n                Also for restarting game after having stopped it\n    */\n    function startGame() public onlyOwner gameIsRunning(false){\n        require(jackpot <= address(this).balance, \"Jackpot lower than SC balance\");\n        require((address(this).balance >= minJackpot) && (jackpot >= minJackpot), \"Minimum Jackpot is needed for starting game\");\n        gameRunning = true;\n        lotteryOn = true;\n    }\n\n    /** @notice Function for emergengies. Also it stops lottery.\n    */\n    function stopGame() public onlyOwner gameIsRunning(true){\n        gameRunning = false;\n        lotteryOn = false;\n    }\n\n    /** @notice Stop lottery (this means stop playing for jackpot)\n    */\n    function stopLottery() public onlyOwner {\n        lotteryOn = false;\n    }\n\n    /** @notice Start lottery (this means playing for jackpot)\n    */\n    function startLottery() public onlyOwner {\n        lotteryOn = true;\n    }\n\n    /** @notice Withdraw funds in case of an emergengy. Set jackpot to 0.\n      * @param _myAddress addres to withdraw funds to\n    */\n    // function withdrawFunds(address _myAddress) public onlyOwner gameIsRunning(false) {\n    //     (_myAddress).transfer(address(this).balance);\n    //     jackpot = 0;\n    // }\n\n    /** @notice Function called each time we want to play.\n                Payable function thar receives the bet amount.\n      * @param _isSolo bool value that represents playing vs House/smartcontract\n                       or vs other player\n      * @param _choice choose Choice enum value: ROCK, PAPER, SCISSOR\n      * @return roundId id number that identify the round created\n     */\n    function createRound(bool _isSolo, Choice _choice)\n        public\n        gameIsRunning(true)\n        payable\n        returns(uint)\n    {\n        require(msg.value >= minimumBet, \"Not enough amount bet\");\n\n        roundCount++;\n        uint roundId = roundCount;\n        Round storage round = rounds[roundId];\n        round.player1.playerAddress = msg.sender;\n        round.player1.choice = _choice;\n        round.betAmount = msg.value;\n        round.isSolo = _isSolo;\n\n        emit RoundCreated(\n            roundCount,\n            round.betAmount,\n            round.player1.playerAddress,\n            round.isSolo\n        );\n\n        if (round.isSolo) {\n            require(msg.value <= jackpot, \"Bet too high\");\n            round.player2.playerAddress = address(this);\n            round.player2.choice = getRandomChoice();\n            _resolveRound(roundId);\n            if (lotteryOn) {\n                _playLottery(round.player1.playerAddress, roundId);\n            }\n        }\n\n        return roundId;\n    }\n\n    /** @notice Join to an existing round created by other player\n                Payable function thar receives the bet amount.\n      * @param _roundId id number that identify the round to join\n      * @param _choice choose Choice enum value: ROCK, PAPER, SCISSOR\n     */\n    function joinRound(uint _roundId, Choice _choice) public gameIsRunning(true) payable {\n        Round storage myRound = rounds[_roundId];  // Pointer to round\n        require(myRound.player1.playerAddress != address(0), \"Round does not exist\");\n        require(myRound.player2.playerAddress == address(0) && !myRound.isClosed, \"Round already finished\");\n        require(msg.value >= myRound.betAmount, \"Send at least the same bet amount\");\n\n        // Send back the excess of the amount sent minus the real bet amount\n        // Use Safe Math, althouth this should never be overflow bc substract uints is another uint\n        // Using transfer should prevent from fallback reentrancy, but...\n        // Also, a reentrancy would have to send more value than betAmount, I think an attack has no sense\n        // but I would have to analyze it a bit more.\n        msg.sender.transfer(msg.value - myRound.betAmount);  // No need to use SafeMath since this can't be negative\n\n        myRound.player2.playerAddress = msg.sender;\n        myRound.player2.choice = _choice;\n        _resolveRound(_roundId);\n\n        if (lotteryOn) {\n            _playLottery(myRound.player1.playerAddress, _roundId);\n            _playLottery(myRound.player2.playerAddress, _roundId);\n        }\n\n    }\n\n    /** @notice Function that generates randomness for the game, used when playing vs House and playing\n                for the jackpot. This implementation is not safe since it can be easyly attacked.\n      * @dev It uses the blockhash of the last block, with two other params but it is not safe for a gambling\n            platform. Change randomness in case we want it to be realistic. Probably it needs Oraclize.\n      * @return Choice enum value (ROCK, PAPER, SCISSOR) chosen randomly.\n    */\n    function getRandomChoice() private view returns(Choice){\n        return Choice(uint(keccak256(abi.encodePacked(roundCount, msg.sender, blockhash(block.number - 1)))) % 3);\n    }\n\n    /** @notice Resolve round, both vs House or vs other player.\n                Pay winner if any.\n      * @param _roundId id number that identify the round to resolve\n     */\n    function _resolveRound(uint _roundId) private {\n        Round storage myRound = rounds[_roundId];  // Pointer to round\n        require(!myRound.isClosed, \"Round already closed\");\n        myRound.winner = _checkWinner(myRound.player1, myRound.player2);\n        _payRound(_roundId);\n        emit RoundResolved(\n            _roundId,\n            myRound.winner,\n            myRound.betAmount,\n            myRound.player1.playerAddress,\n            myRound.player1.choice,\n            myRound.player2.playerAddress,\n            myRound.player2.choice\n        );\n    }\n\n    /** @notice Pay winner of the round resolved.\n      * @param _roundId id number that identify the round to resolve\n     */\n    function _payRound(uint _roundId) private {\n        Round storage myRound = rounds[_roundId];  // Pointer to round\n        address winner = myRound.winner;\n\n        // I think this is necessary to avoid possible reentrancy attacks (although we're using transfer).\n        // I also think we are protected since this function is private, the one which calls this one is\n        // also private and the parent you need to send value to join round.\n        require(!myRound.isClosed, \"Round already closed\");\n        myRound.isClosed = true;\n\n        uint inititalJackpot = jackpot;\n        uint initialBalance = address(this).balance;\n        uint jackpotFee = myRound.betAmount.mul(jackpotFeeRate) / feeUnits;\n        uint businessFee = myRound.betAmount.mul(businessFeeRate) / feeUnits;\n\n        if(myRound.isSolo) {  // 1 player mode\n            if (winner == address(0)){  // Draw, player recevies what he bet minus fee\n                //myRound.player1.playerAddress.transfer(myRound.betAmount - jackpotFee - businessFee);\n                jackpot = jackpot.add(jackpotFee);\n            } else if (winner == address(this)) {  // Player looses, bet to jackpot\n                jackpot = jackpot.add(myRound.betAmount);\n            } else {  // Player wins\n                // SafeMath is not necessary, jackpot and betAmount are uint, and the substraction can only be uint.\n                // Used to show using a Library. Consider to change it to use -, since it saves same gas.\n                jackpot = jackpot.sub(myRound.betAmount);\n                //winner.transfer(myRound.betAmount.mul(2) - jackpotFee - businessFee);\n                emit Payment(winner, myRound.betAmount - jackpotFee - businessFee);\n                jackpot = jackpot.add(jackpotFee);\n            }\n\n        } else { // 2 players mode\n            if (winner == address(0)){  // Draw, players receive what they bet minus jackpot and business fee\n                // We might consider to study this a bit more, but I think that when playing 2 players\n                // we may just charge half of business fee to each player and that's OK for avoiding\n                // attacks in case of a draw.\n                //myRound.player1.playerAddress.transfer(myRound.betAmount - jackpotFee - businessFee / 2);\n                //myRound.player2.playerAddress.transfer(myRound.betAmount - jackpotFee - businessFee / 2);\n                jackpot = jackpot.add(2 * jackpotFee);\n            } else {  // Bet to the winner minus jackpot and business fee\n                //winner.transfer(myRound.betAmount.mul(2) - jackpotFee - businessFee);\n                emit Payment(winner, myRound.betAmount - jackpotFee - businessFee);\n                jackpot = jackpot.add(jackpotFee);\n            }\n        }\n\n        // We must do the transfer of business fee to businessAddress but since they're supposed to be very small we should wait\n        // till collecting a bigger amount, for avoiding paying more gas than actual money.\n        // totalBusinessFee += businessFee;\n        // if (totalBusinessFee > businessFeePayment) {\n        //     //businessAddress.transfer(totalBusinessFee);\n        //     businessFee = 0;\n        // }\n\n\n        // Additional check por security for reentrancy (kind of formal verification)\n        // These additional checks may not be necessary since we are using transfer that limits gas to 2300,\n        // so in the final deployment we could ommit all these additional checks in order to save same uncessary gas\n        assert((jackpot >= inititalJackpot - (2 * myRound.betAmount)) && (address(this).balance >= initialBalance - (2 * myRound.betAmount)));\n    }\n\n    /** @notice Check winner of the round, both vs House or vs other player.\n      * @param player1 player struct (with player's address and choice)\n      * @param player2 player struct (with player's address and choice)\n      * @return address of the winner\n     */\n    function _checkWinner(Player memory player1, Player memory player2) private pure returns(address) {\n        if ((uint(player1.choice) + 1) % 3 == uint(player2.choice)) {\n            return player2.playerAddress;\n        } else if ((uint(player1.choice) + 2) % 3 == uint(player2.choice)) {\n            return player1.playerAddress;\n        } else {\n            return address(0);\n        }\n    }\n\n    /** @notice Set the lottery rate in percentage, how easy is to hit the jackpot\n      * @dev Mostly for testing porpuse. It should be removed in final deployment or no modifiable by anyone\n      * @param newLotteryRate new lottery rate\n     */\n    // Mostly for testing porpuse.\n    function setLotteryRate(uint newLotteryRate) public onlyOwner {\n        lotteryRate = newLotteryRate;\n    }\n\n    /** @notice Set the minimum amount of ETH to be transfered when collecting business fees\n      * @dev Mostly for testing porpuse. It should be removed in final deployment or no modifiable by anyone\n      * @param newMinBusinessFeePayment new min amount of ETH to transfer to business\n     */\n    // Mostly for testing porpuse.\n    function setminBusinessFeePayment(uint newMinBusinessFeePayment) public onlyOwner {\n        minBusinessFeePayment = newMinBusinessFeePayment;\n    }\n\n    /** @notice Play lottery for the round\n      * @dev TODO: Current randomness is not the best way for gambling since it can be attacked by miners.\n             TODO: It is needed to implement a mechanism that assures that existing rounds can be paid altoudh\n             someone has hit the jakpot. Curerntly if someone hits the jackpot he/she gets all value of the contract\n      * @param playerAddress address of the player\n      * @param _roundId id number that identify the round to resolve\n      * @return if player wins the lottery or not\n     */\n\n    function _playLottery(address playerAddress, uint _roundId) private returns (bool) {\n\n        if (uint(keccak256(abi.encodePacked(roundCount, playerAddress, blockhash(block.number - 1)))) % lotteryRate == 0) {\n            Round storage myRound = rounds[_roundId];  // Pointer to round\n            //require(myRound.lotteryWinner == 0, \"Only one lotery winner per round\");\n            myRound.lotteryWinner = playerAddress;\n            _payLotteryWinner(playerAddress);\n            return true;\n        }\n        return false;\n    }\n\n    /** @notice Pay winner of the lottery\n      * @param _winnerAddress address of the winner\n     */\n    function _payLotteryWinner(address _winnerAddress) private {\n        require(jackpot <= address(this).balance, \"Jackpot is higher than contract balance\");\n\n        // I think we dont need to avoid reentrancy since no problem using transfer.\n        //_winnerAddress.transfer(jackpot);\n        jackpot = 0;\n        emit LotteryWin(_winnerAddress, jackpot);\n        emit Payment(_winnerAddress, jackpot);\n    }\n\n}\n",
  "sourcePath": "/home/antonio/src/TFM/BLOCKCHAINTFM/RPS_Dapp/contracts/RPS.sol",
  "compiler": {
    "name": "solc",
    "version": "0.5.0+commit.1d4f565a.Emscripten.clang"
  },
  "schemaVersion": "3.0.2",
  "updatedAt": "2019-02-28T18:02:13.912Z",
  "devdoc": {
    "author": "rggentil",
    "details": "My first smartcontract, so probably code could be improved.",
    "methods": {
      "createRound(bool,uint8)": {
        "params": {
          "_choice": "choose Choice enum value: ROCK, PAPER, SCISSOR",
          "_isSolo": "bool value that represents playing vs House/smartcontract or vs other player"
        },
        "return": "roundId id number that identify the round created"
      },
      "fundGame()": {
        "details": "It's just the same as fallback function."
      },
      "getRoundInfo(uint256)": {
        "details": "This function is implemented mainly for debugging purpose. Actually getting info from front-end is managed through events.",
        "params": {
          "roundId": "round id number that identify a round"
        },
        "return": "player1Address address of player1player1Choice choice of player1player2Address address of player2player2Choice choice of player2betAmount amount of the bet of this round, in wei.winner address of the winner, it's 0x0 if not finished or draw"
      },
      "joinRound(uint256,uint8)": {
        "params": {
          "_choice": "choose Choice enum value: ROCK, PAPER, SCISSOR",
          "_roundId": "id number that identify the round to join"
        }
      },
      "setLotteryRate(uint256)": {
        "details": "Mostly for testing porpuse. It should be removed in final deployment or no modifiable by anyone",
        "params": {
          "newLotteryRate": "new lottery rate"
        }
      },
      "setminBusinessFeePayment(uint256)": {
        "details": "Mostly for testing porpuse. It should be removed in final deployment or no modifiable by anyone",
        "params": {
          "newMinBusinessFeePayment": "new min amount of ETH to transfer to business"
        }
      }
    },
    "title": "RPS - RockPaperScissor P2P game, playing also for a jackpot."
  },
  "userdoc": {
    "methods": {
      "createRound(bool,uint8)": {
        "notice": "Function called each time we want to play. Payable function thar receives the bet amount."
      },
      "fundGame()": {
        "notice": "Payable, to fund game by adding ethers to contract and to the jackpot"
      },
      "getRoundInfo(uint256)": {
        "notice": "Get info from rounds. TODO: This function should be removed in final deployment because it facilitates getting other player's choice before betting."
      },
      "joinRound(uint256,uint8)": {
        "notice": "Join to an existing round created by other player Payable function thar receives the bet amount."
      },
      "setLotteryRate(uint256)": {
        "notice": "Set the lottery rate in percentage, how easy is to hit the jackpot"
      },
      "setminBusinessFeePayment(uint256)": {
        "notice": "Set the minimum amount of ETH to be transfered when collecting business fees"
      },
      "startGame()": {
        "notice": "When we have everything ready owner can start game so anyone can play. Also it starts lottery. Also for restarting game after having stopped it"
      },
      "startLottery()": {
        "notice": "Start lottery (this means playing for jackpot)"
      },
      "stopGame()": {
        "notice": "Function for emergengies. Also it stops lottery."
      },
      "stopLottery()": {
        "notice": "Stop lottery (this means stop playing for jackpot)"
      }
    },
    "notice": "This is just a simple game done mostly for learning solidity and web3 development, do not use betting real value since it has some known vulnerabilities."
  }
}