{
  "contractName": "RPS",
  "abi": [
    {
      "constant": true,
      "inputs": [],
      "name": "roundCount",
      "outputs": [
        {
          "name": "",
          "type": "uint256"
        }
      ],
      "payable": false,
      "stateMutability": "view",
      "type": "function"
    },
    {
      "constant": true,
      "inputs": [],
      "name": "businessAddress",
      "outputs": [
        {
          "name": "",
          "type": "address"
        }
      ],
      "payable": false,
      "stateMutability": "view",
      "type": "function"
    },
    {
      "constant": true,
      "inputs": [],
      "name": "jackpot",
      "outputs": [
        {
          "name": "",
          "type": "uint256"
        }
      ],
      "payable": false,
      "stateMutability": "view",
      "type": "function"
    },
    {
      "constant": true,
      "inputs": [],
      "name": "gameRunning",
      "outputs": [
        {
          "name": "",
          "type": "bool"
        }
      ],
      "payable": false,
      "stateMutability": "view",
      "type": "function"
    },
    {
      "constant": true,
      "inputs": [],
      "name": "lotteryOn",
      "outputs": [
        {
          "name": "",
          "type": "bool"
        }
      ],
      "payable": false,
      "stateMutability": "view",
      "type": "function"
    },
    {
      "constant": false,
      "inputs": [],
      "name": "renounceOwnership",
      "outputs": [],
      "payable": false,
      "stateMutability": "nonpayable",
      "type": "function"
    },
    {
      "constant": true,
      "inputs": [],
      "name": "owner",
      "outputs": [
        {
          "name": "",
          "type": "address"
        }
      ],
      "payable": false,
      "stateMutability": "view",
      "type": "function"
    },
    {
      "constant": true,
      "inputs": [],
      "name": "minJackpot",
      "outputs": [
        {
          "name": "",
          "type": "uint256"
        }
      ],
      "payable": false,
      "stateMutability": "view",
      "type": "function"
    },
    {
      "constant": true,
      "inputs": [],
      "name": "minimumBet",
      "outputs": [
        {
          "name": "",
          "type": "uint256"
        }
      ],
      "payable": false,
      "stateMutability": "view",
      "type": "function"
    },
    {
      "constant": true,
      "inputs": [],
      "name": "lotteryRate",
      "outputs": [
        {
          "name": "",
          "type": "uint256"
        }
      ],
      "payable": false,
      "stateMutability": "view",
      "type": "function"
    },
    {
      "constant": false,
      "inputs": [
        {
          "name": "_newOwner",
          "type": "address"
        }
      ],
      "name": "transferOwnership",
      "outputs": [],
      "payable": false,
      "stateMutability": "nonpayable",
      "type": "function"
    },
    {
      "inputs": [],
      "payable": true,
      "stateMutability": "payable",
      "type": "constructor"
    },
    {
      "payable": true,
      "stateMutability": "payable",
      "type": "fallback"
    },
    {
      "anonymous": false,
      "inputs": [
        {
          "indexed": false,
          "name": "roundId",
          "type": "uint256"
        },
        {
          "indexed": false,
          "name": "betAmount",
          "type": "uint256"
        },
        {
          "indexed": true,
          "name": "player1",
          "type": "address"
        },
        {
          "indexed": false,
          "name": "isSolo",
          "type": "bool"
        }
      ],
      "name": "RoundCreated",
      "type": "event"
    },
    {
      "anonymous": false,
      "inputs": [
        {
          "indexed": false,
          "name": "roundId",
          "type": "uint256"
        },
        {
          "indexed": false,
          "name": "winner",
          "type": "address"
        },
        {
          "indexed": false,
          "name": "betAmount",
          "type": "uint256"
        },
        {
          "indexed": true,
          "name": "player1",
          "type": "address"
        },
        {
          "indexed": false,
          "name": "choice1",
          "type": "uint8"
        },
        {
          "indexed": false,
          "name": "player2",
          "type": "address"
        },
        {
          "indexed": false,
          "name": "choice2",
          "type": "uint8"
        }
      ],
      "name": "RoundResolved",
      "type": "event"
    },
    {
      "anonymous": false,
      "inputs": [
        {
          "indexed": false,
          "name": "paidAddress",
          "type": "address"
        },
        {
          "indexed": false,
          "name": "amount",
          "type": "uint256"
        }
      ],
      "name": "Payment",
      "type": "event"
    },
    {
      "anonymous": false,
      "inputs": [
        {
          "indexed": false,
          "name": "winner",
          "type": "address"
        },
        {
          "indexed": false,
          "name": "jackpot",
          "type": "uint256"
        }
      ],
      "name": "LotteryWin",
      "type": "event"
    },
    {
      "anonymous": false,
      "inputs": [
        {
          "indexed": true,
          "name": "previousOwner",
          "type": "address"
        }
      ],
      "name": "OwnershipRenounced",
      "type": "event"
    },
    {
      "anonymous": false,
      "inputs": [
        {
          "indexed": true,
          "name": "previousOwner",
          "type": "address"
        },
        {
          "indexed": true,
          "name": "newOwner",
          "type": "address"
        }
      ],
      "name": "OwnershipTransferred",
      "type": "event"
    },
    {
      "constant": true,
      "inputs": [
        {
          "name": "roundId",
          "type": "uint256"
        }
      ],
      "name": "getRoundInfo",
      "outputs": [
        {
          "name": "player1Address",
          "type": "address"
        },
        {
          "name": "player1Choice",
          "type": "uint8"
        },
        {
          "name": "player2Address",
          "type": "address"
        },
        {
          "name": "player2Choice",
          "type": "uint8"
        },
        {
          "name": "betAmount",
          "type": "uint256"
        },
        {
          "name": "winner",
          "type": "address"
        }
      ],
      "payable": false,
      "stateMutability": "view",
      "type": "function"
    },
    {
      "constant": false,
      "inputs": [],
      "name": "fundGame",
      "outputs": [],
      "payable": true,
      "stateMutability": "payable",
      "type": "function"
    },
    {
      "constant": false,
      "inputs": [],
      "name": "startGame",
      "outputs": [],
      "payable": false,
      "stateMutability": "nonpayable",
      "type": "function"
    },
    {
      "constant": false,
      "inputs": [],
      "name": "stopGame",
      "outputs": [],
      "payable": false,
      "stateMutability": "nonpayable",
      "type": "function"
    },
    {
      "constant": false,
      "inputs": [],
      "name": "stopLottery",
      "outputs": [],
      "payable": false,
      "stateMutability": "nonpayable",
      "type": "function"
    },
    {
      "constant": false,
      "inputs": [],
      "name": "startLottery",
      "outputs": [],
      "payable": false,
      "stateMutability": "nonpayable",
      "type": "function"
    },
    {
      "constant": false,
      "inputs": [
        {
          "name": "_myAddress",
          "type": "address"
        }
      ],
      "name": "withdrawFunds",
      "outputs": [],
      "payable": false,
      "stateMutability": "nonpayable",
      "type": "function"
    },
    {
      "constant": false,
      "inputs": [
        {
          "name": "_isSolo",
          "type": "bool"
        },
        {
          "name": "_choice",
          "type": "uint8"
        }
      ],
      "name": "createRound",
      "outputs": [
        {
          "name": "",
          "type": "uint256"
        }
      ],
      "payable": true,
      "stateMutability": "payable",
      "type": "function"
    },
    {
      "constant": false,
      "inputs": [
        {
          "name": "_roundId",
          "type": "uint256"
        },
        {
          "name": "_choice",
          "type": "uint8"
        }
      ],
      "name": "joinRound",
      "outputs": [],
      "payable": true,
      "stateMutability": "payable",
      "type": "function"
    },
    {
      "constant": false,
      "inputs": [
        {
          "name": "newLotteryRate",
          "type": "uint256"
        }
      ],
      "name": "setLotteryRate",
      "outputs": [],
      "payable": false,
      "stateMutability": "nonpayable",
      "type": "function"
    }
  ],
  "bytecode": "0x6080604052670de0b6b3a7640000600255655af3107a40006003556103e86006556006546002026007556000600855734c2917b5ada565c76a457ccc954d25eff3bfcfae600960006101000a81548173ffffffffffffffffffffffffffffffffffffffff021916908373ffffffffffffffffffffffffffffffffffffffff160217905550336000806101000a81548173ffffffffffffffffffffffffffffffffffffffff021916908373ffffffffffffffffffffffffffffffffffffffff160217905550612c49806100d26000396000f30060806040526004361061011d576000357c0100000000000000000000000000000000000000000000000000000000900463ffffffff16806306385b211461013a578063127f0b3f146101675780631583deb214610192578063160344e2146101e957806368742da6146102005780636b31ee01146102435780636e8c2caf1461026e5780636f1573c31461029d578063715018a6146102cc57806383bd72ba146102e357806388c3ffb0146102fa5780638da5cb5b146103fe578063911d018914610455578063a34826cb14610480578063c38a8afd146104ad578063d5c62498146104d8578063d65ab5f2146104ef578063e169bf6c14610506578063f256473714610510578063f2fde38b1461053b578063f81310fb1461057e575b610132346001546105c190919063ffffffff16565b600181905550005b34801561014657600080fd5b50610165600480360381019080803590602001909291905050506105dd565b005b34801561017357600080fd5b5061017c610642565b6040518082815260200191505060405180910390f35b34801561019e57600080fd5b506101a7610648565b604051808273ffffffffffffffffffffffffffffffffffffffff1673ffffffffffffffffffffffffffffffffffffffff16815260200191505060405180910390f35b3480156101f557600080fd5b506101fe61066e565b005b34801561020c57600080fd5b50610241600480360381019080803573ffffffffffffffffffffffffffffffffffffffff1690602001909291905050506106e6565b005b34801561024f57600080fd5b5061025861085d565b6040518082815260200191505060405180910390f35b34801561027a57600080fd5b50610283610863565b604051808215151515815260200191505060405180910390f35b3480156102a957600080fd5b506102b2610876565b604051808215151515815260200191505060405180910390f35b3480156102d857600080fd5b506102e1610889565b005b3480156102ef57600080fd5b506102f861098b565b005b34801561030657600080fd5b5061032560048036038101908080359060200190929190505050610ad1565b604051808773ffffffffffffffffffffffffffffffffffffffff1673ffffffffffffffffffffffffffffffffffffffff16815260200186600281111561036757fe5b60ff1681526020018573ffffffffffffffffffffffffffffffffffffffff1673ffffffffffffffffffffffffffffffffffffffff1681526020018460028111156103ad57fe5b60ff1681526020018381526020018273ffffffffffffffffffffffffffffffffffffffff1673ffffffffffffffffffffffffffffffffffffffff168152602001965050505050505060405180910390f35b34801561040a57600080fd5b50610413610d92565b604051808273ffffffffffffffffffffffffffffffffffffffff1673ffffffffffffffffffffffffffffffffffffffff16815260200191505060405180910390f35b34801561046157600080fd5b5061046a610db7565b6040518082815260200191505060405180910390f35b6104ab60048036038101908080359060200190929190803560ff169060200190929190505050610dbd565b005b3480156104b957600080fd5b506104c261121e565b6040518082815260200191505060405180910390f35b3480156104e457600080fd5b506104ed611224565b005b3480156104fb57600080fd5b5061050461129c565b005b61050e61153a565b005b34801561051c57600080fd5b50610525611557565b6040518082815260200191505060405180910390f35b34801561054757600080fd5b5061057c600480360381019080803573ffffffffffffffffffffffffffffffffffffffff16906020019092919050505061155d565b005b6105ab600480360381019080803515159060200190929190803560ff1690602001909291905050506115c4565b6040518082815260200191505060405180910390f35b600081830190508281101515156105d457fe5b80905092915050565b6000809054906101000a900473ffffffffffffffffffffffffffffffffffffffff1673ffffffffffffffffffffffffffffffffffffffff163373ffffffffffffffffffffffffffffffffffffffff1614151561063857600080fd5b8060068190555050565b60045481565b600960009054906101000a900473ffffffffffffffffffffffffffffffffffffffff1681565b6000809054906101000a900473ffffffffffffffffffffffffffffffffffffffff1673ffffffffffffffffffffffffffffffffffffffff163373ffffffffffffffffffffffffffffffffffffffff161415156106c957600080fd5b6001600560016101000a81548160ff021916908315150217905550565b6000809054906101000a900473ffffffffffffffffffffffffffffffffffffffff1673ffffffffffffffffffffffffffffffffffffffff163373ffffffffffffffffffffffffffffffffffffffff1614151561074157600080fd5b6000801515600560009054906101000a900460ff1615151415156107f3576040517f08c379a000000000000000000000000000000000000000000000000000000000815260040180806020018281038252602c8152602001807f46756e6374696f6e20617661696c61626c65206f6e6c79207768656e2067616d81526020017f652069732072756e6e696e67000000000000000000000000000000000000000081525060400191505060405180910390fd5b8173ffffffffffffffffffffffffffffffffffffffff166108fc3073ffffffffffffffffffffffffffffffffffffffff16319081150290604051600060405180830381858888f19350505050158015610850573d6000803e3d6000fd5b5060006001819055505050565b60015481565b600560009054906101000a900460ff1681565b600560019054906101000a900460ff1681565b6000809054906101000a900473ffffffffffffffffffffffffffffffffffffffff1673ffffffffffffffffffffffffffffffffffffffff163373ffffffffffffffffffffffffffffffffffffffff161415156108e457600080fd5b6000809054906101000a900473ffffffffffffffffffffffffffffffffffffffff1673ffffffffffffffffffffffffffffffffffffffff167ff8df31144d9c2f0f6b59d69b8b98abd5459d07f2742c4df920b25aae33c6482060405160405180910390a260008060006101000a81548173ffffffffffffffffffffffffffffffffffffffff021916908373ffffffffffffffffffffffffffffffffffffffff160217905550565b6000809054906101000a900473ffffffffffffffffffffffffffffffffffffffff1673ffffffffffffffffffffffffffffffffffffffff163373ffffffffffffffffffffffffffffffffffffffff161415156109e657600080fd5b6001801515600560009054906101000a900460ff161515141515610a98576040517f08c379a000000000000000000000000000000000000000000000000000000000815260040180806020018281038252602c8152602001807f46756e6374696f6e20617661696c61626c65206f6e6c79207768656e2067616d81526020017f652069732072756e6e696e67000000000000000000000000000000000000000081525060400191505060405180910390fd5b6000600560006101000a81548160ff0219169083151502179055506000600560016101000a81548160ff02191690831515021790555050565b600080600080600080610ae2612b55565b600a6000898152602001908152602001600020610100604051908101604052908160008201606060405190810160405290816000820160009054906101000a900460ff166002811115610b3157fe5b6002811115610b3c57fe5b81526020016001820154600019166000191681526020016002820160009054906101000a900473ffffffffffffffffffffffffffffffffffffffff1673ffffffffffffffffffffffffffffffffffffffff1673ffffffffffffffffffffffffffffffffffffffff1681525050815260200160038201606060405190810160405290816000820160009054906101000a900460ff166002811115610bdb57fe5b6002811115610be657fe5b81526020016001820154600019166000191681526020016002820160009054906101000a900473ffffffffffffffffffffffffffffffffffffffff1673ffffffffffffffffffffffffffffffffffffffff1673ffffffffffffffffffffffffffffffffffffffff16815250508152602001600682015481526020016007820160009054906101000a900473ffffffffffffffffffffffffffffffffffffffff1673ffffffffffffffffffffffffffffffffffffffff1673ffffffffffffffffffffffffffffffffffffffff1681526020016007820160149054906101000a900460ff161515151581526020016007820160159054906101000a900460ff161515151581526020016008820160009054906101000a900473ffffffffffffffffffffffffffffffffffffffff1673ffffffffffffffffffffffffffffffffffffffff1673ffffffffffffffffffffffffffffffffffffffff1681526020016009820154815250509050806000015160400151816000015160000151826020015160400151836020015160000151846040015185606001519650965096509650965096505091939550919395565b6000809054906101000a900473ffffffffffffffffffffffffffffffffffffffff1681565b60025481565b60006001801515600560009054906101000a900460ff161515141515610e71576040517f08c379a000000000000000000000000000000000000000000000000000000000815260040180806020018281038252602c8152602001807f46756e6374696f6e20617661696c61626c65206f6e6c79207768656e2067616d81526020017f652069732072756e6e696e67000000000000000000000000000000000000000081525060400191505060405180910390fd5b600a60008581526020019081526020016000209150600073ffffffffffffffffffffffffffffffffffffffff168260000160020160009054906101000a900473ffffffffffffffffffffffffffffffffffffffff1673ffffffffffffffffffffffffffffffffffffffff1614151515610f52576040517f08c379a00000000000000000000000000000000000000000000000000000000081526004018080602001828103825260148152602001807f526f756e6420646f6573206e6f7420657869737400000000000000000000000081525060200191505060405180910390fd5b600073ffffffffffffffffffffffffffffffffffffffff168260030160020160009054906101000a900473ffffffffffffffffffffffffffffffffffffffff1673ffffffffffffffffffffffffffffffffffffffff16148015610fc457508160070160149054906101000a900460ff16155b1515611038576040517f08c379a00000000000000000000000000000000000000000000000000000000081526004018080602001828103825260168152602001807f526f756e6420616c72656164792066696e69736865640000000000000000000081525060200191505060405180910390fd5b816006015434101515156110da576040517f08c379a00000000000000000000000000000000000000000000000000000000081526004018080602001828103825260218152602001807f53656e64206174206c65617374207468652073616d652062657420616d6f756e81526020017f740000000000000000000000000000000000000000000000000000000000000081525060400191505060405180910390fd5b3373ffffffffffffffffffffffffffffffffffffffff166108fc836006015434039081150290604051600060405180830381858888f19350505050158015611126573d6000803e3d6000fd5b50338260030160020160006101000a81548173ffffffffffffffffffffffffffffffffffffffff021916908373ffffffffffffffffffffffffffffffffffffffff160217905550828260030160000160006101000a81548160ff0219169083600281111561119057fe5b021790555061119e846119b8565b600560019054906101000a900460ff1615611218576111e48260000160020160009054906101000a900473ffffffffffffffffffffffffffffffffffffffff1685611d7f565b506112168260030160020160009054906101000a900473ffffffffffffffffffffffffffffffffffffffff1685611d7f565b505b50505050565b60035481565b6000809054906101000a900473ffffffffffffffffffffffffffffffffffffffff1673ffffffffffffffffffffffffffffffffffffffff163373ffffffffffffffffffffffffffffffffffffffff1614151561127f57600080fd5b6000600560016101000a81548160ff021916908315150217905550565b6000809054906101000a900473ffffffffffffffffffffffffffffffffffffffff1673ffffffffffffffffffffffffffffffffffffffff163373ffffffffffffffffffffffffffffffffffffffff161415156112f757600080fd5b6000801515600560009054906101000a900460ff1615151415156113a9576040517f08c379a000000000000000000000000000000000000000000000000000000000815260040180806020018281038252602c8152602001807f46756e6374696f6e20617661696c61626c65206f6e6c79207768656e2067616d81526020017f652069732072756e6e696e67000000000000000000000000000000000000000081525060400191505060405180910390fd5b3073ffffffffffffffffffffffffffffffffffffffff16316001541115151561143a576040517f08c379a000000000000000000000000000000000000000000000000000000000815260040180806020018281038252601d8152602001807f4a61636b706f74206c6f776572207468616e2053432062616c616e636500000081525060200191505060405180910390fd5b6002543073ffffffffffffffffffffffffffffffffffffffff163110158015611467575060025460015410155b1515611501576040517f08c379a000000000000000000000000000000000000000000000000000000000815260040180806020018281038252602b8152602001807f4d696e696d756d204a61636b706f74206973206e656564656420666f7220737481526020017f617274696e672067616d6500000000000000000000000000000000000000000081525060400191505060405180910390fd5b6001600560006101000a81548160ff0219169083151502179055506001600560016101000a81548160ff02191690831515021790555050565b61154f346001546105c190919063ffffffff16565b600181905550565b60065481565b6000809054906101000a900473ffffffffffffffffffffffffffffffffffffffff1673ffffffffffffffffffffffffffffffffffffffff163373ffffffffffffffffffffffffffffffffffffffff161415156115b857600080fd5b6115c181611fc4565b50565b60008060006001801515600560009054906101000a900460ff16151514151561167b576040517f08c379a000000000000000000000000000000000000000000000000000000000815260040180806020018281038252602c8152602001807f46756e6374696f6e20617661696c61626c65206f6e6c79207768656e2067616d81526020017f652069732072756e6e696e67000000000000000000000000000000000000000081525060400191505060405180910390fd5b60035434101515156116f5576040517f08c379a00000000000000000000000000000000000000000000000000000000081526004018080602001828103825260158152602001807f4e6f7420656e6f75676820616d6f756e7420626574000000000000000000000081525060200191505060405180910390fd5b6004600081548092919060010191905055506004549250600a60008481526020019081526020016000209150338260000160020160006101000a81548173ffffffffffffffffffffffffffffffffffffffff021916908373ffffffffffffffffffffffffffffffffffffffff160217905550848260000160000160006101000a81548160ff0219169083600281111561178a57fe5b0217905550348260060181905550858260070160156101000a81548160ff0219169083151502179055508160000160020160009054906101000a900473ffffffffffffffffffffffffffffffffffffffff1673ffffffffffffffffffffffffffffffffffffffff167fb3b1bde84bcee68ebfec5d442001436ebf6966913748ad5f78f4d21d9f93486f60045484600601548560070160159054906101000a900460ff166040518084815260200183815260200182151515158152602001935050505060405180910390a28160070160159054906101000a900460ff16156119ac5760015434111515156118e5576040517f08c379a000000000000000000000000000000000000000000000000000000000815260040180806020018281038252600c8152602001807f42657420746f6f2068696768000000000000000000000000000000000000000081525060200191505060405180910390fd5b308260030160020160006101000a81548173ffffffffffffffffffffffffffffffffffffffff021916908373ffffffffffffffffffffffffffffffffffffffff1602179055506119336120be565b8260030160000160006101000a81548160ff0219169083600281111561195557fe5b0217905550611963836119b8565b600560019054906101000a900460ff16156119ab576119a98260000160020160009054906101000a900473ffffffffffffffffffffffffffffffffffffffff1684611d7f565b505b5b82935050505092915050565b6000600a600083815260200190815260200160002090508060070160149054906101000a900460ff16151515611a56576040517f08c379a00000000000000000000000000000000000000000000000000000000081526004018080602001828103825260148152602001807f526f756e6420616c726561647920636c6f73656400000000000000000000000081525060200191505060405180910390fd5b611ba881600001606060405190810160405290816000820160009054906101000a900460ff166002811115611a8757fe5b6002811115611a9257fe5b81526020016001820154600019166000191681526020016002820160009054906101000a900473ffffffffffffffffffffffffffffffffffffffff1673ffffffffffffffffffffffffffffffffffffffff1673ffffffffffffffffffffffffffffffffffffffff168152505082600301606060405190810160405290816000820160009054906101000a900460ff166002811115611b2c57fe5b6002811115611b3757fe5b81526020016001820154600019166000191681526020016002820160009054906101000a900473ffffffffffffffffffffffffffffffffffffffff1673ffffffffffffffffffffffffffffffffffffffff1673ffffffffffffffffffffffffffffffffffffffff16815250506121bb565b8160070160006101000a81548173ffffffffffffffffffffffffffffffffffffffff021916908373ffffffffffffffffffffffffffffffffffffffff160217905550611bf38261224a565b8060000160020160009054906101000a900473ffffffffffffffffffffffffffffffffffffffff1673ffffffffffffffffffffffffffffffffffffffff167f7d8b4a984b7fa465226fb3cb2eb9c5110227b5afed1649f904bbdb67bc9a2dd9838360070160009054906101000a900473ffffffffffffffffffffffffffffffffffffffff1684600601548560000160000160009054906101000a900460ff168660030160020160009054906101000a900473ffffffffffffffffffffffffffffffffffffffff168760030160000160009054906101000a900460ff16604051808781526020018673ffffffffffffffffffffffffffffffffffffffff1673ffffffffffffffffffffffffffffffffffffffff168152602001858152602001846002811115611d1d57fe5b60ff1681526020018373ffffffffffffffffffffffffffffffffffffffff1673ffffffffffffffffffffffffffffffffffffffff168152602001826002811115611d6357fe5b60ff168152602001965050505050505060405180910390a25050565b6000806000600654600454866001430340604051602001808481526020018373ffffffffffffffffffffffffffffffffffffffff1673ffffffffffffffffffffffffffffffffffffffff166c01000000000000000000000000028152601401826000191660001916815260200193505050506040516020818303038152906040526040518082805190602001908083835b602083101515611e355780518252602082019150602081019050602083039250611e10565b6001836020036101000a038019825116818451168082178552505050505050905001915050604051809103902060019004811515611e6f57fe5b061415611fb857600a6000848152602001908152602001600020905060008160080160009054906101000a900473ffffffffffffffffffffffffffffffffffffffff1673ffffffffffffffffffffffffffffffffffffffff16141515611f63576040517f08c379a00000000000000000000000000000000000000000000000000000000081526004018080602001828103825260218152602001807f4f6e6c79206f6e65206c6f74657272792077696e6e65722070657220726f756e81526020017f640000000000000000000000000000000000000000000000000000000000000081525060400191505060405180910390fd5b838160080160006101000a81548173ffffffffffffffffffffffffffffffffffffffff021916908373ffffffffffffffffffffffffffffffffffffffff160217905550611faf8461291f565b60019150611fbd565b600091505b5092915050565b600073ffffffffffffffffffffffffffffffffffffffff168173ffffffffffffffffffffffffffffffffffffffff161415151561200057600080fd5b8073ffffffffffffffffffffffffffffffffffffffff166000809054906101000a900473ffffffffffffffffffffffffffffffffffffffff1673ffffffffffffffffffffffffffffffffffffffff167f8be0079c531659141344cd1fd0a4f28419497f9722a3daafe3b4186f6b6457e060405160405180910390a3806000806101000a81548173ffffffffffffffffffffffffffffffffffffffff021916908373ffffffffffffffffffffffffffffffffffffffff16021790555050565b60006003600454336001430340604051602001808481526020018373ffffffffffffffffffffffffffffffffffffffff1673ffffffffffffffffffffffffffffffffffffffff166c01000000000000000000000000028152601401826000191660001916815260200193505050506040516020818303038152906040526040518082805190602001908083835b602083101515612170578051825260208201915060208101905060208303925061214b565b6001836020036101000a0380198251168184511680821785525050505050509050019150506040518091039020600190048115156121aa57fe5b0660028111156121b657fe5b905090565b6000816000015160028111156121cd57fe5b60036001856000015160028111156121e157fe5b018115156121eb57fe5b0614156121fe5781604001519050612244565b8160000151600281111561220e57fe5b600360028560000151600281111561222257fe5b0181151561222c57fe5b06141561223f5782604001519050612244565b600090505b92915050565b600080600080600080600a600088815260200190815260200160002095508560070160009054906101000a900473ffffffffffffffffffffffffffffffffffffffff1694508560070160149054906101000a900460ff16151515612316576040517f08c379a00000000000000000000000000000000000000000000000000000000081526004018080602001828103825260148152602001807f526f756e6420616c726561647920636c6f73656400000000000000000000000081525060200191505060405180910390fd5b60018660070160146101000a81548160ff02191690831515021790555060015493503073ffffffffffffffffffffffffffffffffffffffff16319250620f424061236f6113888860060154612b0490919063ffffffff16565b81151561237857fe5b049150620f42406123986007548860060154612b0490919063ffffffff16565b8115156123a157fe5b0490508560070160159054906101000a900460ff16156125f457600073ffffffffffffffffffffffffffffffffffffffff168573ffffffffffffffffffffffffffffffffffffffff161415612486578560000160020160009054906101000a900473ffffffffffffffffffffffffffffffffffffffff1673ffffffffffffffffffffffffffffffffffffffff166108fc8284896006015403039081150290604051600060405180830381858888f19350505050158015612465573d6000803e3d6000fd5b5061247b826001546105c190919063ffffffff16565b6001819055506125ef565b3073ffffffffffffffffffffffffffffffffffffffff168573ffffffffffffffffffffffffffffffffffffffff1614156124de576124d386600601546001546105c190919063ffffffff16565b6001819055506125ee565b6124f78660060154600154612b3c90919063ffffffff16565b6001819055508473ffffffffffffffffffffffffffffffffffffffff166108fc828461253160028b60060154612b0490919063ffffffff16565b03039081150290604051600060405180830381858888f1935050505015801561255e573d6000803e3d6000fd5b507fd4f43975feb89f48dd30cabbb32011045be187d1e11c8ea9faa43efc3528251985828489600601540303604051808373ffffffffffffffffffffffffffffffffffffffff1673ffffffffffffffffffffffffffffffffffffffff1681526020018281526020019250505060405180910390a16125e7826001546105c190919063ffffffff16565b6001819055505b5b612842565b600073ffffffffffffffffffffffffffffffffffffffff168573ffffffffffffffffffffffffffffffffffffffff161415612750578560000160020160009054906101000a900473ffffffffffffffffffffffffffffffffffffffff1673ffffffffffffffffffffffffffffffffffffffff166108fc60028381151561267657fe5b0484896006015403039081150290604051600060405180830381858888f193505050501580156126aa573d6000803e3d6000fd5b508560030160020160009054906101000a900473ffffffffffffffffffffffffffffffffffffffff1673ffffffffffffffffffffffffffffffffffffffff166108fc6002838115156126f857fe5b0484896006015403039081150290604051600060405180830381858888f1935050505015801561272c573d6000803e3d6000fd5b50612745826002026001546105c190919063ffffffff16565b600181905550612841565b8473ffffffffffffffffffffffffffffffffffffffff166108fc828461278460028b60060154612b0490919063ffffffff16565b03039081150290604051600060405180830381858888f193505050501580156127b1573d6000803e3d6000fd5b507fd4f43975feb89f48dd30cabbb32011045be187d1e11c8ea9faa43efc3528251985828489600601540303604051808373ffffffffffffffffffffffffffffffffffffffff1673ffffffffffffffffffffffffffffffffffffffff1681526020018281526020019250505060405180910390a161283a826001546105c190919063ffffffff16565b6001819055505b5b80600860008282540192505081905550662386f26fc1000060085411156128d357600960009054906101000a900473ffffffffffffffffffffffffffffffffffffffff1673ffffffffffffffffffffffffffffffffffffffff166108fc6008549081150290604051600060405180830381858888f193505050501580156128cd573d6000803e3d6000fd5b50600090505b856006015460020284036001541015801561290e5750856006015460020283033073ffffffffffffffffffffffffffffffffffffffff163110155b151561291657fe5b50505050505050565b3073ffffffffffffffffffffffffffffffffffffffff1631600154111515156129d6576040517f08c379a00000000000000000000000000000000000000000000000000000000081526004018080602001828103825260278152602001807f4a61636b706f7420697320686967686572207468616e20636f6e74726163742081526020017f62616c616e63650000000000000000000000000000000000000000000000000081525060400191505060405180910390fd5b8073ffffffffffffffffffffffffffffffffffffffff166108fc6001549081150290604051600060405180830381858888f19350505050158015612a1e573d6000803e3d6000fd5b5060006001819055507f59eb56f0aaebc4c2e1de6e254bc52af79350363a072c9ef59851f0d0861a964281600154604051808373ffffffffffffffffffffffffffffffffffffffff1673ffffffffffffffffffffffffffffffffffffffff1681526020018281526020019250505060405180910390a17fd4f43975feb89f48dd30cabbb32011045be187d1e11c8ea9faa43efc3528251981600154604051808373ffffffffffffffffffffffffffffffffffffffff1673ffffffffffffffffffffffffffffffffffffffff1681526020018281526020019250505060405180910390a150565b600080831415612b175760009050612b36565b8183029050818382811515612b2857fe5b04141515612b3257fe5b8090505b92915050565b6000828211151515612b4a57fe5b818303905092915050565b61018060405190810160405280612b6a612bd7565b8152602001612b77612bd7565b815260200160008152602001600073ffffffffffffffffffffffffffffffffffffffff168152602001600015158152602001600015158152602001600073ffffffffffffffffffffffffffffffffffffffff168152602001600081525090565b60606040519081016040528060006002811115612bf057fe5b815260200160008019168152602001600073ffffffffffffffffffffffffffffffffffffffff16815250905600a165627a7a72305820e56bf65d2a3e9684fe64d15b159703f19f0a6c2d92c67bf21288c52b2598cb2c0029",
  "source": "pragma solidity ^0.4.25;\n\nimport \"zeppelin-solidity/contracts/ownership/Ownable.sol\";\nimport \"zeppelin-solidity/contracts/math/SafeMath.sol\";\n\n\n/** @title RPS - RockPaperScissor P2P game, playing also for a jackpot.\n  * @author rggentil\n  * @notice This is just a simple game done mostly for learning solidity\n            and web3 development, do not use betting real value since\n            it has some known vulnerabilities.\n  * @dev My first smartcontract, so probably code could be improved.\n */\ncontract RPS is Ownable {\n\n    using SafeMath for uint;\n\n    uint public jackpot;\n    uint public minJackpot = 1 ether;\n    uint public minimumBet = 0.0001 ether;\n    uint public roundCount;\n    bool public gameRunning;\n    bool public lotteryOn;\n\n    uint public lotteryRate = 1000;\n\n    // Since we can't use decimals, represent the rate as ppm (part-per-million)\n    // Used constant that saves gas, but it might be a good idea to set it as public\n    // and be able to adjust the fee rate.\n    // Set them as constnts althoug we could make them public vars\n    uint constant jackpotFeeRate = 5000;\n    uint constant feeUnits = 1000000;\n    uint businessFeeRate = 2 * lotteryRate;\n    uint totalBusinessFee = 0;\n    uint constant businessFeePayment = 0.01 ether;\n    address public businessAddress = 0x4C2917B5aDa565c76A457cCc954D25EFF3BfcfAE;\n\n    /* Not used yet\n    uint maxJackpot;\n    */\n\n    enum Choice { Rock, Paper, Scissors }\n\n    struct Player {\n        Choice choice;\n        bytes32 playerHash;\n        address playerAddress;\n    }\n\n    struct Round {\n        Player player1;\n        Player player2;\n        uint betAmount;\n        address winner;\n        bool isClosed;\n        bool isSolo;\n        address lotteryWinner;\n        uint currentJackpot;\n    }\n\n    mapping(uint=>Round) rounds;\n\n    // We could add another mapping to check rounds per address:\n    // mapping(address=>uint[])\n\n    event RoundCreated(\n        uint roundId,\n        uint betAmount,\n        address indexed player1,\n        bool isSolo\n    );\n\n    event RoundResolved(\n        uint roundId,\n        address winner,\n        uint betAmount,\n        address indexed player1,\n        Choice choice1,\n        address player2,\n        Choice choice2\n    );\n\n    event Payment(address paidAddress, uint amount);\n    event LotteryWin(address winner, uint jackpot);\n\n    /** @dev Modifier for functions available only when game is running\n      * @param _isRunning bool to check is we need the game is running or not\n    */\n    modifier gameIsRunning(bool _isRunning) {\n        require(gameRunning == _isRunning, \"Function available only when game is running\");\n        _;\n    }\n\n    constructor() public payable {\n        // We could handle games through constructor and setting variables like\n        // minimum bet, max jackpot, fees, etc.\n    }\n\n    /** @notice Fallback, just in case of receiving funds, to the jackpot\n    */\n    function () public payable {\n        jackpot = jackpot.add(msg.value);\n    }\n\n    /** @notice Get info from rounds.\n                TODO: This function should be removed in final deployment because\n                it facilitates getting other player's choice before betting.\n      * @dev This function is implemented mainly for debugging purpose.\n             Actually getting info from front-end is managed through events.\n      * @param roundId round id number that identify a round\n      * @return player1Address address of player1\n      * @return player1Choice choice of player1\n      * @return player2Address address of player2\n      * @return player2Choice choice of player2\n      * @return betAmount amount of the bet of this round, in wei.\n      * @return winner address of the winner, it's 0x0 if not finished or draw\n    */\n    function getRoundInfo(\n        uint roundId\n    )\n        external\n        view\n        returns(\n            address player1Address,\n            Choice player1Choice,\n            address player2Address,\n            Choice player2Choice,\n            uint betAmount,\n            address winner\n        )\n    {\n        Round memory myRound = rounds[roundId];\n        return (\n            myRound.player1.playerAddress,\n            myRound.player1.choice,\n            myRound.player2.playerAddress,\n            myRound.player2.choice,\n            myRound.betAmount,\n            myRound.winner\n        );\n    }\n\n    /** @notice Payable, to fund game by adding ethers to contract and to the jackpot\n      * @dev It's just the same as fallback function.\n    */\n    function fundGame() public payable {\n        jackpot = jackpot.add(msg.value);\n    }\n\n    /** @notice When we have everything ready owner can start game so anyone can play. Also it starts lottery.\n                Also for restarting game after having stopped it\n    */\n    function startGame() public onlyOwner gameIsRunning(false){\n        require(jackpot <= address(this).balance, \"Jackpot lower than SC balance\");\n        require((address(this).balance >= minJackpot) && (jackpot >= minJackpot), \"Minimum Jackpot is needed for starting game\");\n        gameRunning = true;\n        lotteryOn = true;\n    }\n\n    /** @notice Function for emergengies. Also it stops lottery.\n    */\n    function stopGame() public onlyOwner gameIsRunning(true){\n        gameRunning = false;\n        lotteryOn = false;\n    }\n\n    /** @notice Stop lottery (this means stop playing for jackpot)\n    */\n    function stopLottery() public onlyOwner {\n        lotteryOn = false;\n    }\n\n    /** @notice Start lottery (this means playing for jackpot)\n    */\n    function startLottery() public onlyOwner {\n        lotteryOn = true;\n    }\n\n    /** @notice Withdraw funds in case of an emergengy. Set jackpot to 0.\n      * @param _myAddress addres to withdraw funds to\n    */\n    function withdrawFunds(address _myAddress) public onlyOwner gameIsRunning(false) {\n        _myAddress.transfer(address(this).balance);\n        jackpot = 0;\n    }\n\n    /** @notice Function called each time we want to play.\n                Payable function thar receives the bet amount.\n      * @param _isSolo bool value that represents playing vs House/smartcontract\n                       or vs other player\n      * @param _choice choose Choice enum value: ROCK, PAPER, SCISSOR\n      * @return roundId id number that identify the round created\n     */\n    function createRound(bool _isSolo, Choice _choice)\n        public\n        gameIsRunning(true)\n        payable\n        returns(uint)\n    {\n        require(msg.value >= minimumBet, \"Not enough amount bet\");\n\n        roundCount++;\n        uint roundId = roundCount;\n        Round storage round = rounds[roundId];\n        round.player1.playerAddress = msg.sender;\n        round.player1.choice = _choice;\n        round.betAmount = msg.value;\n        round.isSolo = _isSolo;\n\n        emit RoundCreated(\n            roundCount,\n            round.betAmount,\n            round.player1.playerAddress,\n            round.isSolo\n        );\n\n        if (round.isSolo) {\n            require(msg.value <= jackpot, \"Bet too high\");\n            round.player2.playerAddress = address(this);\n            round.player2.choice = getRandomChoice();\n            _resolveRound(roundId);\n            if (lotteryOn) {\n                _playLottery(round.player1.playerAddress, roundId);\n            }\n        }\n\n        return roundId;\n    }\n\n    /** @notice Join to an existing round created by other player\n                Payable function thar receives the bet amount.\n      * @param _roundId id number that identify the round to join\n      * @param _choice choose Choice enum value: ROCK, PAPER, SCISSOR\n     */\n    function joinRound(uint _roundId, Choice _choice) public gameIsRunning(true) payable {\n        Round storage myRound = rounds[_roundId];  // Pointer to round\n        require(myRound.player1.playerAddress != address(0), \"Round does not exist\");\n        require(myRound.player2.playerAddress == address(0) && !myRound.isClosed, \"Round already finished\");\n        require(msg.value >= myRound.betAmount, \"Send at least the same bet amount\");\n\n        // Send back the excess of the amount sent minus the real bet amount\n        // Use Safe Math, althouth this should never be overflow bc substract uints is another uint\n        // Using transfer should prevent from fallback reentrancy, but...\n        // Also, a reentrancy would have to send more value than betAmount, I think an attack has no sense\n        // but I would have to analyze it a bit more.\n        msg.sender.transfer(msg.value - myRound.betAmount);  // No need to use SafeMath since this can't be negative\n\n        myRound.player2.playerAddress = msg.sender;\n        myRound.player2.choice = _choice;\n        _resolveRound(_roundId);\n\n        if (lotteryOn) {\n            _playLottery(myRound.player1.playerAddress, _roundId);\n            _playLottery(myRound.player2.playerAddress, _roundId);\n        }\n\n    }\n\n    /** @notice Function that generates randomness for the game, used when playing vs House and playing\n                for the jackpot. This implementation is not safe since it can be easyly attacked.\n      * @dev It uses the blockhash of the last block, with two other params but it is not safe for a gambling\n            platform. Change randomness in case we want it to be realistic. Probably it needs Oraclize.\n      * @return Choice enum value (ROCK, PAPER, SCISSOR) chosen randomly.\n    */\n    function getRandomChoice() private view returns(Choice){\n        return Choice(uint(keccak256(abi.encodePacked(roundCount, msg.sender, blockhash(block.number - 1)))) % 3);\n    }\n\n    /** @notice Resolve round, both vs House or vs other player.\n                Pay winner if any.\n      * @param _roundId id number that identify the round to resolve\n     */\n    function _resolveRound(uint _roundId) private {\n        Round storage myRound = rounds[_roundId];  // Pointer to round\n        require(!myRound.isClosed, \"Round already closed\");\n        myRound.winner = _checkWinner(myRound.player1, myRound.player2);\n        _payRound(_roundId);\n        emit RoundResolved(\n            _roundId,\n            myRound.winner,\n            myRound.betAmount,\n            myRound.player1.playerAddress,\n            myRound.player1.choice,\n            myRound.player2.playerAddress,\n            myRound.player2.choice\n        );\n    }\n\n    /** @notice Pay winner of the round resolved.\n      * @param _roundId id number that identify the round to resolve\n     */\n    function _payRound(uint _roundId) private {\n        Round storage myRound = rounds[_roundId];  // Pointer to round\n        address winner = myRound.winner;\n\n        // I think this is necessary to avoid possible reentrancy attacks (although we're using transfer).\n        // I also think we are protected since this function is private, the one which calls this one is\n        // also private and the parent you need to send value to join round.\n        require(!myRound.isClosed, \"Round already closed\");\n        myRound.isClosed = true;\n\n        uint inititalJackpot = jackpot;\n        uint initialBalance = address(this).balance;\n        uint jackpotFee = myRound.betAmount.mul(jackpotFeeRate) / feeUnits;\n        uint businessFee = myRound.betAmount.mul(businessFeeRate) / feeUnits;\n\n        if(myRound.isSolo) {  // 1 player mode\n            if (winner == address(0)){  // Draw, player recevies what he bet minus fee\n                myRound.player1.playerAddress.transfer(myRound.betAmount - jackpotFee - businessFee);\n                jackpot = jackpot.add(jackpotFee);\n            } else if (winner == address(this)) {  // Player looses, bet to jackpot\n                jackpot = jackpot.add(myRound.betAmount);\n            } else {  // Player wins\n                // SafeMath is not necessary, jackpot and betAmount are uint, and the substraction can only be uint.\n                // Used to show using a Library. Consider to change it to use -, since it saves same gas.\n                jackpot = jackpot.sub(myRound.betAmount);\n                winner.transfer(myRound.betAmount.mul(2) - jackpotFee - businessFee);\n                emit Payment(winner, myRound.betAmount - jackpotFee - businessFee);\n                jackpot = jackpot.add(jackpotFee);\n            }\n\n        } else { // 2 players mode\n            if (winner == address(0)){  // Draw, players receive what they bet minus jackpot and business fee\n                // We might consider to study this a bit more, but I think that when playing 2 players\n                // we may just charge half of business fee to each player and that's OK for avoiding\n                // attacks in case of a draw.\n                myRound.player1.playerAddress.transfer(myRound.betAmount - jackpotFee - businessFee / 2);\n                myRound.player2.playerAddress.transfer(myRound.betAmount - jackpotFee - businessFee / 2);\n                jackpot = jackpot.add(2 * jackpotFee);\n            } else {  // Bet to the winner minus jackpot and business fee\n                winner.transfer(myRound.betAmount.mul(2) - jackpotFee - businessFee);\n                emit Payment(winner, myRound.betAmount - jackpotFee - businessFee);\n                jackpot = jackpot.add(jackpotFee);\n            }\n        }\n\n        // We must do the transfer of business fee to businessAddress but since they're supposed to be very small we should wait\n        // till collecting a bigger amount, for avoiding paying more gas than actual money.\n        totalBusinessFee += businessFee;\n        if (totalBusinessFee > businessFeePayment) {\n            businessAddress.transfer(totalBusinessFee);\n            businessFee = 0;\n        }\n\n\n        // Additional check por security for reentrancy (kind of formal verification)\n        // These additional checks may not be necessary since we are using transfer that limits gas to 2300,\n        // so in the final deployment we could ommit all these additional checks in order to save same uncessary gas\n        assert((jackpot >= inititalJackpot - (2 * myRound.betAmount)) && (address(this).balance >= initialBalance - (2 * myRound.betAmount)));\n    }\n\n    /** @notice Check winner of the round, both vs House or vs other player.\n      * @param player1 player struct (with player's address and choice)\n      * @param player2 player struct (with player's address and choice)\n      * @return address of the winner\n     */\n    function _checkWinner(Player player1, Player player2) private pure returns(address) {\n        if ((uint(player1.choice) + 1) % 3 == uint(player2.choice)) {\n            return player2.playerAddress;\n        } else if ((uint(player1.choice) + 2) % 3 == uint(player2.choice)) {\n            return player1.playerAddress;\n        } else {\n            return address(0);\n        }\n    }\n\n    /** @notice Set the lottery rate in percentage, how easy is to hit the jackpot\n      * @dev Mostly for testing porpuse. It should be removed in final deployment\n      * @param newLotteryRate new lottery rate\n     */\n    // Mostly for testing porpuse.\n    function setLotteryRate(uint newLotteryRate) public onlyOwner {\n        lotteryRate = newLotteryRate;\n    }\n\n    /** @notice Play lottery for the round\n      * @dev TODO: Current randomness is not the best way for gambling since it can be attacked by miners.\n             TODO: It is needed to implement a mechanism that assures that existing rounds can be paid altoudh\n             someone has hit the jakpot. Curerntly if someone hits the jackpot he/she gets all value of the contract\n      * @param playerAddress address of the player\n      * @param _roundId id number that identify the round to resolve\n      * @return if player wins the lottery or not\n     */\n\n    function _playLottery(address playerAddress, uint _roundId) private returns (bool) {\n\n        if (uint(keccak256(abi.encodePacked(roundCount, playerAddress, blockhash(block.number - 1)))) % lotteryRate == 0) {\n            Round storage myRound = rounds[_roundId];  // Pointer to round\n            require(myRound.lotteryWinner == 0, \"Only one loterry winner per round\");\n            myRound.lotteryWinner = playerAddress;\n            _payLotteryWinner(playerAddress);\n            return true;\n        }\n        return false;\n    }\n\n    /** @notice Pay winner of the lottery\n      * @param _winnerAddress address of the winner\n     */\n    function _payLotteryWinner(address _winnerAddress) private {\n        require(jackpot <= address(this).balance, \"Jackpot is higher than contract balance\");\n\n        // I think we dont need to avoid reentrancy since no problem using transfer.\n        _winnerAddress.transfer(jackpot);\n        jackpot = 0;\n        emit LotteryWin(_winnerAddress, jackpot);\n        emit Payment(_winnerAddress, jackpot);\n    }\n\n}\n",
  "sourcePath": "/home/rggentil/Documents/master_ethereum/design_and_development/modulo4/mydapp/RPS/contracts/RPS.sol",
  "compiler": {
    "name": "solc",
    "version": "0.4.25+commit.59dbf8f1.Emscripten.clang"
  },
  "schemaVersion": "2.0.1",
  "updatedAt": "2019-01-12T08:34:27.933Z"
}