{
  "contractName": "StartStopGame",
  "abi": [
    {
      "constant": true,
      "inputs": [],
      "name": "gameStatus",
      "outputs": [
        {
          "name": "",
          "type": "bool"
        }
      ],
      "payable": false,
      "stateMutability": "view",
      "type": "function",
      "signature": "0x722fed7e"
    },
    {
      "inputs": [],
      "payable": false,
      "stateMutability": "nonpayable",
      "type": "constructor",
      "signature": "constructor"
    },
    {
      "constant": false,
      "inputs": [
        {
          "name": "_status",
          "type": "bool"
        }
      ],
      "name": "setGameStatus",
      "outputs": [],
      "payable": false,
      "stateMutability": "nonpayable",
      "type": "function",
      "signature": "0xcbe2e97e"
    },
    {
      "constant": true,
      "inputs": [],
      "name": "getGameStatus",
      "outputs": [
        {
          "name": "",
          "type": "bool"
        }
      ],
      "payable": false,
      "stateMutability": "view",
      "type": "function",
      "signature": "0x382396ee"
    }
  ],
  "bytecode": "0x608060405234801561001057600080fd5b50610167806100206000396000f3fe608060405260043610610057576000357c0100000000000000000000000000000000000000000000000000000000900463ffffffff168063382396ee1461005c578063722fed7e1461008b578063cbe2e97e146100ba575b600080fd5b34801561006857600080fd5b506100716100f7565b604051808215151515815260200191505060405180910390f35b34801561009757600080fd5b506100a061010d565b604051808215151515815260200191505060405180910390f35b3480156100c657600080fd5b506100f5600480360360208110156100dd57600080fd5b8101908080351515906020019092919050505061011f565b005b60008060009054906101000a900460ff16905090565b6000809054906101000a900460ff1681565b806000806101000a81548160ff0219169083151502179055505056fea165627a7a723058206087df7915be6924eb45d9e04832c3203a15a200bac8427f88395fc279dc4c2b0029",
  "source": "pragma solidity ^0.5.0;\n\n/** \n* @title StartStopGame\n* @author Antonio Cruz\n* @notice You can use this contract to set a game on or off.\n* @dev For more implementation details read the \"design_pattern_decisions.md\" document. \n*/\ncontract StartStopGame {\n    \n    bool public gameStatus;\n\n    constructor() public {\n    }\n\n    modifier gameIsOn() {\n        require(getGameStatus() == true);\n        _;\n    }\n\n    modifier gameIsOff() {\n        require(getGameStatus() == false);\n        _;\n    }\n\n    function setGameStatus(bool _status) public {\n        gameStatus = _status;\n    }\n\n    function getGameStatus() public view returns(bool) {\n        return gameStatus;\n    }\n\n\n}",
  "sourcePath": "/home/antonio/src/TFM/BLOCKCHAINTFM/RPS_Dapp/contracts/StartStopGame.sol",
  "compiler": {
    "name": "solc",
    "version": "0.5.0+commit.1d4f565a.Emscripten.clang"
  },
  "schemaVersion": "3.0.2",
  "updatedAt": "2019-02-28T18:02:13.871Z",
  "devdoc": {
    "author": "Antonio Cruz",
    "details": "For more implementation details read the \"design_pattern_decisions.md\" document. ",
    "methods": {},
    "title": "StartStopGame"
  },
  "userdoc": {
    "methods": {},
    "notice": "You can use this contract to set a game on or off."
  }
}