{
  "contractName": "Dice",
  "abi": [
    {
      "constant": false,
      "inputs": [
        {
          "name": "newLotteryRate",
          "type": "uint256"
        }
      ],
      "name": "setLotteryRate",
      "outputs": [],
      "payable": false,
      "stateMutability": "nonpayable",
      "type": "function"
    },
    {
      "constant": true,
      "inputs": [],
      "name": "minBusinessFeePayment",
      "outputs": [
        {
          "name": "",
          "type": "uint256"
        }
      ],
      "payable": false,
      "stateMutability": "view",
      "type": "function"
    },
    {
      "constant": true,
      "inputs": [],
      "name": "maximumRisk",
      "outputs": [
        {
          "name": "",
          "type": "uint256"
        }
      ],
      "payable": false,
      "stateMutability": "view",
      "type": "function"
    },
    {
      "constant": false,
      "inputs": [
        {
          "name": "newMinBusinessFeePayment",
          "type": "uint256"
        }
      ],
      "name": "setminBusinessFeePayment",
      "outputs": [],
      "payable": false,
      "stateMutability": "nonpayable",
      "type": "function"
    },
    {
      "constant": true,
      "inputs": [],
      "name": "businessAddress",
      "outputs": [
        {
          "name": "",
          "type": "address"
        }
      ],
      "payable": false,
      "stateMutability": "view",
      "type": "function"
    },
    {
      "constant": false,
      "inputs": [],
      "name": "startLottery",
      "outputs": [],
      "payable": false,
      "stateMutability": "nonpayable",
      "type": "function"
    },
    {
      "constant": true,
      "inputs": [],
      "name": "minimumRisk",
      "outputs": [
        {
          "name": "",
          "type": "uint256"
        }
      ],
      "payable": false,
      "stateMutability": "view",
      "type": "function"
    },
    {
      "constant": true,
      "inputs": [],
      "name": "totalBusinessFee",
      "outputs": [
        {
          "name": "",
          "type": "uint256"
        }
      ],
      "payable": false,
      "stateMutability": "view",
      "type": "function"
    },
    {
      "constant": true,
      "inputs": [
        {
          "name": "",
          "type": "bytes32"
        }
      ],
      "name": "oraclizeCallbacks",
      "outputs": [
        {
          "name": "player",
          "type": "address"
        },
        {
          "name": "queryId",
          "type": "bytes32"
        },
        {
          "name": "risk",
          "type": "uint256"
        },
        {
          "name": "betAmount",
          "type": "uint256"
        },
        {
          "name": "rolledDiceNumber",
          "type": "uint256"
        },
        {
          "name": "profit",
          "type": "uint256"
        }
      ],
      "payable": false,
      "stateMutability": "view",
      "type": "function"
    },
    {
      "constant": false,
      "inputs": [
        {
          "name": "_myAddress",
          "type": "address"
        }
      ],
      "name": "withdrawFunds",
      "outputs": [],
      "payable": false,
      "stateMutability": "nonpayable",
      "type": "function"
    },
    {
      "constant": true,
      "inputs": [],
      "name": "jackpot",
      "outputs": [
        {
          "name": "",
          "type": "uint256"
        }
      ],
      "payable": false,
      "stateMutability": "view",
      "type": "function"
    },
    {
      "constant": true,
      "inputs": [],
      "name": "gameRunning",
      "outputs": [
        {
          "name": "",
          "type": "bool"
        }
      ],
      "payable": false,
      "stateMutability": "view",
      "type": "function"
    },
    {
      "constant": true,
      "inputs": [],
      "name": "lotteryOn",
      "outputs": [
        {
          "name": "",
          "type": "bool"
        }
      ],
      "payable": false,
      "stateMutability": "view",
      "type": "function"
    },
    {
      "constant": false,
      "inputs": [],
      "name": "renounceOwnership",
      "outputs": [],
      "payable": false,
      "stateMutability": "nonpayable",
      "type": "function"
    },
    {
      "constant": false,
      "inputs": [],
      "name": "stopGame",
      "outputs": [],
      "payable": false,
      "stateMutability": "nonpayable",
      "type": "function"
    },
    {
      "constant": true,
      "inputs": [],
      "name": "owner",
      "outputs": [
        {
          "name": "",
          "type": "address"
        }
      ],
      "payable": false,
      "stateMutability": "view",
      "type": "function"
    },
    {
      "constant": true,
      "inputs": [],
      "name": "isOwner",
      "outputs": [
        {
          "name": "",
          "type": "bool"
        }
      ],
      "payable": false,
      "stateMutability": "view",
      "type": "function"
    },
    {
      "constant": true,
      "inputs": [],
      "name": "minJackpot",
      "outputs": [
        {
          "name": "",
          "type": "uint256"
        }
      ],
      "payable": false,
      "stateMutability": "view",
      "type": "function"
    },
    {
      "constant": true,
      "inputs": [],
      "name": "minimumBet",
      "outputs": [
        {
          "name": "",
          "type": "uint256"
        }
      ],
      "payable": false,
      "stateMutability": "view",
      "type": "function"
    },
    {
      "constant": true,
      "inputs": [],
      "name": "feeJackpot",
      "outputs": [
        {
          "name": "",
          "type": "uint256"
        }
      ],
      "payable": false,
      "stateMutability": "view",
      "type": "function"
    },
    {
      "constant": false,
      "inputs": [],
      "name": "stopLottery",
      "outputs": [],
      "payable": false,
      "stateMutability": "nonpayable",
      "type": "function"
    },
    {
      "constant": false,
      "inputs": [],
      "name": "startGame",
      "outputs": [],
      "payable": false,
      "stateMutability": "nonpayable",
      "type": "function"
    },
    {
      "constant": false,
      "inputs": [],
      "name": "fundGame",
      "outputs": [],
      "payable": true,
      "stateMutability": "payable",
      "type": "function"
    },
    {
      "constant": true,
      "inputs": [],
      "name": "lotteryRate",
      "outputs": [
        {
          "name": "",
          "type": "uint256"
        }
      ],
      "payable": false,
      "stateMutability": "view",
      "type": "function"
    },
    {
      "constant": false,
      "inputs": [
        {
          "name": "newOwner",
          "type": "address"
        }
      ],
      "name": "transferOwnership",
      "outputs": [],
      "payable": false,
      "stateMutability": "nonpayable",
      "type": "function"
    },
    {
      "inputs": [],
      "payable": false,
      "stateMutability": "nonpayable",
      "type": "constructor"
    },
    {
      "payable": true,
      "stateMutability": "payable",
      "type": "fallback"
    },
    {
      "anonymous": false,
      "inputs": [
        {
          "indexed": false,
          "name": "_contract",
          "type": "address"
        },
        {
          "indexed": false,
          "name": "_player",
          "type": "address"
        },
        {
          "indexed": false,
          "name": "_risk",
          "type": "uint256"
        },
        {
          "indexed": false,
          "name": "_bet",
          "type": "uint256"
        }
      ],
      "name": "logPlayerBetAccepted",
      "type": "event"
    },
    {
      "anonymous": false,
      "inputs": [
        {
          "indexed": false,
          "name": "_contract",
          "type": "address"
        },
        {
          "indexed": false,
          "name": "_player",
          "type": "address"
        },
        {
          "indexed": false,
          "name": "_description",
          "type": "string"
        }
      ],
      "name": "logRollDice",
      "type": "event"
    },
    {
      "anonymous": false,
      "inputs": [
        {
          "indexed": false,
          "name": "_contract",
          "type": "address"
        },
        {
          "indexed": false,
          "name": "_oraclizeQueryId",
          "type": "bytes32"
        },
        {
          "indexed": false,
          "name": "_risk",
          "type": "uint256"
        },
        {
          "indexed": false,
          "name": "_rolledDiceNumber",
          "type": "uint256"
        }
      ],
      "name": "logRolledDiceNumber",
      "type": "event"
    },
    {
      "anonymous": false,
      "inputs": [
        {
          "indexed": false,
          "name": "description",
          "type": "string"
        },
        {
          "indexed": false,
          "name": "_contract",
          "type": "address"
        },
        {
          "indexed": false,
          "name": "_player",
          "type": "address"
        },
        {
          "indexed": false,
          "name": "_rolledDiceNumber",
          "type": "uint256"
        },
        {
          "indexed": false,
          "name": "_betAmount",
          "type": "uint256"
        }
      ],
      "name": "logPlayerLose",
      "type": "event"
    },
    {
      "anonymous": false,
      "inputs": [
        {
          "indexed": false,
          "name": "description",
          "type": "string"
        },
        {
          "indexed": false,
          "name": "_contract",
          "type": "address"
        },
        {
          "indexed": false,
          "name": "_winner",
          "type": "address"
        },
        {
          "indexed": false,
          "name": "_rolledDiceNumber",
          "type": "uint256"
        },
        {
          "indexed": false,
          "name": "_profit",
          "type": "uint256"
        }
      ],
      "name": "logPlayerWins",
      "type": "event"
    },
    {
      "anonymous": false,
      "inputs": [
        {
          "indexed": false,
          "name": "_status",
          "type": "bool"
        }
      ],
      "name": "logGameStatus",
      "type": "event"
    },
    {
      "anonymous": false,
      "inputs": [
        {
          "indexed": false,
          "name": "description",
          "type": "string"
        }
      ],
      "name": "logNewOraclizeQuery",
      "type": "event"
    },
    {
      "anonymous": false,
      "inputs": [
        {
          "indexed": false,
          "name": "_contractBalance",
          "type": "uint256"
        }
      ],
      "name": "logContractBalance",
      "type": "event"
    },
    {
      "anonymous": false,
      "inputs": [
        {
          "indexed": false,
          "name": "description",
          "type": "string"
        },
        {
          "indexed": false,
          "name": "_ownerAddress",
          "type": "address"
        },
        {
          "indexed": false,
          "name": "_ownerBalance",
          "type": "uint256"
        }
      ],
      "name": "logJackpotBalance",
      "type": "event"
    },
    {
      "anonymous": false,
      "inputs": [
        {
          "indexed": false,
          "name": "description",
          "type": "string"
        },
        {
          "indexed": false,
          "name": "_playerAddress",
          "type": "address"
        },
        {
          "indexed": false,
          "name": "_winAmount",
          "type": "uint256"
        }
      ],
      "name": "logPayWinner",
      "type": "event"
    },
    {
      "anonymous": false,
      "inputs": [
        {
          "indexed": false,
          "name": "description",
          "type": "string"
        },
        {
          "indexed": false,
          "name": "_maxAllowedBet",
          "type": "uint256"
        }
      ],
      "name": "logMaxAllowedBet",
      "type": "event"
    },
    {
      "anonymous": false,
      "inputs": [
        {
          "indexed": false,
          "name": "winner",
          "type": "address"
        },
        {
          "indexed": false,
          "name": "jackpot",
          "type": "uint256"
        }
      ],
      "name": "LotteryWin",
      "type": "event"
    },
    {
      "anonymous": false,
      "inputs": [
        {
          "indexed": false,
          "name": "paidAddress",
          "type": "address"
        },
        {
          "indexed": false,
          "name": "amount",
          "type": "uint256"
        }
      ],
      "name": "Payment",
      "type": "event"
    },
    {
      "anonymous": false,
      "inputs": [
        {
          "indexed": true,
          "name": "previousOwner",
          "type": "address"
        },
        {
          "indexed": true,
          "name": "newOwner",
          "type": "address"
        }
      ],
      "name": "OwnershipTransferred",
      "type": "event"
    },
    {
      "constant": false,
      "inputs": [
        {
          "name": "risk",
          "type": "uint256"
        }
      ],
      "name": "rollDice",
      "outputs": [
        {
          "name": "success",
          "type": "bool"
        }
      ],
      "payable": true,
      "stateMutability": "payable",
      "type": "function"
    },
    {
      "constant": false,
      "inputs": [
        {
          "name": "_myid",
          "type": "bytes32"
        },
        {
          "name": "_result",
          "type": "string"
        }
      ],
      "name": "__callback",
      "outputs": [],
      "payable": false,
      "stateMutability": "nonpayable",
      "type": "function"
    },
    {
      "constant": false,
      "inputs": [
        {
          "name": "myid",
          "type": "bytes32"
        },
        {
          "name": "result",
          "type": "string"
        },
        {
          "name": "proof",
          "type": "bytes"
        }
      ],
      "name": "__callback",
      "outputs": [],
      "payable": false,
      "stateMutability": "nonpayable",
      "type": "function"
    },
    {
      "constant": false,
      "inputs": [
        {
          "name": "_choice",
          "type": "uint256"
        }
      ],
      "name": "playSoloRound",
      "outputs": [
        {
          "name": "",
          "type": "uint256"
        }
      ],
      "payable": true,
      "stateMutability": "payable",
      "type": "function"
    }
  ],
  "bytecode": "0x6080604052655af3107a40006006556103e86002026007556000600855662386f26fc1000060095573fb6916095ca1df60bb79ce92ce3ea74c37c5d359600a60006101000a81548173ffffffffffffffffffffffffffffffffffffffff021916908373ffffffffffffffffffffffffffffffffffffffff1602179055506103e8600d55670de0b6b3a7640000600e55655af3107a4000600f55601e601055605f6011556611c37937e080006012556000601355348015620000bf57600080fd5b5033600560006101000a81548173ffffffffffffffffffffffffffffffffffffffff021916908373ffffffffffffffffffffffffffffffffffffffff160217905550600560009054906101000a900473ffffffffffffffffffffffffffffffffffffffff1673ffffffffffffffffffffffffffffffffffffffff16600073ffffffffffffffffffffffffffffffffffffffff167f8be0079c531659141344cd1fd0a4f28419497f9722a3daafe3b4186f6b6457e060405160405180910390a3736f485c8bf6fc43ea212e93bbf8ce046c7f1cb475600160006101000a81548173ffffffffffffffffffffffffffffffffffffffff021916908373ffffffffffffffffffffffffffffffffffffffff1602179055506200023560017f01000000000000000000000000000000000000000000000000000000000000000260107f0100000000000000000000000000000000000000000000000000000000000000021762000256640100000000026401000000009004565b6001600560146101000a81548160ff02191690831515021790555062000c78565b600073ffffffffffffffffffffffffffffffffffffffff16600160009054906101000a900473ffffffffffffffffffffffffffffffffffffffff1673ffffffffffffffffffffffffffffffffffffffff161480620002ef57506000620002ed600160009054906101000a900473ffffffffffffffffffffffffffffffffffffffff1662000621640100000000026401000000009004565b145b1562000312576200031060006200062c640100000000026401000000009004565b505b600160009054906101000a900473ffffffffffffffffffffffffffffffffffffffff1673ffffffffffffffffffffffffffffffffffffffff166338cc48316040518163ffffffff167c0100000000000000000000000000000000000000000000000000000000028152600401602060405180830381600087803b1580156200039957600080fd5b505af1158015620003ae573d6000803e3d6000fd5b505050506040513d6020811015620003c557600080fd5b810190808051906020019092919050505073ffffffffffffffffffffffffffffffffffffffff166000809054906101000a900473ffffffffffffffffffffffffffffffffffffffff1673ffffffffffffffffffffffffffffffffffffffff161415156200053057600160009054906101000a900473ffffffffffffffffffffffffffffffffffffffff1673ffffffffffffffffffffffffffffffffffffffff166338cc48316040518163ffffffff167c0100000000000000000000000000000000000000000000000000000000028152600401602060405180830381600087803b158015620004b357600080fd5b505af1158015620004c8573d6000803e3d6000fd5b505050506040513d6020811015620004df57600080fd5b81019080805190602001909291905050506000806101000a81548173ffffffffffffffffffffffffffffffffffffffff021916908373ffffffffffffffffffffffffffffffffffffffff1602179055505b6000809054906101000a900473ffffffffffffffffffffffffffffffffffffffff1673ffffffffffffffffffffffffffffffffffffffff1663688dcfd7826040518263ffffffff167c010000000000000000000000000000000000000000000000000000000002815260040180827effffffffffffffffffffffffffffffffffffffffffffffffffffffffffffff19167effffffffffffffffffffffffffffffffffffffffffffffffffffffffffffff19168152602001915050600060405180830381600087803b1580156200060557600080fd5b505af11580156200061a573d6000803e3d6000fd5b5050505050565b6000813b9050919050565b6000620006476200064e640100000000026401000000009004565b9050919050565b6000806200067f731d3b2638a7cc9f2cb3d298a3da7a90b67e5506ed62000621640100000000026401000000009004565b11156200073457731d3b2638a7cc9f2cb3d298a3da7a90b67e5506ed600160006101000a81548173ffffffffffffffffffffffffffffffffffffffff021916908373ffffffffffffffffffffffffffffffffffffffff1602179055506200072a6040518060400160405280600b81526020017f6574685f6d61696e6e657400000000000000000000000000000000000000000081525062000bad640100000000026401000000009004565b6001905062000baa565b60006200076473c03a2615d5efaf5f49f60b7bb6583eaec212fdf162000621640100000000026401000000009004565b1115620008195773c03a2615d5efaf5f49f60b7bb6583eaec212fdf1600160006101000a81548173ffffffffffffffffffffffffffffffffffffffff021916908373ffffffffffffffffffffffffffffffffffffffff1602179055506200080f6040518060400160405280600c81526020017f6574685f726f707374656e33000000000000000000000000000000000000000081525062000bad640100000000026401000000009004565b6001905062000baa565b60006200084973b7a07bcf2ba2f2703b24c0691b5278999c59ac7e62000621640100000000026401000000009004565b1115620008fe5773b7a07bcf2ba2f2703b24c0691b5278999c59ac7e600160006101000a81548173ffffffffffffffffffffffffffffffffffffffff021916908373ffffffffffffffffffffffffffffffffffffffff160217905550620008f46040518060400160405280600981526020017f6574685f6b6f76616e000000000000000000000000000000000000000000000081525062000bad640100000000026401000000009004565b6001905062000baa565b60006200092e73146500cfd35b22e4a392fe0adc06de1a1368ed4862000621640100000000026401000000009004565b1115620009e35773146500cfd35b22e4a392fe0adc06de1a1368ed48600160006101000a81548173ffffffffffffffffffffffffffffffffffffffff021916908373ffffffffffffffffffffffffffffffffffffffff160217905550620009d96040518060400160405280600b81526020017f6574685f72696e6b65627900000000000000000000000000000000000000000081525062000bad640100000000026401000000009004565b6001905062000baa565b600062000a13736f485c8bf6fc43ea212e93bbf8ce046c7f1cb47562000621640100000000026401000000009004565b111562000a7957736f485c8bf6fc43ea212e93bbf8ce046c7f1cb475600160006101000a81548173ffffffffffffffffffffffffffffffffffffffff021916908373ffffffffffffffffffffffffffffffffffffffff1602179055506001905062000baa565b600062000aa97320e12a1f859b3feae5fb2a0a32c18f5a65555bbf62000621640100000000026401000000009004565b111562000b0f577320e12a1f859b3feae5fb2a0a32c18f5a65555bbf600160006101000a81548173ffffffffffffffffffffffffffffffffffffffff021916908373ffffffffffffffffffffffffffffffffffffffff1602179055506001905062000baa565b600062000b3f7351efaf4c8b3c9afbd5ab9f4bbc82784ab6ef8faa62000621640100000000026401000000009004565b111562000ba5577351efaf4c8b3c9afbd5ab9f4bbc82784ab6ef8faa600160006101000a81548173ffffffffffffffffffffffffffffffffffffffff021916908373ffffffffffffffffffffffffffffffffffffffff1602179055506001905062000baa565b600090505b90565b806002908051906020019062000bc592919062000bc9565b5050565b828054600181600116156101000203166002900490600052602060002090601f016020900481019282601f1062000c0c57805160ff191683800117855562000c3d565b8280016001018555821562000c3d579182015b8281111562000c3c57825182559160200191906001019062000c1f565b5b50905062000c4c919062000c50565b5090565b62000c7591905b8082111562000c7157600081600090555060010162000c57565b5090565b90565b612e4f8062000c886000396000f3fe6080604052600436106101df576000357c0100000000000000000000000000000000000000000000000000000000900480636f1573c311610114578063b86a3159116100b2578063d65ab5f211610081578063d65ab5f2146108f8578063e169bf6c1461090f578063f256473714610919578063f2fde38b14610944576101df565b8063b86a315914610849578063c38a8afd1461088b578063c4e7b6a4146108b6578063d5c62498146108e1576101df565b80638da5cb5b116100ee5780638da5cb5b146107525780638f32d59b146107a9578063911d0189146107d8578063acfff37714610803576101df565b80636f1573c3146106f5578063715018a61461072457806383bd72ba1461073b576101df565b806327dc297e11610181578063426d5ef11161015b578063426d5ef1146105ac57806368742da61461064a5780636b31ee011461069b5780636e8c2caf146106c6576101df565b806327dc297e146103465780633580ecd01461041857806338bbfa5014610443576101df565b806312a0e070116101bd57806312a0e070146102725780631583deb2146102ad578063160344e2146103045780631b9300e91461031b576101df565b806306385b21146101e15780630c0712221461021c578063101a440614610247575b005b3480156101ed57600080fd5b5061021a6004803603602081101561020457600080fd5b8101908080359060200190929190505050610995565b005b34801561022857600080fd5b506102316109b2565b6040518082815260200191505060405180910390f35b34801561025357600080fd5b5061025c6109b8565b6040518082815260200191505060405180910390f35b34801561027e57600080fd5b506102ab6004803603602081101561029557600080fd5b81019080803590602001909291905050506109be565b005b3480156102b957600080fd5b506102c26109db565b604051808273ffffffffffffffffffffffffffffffffffffffff1673ffffffffffffffffffffffffffffffffffffffff16815260200191505060405180910390f35b34801561031057600080fd5b50610319610a01565b005b34801561032757600080fd5b50610330610b46565b6040518082815260200191505060405180910390f35b34801561035257600080fd5b506104166004803603604081101561036957600080fd5b81019080803590602001909291908035906020019064010000000081111561039057600080fd5b8201836020820111156103a257600080fd5b803590602001918460018302840111640100000000831117156103c457600080fd5b91908080601f016020809104026020016040519081016040528093929190818152602001838380828437600081840152601f19601f820116905080830192505050505050509192919290505050610b4c565b005b34801561042457600080fd5b5061042d610b8f565b6040518082815260200191505060405180910390f35b34801561044f57600080fd5b506105aa6004803603606081101561046657600080fd5b81019080803590602001909291908035906020019064010000000081111561048d57600080fd5b82018360208201111561049f57600080fd5b803590602001918460018302840111640100000000831117156104c157600080fd5b91908080601f016020809104026020016040519081016040528093929190818152602001838380828437600081840152601f19601f8201169050808301925050505050505091929192908035906020019064010000000081111561052457600080fd5b82018360208201111561053657600080fd5b8035906020019184600183028401116401000000008311171561055857600080fd5b91908080601f016020809104026020016040519081016040528093929190818152602001838380828437600081840152601f19601f820116905080830192505050505050509192919290505050610b95565b005b3480156105b857600080fd5b506105e5600480360360208110156105cf57600080fd5b8101908080359060200190929190505050610f1a565b604051808773ffffffffffffffffffffffffffffffffffffffff1673ffffffffffffffffffffffffffffffffffffffff168152602001868152602001858152602001848152602001838152602001828152602001965050505050505060405180910390f35b34801561065657600080fd5b506106996004803603602081101561066d57600080fd5b81019080803573ffffffffffffffffffffffffffffffffffffffff169060200190929190505050610f76565b005b3480156106a757600080fd5b506106b061105a565b6040518082815260200191505060405180910390f35b3480156106d257600080fd5b506106db611060565b604051808215151515815260200191505060405180910390f35b34801561070157600080fd5b5061070a611073565b604051808215151515815260200191505060405180910390f35b34801561073057600080fd5b50610739611086565b005b34801561074757600080fd5b5061075061115a565b005b34801561075e57600080fd5b506107676111fa565b604051808273ffffffffffffffffffffffffffffffffffffffff1673ffffffffffffffffffffffffffffffffffffffff16815260200191505060405180910390f35b3480156107b557600080fd5b506107be611224565b604051808215151515815260200191505060405180910390f35b3480156107e457600080fd5b506107ed61127c565b6040518082815260200191505060405180910390f35b61082f6004803603602081101561081957600080fd5b8101908080359060200190929190505050611282565b604051808215151515815260200191505060405180910390f35b6108756004803603602081101561085f57600080fd5b810190808035906020019092919050505061167f565b6040518082815260200191505060405180910390f35b34801561089757600080fd5b506108a0611689565b6040518082815260200191505060405180910390f35b3480156108c257600080fd5b506108cb61168f565b6040518082815260200191505060405180910390f35b3480156108ed57600080fd5b506108f6611695565b005b34801561090457600080fd5b5061090d6116c5565b005b610917611765565b005b34801561092557600080fd5b5061092e611782565b6040518082815260200191505060405180910390f35b34801561095057600080fd5b506109936004803603602081101561096757600080fd5b81019080803573ffffffffffffffffffffffffffffffffffffffff169060200190929190505050611788565b005b61099d611224565b15156109a857600080fd5b80600d8190555050565b60095481565b60115481565b6109c6611224565b15156109d157600080fd5b8060098190555050565b600a60009054906101000a900473ffffffffffffffffffffffffffffffffffffffff1681565b610a09611224565b1515610a1457600080fd5b3073ffffffffffffffffffffffffffffffffffffffff1631600b5411151515610aa5576040517f08c379a000000000000000000000000000000000000000000000000000000000815260040180806020018281038252601d8152602001807f4a61636b706f74206c6f776572207468616e2053432062616c616e636500000081525060200191505060405180910390fd5b600e543073ffffffffffffffffffffffffffffffffffffffff163110158015610ad25750600e54600b5410155b1515610b29576040517f08c379a000000000000000000000000000000000000000000000000000000000815260040180806020018281038252602b815260200180612df9602b913960400191505060405180910390fd5b6001600c60006101000a81548160ff021916908315150217905550565b60105481565b610b8b828260006040519080825280601f01601f191660200182016040528015610b855781602001600182028038833980820191505090505b50610b95565b5050565b60085481565b6000809050610ba26117a7565b73ffffffffffffffffffffffffffffffffffffffff163373ffffffffffffffffffffffffffffffffffffffff16141515610bdb57600080fd5b60006014600086815260200190815260200160002060000160009054906101000a900473ffffffffffffffffffffffffffffffffffffffff1690506000610c2185611b1a565b90508060146000888152602001908152602001600020600401819055506000601460008881526020019081526020016000206002015490506000601460008981526020019081526020016000206003015490507f07d71ce827b2c0ead9f18b5f031f0385143e283c9491b21b96713a278acfacc030898486604051808573ffffffffffffffffffffffffffffffffffffffff1673ffffffffffffffffffffffffffffffffffffffff16815260200184815260200183815260200182815260200194505050505060405180910390a181831115610cfc57600194505b8415610e22576000610d0e8284611b2e565b905080601460008b8152602001908152602001600020600501819055507fc4cfaea7e643952941f9703b6024c682372fc04075a3bf87687287b71f0744693086868460405180806020018673ffffffffffffffffffffffffffffffffffffffff1673ffffffffffffffffffffffffffffffffffffffff1681526020018573ffffffffffffffffffffffffffffffffffffffff1673ffffffffffffffffffffffffffffffffffffffff1681526020018481526020018381526020018281038252600d8152602001807f506c617965722077696e733a20000000000000000000000000000000000000008152506020019550505050505060405180910390a16000811115610e2057610e1f858383611bdc565b5b505b600015158515151415610f10577f18008b5f6086bd3b79827452d1500916d620037ff83bf69d6d7e739040733d0f3085858460405180806020018673ffffffffffffffffffffffffffffffffffffffff1673ffffffffffffffffffffffffffffffffffffffff1681526020018573ffffffffffffffffffffffffffffffffffffffff1673ffffffffffffffffffffffffffffffffffffffff1681526020018481526020018381526020018281038252600d8152602001807f506c61796572206c6f73653a20000000000000000000000000000000000000008152506020019550505050505060405180910390a15b5050505050505050565b60146020528060005260406000206000915090508060000160009054906101000a900473ffffffffffffffffffffffffffffffffffffffff16908060010154908060020154908060030154908060040154908060050154905086565b610f7e611224565b1515610f8957600080fd5b6000801515600560149054906101000a900460ff161515141515610ff8576040517f08c379a000000000000000000000000000000000000000000000000000000000815260040180806020018281038252602c815260200180612dcd602c913960400191505060405180910390fd5b8173ffffffffffffffffffffffffffffffffffffffff166108fc3073ffffffffffffffffffffffffffffffffffffffff16319081150290604051600060405180830381858888f19350505050158015611055573d6000803e3d6000fd5b505050565b60135481565b600560149054906101000a900460ff1681565b600c60009054906101000a900460ff1681565b61108e611224565b151561109957600080fd5b600073ffffffffffffffffffffffffffffffffffffffff16600560009054906101000a900473ffffffffffffffffffffffffffffffffffffffff1673ffffffffffffffffffffffffffffffffffffffff167f8be0079c531659141344cd1fd0a4f28419497f9722a3daafe3b4186f6b6457e060405160405180910390a36000600560006101000a81548173ffffffffffffffffffffffffffffffffffffffff021916908373ffffffffffffffffffffffffffffffffffffffff160217905550565b611162611224565b151561116d57600080fd5b6001801515600560149054906101000a900460ff1615151415156111dc576040517f08c379a000000000000000000000000000000000000000000000000000000000815260040180806020018281038252602c815260200180612dcd602c913960400191505060405180910390fd5b6000600560146101000a81548160ff02191690831515021790555050565b6000600560009054906101000a900473ffffffffffffffffffffffffffffffffffffffff16905090565b6000600560009054906101000a900473ffffffffffffffffffffffffffffffffffffffff1673ffffffffffffffffffffffffffffffffffffffff163373ffffffffffffffffffffffffffffffffffffffff1614905090565b600e5481565b60006001801515600560149054906101000a900460ff1615151415156112f3576040517f08c379a000000000000000000000000000000000000000000000000000000000815260040180806020018281038252602c815260200180612dcd602c913960400191505060405180910390fd5b600080339050600034905060008061130b8389611b2e565b9050611337813073ffffffffffffffffffffffffffffffffffffffff1631611d0a90919063ffffffff16565b915061134d600283611d2c90919063ffffffff16565b91507fadeaade94d61b1de6450a378938d3b7226431f1129423ef8b283f5991164fbc7826040518080602001838152602001828103825260168152602001807f4d6178696d756d206265742061636365707465643a20000000000000000000008152506020019250505060405180910390a13073ffffffffffffffffffffffffffffffffffffffff1631831015156113e457600080fd5b6113f183600f5484611d56565b15156113fc57600080fd5b61140b88601054601154611d70565b151561141657600080fd5b7f0493f0ee102db9238dcfc674e3590d07343d625075476694341009d96d90553930858a86604051808573ffffffffffffffffffffffffffffffffffffffff1673ffffffffffffffffffffffffffffffffffffffff1681526020018473ffffffffffffffffffffffffffffffffffffffff1673ffffffffffffffffffffffffffffffffffffffff16815260200183815260200182815260200194505050505060405180910390a17f5c624037da372bb459131a7137f1657ae380b2419ed6071d29d957c194ed200c3085604051808373ffffffffffffffffffffffffffffffffffffffff1673ffffffffffffffffffffffffffffffffffffffff1681526020018273ffffffffffffffffffffffffffffffffffffffff1673ffffffffffffffffffffffffffffffffffffffff1681526020018060200182810382526042815260200180612d8b60429139606001935050505060405180910390a16115c86040518060400160405280600381526020017f55524c000000000000000000000000000000000000000000000000000000000081525060405180610100016040528060e08152602001612cab60e09139611d8a565b9450846014600087815260200190815260200160002060010181905550836014600087815260200190815260200160002060000160006101000a81548173ffffffffffffffffffffffffffffffffffffffff021916908373ffffffffffffffffffffffffffffffffffffffff16021790555087601460008781526020019081526020016000206002018190555082601460008781526020019081526020016000206003018190555060019650505050505050919050565b6000809050919050565b600f5481565b60125481565b61169d611224565b15156116a857600080fd5b6000600c60006101000a81548160ff021916908315150217905550565b6116cd611224565b15156116d857600080fd5b6000801515600560149054906101000a900460ff161515141515611747576040517f08c379a000000000000000000000000000000000000000000000000000000000815260040180806020018281038252602c815260200180612dcd602c913960400191505060405180910390fd5b6001600560146101000a81548160ff02191690831515021790555050565b61177a34600b5461234390919063ffffffff16565b600b81905550565b600d5481565b611790611224565b151561179b57600080fd5b6117a481612364565b50565b60008073ffffffffffffffffffffffffffffffffffffffff16600160009054906101000a900473ffffffffffffffffffffffffffffffffffffffff1673ffffffffffffffffffffffffffffffffffffffff16148061182f5750600061182d600160009054906101000a900473ffffffffffffffffffffffffffffffffffffffff16612460565b145b156118405761183e600061246b565b505b600160009054906101000a900473ffffffffffffffffffffffffffffffffffffffff1673ffffffffffffffffffffffffffffffffffffffff166338cc48316040518163ffffffff167c0100000000000000000000000000000000000000000000000000000000028152600401602060405180830381600087803b1580156118c657600080fd5b505af11580156118da573d6000803e3d6000fd5b505050506040513d60208110156118f057600080fd5b810190808051906020019092919050505073ffffffffffffffffffffffffffffffffffffffff166000809054906101000a900473ffffffffffffffffffffffffffffffffffffffff1673ffffffffffffffffffffffffffffffffffffffff16141515611a5757600160009054906101000a900473ffffffffffffffffffffffffffffffffffffffff1673ffffffffffffffffffffffffffffffffffffffff166338cc48316040518163ffffffff167c0100000000000000000000000000000000000000000000000000000000028152600401602060405180830381600087803b1580156119dc57600080fd5b505af11580156119f0573d6000803e3d6000fd5b505050506040513d6020811015611a0657600080fd5b81019080805190602001909291905050506000806101000a81548173ffffffffffffffffffffffffffffffffffffffff021916908373ffffffffffffffffffffffffffffffffffffffff1602179055505b6000809054906101000a900473ffffffffffffffffffffffffffffffffffffffff1673ffffffffffffffffffffffffffffffffffffffff1663c281d19e6040518163ffffffff167c010000000000000000000000000000000000000000000000000000000002815260040160206040518083038186803b158015611ada57600080fd5b505afa158015611aee573d6000803e3d6000fd5b505050506040513d6020811015611b0457600080fd5b8101908080519060200190929190505050905090565b6000611b2782600061247c565b9050919050565b6000806000806000670de0b6b3a764000090506000660e35fa931a00009050611b60878361271790919063ffffffff16565b9250611b76606484611d2c90919063ffffffff16565b9250611b8b838961271790919063ffffffff16565b9450611ba08286611d2c90919063ffffffff16565b9450611bb760125486611d0a90919063ffffffff16565b9350611bcc8185611d0a90919063ffffffff16565b9350839550505050505092915050565b6000611bf1828461234390919063ffffffff16565b9050803073ffffffffffffffffffffffffffffffffffffffff163110151515611c1957600080fd5b7f1d1f8e36149fc07505f5876cceb2ca561904e9e3a940effa716d74765df24c2e848260405180806020018473ffffffffffffffffffffffffffffffffffffffff1673ffffffffffffffffffffffffffffffffffffffff1681526020018381526020018281038252600c8152602001807f5061792077696e6e65723a200000000000000000000000000000000000000000815250602001935050505060405180910390a18373ffffffffffffffffffffffffffffffffffffffff166108fc829081150290604051600060405180830381858888f19350505050158015611d03573d6000803e3d6000fd5b5050505050565b6000828211151515611d1b57600080fd5b600082840390508091505092915050565b60008082111515611d3c57600080fd5b60008284811515611d4957fe5b0490508091505092915050565b6000828410158015611d6757508184105b90509392505050565b60008284118015611d815750818411155b90509392505050565b60008073ffffffffffffffffffffffffffffffffffffffff16600160009054906101000a900473ffffffffffffffffffffffffffffffffffffffff1673ffffffffffffffffffffffffffffffffffffffff161480611e1257506000611e10600160009054906101000a900473ffffffffffffffffffffffffffffffffffffffff16612460565b145b15611e2357611e21600061246b565b505b600160009054906101000a900473ffffffffffffffffffffffffffffffffffffffff1673ffffffffffffffffffffffffffffffffffffffff166338cc48316040518163ffffffff167c0100000000000000000000000000000000000000000000000000000000028152600401602060405180830381600087803b158015611ea957600080fd5b505af1158015611ebd573d6000803e3d6000fd5b505050506040513d6020811015611ed357600080fd5b810190808051906020019092919050505073ffffffffffffffffffffffffffffffffffffffff166000809054906101000a900473ffffffffffffffffffffffffffffffffffffffff1673ffffffffffffffffffffffffffffffffffffffff1614151561203a57600160009054906101000a900473ffffffffffffffffffffffffffffffffffffffff1673ffffffffffffffffffffffffffffffffffffffff166338cc48316040518163ffffffff167c0100000000000000000000000000000000000000000000000000000000028152600401602060405180830381600087803b158015611fbf57600080fd5b505af1158015611fd3573d6000803e3d6000fd5b505050506040513d6020811015611fe957600080fd5b81019080805190602001909291905050506000806101000a81548173ffffffffffffffffffffffffffffffffffffffff021916908373ffffffffffffffffffffffffffffffffffffffff1602179055505b60008060009054906101000a900473ffffffffffffffffffffffffffffffffffffffff1673ffffffffffffffffffffffffffffffffffffffff1663524f3889856040518263ffffffff167c01000000000000000000000000000000000000000000000000000000000281526004018080602001828103825283818151815260200191508051906020019080838360005b838110156120e55780820151818401526020810190506120ca565b50505050905090810190601f1680156121125780820380516001836020036101000a031916815260200191505b5092505050602060405180830381600087803b15801561213157600080fd5b505af1158015612145573d6000803e3d6000fd5b505050506040513d602081101561215b57600080fd5b8101908080519060200190929190505050905062030d403a02670de0b6b3a76400000181111561219257600060010291505061233d565b6000809054906101000a900473ffffffffffffffffffffffffffffffffffffffff1673ffffffffffffffffffffffffffffffffffffffff1663adf59f9982600087876040518563ffffffff167c0100000000000000000000000000000000000000000000000000000000028152600401808481526020018060200180602001838103835285818151815260200191508051906020019080838360005b8381101561224957808201518184015260208101905061222e565b50505050905090810190601f1680156122765780820380516001836020036101000a031916815260200191505b50838103825284818151815260200191508051906020019080838360005b838110156122af578082015181840152602081019050612294565b50505050905090810190601f1680156122dc5780820380516001836020036101000a031916815260200191505b50955050505050506020604051808303818588803b1580156122fd57600080fd5b505af1158015612311573d6000803e3d6000fd5b50505050506040513d602081101561232857600080fd5b81019080805190602001909291905050509150505b92915050565b600080828401905083811015151561235a57600080fd5b8091505092915050565b600073ffffffffffffffffffffffffffffffffffffffff168173ffffffffffffffffffffffffffffffffffffffff16141515156123a057600080fd5b8073ffffffffffffffffffffffffffffffffffffffff16600560009054906101000a900473ffffffffffffffffffffffffffffffffffffffff1673ffffffffffffffffffffffffffffffffffffffff167f8be0079c531659141344cd1fd0a4f28419497f9722a3daafe3b4186f6b6457e060405160405180910390a380600560006101000a81548173ffffffffffffffffffffffffffffffffffffffff021916908373ffffffffffffffffffffffffffffffffffffffff16021790555050565b6000813b9050919050565b6000612475612755565b9050919050565b600060608390506000809050600080905060008090505b83518110156126f857603084828151811015156124ac57fe5b9060200101517f010000000000000000000000000000000000000000000000000000000000000090047f0100000000000000000000000000000000000000000000000000000000000000027f0100000000000000000000000000000000000000000000000000000000000000900460ff16101580156125aa57506039848281518110151561253657fe5b9060200101517f010000000000000000000000000000000000000000000000000000000000000090047f0100000000000000000000000000000000000000000000000000000000000000027f0100000000000000000000000000000000000000000000000000000000000000900460ff1611155b1561265e5781156125cd5760008614156125c3576126f8565b8580600190039650505b600a83029250603084828151811015156125e357fe5b9060200101517f010000000000000000000000000000000000000000000000000000000000000090047f0100000000000000000000000000000000000000000000000000000000000000027f0100000000000000000000000000000000000000000000000000000000000000900460ff1603830192506126eb565b602e848281518110151561266e57fe5b9060200101517f010000000000000000000000000000000000000000000000000000000000000090047f0100000000000000000000000000000000000000000000000000000000000000027f0100000000000000000000000000000000000000000000000000000000000000900460ff1614156126ea57600191505b5b8080600101915050612493565b50600085111561270b5784600a0a820291505b81935050505092915050565b60008083141561272a576000905061274f565b6000828402905082848281151561273d57fe5b0414151561274a57600080fd5b809150505b92915050565b600080612775731d3b2638a7cc9f2cb3d298a3da7a90b67e5506ed612460565b111561281757731d3b2638a7cc9f2cb3d298a3da7a90b67e5506ed600160006101000a81548173ffffffffffffffffffffffffffffffffffffffff021916908373ffffffffffffffffffffffffffffffffffffffff16021790555061280e6040518060400160405280600b81526020017f6574685f6d61696e6e6574000000000000000000000000000000000000000000815250612beb565b60019050612be8565b600061283673c03a2615d5efaf5f49f60b7bb6583eaec212fdf1612460565b11156128d85773c03a2615d5efaf5f49f60b7bb6583eaec212fdf1600160006101000a81548173ffffffffffffffffffffffffffffffffffffffff021916908373ffffffffffffffffffffffffffffffffffffffff1602179055506128cf6040518060400160405280600c81526020017f6574685f726f707374656e330000000000000000000000000000000000000000815250612beb565b60019050612be8565b60006128f773b7a07bcf2ba2f2703b24c0691b5278999c59ac7e612460565b11156129995773b7a07bcf2ba2f2703b24c0691b5278999c59ac7e600160006101000a81548173ffffffffffffffffffffffffffffffffffffffff021916908373ffffffffffffffffffffffffffffffffffffffff1602179055506129906040518060400160405280600981526020017f6574685f6b6f76616e0000000000000000000000000000000000000000000000815250612beb565b60019050612be8565b60006129b873146500cfd35b22e4a392fe0adc06de1a1368ed48612460565b1115612a5a5773146500cfd35b22e4a392fe0adc06de1a1368ed48600160006101000a81548173ffffffffffffffffffffffffffffffffffffffff021916908373ffffffffffffffffffffffffffffffffffffffff160217905550612a516040518060400160405280600b81526020017f6574685f72696e6b656279000000000000000000000000000000000000000000815250612beb565b60019050612be8565b6000612a79736f485c8bf6fc43ea212e93bbf8ce046c7f1cb475612460565b1115612add57736f485c8bf6fc43ea212e93bbf8ce046c7f1cb475600160006101000a81548173ffffffffffffffffffffffffffffffffffffffff021916908373ffffffffffffffffffffffffffffffffffffffff16021790555060019050612be8565b6000612afc7320e12a1f859b3feae5fb2a0a32c18f5a65555bbf612460565b1115612b60577320e12a1f859b3feae5fb2a0a32c18f5a65555bbf600160006101000a81548173ffffffffffffffffffffffffffffffffffffffff021916908373ffffffffffffffffffffffffffffffffffffffff16021790555060019050612be8565b6000612b7f7351efaf4c8b3c9afbd5ab9f4bbc82784ab6ef8faa612460565b1115612be3577351efaf4c8b3c9afbd5ab9f4bbc82784ab6ef8faa600160006101000a81548173ffffffffffffffffffffffffffffffffffffffff021916908373ffffffffffffffffffffffffffffffffffffffff16021790555060019050612be8565b600090505b90565b8060029080519060200190612c01929190612c05565b5050565b828054600181600116156101000203166002900490600052602060002090601f016020900481019282601f10612c4657805160ff1916838001178555612c74565b82800160010185558215612c74579182015b82811115612c73578251825591602001919060010190612c58565b5b509050612c819190612c85565b5090565b612ca791905b80821115612ca3576000816000905550600101612c8b565b5090565b9056fe424137765079556c746379377a3276637645412f425243736a54314869634f6b6679475265433770636d2b612b6c3065547a762b67733769677a4246354c4e475a47384c754f43664b4b51593368665252575a345665734d77577537497246727648536556492f546f4c4978673632483975756a507677634871707243424d32766d74415455576d4f4578666e6265384c627977656476682f52386d48664538334b4d69744e7a355743372f62495a526374537566627447462b754c616f45694c4a656a6a71543543556c38584b51322b4b473259436a4a696e6531536f64304f7261636c697a6520717565727920746f2072616e646f6d2e6f7267207761732073656e742c207374616e64696e6720627920666f722074686520616e737765722e46756e6374696f6e20617661696c61626c65206f6e6c79207768656e2067616d652069732072756e6e696e674d696e696d756d204a61636b706f74206973206e656564656420666f72207374617274696e672067616d65a165627a7a72305820451b3f33b7876e10ff4f05c933a2c351ec295d74985080ec0bd41c6a11f6bfc70029",
  "source": "pragma solidity ^0.5.0;\n\n\nimport \"./GamblingGame.sol\";\nimport \"./oraclizeAPI.sol\";\nimport \"./LotteryGame.sol\";\n//import \"./StartStopGame.sol\";\n\n\n/** @title Dice - Dice game\n  * @author Rodrigo Gmez Gentil, Antonio Cruz Surez\n */\n\ncontract Dice is usingOraclize, GamblingGame, LotteryGame {\n\n    using SafeMath for uint;\n\n    // bool public emergencyStop;\n    \n    // modifier noEmergency \n    // { \n    //     if (!emergencyStop) \n    //     _;\n    // }\n    \n    // modifier inEmergency \n    // {\n    //     if (emergencyStop) \n    //     _;\n    // }\n\n    uint public minimumBet = 0.0001 ether;\n    uint public minimumRisk = 30;\n    uint public maximumRisk = 95;\n    uint public feeJackpot =  5000000000000000;  // Fund to jackpot 0.005 ether as a fee\n    \n    uint public jackpot = 0;\n    \n    // All oraclize calls will result in a common callback to __callback(...).\n    struct oraclizeCallback {\n        address payable player;\n        bytes32 queryId;\n        uint    risk;\n        uint    betAmount;\n        uint    rolledDiceNumber;\n        uint    profit;\n    }\n\n     mapping (bytes32 => oraclizeCallback) public oraclizeCallbacks;\n    //  mapping (address => uint) private balances;\n\n    // Events\n    event logPlayerBetAccepted(address _contract, address _player, uint _risk, uint _bet);\n    event logRollDice(address _contract, address _player, string _description);\n    event logRolledDiceNumber(address _contract, bytes32 _oraclizeQueryId, uint _risk, uint _rolledDiceNumber);\n    event logPlayerLose(string description, address _contract, address _player, uint _rolledDiceNumber, uint _betAmount);\n    event logPlayerWins(string description, address _contract, address _winner, uint _rolledDiceNumber, uint _profit);\n    event logGameStatus(bool _status);\n    event logNewOraclizeQuery(string description);\n    event logContractBalance(uint _contractBalance);\n    event logJackpotBalance(string description, address _ownerAddress, uint _ownerBalance);\n    event logPayWinner(string description, address _playerAddress, uint _winAmount);\n    event logMaxAllowedBet(string description, uint _maxAllowedBet);\n\n\n    constructor() \n    public\n    {\n        // Replace the next line with your version:\n        OAR = OraclizeAddrResolverI(0x6f485C8BF6fc43eA212E93BBF8ce046C7f1cb475);\n        // set Oraclize proof type\n        oraclize_setProof(proofType_TLSNotary | proofStorage_IPFS);\n        gameRunning = true;\n        // emit logGameStatus(gameRunning);\n\n    }\n\n    function rollDice(uint risk) \n        public \n        gameIsOn(true)\n        payable\n        returns (bool success)\n    {\n        \n        bytes32 oraclizeQueryId;        \n        address payable player = msg.sender;                \n\n        uint betAmount = msg.value; \n        uint maximumBet;\n        uint netPossibleProfit;\n        // uint contractBalance = address(this).balance;\n\n\n        netPossibleProfit = calculateProfit(betAmount, risk);\n        maximumBet = address(this).balance.sub(netPossibleProfit);\n        maximumBet = maximumBet.div(2); \n        emit logMaxAllowedBet(\"Maximum bet accepted: \", maximumBet);\n\n        require(betAmount < address(this).balance);       \n        require(isValidBet(betAmount, minimumBet, maximumBet));\n        require(isValidRisk(risk, minimumRisk, maximumRisk));\n        emit logPlayerBetAccepted(address(this), player, risk, betAmount);\n\n        // Making oraclized query to random.org.\n        emit logRollDice(address(this), player, \"Oraclize query to random.org was sent, standing by for the answer.\");\n        // oraclizeQueryId = oraclize_query(\"URL\", \"https://www.random.org/integers/?num=1&min=1&max=100&col=1&base=10&format=plain&rnd=new\");\n        oraclizeQueryId = oraclize_query(\"URL\", \"BA7vPyUltcy7z2vcvEA/BRCsjT1HicOkfyGReC7pcm+a+l0eTzv+gs7igzBF5LNGZG8LuOCfKKQY3hfRRWZ4VesMwWu7IrFrvHSeVI/ToLIxg62H9uujPvwcHqprCBM2vmtATUWmOExfnbe8Lbywedvh/R8mHfE83KMitNz5WC7/bIZRctSufbtGF+uLaoEiLJejjqT5CUl8XKQ2+KG2YCjJine1Sod0\");\n\n        \n        // Saving the struct        \n        oraclizeCallbacks[oraclizeQueryId].queryId = oraclizeQueryId;\n        oraclizeCallbacks[oraclizeQueryId].player = player;\n        oraclizeCallbacks[oraclizeQueryId].risk = risk;\n        oraclizeCallbacks[oraclizeQueryId].betAmount = betAmount;\n\n        return true;\n    }\n\n\n    /**\n    * @notice Callback function to emit the events with the information we want.\n    * @dev Get the querys using the parameter myid\n    * @param myid The id of the query\n    * @param result The result of the query\n    */\n\n    function __callback(bytes32 myid, string memory result, bytes memory proof) \n    public\n    {\n        \n\n        bool playerWins = false;     \n          \n\n        require (msg.sender == oraclize_cbAddress());\n        \n        address payable player = oraclizeCallbacks[myid].player;       \n        uint rolledDiceNumber = parseInt(result); \n        oraclizeCallbacks[myid].rolledDiceNumber = rolledDiceNumber;   \n        uint risk = oraclizeCallbacks[myid].risk;\n        uint betAmount = oraclizeCallbacks[myid].betAmount;     \n        emit logRolledDiceNumber(address(this), myid, risk, rolledDiceNumber);\n\n\n         // If the number of the rolled dice is higher than the assumed risk then the player wins\n         if(rolledDiceNumber > risk) {\n             playerWins = true;\n        }\n           \n        if(playerWins) {\n            \n            // Calculate player profit    \n            uint netProfit = calculateProfit(betAmount, risk);\n \n            oraclizeCallbacks[myid].profit = netProfit;  \n            emit logPlayerWins(\"Player wins: \", address(this), player, rolledDiceNumber, netProfit);\n\n            // Increase jackpot\n            // balances[owner()] = balances[owner()].add(feeJackpot);\n            // emit logJackpotBalance(\"Balance owner: \", owner(), balances[owner()]);            \n\n             if(netProfit > 0) {             \n                 payWinner(player, betAmount, netProfit);          \n             }\n            \n         }\n\n         if(playerWins==false) {\n             emit logPlayerLose(\"Player lose: \",address(this), player, rolledDiceNumber, betAmount);\n        }\n\n    }\n\n  \n    // function getContractBalance()\n    //     public\n    //     view\n    //     returns (uint)\n    // {\n    //     return (address(this).balance);\n    // }\n\n \n    /** \n     * @notice Fallback function - Called if other functions don't match call or sent ether \n     * The sender's money is transferred to contract\n     */\n    function () external payable{ \n    }\n\n    // /** \n    //  * @notice sendMoney function is equivalent to fallback function\n    //  * The sender's money is transferred to contract\n    //  */\n    // function sendMoney() public payable{ \n    // }\n\n    function calculateProfit(uint betAmount, uint risk) \n    private\n    view \n    returns (uint)\n    {\n        uint grossProfit;\n        uint netProfit;\n        uint riskPercentage;\n        uint feeUnits = 1000000000000000000;\n        uint feeOraclize = 4000000000000000; // Oraclize service charges 0.004 Ether as a fee for querying random.org\n\n       \n        riskPercentage = feeUnits.mul(risk); \n        riskPercentage = riskPercentage.div(100);\n        grossProfit = betAmount.mul(riskPercentage);\n        grossProfit = grossProfit.div(feeUnits);               \n        netProfit = grossProfit.sub(feeJackpot);\n        netProfit = netProfit.sub(feeOraclize);\n\n        return (netProfit);\n\n    }\n    function payWinner(address payable _player, uint _betAmount, uint _netProfit) \n    private \n    {\n        uint winAmount = _betAmount.add(_netProfit);\n        require( address(this).balance >= winAmount );\n        emit logPayWinner(\"Pay winner: \", _player, winAmount);            \n        _player.transfer(winAmount);\n    }\n\n    // /**\n    // * @notice Enable the emergency stop.\n    // * @dev Owner of the smart contract activate the emergency stop.\n    // */\n    // function enableEmergency() \n    //     public \n    //     onlyOwner\n    // {\n    //     emergencyStop = !emergencyStop;        \n    // }\n\n        /**\n     * @notice Test if the risk assumed by the user is the minimum accepted by the game\n     * @param _risk : Risk assumed by the player\n     * @param _minimumRisk Indicates the minimum risk accepted to play the game\n     * @return True if the risk is over 30, False otherwise.\n     */\n    function isValidRisk (uint _risk, uint _minimumRisk, uint _maximumRisk)\n        internal\n        pure\n        returns (bool)\n    {\n        return ((_risk > _minimumRisk) && (_risk <= _maximumRisk));\n    }\n    \n    /**\n     * @notice Test if the player's bet is at least the minium required for playing\n     * @param _bet Indicates the bet risked by the user\n     * @param _minimumBet Indicates the minimum bet accepted to play the game\n     * @return True if player's bet is at least equal to the minimum expected to allow the game, False otherwise.\n     */\n    function isValidBet (uint _bet, uint _minimumBet, uint _maximumBet)\n        internal\n        pure\n        returns (bool)\n    {\n        return ((_bet >= _minimumBet) && (_bet < _maximumBet) );\n    }\n\n    function playSoloRound(uint _choice) public payable returns(uint) {\n        return 0;\n    }\n\n    function _payRound(uint _roundId) private {\n        uint i = 9;\n    }\n\n    function _playLottery(address payable playerAddress, uint _roundId) private returns (bool) {\n        return false;\n    }\n\n\n}",
  "sourcePath": "/home/rggentil/Documents/master_ethereum/BLOCKCHAINTFM/RPS_commit_and_reveal/contracts/Dice.sol",
  "compiler": {
    "name": "solc",
    "version": "0.5.5+commit.47a71e8f.Emscripten.clang"
  },
  "schemaVersion": "3.0.2",
  "updatedAt": "2019-03-26T15:19:49.036Z",
  "devdoc": {
    "author": "Rodrigo Gmez Gentil, Antonio Cruz Surez",
    "methods": {
      "__callback(bytes32,string,bytes)": {
        "details": "Get the querys using the parameter myid",
        "params": {
          "myid": "The id of the query",
          "result": "The result of the query"
        }
      },
      "fundGame()": {
        "details": "It's just the same as fallback function."
      },
      "isOwner()": {
        "return": "true if `msg.sender` is the owner of the contract."
      },
      "owner()": {
        "return": "the address of the owner."
      },
      "renounceOwnership()": {
        "details": "Allows the current owner to relinquish control of the contract."
      },
      "setLotteryRate(uint256)": {
        "details": "Mostly for testing porpuse. It should be removed in final deployment or no modifiable by anyone",
        "params": {
          "newLotteryRate": "new lottery rate"
        }
      },
      "setminBusinessFeePayment(uint256)": {
        "details": "Mostly for testing porpuse. It should be removed in final deployment or no modifiable by anyone",
        "params": {
          "newMinBusinessFeePayment": "new min amount of ETH to transfer to business"
        }
      },
      "transferOwnership(address)": {
        "details": "Allows the current owner to transfer control of the contract to a newOwner.",
        "params": {
          "newOwner": "The address to transfer ownership to."
        }
      },
      "withdrawFunds(address)": {
        "params": {
          "_myAddress": "addres to withdraw funds to"
        }
      }
    },
    "title": "Dice - Dice game"
  },
  "userdoc": {
    "methods": {
      "__callback(bytes32,string,bytes)": {
        "notice": "Callback function to emit the events with the information we want."
      },
      "fundGame()": {
        "notice": "Payable, to fund game by adding ethers to contract and to the jackpot"
      },
      "renounceOwnership()": {
        "notice": "Renouncing to ownership will leave the contract without an owner. It will not be possible to call the functions with the `onlyOwner` modifier anymore."
      },
      "setLotteryRate(uint256)": {
        "notice": "Set the lottery rate in percentage, how easy is to hit the jackpot"
      },
      "setminBusinessFeePayment(uint256)": {
        "notice": "Set the minimum amount of ETH to be transfered when collecting business fees"
      },
      "startGame()": {
        "notice": "When we have everything ready owner can start game so anyone can play. Also it starts lottery. Also for restarting game after having stopped it"
      },
      "startLottery()": {
        "notice": "Start lottery (this means playing for jackpot)"
      },
      "stopGame()": {
        "notice": "Function for emergengies. Also it stops lottery."
      },
      "stopLottery()": {
        "notice": "Stop lottery (this means stop playing for jackpot)"
      },
      "withdrawFunds(address)": {
        "notice": "Withdraw funds in case of an emergengy. Set jackpot to 0."
      }
    }
  }
}