{
  "contractName": "Dice",
  "abi": [
    {
      "constant": false,
      "inputs": [
        {
          "name": "newLotteryRate",
          "type": "uint256"
        }
      ],
      "name": "setLotteryRate",
      "outputs": [],
      "payable": false,
      "stateMutability": "nonpayable",
      "type": "function",
      "signature": "0x06385b21"
    },
    {
      "constant": true,
      "inputs": [],
      "name": "minBusinessFeePayment",
      "outputs": [
        {
          "name": "",
          "type": "uint256"
        }
      ],
      "payable": false,
      "stateMutability": "view",
      "type": "function",
      "signature": "0x0c071222"
    },
    {
      "constant": true,
      "inputs": [],
      "name": "maximumRisk",
      "outputs": [
        {
          "name": "",
          "type": "uint256"
        }
      ],
      "payable": false,
      "stateMutability": "view",
      "type": "function",
      "signature": "0x101a4406"
    },
    {
      "constant": true,
      "inputs": [],
      "name": "roundCount",
      "outputs": [
        {
          "name": "",
          "type": "uint256"
        }
      ],
      "payable": false,
      "stateMutability": "view",
      "type": "function",
      "signature": "0x127f0b3f"
    },
    {
      "constant": false,
      "inputs": [
        {
          "name": "newMinBusinessFeePayment",
          "type": "uint256"
        }
      ],
      "name": "setminBusinessFeePayment",
      "outputs": [],
      "payable": false,
      "stateMutability": "nonpayable",
      "type": "function",
      "signature": "0x12a0e070"
    },
    {
      "constant": true,
      "inputs": [],
      "name": "businessAddress",
      "outputs": [
        {
          "name": "",
          "type": "address"
        }
      ],
      "payable": false,
      "stateMutability": "view",
      "type": "function",
      "signature": "0x1583deb2"
    },
    {
      "constant": false,
      "inputs": [],
      "name": "startLottery",
      "outputs": [],
      "payable": false,
      "stateMutability": "nonpayable",
      "type": "function",
      "signature": "0x160344e2"
    },
    {
      "constant": true,
      "inputs": [],
      "name": "minimumRisk",
      "outputs": [
        {
          "name": "",
          "type": "uint256"
        }
      ],
      "payable": false,
      "stateMutability": "view",
      "type": "function",
      "signature": "0x1b9300e9"
    },
    {
      "constant": true,
      "inputs": [],
      "name": "totalBusinessFee",
      "outputs": [
        {
          "name": "",
          "type": "uint256"
        }
      ],
      "payable": false,
      "stateMutability": "view",
      "type": "function",
      "signature": "0x3580ecd0"
    },
    {
      "constant": false,
      "inputs": [
        {
          "name": "_myAddress",
          "type": "address"
        }
      ],
      "name": "withdrawFunds",
      "outputs": [],
      "payable": false,
      "stateMutability": "nonpayable",
      "type": "function",
      "signature": "0x68742da6"
    },
    {
      "constant": true,
      "inputs": [],
      "name": "jackpot",
      "outputs": [
        {
          "name": "",
          "type": "uint256"
        }
      ],
      "payable": false,
      "stateMutability": "view",
      "type": "function",
      "signature": "0x6b31ee01"
    },
    {
      "constant": true,
      "inputs": [],
      "name": "gameRunning",
      "outputs": [
        {
          "name": "",
          "type": "bool"
        }
      ],
      "payable": false,
      "stateMutability": "view",
      "type": "function",
      "signature": "0x6e8c2caf"
    },
    {
      "constant": true,
      "inputs": [],
      "name": "lotteryOn",
      "outputs": [
        {
          "name": "",
          "type": "bool"
        }
      ],
      "payable": false,
      "stateMutability": "view",
      "type": "function",
      "signature": "0x6f1573c3"
    },
    {
      "constant": false,
      "inputs": [],
      "name": "renounceOwnership",
      "outputs": [],
      "payable": false,
      "stateMutability": "nonpayable",
      "type": "function",
      "signature": "0x715018a6"
    },
    {
      "constant": true,
      "inputs": [],
      "name": "owner",
      "outputs": [
        {
          "name": "",
          "type": "address"
        }
      ],
      "payable": false,
      "stateMutability": "view",
      "type": "function",
      "signature": "0x8da5cb5b"
    },
    {
      "constant": true,
      "inputs": [],
      "name": "isOwner",
      "outputs": [
        {
          "name": "",
          "type": "bool"
        }
      ],
      "payable": false,
      "stateMutability": "view",
      "type": "function",
      "signature": "0x8f32d59b"
    },
    {
      "constant": true,
      "inputs": [],
      "name": "minJackpot",
      "outputs": [
        {
          "name": "",
          "type": "uint256"
        }
      ],
      "payable": false,
      "stateMutability": "view",
      "type": "function",
      "signature": "0x911d0189"
    },
    {
      "constant": true,
      "inputs": [],
      "name": "oraclizeResult",
      "outputs": [
        {
          "name": "",
          "type": "uint256"
        }
      ],
      "payable": false,
      "stateMutability": "view",
      "type": "function",
      "signature": "0xbeac52ca"
    },
    {
      "constant": true,
      "inputs": [],
      "name": "minimumBet",
      "outputs": [
        {
          "name": "",
          "type": "uint256"
        }
      ],
      "payable": false,
      "stateMutability": "view",
      "type": "function",
      "signature": "0xc38a8afd"
    },
    {
      "constant": true,
      "inputs": [],
      "name": "feeJackpot",
      "outputs": [
        {
          "name": "",
          "type": "uint256"
        }
      ],
      "payable": false,
      "stateMutability": "view",
      "type": "function",
      "signature": "0xc4e7b6a4"
    },
    {
      "constant": false,
      "inputs": [],
      "name": "stopLottery",
      "outputs": [],
      "payable": false,
      "stateMutability": "nonpayable",
      "type": "function",
      "signature": "0xd5c62498"
    },
    {
      "constant": false,
      "inputs": [],
      "name": "fundGame",
      "outputs": [],
      "payable": true,
      "stateMutability": "payable",
      "type": "function",
      "signature": "0xe169bf6c"
    },
    {
      "constant": true,
      "inputs": [],
      "name": "lotteryRate",
      "outputs": [
        {
          "name": "",
          "type": "uint256"
        }
      ],
      "payable": false,
      "stateMutability": "view",
      "type": "function",
      "signature": "0xf2564737"
    },
    {
      "constant": false,
      "inputs": [
        {
          "name": "newOwner",
          "type": "address"
        }
      ],
      "name": "transferOwnership",
      "outputs": [],
      "payable": false,
      "stateMutability": "nonpayable",
      "type": "function",
      "signature": "0xf2fde38b"
    },
    {
      "constant": true,
      "inputs": [
        {
          "name": "",
          "type": "bytes32"
        }
      ],
      "name": "idToRounds",
      "outputs": [
        {
          "name": "",
          "type": "uint256"
        }
      ],
      "payable": false,
      "stateMutability": "view",
      "type": "function",
      "signature": "0xfa554f41"
    },
    {
      "inputs": [],
      "payable": false,
      "stateMutability": "nonpayable",
      "type": "constructor",
      "signature": "constructor"
    },
    {
      "payable": true,
      "stateMutability": "payable",
      "type": "fallback"
    },
    {
      "anonymous": false,
      "inputs": [
        {
          "indexed": false,
          "name": "message",
          "type": "string"
        }
      ],
      "name": "GameStarted",
      "type": "event",
      "signature": "0x4c49022e3faa3d594bcd4c0a41d358281ad8bb232d3d0cdb1add1e71a9daf266"
    },
    {
      "anonymous": false,
      "inputs": [
        {
          "indexed": false,
          "name": "_contract",
          "type": "address"
        },
        {
          "indexed": false,
          "name": "_player",
          "type": "address"
        },
        {
          "indexed": false,
          "name": "_risk",
          "type": "uint256"
        },
        {
          "indexed": false,
          "name": "_bet",
          "type": "uint256"
        }
      ],
      "name": "logPlayerBetAccepted",
      "type": "event",
      "signature": "0x0493f0ee102db9238dcfc674e3590d07343d625075476694341009d96d905539"
    },
    {
      "anonymous": false,
      "inputs": [
        {
          "indexed": false,
          "name": "_contract",
          "type": "address"
        },
        {
          "indexed": false,
          "name": "_player",
          "type": "address"
        },
        {
          "indexed": false,
          "name": "_description",
          "type": "string"
        }
      ],
      "name": "logRollDice",
      "type": "event",
      "signature": "0x5c624037da372bb459131a7137f1657ae380b2419ed6071d29d957c194ed200c"
    },
    {
      "anonymous": false,
      "inputs": [
        {
          "indexed": false,
          "name": "description",
          "type": "string"
        },
        {
          "indexed": false,
          "name": "_contract",
          "type": "address"
        },
        {
          "indexed": false,
          "name": "_player",
          "type": "address"
        },
        {
          "indexed": false,
          "name": "_rolledDiceNumber",
          "type": "uint256"
        },
        {
          "indexed": false,
          "name": "_betAmount",
          "type": "uint256"
        }
      ],
      "name": "logPlayerLose",
      "type": "event",
      "signature": "0x18008b5f6086bd3b79827452d1500916d620037ff83bf69d6d7e739040733d0f"
    },
    {
      "anonymous": false,
      "inputs": [
        {
          "indexed": false,
          "name": "description",
          "type": "string"
        },
        {
          "indexed": false,
          "name": "_contract",
          "type": "address"
        },
        {
          "indexed": false,
          "name": "_winner",
          "type": "address"
        },
        {
          "indexed": false,
          "name": "_rolledDiceNumber",
          "type": "uint256"
        },
        {
          "indexed": false,
          "name": "_profit",
          "type": "uint256"
        }
      ],
      "name": "logPlayerWins",
      "type": "event",
      "signature": "0xc4cfaea7e643952941f9703b6024c682372fc04075a3bf87687287b71f074469"
    },
    {
      "anonymous": false,
      "inputs": [
        {
          "indexed": false,
          "name": "description",
          "type": "string"
        }
      ],
      "name": "logNewOraclizeQuery",
      "type": "event",
      "signature": "0xd0f9dea447b4e92bc04cc421beba62dbef9e0f6d77e1d798c15ff591941edd70"
    },
    {
      "anonymous": false,
      "inputs": [
        {
          "indexed": false,
          "name": "_contractBalance",
          "type": "uint256"
        }
      ],
      "name": "logContractBalance",
      "type": "event",
      "signature": "0xd4a125efef1c3fca9f2d63ea257a143623b80df1843e34bf3bb8c3021739faf8"
    },
    {
      "anonymous": false,
      "inputs": [
        {
          "indexed": false,
          "name": "description",
          "type": "string"
        },
        {
          "indexed": false,
          "name": "_ownerAddress",
          "type": "address"
        },
        {
          "indexed": false,
          "name": "_ownerBalance",
          "type": "uint256"
        }
      ],
      "name": "logJackpotBalance",
      "type": "event",
      "signature": "0xd8846f41f4f0707db7a462eb57d3e2708cb1e9cb641b44000ca2edcd8cad1b8e"
    },
    {
      "anonymous": false,
      "inputs": [
        {
          "indexed": false,
          "name": "description",
          "type": "string"
        },
        {
          "indexed": false,
          "name": "_playerAddress",
          "type": "address"
        },
        {
          "indexed": false,
          "name": "_winAmount",
          "type": "uint256"
        }
      ],
      "name": "logPayWinner",
      "type": "event",
      "signature": "0x1d1f8e36149fc07505f5876cceb2ca561904e9e3a940effa716d74765df24c2e"
    },
    {
      "anonymous": false,
      "inputs": [
        {
          "indexed": false,
          "name": "description",
          "type": "string"
        },
        {
          "indexed": false,
          "name": "_maxAllowedBet",
          "type": "uint256"
        }
      ],
      "name": "logMaxAllowedBet",
      "type": "event",
      "signature": "0xadeaade94d61b1de6450a378938d3b7226431f1129423ef8b283f5991164fbc7"
    },
    {
      "anonymous": false,
      "inputs": [
        {
          "indexed": false,
          "name": "message",
          "type": "string"
        },
        {
          "indexed": false,
          "name": "queryId",
          "type": "bytes32"
        }
      ],
      "name": "LogGetRandomness",
      "type": "event",
      "signature": "0xaf1377970ad92b4d34c9f58cf958a17a5537f57bc9f97f126c28b07637e94be3"
    },
    {
      "anonymous": false,
      "inputs": [
        {
          "indexed": false,
          "name": "_rolledDiceNumber",
          "type": "uint256"
        }
      ],
      "name": "logRolledDiceNumber",
      "type": "event",
      "signature": "0x2a2a80fe64b9843e83b5281d100235d26f12d2c8a19427e7c64b7badede75e1b"
    },
    {
      "anonymous": false,
      "inputs": [
        {
          "indexed": false,
          "name": "winner",
          "type": "address"
        },
        {
          "indexed": false,
          "name": "jackpot",
          "type": "uint256"
        }
      ],
      "name": "LotteryWin",
      "type": "event",
      "signature": "0x59eb56f0aaebc4c2e1de6e254bc52af79350363a072c9ef59851f0d0861a9642"
    },
    {
      "anonymous": false,
      "inputs": [
        {
          "indexed": false,
          "name": "paidAddress",
          "type": "address"
        },
        {
          "indexed": false,
          "name": "amount",
          "type": "uint256"
        }
      ],
      "name": "Payment",
      "type": "event",
      "signature": "0xd4f43975feb89f48dd30cabbb32011045be187d1e11c8ea9faa43efc35282519"
    },
    {
      "anonymous": false,
      "inputs": [
        {
          "indexed": true,
          "name": "previousOwner",
          "type": "address"
        },
        {
          "indexed": true,
          "name": "newOwner",
          "type": "address"
        }
      ],
      "name": "OwnershipTransferred",
      "type": "event",
      "signature": "0x8be0079c531659141344cd1fd0a4f28419497f9722a3daafe3b4186f6b6457e0"
    },
    {
      "constant": false,
      "inputs": [],
      "name": "startGame",
      "outputs": [],
      "payable": false,
      "stateMutability": "nonpayable",
      "type": "function",
      "signature": "0xd65ab5f2"
    },
    {
      "constant": false,
      "inputs": [],
      "name": "stopGame",
      "outputs": [],
      "payable": false,
      "stateMutability": "nonpayable",
      "type": "function",
      "signature": "0x83bd72ba"
    },
    {
      "constant": true,
      "inputs": [
        {
          "name": "roundId",
          "type": "uint256"
        }
      ],
      "name": "getRoundInfo",
      "outputs": [
        {
          "name": "playerAddress",
          "type": "address"
        },
        {
          "name": "risk",
          "type": "uint256"
        },
        {
          "name": "betAmount",
          "type": "uint256"
        },
        {
          "name": "rolledDiceNumber",
          "type": "uint256"
        },
        {
          "name": "winner",
          "type": "address"
        }
      ],
      "payable": false,
      "stateMutability": "view",
      "type": "function",
      "signature": "0x88c3ffb0"
    },
    {
      "constant": false,
      "inputs": [
        {
          "name": "_choice",
          "type": "uint256"
        }
      ],
      "name": "playSoloRound",
      "outputs": [
        {
          "name": "",
          "type": "uint256"
        }
      ],
      "payable": true,
      "stateMutability": "payable",
      "type": "function",
      "signature": "0xb86a3159"
    },
    {
      "constant": false,
      "inputs": [
        {
          "name": "_roundId",
          "type": "uint256"
        }
      ],
      "name": "resolveRound",
      "outputs": [],
      "payable": false,
      "stateMutability": "nonpayable",
      "type": "function",
      "signature": "0x650b8725"
    },
    {
      "constant": false,
      "inputs": [
        {
          "name": "myid",
          "type": "bytes32"
        },
        {
          "name": "result",
          "type": "string"
        }
      ],
      "name": "__callback",
      "outputs": [],
      "payable": false,
      "stateMutability": "nonpayable",
      "type": "function",
      "signature": "0x27dc297e"
    },
    {
      "constant": false,
      "inputs": [
        {
          "name": "_myid",
          "type": "bytes32"
        },
        {
          "name": "_result",
          "type": "string"
        },
        {
          "name": "_proof",
          "type": "bytes"
        }
      ],
      "name": "__callback",
      "outputs": [],
      "payable": false,
      "stateMutability": "nonpayable",
      "type": "function",
      "signature": "0x38bbfa50"
    }
  ],
  "bytecode": "0x6080604052655af3107a40006007556103e86002026008556000600955662386f26fc10000600a5573fb6916095ca1df60bb79ce92ce3ea74c37c5d359600b60006101000a81548173ffffffffffffffffffffffffffffffffffffffff021916908373ffffffffffffffffffffffffffffffffffffffff1602179055506103e8600f55670de0b6b3a7640000601055601e601155605f6012556611c37937e080006013553480156100af57600080fd5b50336000806101000a81548173ffffffffffffffffffffffffffffffffffffffff021916908373ffffffffffffffffffffffffffffffffffffffff1602179055506000809054906101000a900473ffffffffffffffffffffffffffffffffffffffff1673ffffffffffffffffffffffffffffffffffffffff16600073ffffffffffffffffffffffffffffffffffffffff167f8be0079c531659141344cd1fd0a4f28419497f9722a3daafe3b4186f6b6457e060405160405180910390a373257dd0d60146ca00a9d3cd4dcb91bf5751677dca600260006101000a81548173ffffffffffffffffffffffffffffffffffffffff021916908373ffffffffffffffffffffffffffffffffffffffff1602179055506135bd806101d06000396000f3fe608060405260043610610200576000357c010000000000000000000000000000000000000000000000000000000090048063715018a61161011f578063c38a8afd116100b2578063e169bf6c11610081578063e169bf6c146109bb578063f2564737146109c5578063f2fde38b146109f0578063fa554f4114610a4157610200565b8063c38a8afd14610937578063c4e7b6a414610962578063d5c624981461098d578063d65ab5f2146109a457610200565b80638f32d59b116100ee5780638f32d59b14610870578063911d01891461089f578063b86a3159146108ca578063beac52ca1461090c57610200565b8063715018a61461072857806383bd72ba1461073f57806388c3ffb0146107565780638da5cb5b1461081957610200565b806327dc297e1161019757806368742da61161016657806368742da61461064e5780636b31ee011461069f5780636e8c2caf146106ca5780636f1573c3146106f957610200565b806327dc297e146103ad5780633580ecd01461047f57806338bbfa50146104aa578063650b87251461061357610200565b806312a0e070116101d357806312a0e070146102d95780631583deb214610314578063160344e21461036b5780631b9300e91461038257610200565b806306385b211461021d5780630c07122214610258578063101a440614610283578063127f0b3f146102ae575b61021534600d54610a9090919063ffffffff16565b600d81905550005b34801561022957600080fd5b506102566004803603602081101561024057600080fd5b8101908080359060200190929190505050610ab1565b005b34801561026457600080fd5b5061026d610ace565b6040518082815260200191505060405180910390f35b34801561028f57600080fd5b50610298610ad4565b6040518082815260200191505060405180910390f35b3480156102ba57600080fd5b506102c3610ada565b6040518082815260200191505060405180910390f35b3480156102e557600080fd5b50610312600480360360208110156102fc57600080fd5b8101908080359060200190929190505050610ae0565b005b34801561032057600080fd5b50610329610afd565b604051808273ffffffffffffffffffffffffffffffffffffffff1673ffffffffffffffffffffffffffffffffffffffff16815260200191505060405180910390f35b34801561037757600080fd5b50610380610b23565b005b34801561038e57600080fd5b50610397610c68565b6040518082815260200191505060405180910390f35b3480156103b957600080fd5b5061047d600480360360408110156103d057600080fd5b8101908080359060200190929190803590602001906401000000008111156103f757600080fd5b82018360208201111561040957600080fd5b8035906020019184600183028401116401000000008311171561042b57600080fd5b91908080601f016020809104026020016040519081016040528093929190818152602001838380828437600081840152601f19601f820116905080830192505050505050509192919290505050610c6e565b005b34801561048b57600080fd5b50610494610ddd565b6040518082815260200191505060405180910390f35b3480156104b657600080fd5b50610611600480360360608110156104cd57600080fd5b8101908080359060200190929190803590602001906401000000008111156104f457600080fd5b82018360208201111561050657600080fd5b8035906020019184600183028401116401000000008311171561052857600080fd5b91908080601f016020809104026020016040519081016040528093929190818152602001838380828437600081840152601f19601f8201169050808301925050505050505091929192908035906020019064010000000081111561058b57600080fd5b82018360208201111561059d57600080fd5b803590602001918460018302840111640100000000831117156105bf57600080fd5b91908080601f016020809104026020016040519081016040528093929190818152602001838380828437600081840152601f19601f820116905080830192505050505050509192919290505050610de3565b005b34801561061f57600080fd5b5061064c6004803603602081101561063657600080fd5b8101908080359060200190929190505050610de8565b005b34801561065a57600080fd5b5061069d6004803603602081101561067157600080fd5b81019080803573ffffffffffffffffffffffffffffffffffffffff169060200190929190505050610ec0565b005b3480156106ab57600080fd5b506106b4610fa4565b6040518082815260200191505060405180910390f35b3480156106d657600080fd5b506106df610faa565b604051808215151515815260200191505060405180910390f35b34801561070557600080fd5b5061070e610fbd565b604051808215151515815260200191505060405180910390f35b34801561073457600080fd5b5061073d610fd0565b005b34801561074b57600080fd5b506107546110a2565b005b34801561076257600080fd5b5061078f6004803603602081101561077957600080fd5b81019080803590602001909291905050506110b4565b604051808673ffffffffffffffffffffffffffffffffffffffff1673ffffffffffffffffffffffffffffffffffffffff1681526020018581526020018481526020018381526020018273ffffffffffffffffffffffffffffffffffffffff1673ffffffffffffffffffffffffffffffffffffffff1681526020019550505050505060405180910390f35b34801561082557600080fd5b5061082e61123e565b604051808273ffffffffffffffffffffffffffffffffffffffff1673ffffffffffffffffffffffffffffffffffffffff16815260200191505060405180910390f35b34801561087c57600080fd5b50610885611267565b604051808215151515815260200191505060405180910390f35b3480156108ab57600080fd5b506108b46112be565b6040518082815260200191505060405180910390f35b6108f6600480360360208110156108e057600080fd5b81019080803590602001909291905050506112c4565b6040518082815260200191505060405180910390f35b34801561091857600080fd5b50610921611908565b6040518082815260200191505060405180910390f35b34801561094357600080fd5b5061094c61190e565b6040518082815260200191505060405180910390f35b34801561096e57600080fd5b50610977611914565b6040518082815260200191505060405180910390f35b34801561099957600080fd5b506109a261191a565b005b3480156109b057600080fd5b506109b961194a565b005b6109c361195c565b005b3480156109d157600080fd5b506109da611979565b6040518082815260200191505060405180910390f35b3480156109fc57600080fd5b50610a3f60048036036020811015610a1357600080fd5b81019080803573ffffffffffffffffffffffffffffffffffffffff16906020019092919050505061197f565b005b348015610a4d57600080fd5b50610a7a60048036036020811015610a6457600080fd5b810190808035906020019092919050505061199e565b6040518082815260200191505060405180910390f35b6000808284019050838110151515610aa757600080fd5b8091505092915050565b610ab9611267565b1515610ac457600080fd5b80600f8190555050565b600a5481565b60125481565b60145481565b610ae8611267565b1515610af357600080fd5b80600a8190555050565b600b60009054906101000a900473ffffffffffffffffffffffffffffffffffffffff1681565b610b2b611267565b1515610b3657600080fd5b3073ffffffffffffffffffffffffffffffffffffffff1631600d5411151515610bc7576040517f08c379a000000000000000000000000000000000000000000000000000000000815260040180806020018281038252601d8152602001807f4a61636b706f74206c6f776572207468616e2053432062616c616e636500000081525060200191505060405180910390fd5b6010543073ffffffffffffffffffffffffffffffffffffffff163110158015610bf45750601054600d5410155b1515610c4b576040517f08c379a000000000000000000000000000000000000000000000000000000000815260040180806020018281038252602b815260200180613567602b913960400191505060405180910390fd5b6001600e60006101000a81548160ff021916908315150217905550565b60115481565b610c766119b6565b73ffffffffffffffffffffffffffffffffffffffff163373ffffffffffffffffffffffffffffffffffffffff16141515610cfb576040517f08c379a00000000000000000000000000000000000000000000000000000000081526004018080602001828103825260378152602001806134c26037913960400191505060405180910390fd5b610d036119b6565b73ffffffffffffffffffffffffffffffffffffffff163373ffffffffffffffffffffffffffffffffffffffff16141515610d3957fe5b610d4281611d2c565b600c81905550600060156000601660008681526020019081526020016000205481526020019081526020016000209050610d7b82611d2c565b81600601819055507f2a2a80fe64b9843e83b5281d100235d26f12d2c8a19427e7c64b7badede75e1b600c546040518082815260200191505060405180910390a1610dd86016600085815260200190815260200160002054611d40565b505050565b60095481565b505050565b60006015600083815260200190815260200160002090507f2a2a80fe64b9843e83b5281d100235d26f12d2c8a19427e7c64b7badede75e1b600c546040518082815260200191505060405180910390a1806004015481600601541115610eb3578060000160020160009054906101000a900473ffffffffffffffffffffffffffffffffffffffff168160080160006101000a81548173ffffffffffffffffffffffffffffffffffffffff021916908373ffffffffffffffffffffffffffffffffffffffff1602179055505b610ebc82611e18565b5050565b610ec8611267565b1515610ed357600080fd5b6000801515600660009054906101000a900460ff161515141515610f42576040517f08c379a000000000000000000000000000000000000000000000000000000000815260040180806020018281038252602c81526020018061353b602c913960400191505060405180910390fd5b8173ffffffffffffffffffffffffffffffffffffffff166108fc3073ffffffffffffffffffffffffffffffffffffffff16319081150290604051600060405180830381858888f19350505050158015610f9f573d6000803e3d6000fd5b505050565b600d5481565b600660009054906101000a900460ff1681565b600e60009054906101000a900460ff1681565b610fd8611267565b1515610fe357600080fd5b600073ffffffffffffffffffffffffffffffffffffffff166000809054906101000a900473ffffffffffffffffffffffffffffffffffffffff1673ffffffffffffffffffffffffffffffffffffffff167f8be0079c531659141344cd1fd0a4f28419497f9722a3daafe3b4186f6b6457e060405160405180910390a360008060006101000a81548173ffffffffffffffffffffffffffffffffffffffff021916908373ffffffffffffffffffffffffffffffffffffffff160217905550565b6110aa6121e2565b6110b261191a565b565b60008060008060006110c4613314565b60156000888152602001908152602001600020604051806101000160405290816000820160405180606001604052908160008201548152602001600182015481526020016002820160009054906101000a900473ffffffffffffffffffffffffffffffffffffffff1673ffffffffffffffffffffffffffffffffffffffff1673ffffffffffffffffffffffffffffffffffffffff1681525050815260200160038201548152602001600482015481526020016005820154815260200160068201548152602001600782015481526020016008820160009054906101000a900473ffffffffffffffffffffffffffffffffffffffff1673ffffffffffffffffffffffffffffffffffffffff1673ffffffffffffffffffffffffffffffffffffffff1681526020016008820160149054906101000a900460ff1615151515815250509050806000015160400151816000015160000151826060015183608001518460c00151849450955095509550955095505091939590929450565b60008060009054906101000a900473ffffffffffffffffffffffffffffffffffffffff16905090565b60008060009054906101000a900473ffffffffffffffffffffffffffffffffffffffff1673ffffffffffffffffffffffffffffffffffffffff163373ffffffffffffffffffffffffffffffffffffffff1614905090565b60105481565b60006001801515600660009054906101000a900460ff161515141515611335576040517f08c379a000000000000000000000000000000000000000000000000000000000815260040180806020018281038252602c81526020018061353b602c913960400191505060405180910390fd5b6014600081548092919060010191905055506000601454905060008490506000339050600034905060006113698285612282565b905060006113aa600261139c843073ffffffffffffffffffffffffffffffffffffffff163161233090919063ffffffff16565b61235290919063ffffffff16565b90507fadeaade94d61b1de6450a378938d3b7226431f1129423ef8b283f5991164fbc7816040518080602001838152602001828103825260168152602001807f4d6178696d756d206265742061636365707465643a20000000000000000000008152506020019250505060405180910390a13073ffffffffffffffffffffffffffffffffffffffff1631831015156114aa576040517f08c379a000000000000000000000000000000000000000000000000000000000815260040180806020018281038252601f8152602001807f4e6f7420656e6f7567682062616c616e636520666f722074686973206265740081525060200191505060405180910390fd5b6114b7836007548361237c565b151561152b576040517f08c379a000000000000000000000000000000000000000000000000000000000815260040180806020018281038252600d8152602001807f4e6f742076616c6964206265740000000000000000000000000000000000000081525060200191505060405180910390fd5b61153a85601154601254612396565b15156115ae576040517f08c379a000000000000000000000000000000000000000000000000000000000815260040180806020018281038252600e8152602001807f4e6f742076616c6964207269736b00000000000000000000000000000000000081525060200191505060405180910390fd5b7f0493f0ee102db9238dcfc674e3590d07343d625075476694341009d96d90553930858786604051808573ffffffffffffffffffffffffffffffffffffffff1673ffffffffffffffffffffffffffffffffffffffff1681526020018473ffffffffffffffffffffffffffffffffffffffff1673ffffffffffffffffffffffffffffffffffffffff16815260200183815260200182815260200194505050505060405180910390a1660e35fa931a000034101515156116d4576040517f08c379a00000000000000000000000000000000000000000000000000000000081526004018080602001828103825260158152602001807f6f7261636c652063616e6e6f742063616c6c206d65000000000000000000000081525060200191505060405180910390fd5b7f5c624037da372bb459131a7137f1657ae380b2419ed6071d29d957c194ed200c3085604051808373ffffffffffffffffffffffffffffffffffffffff1673ffffffffffffffffffffffffffffffffffffffff1681526020018273ffffffffffffffffffffffffffffffffffffffff1673ffffffffffffffffffffffffffffffffffffffff16815260200180602001828103825260428152602001806134f960429139606001935050505060405180910390a1846015600088815260200190815260200160002060040181905550826015600088815260200190815260200160002060050181905550836015600088815260200190815260200160002060000160020160006101000a81548173ffffffffffffffffffffffffffffffffffffffff021916908373ffffffffffffffffffffffffffffffffffffffff160217905550600061186e6040518060400160405280600381526020017f55524c00000000000000000000000000000000000000000000000000000000008152506040518060a001604052806068815260200161345a606891396123b0565b90508660166000838152602001908152602001600020819055507faf1377970ad92b4d34c9f58cf958a17a5537f57bc9f97f126c28b07637e94be3816040518080602001838152602001828103825260128152602001807f67657474696e672072616e646f6d6e65737300000000000000000000000000008152506020019250505060405180910390a18698505050505050505050919050565b600c5481565b60075481565b60135481565b611922611267565b151561192d57600080fd5b6000600e60006101000a81548160ff021916908315150217905550565b61195261296d565b61195a610b23565b565b61197134600d54610a9090919063ffffffff16565b600d81905550565b600f5481565b611987611267565b151561199257600080fd5b61199b81612a75565b50565b60166020528060005260406000206000915090505481565b60008073ffffffffffffffffffffffffffffffffffffffff16600260009054906101000a900473ffffffffffffffffffffffffffffffffffffffff1673ffffffffffffffffffffffffffffffffffffffff161480611a3e57506000611a3c600260009054906101000a900473ffffffffffffffffffffffffffffffffffffffff16612b6f565b145b15611a4f57611a4d6000612b7a565b505b600260009054906101000a900473ffffffffffffffffffffffffffffffffffffffff1673ffffffffffffffffffffffffffffffffffffffff166338cc48316040518163ffffffff167c0100000000000000000000000000000000000000000000000000000000028152600401602060405180830381600087803b158015611ad557600080fd5b505af1158015611ae9573d6000803e3d6000fd5b505050506040513d6020811015611aff57600080fd5b810190808051906020019092919050505073ffffffffffffffffffffffffffffffffffffffff16600160009054906101000a900473ffffffffffffffffffffffffffffffffffffffff1673ffffffffffffffffffffffffffffffffffffffff16141515611c6857600260009054906101000a900473ffffffffffffffffffffffffffffffffffffffff1673ffffffffffffffffffffffffffffffffffffffff166338cc48316040518163ffffffff167c0100000000000000000000000000000000000000000000000000000000028152600401602060405180830381600087803b158015611bec57600080fd5b505af1158015611c00573d6000803e3d6000fd5b505050506040513d6020811015611c1657600080fd5b8101908080519060200190929190505050600160006101000a81548173ffffffffffffffffffffffffffffffffffffffff021916908373ffffffffffffffffffffffffffffffffffffffff1602179055505b600160009054906101000a900473ffffffffffffffffffffffffffffffffffffffff1673ffffffffffffffffffffffffffffffffffffffff1663c281d19e6040518163ffffffff167c010000000000000000000000000000000000000000000000000000000002815260040160206040518083038186803b158015611cec57600080fd5b505afa158015611d00573d6000803e3d6000fd5b505050506040513d6020811015611d1657600080fd5b8101908080519060200190929190505050905090565b6000611d39826000612b8b565b9050919050565b60006015600083815260200190815260200160002090507f2a2a80fe64b9843e83b5281d100235d26f12d2c8a19427e7c64b7badede75e1b6103786040518082815260200191505060405180910390a1806004015481600601541115611e0b578060000160020160009054906101000a900473ffffffffffffffffffffffffffffffffffffffff168160080160006101000a81548173ffffffffffffffffffffffffffffffffffffffff021916908373ffffffffffffffffffffffffffffffffffffffff1602179055505b611e1482611e18565b5050565b600060156000838152602001908152602001600020905060003373ffffffffffffffffffffffffffffffffffffffff168260080160009054906101000a900473ffffffffffffffffffffffffffffffffffffffff1673ffffffffffffffffffffffffffffffffffffffff1614905060018260080160146101000a81548160ff02191690831515021790555080156120c0576000611ebd83600501548460040154612282565b905080836007018190555060008111156120be576000611eea828560050154610a9090919063ffffffff16565b905083600501543073ffffffffffffffffffffffffffffffffffffffff163110151515611f7f576040517f08c379a000000000000000000000000000000000000000000000000000000000815260040180806020018281038252600a8152602001807f63616e6e6f74207061790000000000000000000000000000000000000000000081525060200191505060405180910390fd5b7f1d1f8e36149fc07505f5876cceb2ca561904e9e3a940effa716d74765df24c2e8460000160020160009054906101000a900473ffffffffffffffffffffffffffffffffffffffff16856005015460405180806020018473ffffffffffffffffffffffffffffffffffffffff1673ffffffffffffffffffffffffffffffffffffffff1681526020018381526020018281038252600c8152602001807f5061792077696e6e65723a200000000000000000000000000000000000000000815250602001935050505060405180910390a18360000160020160009054906101000a900473ffffffffffffffffffffffffffffffffffffffff1673ffffffffffffffffffffffffffffffffffffffff166108fc829081150290604051600060405180830381858888f193505050501580156120bb573d6000803e3d6000fd5b50505b505b6000151581151514156121dd577f18008b5f6086bd3b79827452d1500916d620037ff83bf69d6d7e739040733d0f308360000160020160009054906101000a900473ffffffffffffffffffffffffffffffffffffffff168460060154856005015460405180806020018673ffffffffffffffffffffffffffffffffffffffff1673ffffffffffffffffffffffffffffffffffffffff1681526020018573ffffffffffffffffffffffffffffffffffffffff1673ffffffffffffffffffffffffffffffffffffffff1681526020018481526020018381526020018281038252600d8152602001807f506c61796572206c6f73653a20000000000000000000000000000000000000008152506020019550505050505060405180910390a15b505050565b6121ea611267565b15156121f557600080fd5b6001801515600660009054906101000a900460ff161515141515612264576040517f08c379a000000000000000000000000000000000000000000000000000000000815260040180806020018281038252602c81526020018061353b602c913960400191505060405180910390fd5b6000600660006101000a81548160ff02191690831515021790555050565b6000806000806000670de0b6b3a764000090506000660e35fa931a000090506122b48783612e2690919063ffffffff16565b92506122ca60648461235290919063ffffffff16565b92506122df8389612e2690919063ffffffff16565b94506122f4828661235290919063ffffffff16565b945061230b6013548661233090919063ffffffff16565b9350612320818561233090919063ffffffff16565b9350839550505050505092915050565b600082821115151561234157600080fd5b600082840390508091505092915050565b6000808211151561236257600080fd5b6000828481151561236f57fe5b0490508091505092915050565b600082841015801561238d57508184105b90509392505050565b600082841180156123a75750818411155b90509392505050565b60008073ffffffffffffffffffffffffffffffffffffffff16600260009054906101000a900473ffffffffffffffffffffffffffffffffffffffff1673ffffffffffffffffffffffffffffffffffffffff16148061243857506000612436600260009054906101000a900473ffffffffffffffffffffffffffffffffffffffff16612b6f565b145b15612449576124476000612b7a565b505b600260009054906101000a900473ffffffffffffffffffffffffffffffffffffffff1673ffffffffffffffffffffffffffffffffffffffff166338cc48316040518163ffffffff167c0100000000000000000000000000000000000000000000000000000000028152600401602060405180830381600087803b1580156124cf57600080fd5b505af11580156124e3573d6000803e3d6000fd5b505050506040513d60208110156124f957600080fd5b810190808051906020019092919050505073ffffffffffffffffffffffffffffffffffffffff16600160009054906101000a900473ffffffffffffffffffffffffffffffffffffffff1673ffffffffffffffffffffffffffffffffffffffff1614151561266257600260009054906101000a900473ffffffffffffffffffffffffffffffffffffffff1673ffffffffffffffffffffffffffffffffffffffff166338cc48316040518163ffffffff167c0100000000000000000000000000000000000000000000000000000000028152600401602060405180830381600087803b1580156125e657600080fd5b505af11580156125fa573d6000803e3d6000fd5b505050506040513d602081101561261057600080fd5b8101908080519060200190929190505050600160006101000a81548173ffffffffffffffffffffffffffffffffffffffff021916908373ffffffffffffffffffffffffffffffffffffffff1602179055505b6000600160009054906101000a900473ffffffffffffffffffffffffffffffffffffffff1673ffffffffffffffffffffffffffffffffffffffff1663524f3889856040518263ffffffff167c01000000000000000000000000000000000000000000000000000000000281526004018080602001828103825283818151815260200191508051906020019080838360005b8381101561270e5780820151818401526020810190506126f3565b50505050905090810190601f16801561273b5780820380516001836020036101000a031916815260200191505b5092505050602060405180830381600087803b15801561275a57600080fd5b505af115801561276e573d6000803e3d6000fd5b505050506040513d602081101561278457600080fd5b8101908080519060200190929190505050905062030d403a02670de0b6b3a7640000018111156127bb576000600102915050612967565b600160009054906101000a900473ffffffffffffffffffffffffffffffffffffffff1673ffffffffffffffffffffffffffffffffffffffff1663adf59f9982600087876040518563ffffffff167c0100000000000000000000000000000000000000000000000000000000028152600401808481526020018060200180602001838103835285818151815260200191508051906020019080838360005b83811015612873578082015181840152602081019050612858565b50505050905090810190601f1680156128a05780820380516001836020036101000a031916815260200191505b50838103825284818151815260200191508051906020019080838360005b838110156128d95780820151818401526020810190506128be565b50505050905090810190601f1680156129065780820380516001836020036101000a031916815260200191505b50955050505050506020604051808303818588803b15801561292757600080fd5b505af115801561293b573d6000803e3d6000fd5b50505050506040513d602081101561295257600080fd5b81019080805190602001909291905050509150505b92915050565b612975611267565b151561298057600080fd5b6000801515600660009054906101000a900460ff1615151415156129ef576040517f08c379a000000000000000000000000000000000000000000000000000000000815260040180806020018281038252602c81526020018061353b602c913960400191505060405180910390fd5b6001600660006101000a81548160ff0219169083151502179055507f4c49022e3faa3d594bcd4c0a41d358281ad8bb232d3d0cdb1add1e71a9daf26660405180806020018281038252600c8152602001807f67616d652073746172746564000000000000000000000000000000000000000081525060200191505060405180910390a150565b600073ffffffffffffffffffffffffffffffffffffffff168173ffffffffffffffffffffffffffffffffffffffff1614151515612ab157600080fd5b8073ffffffffffffffffffffffffffffffffffffffff166000809054906101000a900473ffffffffffffffffffffffffffffffffffffffff1673ffffffffffffffffffffffffffffffffffffffff167f8be0079c531659141344cd1fd0a4f28419497f9722a3daafe3b4186f6b6457e060405160405180910390a3806000806101000a81548173ffffffffffffffffffffffffffffffffffffffff021916908373ffffffffffffffffffffffffffffffffffffffff16021790555050565b6000813b9050919050565b6000612b84612e64565b9050919050565b600060608390506000809050600080905060008090505b8351811015612e075760308482815181101515612bbb57fe5b9060200101517f010000000000000000000000000000000000000000000000000000000000000090047f0100000000000000000000000000000000000000000000000000000000000000027f0100000000000000000000000000000000000000000000000000000000000000900460ff1610158015612cb9575060398482815181101515612c4557fe5b9060200101517f010000000000000000000000000000000000000000000000000000000000000090047f0100000000000000000000000000000000000000000000000000000000000000027f0100000000000000000000000000000000000000000000000000000000000000900460ff1611155b15612d6d578115612cdc576000861415612cd257612e07565b8580600190039650505b600a8302925060308482815181101515612cf257fe5b9060200101517f010000000000000000000000000000000000000000000000000000000000000090047f0100000000000000000000000000000000000000000000000000000000000000027f0100000000000000000000000000000000000000000000000000000000000000900460ff160383019250612dfa565b602e8482815181101515612d7d57fe5b9060200101517f010000000000000000000000000000000000000000000000000000000000000090047f0100000000000000000000000000000000000000000000000000000000000000027f0100000000000000000000000000000000000000000000000000000000000000900460ff161415612df957600191505b5b8080600101915050612ba2565b506000851115612e1a5784600a0a820291505b81935050505092915050565b600080831415612e395760009050612e5e565b60008284029050828482811515612e4c57fe5b04141515612e5957600080fd5b809150505b92915050565b600080612e84731d3b2638a7cc9f2cb3d298a3da7a90b67e5506ed612b6f565b1115612f2657731d3b2638a7cc9f2cb3d298a3da7a90b67e5506ed600260006101000a81548173ffffffffffffffffffffffffffffffffffffffff021916908373ffffffffffffffffffffffffffffffffffffffff160217905550612f1d6040518060400160405280600b81526020017f6574685f6d61696e6e65740000000000000000000000000000000000000000008152506132fa565b600190506132f7565b6000612f4573c03a2615d5efaf5f49f60b7bb6583eaec212fdf1612b6f565b1115612fe75773c03a2615d5efaf5f49f60b7bb6583eaec212fdf1600260006101000a81548173ffffffffffffffffffffffffffffffffffffffff021916908373ffffffffffffffffffffffffffffffffffffffff160217905550612fde6040518060400160405280600c81526020017f6574685f726f707374656e3300000000000000000000000000000000000000008152506132fa565b600190506132f7565b600061300673b7a07bcf2ba2f2703b24c0691b5278999c59ac7e612b6f565b11156130a85773b7a07bcf2ba2f2703b24c0691b5278999c59ac7e600260006101000a81548173ffffffffffffffffffffffffffffffffffffffff021916908373ffffffffffffffffffffffffffffffffffffffff16021790555061309f6040518060400160405280600981526020017f6574685f6b6f76616e00000000000000000000000000000000000000000000008152506132fa565b600190506132f7565b60006130c773146500cfd35b22e4a392fe0adc06de1a1368ed48612b6f565b11156131695773146500cfd35b22e4a392fe0adc06de1a1368ed48600260006101000a81548173ffffffffffffffffffffffffffffffffffffffff021916908373ffffffffffffffffffffffffffffffffffffffff1602179055506131606040518060400160405280600b81526020017f6574685f72696e6b6562790000000000000000000000000000000000000000008152506132fa565b600190506132f7565b6000613188736f485c8bf6fc43ea212e93bbf8ce046c7f1cb475612b6f565b11156131ec57736f485c8bf6fc43ea212e93bbf8ce046c7f1cb475600260006101000a81548173ffffffffffffffffffffffffffffffffffffffff021916908373ffffffffffffffffffffffffffffffffffffffff160217905550600190506132f7565b600061320b7320e12a1f859b3feae5fb2a0a32c18f5a65555bbf612b6f565b111561326f577320e12a1f859b3feae5fb2a0a32c18f5a65555bbf600260006101000a81548173ffffffffffffffffffffffffffffffffffffffff021916908373ffffffffffffffffffffffffffffffffffffffff160217905550600190506132f7565b600061328e7351efaf4c8b3c9afbd5ab9f4bbc82784ab6ef8faa612b6f565b11156132f2577351efaf4c8b3c9afbd5ab9f4bbc82784ab6ef8faa600260006101000a81548173ffffffffffffffffffffffffffffffffffffffff021916908373ffffffffffffffffffffffffffffffffffffffff160217905550600190506132f7565b600090505b90565b806003908051906020019061331092919061337a565b5050565b6040518061014001604052806133286133fa565b81526020016000801916815260200160008152602001600081526020016000815260200160008152602001600073ffffffffffffffffffffffffffffffffffffffff1681526020016000151581525090565b828054600181600116156101000203166002900490600052602060002090601f016020900481019282601f106133bb57805160ff19168380011785556133e9565b828001600101855582156133e9579182015b828111156133e85782518255916020019190600101906133cd565b5b5090506133f69190613434565b5090565b60405180606001604052806000815260200160008019168152602001600073ffffffffffffffffffffffffffffffffffffffff1681525090565b61345691905b8082111561345257600081600090555060010161343a565b5090565b9056fe68747470733a2f2f7777772e72616e646f6d2e6f72672f696e7465676572732f3f6e756d3d31266d696e3d2d31303030303030303030266d61783d3130303030303030303026636f6c3d3126626173653d313026666f726d61743d706c61696e26726e643d6e657744656e6965642061636365737320746f2063616c6c6261636b2066756e6374696f6e2c206f7261636c65206f6e6c7920616c6c6f7765644f7261636c697a6520717565727920746f2072616e646f6d2e6f7267207761732073656e742c207374616e64696e6720627920666f722074686520616e737765722e46756e6374696f6e20617661696c61626c65206f6e6c79207768656e2067616d652069732072756e6e696e674d696e696d756d204a61636b706f74206973206e656564656420666f72207374617274696e672067616d65a165627a7a723058204f38946589f8dbae28e45494c932059fec9f6d02b1b7c7e9f6e2b0d98499b3b30029",
  "source": "pragma solidity ^0.5.0;\n\n\nimport \"./GamblingGame.sol\";\nimport \"./oraclizeAPI.sol\";\nimport \"./LotteryGame.sol\";\n//import \"./StartStopGame.sol\";\n\n\n/** @title Dice - Dice game\n  * @author Rodrigo Gmez Gentil, Antonio Cruz Surez\n */\n\ncontract Dice is usingOraclize, GamblingGame, LotteryGame {\n\n    using SafeMath for uint;\n\n    // uint public minimumBet = 0.0001 ether;\n    uint public minimumRisk = 30;\n    uint public maximumRisk = 95;\n    uint public feeJackpot =  5000000000000000;  // Fund to jackpot 0.005 ether as a fee\n\n    // uint public jackpot = 0;\n\n    uint public roundCount;\n\n    struct Player {\n        uint choice;\n        bytes32 secretChoice;\n        address payable playerAddress;\n    }\n\n    // All oraclize calls will result in a common callback to __callback(...).\n    struct Round {\n        Player player;\n        bytes32 queryId;\n        uint    risk;\n        uint    betAmount;\n        uint    rolledDiceNumber;\n        uint    profit;\n        address payable winner;\n        bool    isClosed;\n    }\n\n    event GameStarted(string message);\n\n    mapping (uint => Round) rounds;\n    mapping (bytes32 => uint) public idToRounds;\n\n\n    // Events\n    event logPlayerBetAccepted(address _contract, address _player, uint _risk, uint _bet);\n    event logRollDice(address _contract, address _player, string _description);\n\n    event logPlayerLose(string description, address _contract, address _player, uint _rolledDiceNumber, uint _betAmount);\n    event logPlayerWins(string description, address _contract, address _winner, uint _rolledDiceNumber, uint _profit);\n    event logNewOraclizeQuery(string description);\n    event logContractBalance(uint _contractBalance);\n    event logJackpotBalance(string description, address _ownerAddress, uint _ownerBalance);\n    event logPayWinner(string description, address _playerAddress, uint _winAmount);\n    event logMaxAllowedBet(string description, uint _maxAllowedBet);\n\n\n    constructor()\n    public\n    {\n        // Replace the next line with your version:\n        OAR = OraclizeAddrResolverI(0x257dD0d60146ca00A9D3CD4DCb91bF5751677dCA);\n        // set Oraclize proof type\n        //oraclize_setProof(proofType_TLSNotary | proofStorage_IPFS);\n        //gameRunning = true;\n    }\n\n    // /**\n    // * @notice Callback function to emit the events with the information we want.\n    // * @dev Get the querys using the parameter myid\n    // * @param myid The id of the query\n    // * @param result The result of the query\n    // */\n    // function __callback(bytes32 myid, string memory result)\n    // public\n    // {\n    //     require (msg.sender == oraclize_cbAddress());\n\n    //     Round storage round = rounds[idToRounds[myid]];\n    //     round.rolledDiceNumber = parseInt(result);\n\n    //     emit logRolledDiceNumber(address(this), myid, round.risk, round.rolledDiceNumber);\n\n    //     _resolveRound(idToRounds[myid]);\n    // }\n\n    function startGame() public {\n        super.startGame();\n        startLottery();\n    }\n\n    function stopGame() public {\n        super.stopGame();\n        stopLottery();\n    }\n\n    function getRoundInfo(\n        uint roundId\n    )\n        external\n        view\n        returns(\n            address playerAddress,\n            //bytes32 queryId,\n            uint risk,\n            uint betAmount,\n            uint rolledDiceNumber,\n            //uint profit,\n            address payable winner\n        )\n    {\n        Round memory myRound = rounds[roundId];\n        return (\n            myRound.player.playerAddress,\n            myRound.player.choice,\n            myRound.betAmount,\n            myRound.rolledDiceNumber,\n            myRound.winner\n        );\n    }\n\n    function calculateProfit(uint betAmount, uint risk)\n    private\n    view\n    returns (uint)\n    {\n        uint grossProfit;\n        uint netProfit;\n        uint riskPercentage;\n        uint feeUnits = 1000000000000000000;\n        uint feeOraclize = 4000000000000000; // Oraclize service charges 0.004 Ether as a fee for querying random.org\n\n        riskPercentage = feeUnits.mul(risk);\n        riskPercentage = riskPercentage.div(100);\n        grossProfit = betAmount.mul(riskPercentage);\n        grossProfit = grossProfit.div(feeUnits);\n        netProfit = grossProfit.sub(feeJackpot);\n        netProfit = netProfit.sub(feeOraclize);\n\n        return (netProfit);\n\n    }\n\n    /**\n     * @notice Test if the risk assumed by the user is the minimum accepted by the game\n     * @param _risk : Risk assumed by the player\n     * @param _minimumRisk Indicates the minimum risk accepted to play the game\n     * @return True if the risk is over 30, False otherwise.\n     */\n    function isValidRisk (uint _risk, uint _minimumRisk, uint _maximumRisk)\n        internal\n        pure\n        returns (bool)\n    {\n        return ((_risk > _minimumRisk) && (_risk <= _maximumRisk));\n    }\n\n    function playSoloRound(uint _choice) public payable gameIsOn(true) returns(uint) {\n\n        roundCount++;\n        uint roundId = roundCount;\n\n        uint risk = _choice;\n        // bytes32 oraclizeQueryId;\n        address payable playerAddress = msg.sender;\n\n        uint betAmount = msg.value;\n        uint netPossibleProfit = calculateProfit(betAmount, risk);\n        uint maximumBet = address(this).balance.sub(netPossibleProfit).div(2);\n\n        emit logMaxAllowedBet(\"Maximum bet accepted: \", maximumBet);\n\n        require(betAmount < address(this).balance, \"Not enough balance for this bet\");\n        require(isValidBet(betAmount, minimumBet, maximumBet), \"Not valid bet\");\n        require(isValidRisk(risk, minimumRisk, maximumRisk), \"Not valid risk\");\n        emit logPlayerBetAccepted(address(this), playerAddress, risk, betAmount);\n        require(msg.value >= 0.004 ether, \"oracle cannot call me\");\n\n        // Making oraclized query to random.org.\n        emit logRollDice(address(this), playerAddress, \"Oraclize query to random.org was sent, standing by for the answer.\");\n        // bytes32 oraclizeQueryId = oraclize_query(\"URL\", \"https://www.random.org/integers/?num=1&min=1&max=100&col=1&base=10&format=plain&rnd=new\");\n        // // bytes32 oraclizeQueryId = oraclize_query(\"URL\", \"BA7vPyUltcy7z2vcvEA/BRCsjT1HicOkfyGReC7pcm+a+l0eTzv+gs7igzBF5LNGZG8LuOCfKKQY3hfRRWZ4VesMwWu7IrFrvHSeVI/ToLIxg62H9uujPvwcHqprCBM2vmtATUWmOExfnbe8Lbywedvh/R8mHfE83KMitNz5WC7/bIZRctSufbtGF+uLaoEiLJejjqT5CUl8XKQ2+KG2YCjJine1Sod0\");\n        // idToRounds[oraclizeQueryId] = roundId;\n        // Saving the struct\n        // rounds[roundId].queryId = oraclizeQueryId;\n        //rounds[roundCount].player = player;\n        rounds[roundId].risk = risk;\n        rounds[roundId].betAmount = betAmount;\n        rounds[roundId].player.playerAddress = playerAddress;\n        // rounds[roundId].rolledDiceNumber = _getRandomness(100);\n        //_getRandomness(100);\n        bytes32 oraclizeQueryId = oraclize_query(\"URL\", \"https://www.random.org/integers/?num=1&min=-1000000000&max=1000000000&col=1&base=10&format=plain&rnd=new\");\n        idToRounds[oraclizeQueryId] = roundId;\n\n        // bytes32 oraclizeQueryId = oraclize_query(\"URL\", \"https://www.random.org/integers/?num=1&min=0&max=1&col=1&base=10&format=plain&rnd=new\");\n        emit LogGetRandomness(\"getting randomness\", oraclizeQueryId);\n        // _resolveRound(roundId);\n\n        return roundId;\n    }\n\n    function _resolveRound(uint _roundId) private {\n        Round storage round = rounds[_roundId];\n        emit logRolledDiceNumber(888);\n        // If the number of the rolled dice is higher than the assumed risk then the player wins\n        if(round.rolledDiceNumber > round.risk) {\n            round.winner = round.player.playerAddress;\n        }\n\n        _payRound(_roundId);\n    }\n\n    function resolveRound(uint _roundId) public {\n        Round storage round = rounds[_roundId];\n        emit logRolledDiceNumber(oraclizeResult);\n        // If the number of the rolled dice is higher than the assumed risk then the player wins\n        if(round.rolledDiceNumber > round.risk) {\n            round.winner = round.player.playerAddress;\n        }\n\n        _payRound(_roundId);\n    }\n\n    function _checkWinner(Player memory player1, Player memory player2) private pure returns(address payable) {\n        if ((uint(player1.choice) + 1) % 3 == uint(player2.choice)) {\n            return player2.playerAddress;\n        } else if ((uint(player1.choice) + 2) % 3 == uint(player2.choice)) {\n            return player1.playerAddress;\n        } else {\n            return address(0);\n        }\n    }\n\n    function _payRound(uint _roundId) private {\n\n        Round storage round = rounds[_roundId];\n        bool playerWins = round.winner == msg.sender;\n        round.isClosed = true;\n        if(playerWins) {\n\n            // Calculate player profit\n            uint netProfit = calculateProfit(round.betAmount, round.risk);\n\n            round.profit = netProfit;\n            //emit logPlayerWins(\"Player wins: \", address(this), round.player.playerAddress, round.rolledDiceNumber, netProfit);\n\n             if(netProfit > 0) {\n                // payWinner(round.player.playerAddress, round.betAmount, netProfit);\n                uint winAmount = round.betAmount.add(netProfit);\n                require( address(this).balance >= round.betAmount, \"cannot pay\" );\n                emit logPayWinner(\"Pay winner: \", round.player.playerAddress, round.betAmount);\n                round.player.playerAddress.transfer(winAmount);\n             }\n\n         }\n\n         if(playerWins==false) {\n             emit logPlayerLose(\"Player lose: \",address(this), round.player.playerAddress, round.rolledDiceNumber, round.betAmount);\n        }\n    }\n\n    function _playLottery(address payable playerAddress, uint _roundId) private returns (bool) {\n        return false;\n    }\n\n    event LogGetRandomness(string message, bytes32 queryId);\n    function _getRandomness(uint range) internal {\n        //bytes32 oraclizeQueryId = oraclize_query(\"URL\", \"https://www.random.org/integers/?num=1&min=1&max=100&col=1&base=10&format=plain&rnd=new\");\n        // bytes32 oraclizeQueryId = oraclize_query(\"URL\", \"BA7vPyUltcy7z2vcvEA/BRCsjT1HicOkfyGReC7pcm+a+l0eTzv+gs7igzBF5LNGZG8LuOCfKKQY3hfRRWZ4VesMwWu7IrFrvHSeVI/ToLIxg62H9uujPvwcHqprCBM2vmtATUWmOExfnbe8Lbywedvh/R8mHfE83KMitNz5WC7/bIZRctSufbtGF+uLaoEiLJejjqT5CUl8XKQ2+KG2YCjJine1Sod0\");\n        bytes32 oraclizeQueryId = oraclize_query(\"URL\", \"https://www.random.org/integers/?num=1&min=-1000000000&max=1000000000&col=1&base=10&format=plain&rnd=new\");\n        emit LogGetRandomness(\"getting randomness\", oraclizeQueryId);\n        //return (oraclizeResult + 1000000000) % range;\n    }\n\n    event logRolledDiceNumber(uint _rolledDiceNumber);\n    /**\n    * @notice Callback function to emit the events with the information we want.\n    * @dev Get the querys using the parameter myid\n    * @param myid The id of the query\n    * @param result The result of the query\n    */\n    function __callback(bytes32 myid, string memory result)\n    public\n    {\n        //emit logRolledDiceNumber(888);\n        require (msg.sender == oraclize_cbAddress(), \"Denied access to callback function, oracle only allowed\");\n        assert (msg.sender == oraclize_cbAddress());\n        oraclizeResult = parseInt(result);\n\n        Round storage round = rounds[idToRounds[myid]];\n        round.rolledDiceNumber = parseInt(result);\n\n        emit logRolledDiceNumber(oraclizeResult);\n        // _resolveRound(roundCount);\n\n        _resolveRound(idToRounds[myid]);\n    }\n}",
  "sourcePath": "/home/rggentil/Documents/master_ethereum/BLOCKCHAINTFM/RPS_commit_and_reveal/contracts/Dice.sol",
  "compiler": {
    "name": "solc",
    "version": "0.5.5+commit.47a71e8f.Emscripten.clang"
  },
  "schemaVersion": "3.0.6",
  "updatedAt": "2019-04-04T20:35:30.766Z",
  "devdoc": {
    "author": "Rodrigo Gmez Gentil, Antonio Cruz Surez",
    "methods": {
      "__callback(bytes32,string)": {
        "details": "Get the querys using the parameter myid",
        "params": {
          "myid": "The id of the query",
          "result": "The result of the query"
        }
      },
      "fundGame()": {
        "details": "It's just the same as fallback function."
      },
      "isOwner()": {
        "return": "true if `msg.sender` is the owner of the contract."
      },
      "owner()": {
        "return": "the address of the owner."
      },
      "renounceOwnership()": {
        "details": "Allows the current owner to relinquish control of the contract."
      },
      "setLotteryRate(uint256)": {
        "details": "Mostly for testing porpuse. It should be removed in final deployment or no modifiable by anyone",
        "params": {
          "newLotteryRate": "new lottery rate"
        }
      },
      "setminBusinessFeePayment(uint256)": {
        "details": "Mostly for testing porpuse. It should be removed in final deployment or no modifiable by anyone",
        "params": {
          "newMinBusinessFeePayment": "new min amount of ETH to transfer to business"
        }
      },
      "transferOwnership(address)": {
        "details": "Allows the current owner to transfer control of the contract to a newOwner.",
        "params": {
          "newOwner": "The address to transfer ownership to."
        }
      },
      "withdrawFunds(address)": {
        "params": {
          "_myAddress": "addres to withdraw funds to"
        }
      }
    },
    "title": "Dice - Dice game"
  },
  "userdoc": {
    "methods": {
      "__callback(bytes32,string)": {
        "notice": "Callback function to emit the events with the information we want."
      },
      "fundGame()": {
        "notice": "Payable, to fund game by adding ethers to contract and to the jackpot"
      },
      "renounceOwnership()": {
        "notice": "Renouncing to ownership will leave the contract without an owner. It will not be possible to call the functions with the `onlyOwner` modifier anymore."
      },
      "setLotteryRate(uint256)": {
        "notice": "Set the lottery rate in percentage, how easy is to hit the jackpot"
      },
      "setminBusinessFeePayment(uint256)": {
        "notice": "Set the minimum amount of ETH to be transfered when collecting business fees"
      },
      "startLottery()": {
        "notice": "Start lottery (this means playing for jackpot)"
      },
      "stopLottery()": {
        "notice": "Stop lottery (this means stop playing for jackpot)"
      },
      "withdrawFunds(address)": {
        "notice": "Withdraw funds in case of an emergengy. Set jackpot to 0."
      }
    }
  }
}